:020000040800F2
:10000000786E00204D030008D73E0008AD3600088A
:10001000D53E0008291A0008A1560008000000007B
:100020000000000000000000000000008D02000839
:100030003D1B000800000000E90200080D4F000809
:1000400067030008670300086703000867030008E8
:1000500067030008670300086703000867030008D8
:1000600067030008670300086703000867030008C8
:1000700067030008670300086703000867030008B8
:1000800067030008670300086703000867030008A8
:100090006703000867030008670300086703000898
:1000A0006703000867030008670300086703000888
:1000B0006703000867030008670300086703000878
:1000C0006703000867030008670300086703000868
:1000D00067030008C5550008F95500082D560008AB
:1000E0006703000867030008670300086703000848
:1000F0006703000867030008670300086703000838
:100100006703000867030008670300086703000827
:100110007D520008F1520008CD4F00086703000827
:100120006703000867030008670300086703000807
:1001300067030008670300086703000867030008F7
:1001400067030008670300086703000867030008E7
:1001500067030008670300086703000839560008B2
:1001600067030008670300086703000867030008C7
:100170006703000867030008670300080000000029
:10018000670300086703000800F002F800F06FF84A
:100190000AA090E8000C82448344AAF10107DA45E2
:1001A00001D100F064F8AFF2090EBAE80F0013F0C5
:1001B000010F18BFFB1A43F001031847148B00000E
:1001C000348B00000A444FF0000C10F8013B13F090
:1001D000070408BF10F8014B1D1108BF10F8015BA0
:1001E000641E05D010F8016B641E01F8016BF9D193
:1001F00013F0080F1EBF10F8014BAD1C0C1B09D1EA
:100200006D1E58BF01F801CBFAD505E014F8016B5B
:1002100001F8016B6D1EF9D59142D6D370470000ED
:100220000023002400250026103A28BF78C1FBD8FF
:10023000520728BF30C148BF0B607047662907F0DE
:100240009F86642900F06081732900F0F08500200A
:1002500070471FB507F08FFE00F010FE040000206D
:10026000002107F0FBFDE0601FBD10B510BD00F0E0
:1002700009FF1146FFF7EDFF05F04CFF00F027FFE7
:1002800003B4FFF7F2FF03BC00F02AFF2C4B196800
:100290000868B0E8F04F80F30988BFF36F8F4FF024
:1002A000000080F3118870470000000008480068D3
:1002B000006880F308884FF0000080F3148862B66D
:1002C00061B6BFF34F8FBFF36F8F00DF00BF00BF7A
:1002D00008ED00E0DFF80C00016841F470010160F6
:1002E000704700BF88ED00E0EFF30980BFF36F8F28
:1002F000134B1A681EF0100F08BF20ED108A20E97A
:10030000F04F106009B44FF0500080F31188BFF334
:100310004F8FBFF36F8F06F0FFFE4FF0000080F3AA
:10032000118809BC19680868B0E8F04F1EF0100F7A
:1003300008BFB0EC108A80F30988BFF36F8F704755
:10034000AC010020EFF305807047000009488047AA
:1003500009480047FEE7FEE7FEE7FEE7FEE7FEE7A7
:10036000FEE7FEE7FEE7FEE704480549054A064BBF
:1003700070470000BD4F0008890100087868002020
:10038000786E0020786A0020786A002053EA020C18
:1003900000F069802DE9F04B4FF00006002B1FBFE5
:1003A000B3FA83F503FA05F424FA05F65E4012BFAA
:1003B0001643B2FA82F502FA05F4C5F120051EBF14
:1003C00022FA05FC44EA0C04203556EA044C4FEAB4
:1003D000144418BF641C4FF000084FF0000990420D
:1003E00071EB030C39D3002919BFB1FA81F701FA77
:1003F00007F6B0FA80F700FA07F6C7F120071EBF2C
:1004000020FA07FC46EA0C062037B6FBF4FCA7EB03
:100410000507103F07F01F0BCBF120060CFA0BFB72
:100420002CFA06F644BFB3460026202FA4BF5E4632
:100430004FF0000B5BEA060C08BF4FF0010B19EB05
:100440000B09ABFB027C48EB0608C01B06FB02CC89
:100450000BFB03CC71EB0C01C1E70B460246414696
:100460004846BDE8F08B13B54FF000004FF0000197
:10047000AFF30080BDE81C40704700000FB47CB5AE
:100480000C0009AA009001D02044401E084B7B4478
:1004900069460190089800F098FC05461CB10020C0
:1004A000694600F0A5FC28467CBC5DF814FB000002
:1004B0006909000070B50C460546012A05D0287868
:1004C000800600D5EA69002302E0012305E05B1CF9
:1004D000934202D2E05C0028F9D1A869E618C01A5C
:1004E000A861286A184428622846AFF3008004E017
:1004F000D5E9012114F8010B9047B442F8D32846FE
:10050000AFF3008070BD00002DE9F04106460024E5
:1005100010687529314616A510D0AFF30080002869
:1005200002DA404213A507E031688A0701D512A517
:1005300002E0490704D511A5012401E0AFF30080D2
:1005400000210A2206F1240709E0B0FBF2FCB0FB0F
:10055000F2F302FB1C00303078541846491C002886
:10056000F3D123462A463046BDE8F04100F0C0B939
:10057000000000002D0000002B0000002000000003
:100580002DE9F05F894604464FF0000ADFF874B1A8
:10059000FB44C0F820A02046E1688847002874D0BA
:1005A000252806D0D4E901219047206A401C20620A
:1005B000F1E700265F462046E16888472028054687
:1005C00007DB312D05D2781910F8200C08B106434D
:1005D000F1E7B00701D526F00406C4F81CA00027F7
:1005E000C4F818A02A2D09D0284605F08BFD38B391
:1005F00004EB8708303DC8F8185019E059F8041B7F
:10060000204604EB87029161E1688847012F054687
:1006100018D1E069002820DA26F020061DE0D8F87D
:10062000180000EB800005EB40003038C8F81800D7
:100630002046E1688847054605F064FD0028EED1B4
:10064000012F0AD02E2D08D12046E16888477F1C53
:100650000546022F46F02006C4DBA069002803DA15
:10066000404246F00106A061F00701D026F01006D6
:100670006C2D0BD0682D09D04C2D39D06A2D35D07A
:10068000742D35D07A2D33D016E038E0E1682F464E
:1006900020468847B842054609D16C2F26D04FF432
:1006A0008060E168064320468847054604E06C2FD9
:1006B0001AD04FF4807006430DB3A5F141001928FC
:1006C00002D8203546F400664A4629462046266070
:1006D0004E46FFF7B3FD80B101280BD0F61D26F082
:1006E000070000F1080956E74020E4E78020D8E73A
:1006F0000020D6E706F104094DE7284652E7206AB4
:10070000BDE8F09F14860000032A40F2308010F00C
:10071000030C00F0158011F8013BBCF1020F62449C
:1007200098BF11F801CB00F8013B38BF11F8013B2D
:10073000A2F1040298BF00F801CB38BF00F8013BDA
:1007400011F0030300F02580083AC0F0088051F84A
:10075000043B083A51F804CBA0E80810F5E7121D55
:100760005CBF51F8043B40F8043BAFF30080D20774
:1007700024BF11F8013B11F801CB48BF11F8012B40
:1007800024BF00F8013B00F801CB48BF00F8012B63
:10079000704710B5203AC0F00B80B1E81850203AED
:1007A000A0E81850B1E81850A0E81850BFF4F5AF11
:1007B0005FEA027C24BFB1E81850A0E8185044BF9B
:1007C00018C918C0BDE810405FEA827C24BF51F808
:1007D000043B40F8043B08BF7047D20728BF31F8FC
:1007E000023B48BF11F8012B28BF20F8023B48BF4D
:1007F00000F8012B704702F0FF0343EA032242EAAC
:10080000024200F01ABB4FF0000200B513469446B6
:100810009646203922BFA0E80C50A0E80C50B1F158
:100820002001BFF4F7AF090728BFA0E80C5048BF6C
:100830000CC05DF804EB890028BF40F8042B08BF0A
:10084000704748BF20F8022B11F0804F18BF00F806
:10085000012B70474FF0013C50F8042B51F8043B3A
:100860009A4221D1A2EB0C03934313EACC1317D184
:1008700050F8042B51F8043B9A4215D1A2EB0C031B
:10088000934313EACC130BD150F8042B51F8043BDB
:100890009A4209D1A2EB0C03934313EACC13DBD0A9
:1008A0004FF00000704700BFD01A01BAB1FA81F1D1
:1008B00001F0180122FA01F0CB40C1F12001DBB2B6
:1008C000C0B2C01A2CFA01F3D11A914311EAC31134
:1008D000E6D1704770477047704710B500F0D2FA04
:1008E000006810BD10B5044600F0CCFA046010BDDD
:1008F0002DE9F0470D4699469246044600F124083A
:100900000168880604D5E06921F01001216000E04B
:100910000120A84201DD471B00E00027A1697A19E8
:1009200002EB0900081AA0612078C00602D4204614
:10093000AFF30080002608E0D4E901211AF8060090
:100940009047206A401C761C20624E45F4DB2078DC
:10095000C0060AD52046AFF3008006E0D4E90121A5
:1009600030209047206A401C2062381EA7F1010702
:10097000F4DC07E0D4E9012118F805009047206A6B
:10098000401C2062281EA5F10105F3DC2046AFF3D0
:1009900000802078000602D50220BDE8F087012003
:1009A000FBE770472DE9FF4F0C461E464FF0FF371F
:1009B0008BB0D2E90001DDF860800A908A46C1F36D
:1009C0000A5505B93D46002108464FF00000BAF12E
:1009D000000F00F4400005DA00EB80004FF4400106
:1009E00001EA50004FEA9059B9F1010F00DDB94614
:1009F0000A9850EA4A000ED044F61050A5F2FF358E
:100A000045432F14B8F1000F1ED07542291E1EDD7C
:100A1000C9F100021CE0B8F1010F4FF0000001D055
:100A2000302103E0F24305E02154401CB042FBDBDF
:100A300030460022002121540B99C1F80880C1E9F9
:100A400000200FB0BDE8F08FBD1B6D1CDEE74A46ED
:100A500000DA694206A800F09FFA06AB93E80700A7
:100A600003AB83E8070050460A9900F040FB8DE88D
:100A70000700A0F500501F3800900398002D0ADDF4
:100A800042F21F014A460844002303A90390684626
:100A900000F0A9FD09E0A0F500504A461F380023E8
:100AA00003A90390684600F0B3FD8DE80700000439
:100AB000000C03D04FF0FF30410800E01046B8F1C1
:100AC000000F03D00022009215461EE0751E05D4CB
:100AD00000F0DCF9303262556D1EF9D5B3460122C3
:100AE000084302D000227F1C04E02078302801D186
:100AF00000227F1E002A099784D01DE0112D07DAFD
:100B000000F0C4F9303262556D1C50EA0102F5D193
:100B1000084302D00098C8B10EE00021681E05E02D
:100B2000235C625C63542254401E491C8142F7DB03
:100B3000AB46A81B401E0990002004F80B000B9840
:100B4000099AC0F80880C0E9002B7AE711264FF017
:100B5000000857E72DE9F04F88460446D21D22F0E1
:100B6000070191B0D1E90001CDE90A0104F002FFCB
:100B700002460B98C00F01D02D2007E020688107A6
:100B800001D52B2002E0202101EAC000032A0990B0
:100B900001D0072A05DB03464146204600F0BCF998
:100BA0000BE12078800601D5E06900E00620B8F16D
:100BB000650F814606D0B8F1660F18D0B8F1670FFF
:100BC00070D131E00020B9F1110F009001DB112349
:100BD00001E009F101030AAA01A90CA8FFF7E2FE4E
:100BE000DDE90C70002609F10105834647E001208C
:100BF0004B4600904FF000470AAA01A90CA8FFF746
:100C0000D1FEDDE90DB00C995D46002610B909F161
:100C100001000D18B9EB050003D4C0F1FF3609F14E
:100C20000105A5EB09002BE0B9F1010F01DA4FF046
:100C300001090020B9F1110F0090484601DD112390
:100C400000E003460AAA01A90CA8FFF7ABFEDDE904
:100C50000C704D4600268346207800070AD4AB4529
:100C600000DA5D4601A8012D04DD411911F8011CCF
:100C7000302907D04F4502DA17F1040F04DA0120BA
:100C800082460FE06D1EEEE7002F02DCED1B3E44B6
:100C900003E0781CA84200DD7D1CB81B00F1010AAE
:100CA0004FF000472078000703D4AA4501DB4FF03E
:100CB000FF3A0021B7F1004F0DF143088DF84310C2
:100CC00024D002202B23002F01DA7F422D230A217A
:100CD000021EA0F1010000DC5FB197FBF1FC97FB65
:100CE000F1F201FB1C7C17460CF1300C08F801CD29
:100CF000EEE7A8F1010003702188090501D545211F
:100D000000E06521A0F1010800F8011C09980FA975
:100D1000A1EB0807FF1D00B10120411901EBEA70AA
:100D2000A1693844081A401EA0612078C00602D488
:100D30002046AFF30080099828B1D4E901219047FB
:100D4000206A401C20622078C00622D52046AFF3DE
:100D500000801EE0002E04DBB34502DD01A8805DAB
:100D600000E03020D4E901219047206A401C206235
:100D7000761CAAF101005FEA000A0AD100F07EF8B1
:100D8000C0680168405CD4E901219047206A401C9A
:100D90002062281EA5F10105DCDC07E0D4E9012171
:100DA00018F8010B9047206A401C2062381EA7F1FA
:100DB0000107F3DC2046AFF30080032011B041E6C9
:100DC00001694A1C02610878704700B58FB0CDE90F
:100DD00001310021059105497944CDE903101146FF
:100DE0006846FFF7CDFB0FB000BD0000E5FFFFFF39
:100DF0000A6802F8010B0A607047D1E900239A42A1
:100E000002D2531C0B601070704710B5436913B1C8
:100E1000AFF3008001E0FFF74DFB012010BD127819
:100E200000F124010A7000224A700122EDE71168E6
:100E30004FF0FF32E9E74FF000020429C0F01280C2
:100E400010F0030C3FF4E1ACCCF1040CBCF1020F48
:100E500018BF00F8012BA8BF20F8022BA1EB0C0152
:100E6000FFF7D3BC5FEAC17C24BF00F8012B00F878
:100E7000012B48BF00F8012B704700000048704765
:100E800038680020004870471868002030B5B0F17D
:100E90000A024FEA900E71F100034EEA817EB0EB38
:100EA0000E0061EB91014FEA101E4EEA017E10EB3D
:100EB0000E0041EB11114FEA102E4EEA016E10EBBD
:100EC0000E0041EB11214FEA104E4EEA014E10EB9D
:100ED0000E0041EB1141401841F100014FEAD000F2
:100EE00040EA41704FEAD10110EB80054FEA8104DE
:100EF00044EA907444EB01046D1944EB0404521B62
:100F0000A3414FF0000348BF0A3200D530BD401C5A
:100F100041F1000130BD00002DE9F0411F460446BB
:100F200003260168072A01F4006004DB08B116A556
:100F300005E016A503E008B115A500E015A521F010
:100F400010002060A069C01EA0610FB1401EA0610A
:100F50002046AFF300804FB1D4E9012138469047D5
:100F6000206A401C2062C01C206206E0206AFAE76A
:100F7000D4E9012115F8010B9047761EF8D22046DE
:100F8000AFF30080BDE8F0814E414E006E616E000F
:100F9000494E4600696E66002DE9F04781461646C7
:100FA0008AB0354878440DC88DE80D003248784441
:100FB000801C03AC0DC884E80D0041F69B3008444A
:100FC000372190FBF1F290FBF1F5A5F1800501FBD3
:100FD00012041B3C02D56442012000E00020DFF82F
:100FE00098A080460027FA44AAF1BE0A0EE0E00766
:100FF0000AD03246684607EB470101230AEB81011C
:1010000000F006FB8DE8070064107F1C002CEED179
:10101000194F7F44AE3F19E0E80715D007EB0410E5
:101020000DF1180A90E80E008AE80E00C068F04240
:1010300001D1981908903246012306A903A800F0AF
:10104000E7FA03AB83E807006D10641C002DE3D1C1
:101050004FF0010332466946B8F1000F03A802D0F1
:1010600000F0C1FA01E000F0D3FAC9E90001C9F8C3
:1010700008200AB0BDE8F087B07C00000048704747
:10108000186800207546FFF7F9FFAE46050069466F
:10109000534620F00700854618B020B5FFF764F9E5
:1010A000BDE820404FF000064FF000074FF0000869
:1010B0004FF0000B21F00701AC46ACE8C009ACE8EA
:1010C000C009ACE8C009ACE8C0098D46704710B54E
:1010D0000446AFF300802046BDE81040FFF7D0B8CB
:1010E00001491820ABBEFEE72600020070475FEA08
:1010F000400C08BF91F0000F4FEA8C234FEAC12249
:1011000043EA51514FEA1C5018BF00F5F0404FEA36
:10111000300018BF41F000415FEA6C5C00F02980AC
:10112000BCF1FF3F08BF40F080407047130C06BF82
:1011300012044FF0100C4FF0000C130E04BF1202FB
:101140000CF1080C130F04BF12010CF1040C930FE7
:1011500004BF92000CF1020CD30F04BF52000CF13B
:10116000010C11464FF00002A0F11F00A0EB0C0093
:10117000704711F0004F08BF704731F000413FF455
:10118000D5AF0B0C06BF09044FF0100C4FF0000C4C
:101190000B0E04BF09020CF1080C0B0F04BF090170
:1011A0000CF1040C8B0F04BF89000CF1020CCB0F67
:1011B00004BF49000CF1010CCCF12003A0EB0C00A2
:1011C00022FA03F302FA0CF241EA030100F10100F2
:1011D000704720F07F4C80EA030023F07F47ACEBA0
:1011E000070303F57C5300F0004003F1FF032DE9F2
:1011F00080494FEA154B09B44FEA144325EA0B4ED8
:1012000024EA03480FF2042606EB132749083E7828
:101210005FEA320203FB0667C7F5000707FB06F625
:101220004FEA54374FEAD64606F1020607FB066C32
:10123000CCF1005C4FEA1C472CEA074C07FB06F494
:101240000CFB06F504EB15464FEA961634BF00205A
:101250004FF000404FEAD13706FB07FC4FEA1C4C29
:101260000CFB0BF7D21B03FB0CF761EB07010CFB2C
:101270000EF7B0EB074072EB17420CFB08F734BFD8
:10128000A2EB0742B2EB074261EB17414FEA0C4475
:101290004FEA910706FB07FC4FEA1C4C0CFB0BF7CF
:1012A000B0EBC74072EB573203FB0CF734BFA2EB35
:1012B000C742B2EBC74261EB57310CFB0EF7B0EB04
:1012C000C70072EB57720CFB08F734BFA2EBC702E2
:1012D000B2EBC70261EB5771039F4FEA816141EAAC
:1012E000921104EBCC044FEAD1374FEA826206FB3D
:1012F00007FC42EA90124FEA80604FEA1C4C0CFB5C
:101300000BF7D21B03FB0CF761EB07010CFB0EF78D
:10131000B0EB074072EB17420CFB08F734BFA2EBAF
:101320000742B2EB074261EB17414FEA8C554FEA97
:10133000910704EB9C2406FB07FC4FEA1C4C0CFBBA
:101340000BF7B0EBC74072EB573203FB0CF734BF1F
:10135000A2EBC742B2EBC74261EB57310CFB0EF771
:10136000B0EBC70072EB57720CFB08F734BFA2EB6F
:10137000C702B2EBC70261EB577115EB4C254FEA80
:10138000816141EA92114FEA82624FEAD13742EA23
:10139000901206FB07FC44F100044FEA80604FEA1C
:1013A0001C4C0CFB0BF7D21B03FB0CF761EB07018A
:1013B0000CFB0EF7B0EB074072EB17420CFB08F783
:1013C00034BFA2EB0742B2EB074261EB174115EBCA
:1013D0001C154FEA813141EA92414FEA823242EADA
:1013E00090424FEA80304FEA0C7644F1000448EA1C
:1013F00003434EEA0B484FF0000EB2EB080C71EBC2
:10140000030724BF624639464EEB0E0E4FF0000B29
:101410000018524149414BEB0B0BB2EB080C71EB3E
:1014200003077BF1000B24BF624639464EEB0E0EDC
:101430004FF0000B0018524149414BEB0B0BB2EB44
:10144000080C71EB03077BF1000B24BF62463946A1
:101450004EEB0E0E51EA020718BF46F0010616EBDE
:101460000E7655F1000254F1000103D5BDE8890163
:10147000BDE80088BDE88901BDE80048B6195241C1
:1014800041EB0101A3F10103704780807F7E7D7CE9
:101490007B7A7978777676757473727171706F6E06
:1014A0006E6D6C6C6B6A6A696868676666656464B1
:1014B000636362616160605F5F5E5E5D5D5C5C5B3B
:1014C0005B5A5A59595858575756565555555454AA
:1014D000535352525251515050504F4F4F4E4E4D08
:1014E0004D4D4C4C4C4B4B4B4A4A4A494949484854
:1014F0004847474747464646454545444444444394
:1015000043434342424242414141002B9C4630D436
:1015100077002BD01CB54FEA370703B44FF010000B
:101520004FF01001BAF1000F06D0BCF1000FDCBF84
:1015300040F0080040F008014FF000000FBCBDE88B
:1015400010400BF1010BBBF1010F08BF5FEA170759
:1015500022BF12F1010211F101014FF0004143F1EC
:10156000000300F0004043EA00007047F9D3570839
:10157000D0E746EA064613F1400F4FEA16461FDD54
:1015800013F1200FDFBF16430A46002120335B42D0
:10159000BED0C3F1200746EA064602FA07F74FEA33
:1015A000164646EA0706C3F1200722FA03F201FABB
:1015B00007F721FA03F14FF0000342EA0702A7E719
:1015C00046EA020646EA06464FEA164646EA01069B
:1015D000BCBF46EA0646360C4FF000034FF000024F
:1015E0004FF0000194E72DE9804C9A46934670B481
:1015F00091E8380007C831EA400C48BF34EA430C90
:1016000003D5FFF7E6FDFFF780FFF0BCBDE8008CD7
:101610002DE9804C9A46934670B491E8380007C88B
:1016200010F0804F08BF13F0804F03D100F005F891
:10163000FFF76BFFF0BCBDE8008C20F07F4780EA2D
:10164000030023F07F4C07EB0C03A3F57C5300F061
:101650000040A3F1FE0392F0000F00F0B38095F07C
:10166000000F00F077802DE901494FEA11404FEA61
:10167000144621EA004800FB06FC24EA064708FB62
:1016800006F607FB08F800FB07F718EB06484CEBDB
:10169000164C4FEA124B18EB07484FEA15464CEB35
:1016A000174022EA0B4E0BFB06FC25EA06470EFB11
:1016B00006F607FB0EFE0BFB07F71EEB064E4CEB88
:1016C000164C4FF000061EEB074E4CEB174B18EB79
:1016D0000B0840F1000018EB0E0B58EB000840F12E
:1016E00000008F1A4FF000013CBFC943661B14BFB6
:1016F000B5EB040C00213CBFC943F61B4FEA17446D
:101700004EEA8E0E27EA04454FEA1C4704FB0762A7
:101710002CEA074C05FB07F70CFB05F604FB0CFC59
:1017200016EB074642EB174216EB0C4642EB1C4207
:101730001BEB060658EB0202414146EA9E0601D524
:10174000BDE80189B619524141EB0101A3F1010342
:10175000BDE801894FEA14454FEA114724EA0546DE
:1017600021EA074C05FB07F406FB07F70CFB06F123
:1017700005FB0CFC11EB074144EB17444FEA124701
:1017800011EB0C4144EB1C4422EA074C05FB07F229
:1017900006FB07F70CFB06F605FB0CFC16EB0746F1
:1017A00042EB174216EB0C4642EB1C456A1854F10B
:1017B000000148BF7047B619524141EB0101A3F146
:1017C0000103704795F0000F37D04FEA11424FEAFE
:1017D000144721EA024624EA074C02FB07F106FB04
:1017E00007F70CFB06F402FB0CFC14EB074441EB7F
:1017F00017414FEA154714EB0C4441EB1C4125EA15
:10180000074C02FB07F506FB07F70CFB06F602FB8D
:101810000CFC16EB074645EB174516EB0C4645EB63
:101820001C42121951F1000148BF7047B6195241CC
:1018300041EB0101A3F1010370474FEA14454FEA60
:10184000114724EA054621EA074C05FB07F106FB90
:1018500007F70CFB06F24FF0000605FB0CFC12EB41
:10186000074241EB174112EB0C4251EB1C4148BFC0
:101870007047921841EB0101A3F10103704700008A
:10188000002201230C4961280DD041280BD0742877
:101890000ED054280CD0732801D0532802D14B709D
:1018A0008A700B7070474B708A7002200870704706
:1018B0004A708B700A7070477C010020024800213A
:1018C00001704170817070477C01002010B5324872
:1018D0002DED028B82B0817841B10021817002B080
:1018E000BDEC028BBDE8104002F0C8BD01780529AF
:1018F0004CD2DFE801F04D03364D400001249FED4E
:10190000278A00940A23B0EE480A64222146204622
:10191000019400F03DF90094B0EE480A0A236422D5
:1019200001210220019400F033F90094B0EE480A3E
:101930000A23642201210320019400F029F9009474
:10194000B0EE480A0A23642201210420019400F029
:101950001FF902B00020BDEC028BBDE8104000F082
:10196000B3B9112003F09EFE642005F0D9FA0422D9
:1019700005210B4803E00A4804220C213C3002B048
:10198000BDEC028BBDE8104000F00CB800210170E6
:1019900002B0BDEC028B10BD7C01002000007A4437
:1019A000C48A00082DE9F04116460F4680460025FE
:1019B0001A4C23E005EB450108EB810090EC030A8B
:1019C00002F0FEFC02E0322005F0AAFA02F0BAFCB6
:1019D00010B960780028F6D1607868B10A226421D5
:1019E0009FED0F0A012003F055F90A2264219FEDB3
:1019F0000D0A012003F04EF96D1CEDB2BD4202D27A
:101A000060780028D6D16078002805D01EB9002063
:101A1000607002F033FD2670BDE8F0817C0100208B
:101A20000000B4420000B4C2FEE70000DFED3B1A44
:101A3000B0EE401A10B500EEA11A2DED068BB0EEF7
:101A4000408AF6EE009A00EEE18ADFED350AF0EE0C
:101A5000418A3548B0EEE81A82B081EE200AF0EEF5
:101A6000C81A9FED301AC0ED008A80ED018AF5EEAC
:101A7000C08A0124009481EEA02A20EE010A30EEF3
:101A8000290ABCEEC09A19EE100A22EE01AA82B20F
:101A9000F1EE10FA01DB012100E00021FF23032019
:101AA00000F022F9F5EEC08A19EE100AF1EE10FAF4
:101AB000009482B201DB012100E00021FF2302201B
:101AC00000F012F93AEE290AB5EEC08A0094FCEE55
:101AD000C08A18EE900AF1EE10FA82B201DB012101
:101AE00000E00021FF23042000F0FEF8B5EEC08ADC
:101AF00018EE900AF1EE10FA009482B201DB012197
:101B000000E00021FF23012000F0EEF802B00020E9
:101B1000BDEC068BBDE8104000F0D6B80000C8420E
:101B2000878485430000704264000020884203DB04
:101B3000904201DC01207047002070477047000090
:101B40002DE9F041104D8046002428680F46661E9E
:101B500050B104F049FB022806D10124314628681F
:101B600004F080FB00280CD133463A464146074832
:101B700001F0C7FC002C04D02868BDE8F04104F057
:101B8000CEBBBDE8F0810000B40000208408002036
:101B9000FEB5B5EEC00ADDE90856F1EE10FA01D83F
:101BA00000240FE09FED0A1AC0EE010A9FED090A1A
:101BB00020EE800AF6EE000A30EE200ABCEEC00AE3
:101BC00010EE104A8DE8700000F006F8FEBD00002F
:101BD00087840544000048452DE9FF470CAE96E890
:101BE000300214A696E8C0118DE8C0118DF80000EF
:101BF0008DF80210100A8DF803008DF804208DF87E
:101C00000530200E8DF80600200C8DF80700200A04
:101C10008DF808008DF809408DF80A508DF80B906A
:101C20000D216846FFF78CFF052000F0E9F8BDE8BC
:101C3000FF87000000FD0000000000000000000021
:101C40006B00000008B5002200926A468DF8000083
:101C5000112937D2DFE801F0090B101236143616BD
:101C6000181A1C1E3620242922001F2000E02020E4
:101C70008DF8010002211FE02120F9E72420F7E779
:101C80002720F5E73120F3E73320F1E73520EFE7B0
:101C90003620EDE73720EBE73A20E9E73B20E7E79E
:101CA00042208DF801006C2003E043208DF80100F4
:101CB0007A208DF8020003216B2050541046491CF5
:101CC000FFF73EFF08BD000008B506A109680091B6
:101CD0008DF8000004216846FFF732FF012000F074
:101CE0008FF808BD00FF666B7CB50DA6069CD6E993
:101CF0000056CDE900568DF800008DF80210100A4C
:101D00008DF804208DF803008DF805308DF806401D
:101D100008216846FFF714FF012000F071F87CBD30
:101D200000F600000000006B72B6FEE7044890ED7C
:101D3000030A0448D0ED000A30EE600A02F00CBB42
:101D400028000020400000202DE9F0410446876D66
:101D500000F066F9064694F835000025022806D002
:101D60008020606584F834500120BDE8F08120684F
:101D7000016821F0160101602068416921F08001AD
:101D80004161206C08B9A06C20B12068016821F085
:101D9000080101602068016821F0010101600CE088
:101DA00000F03EF9801B052807D92020606503203C
:101DB00084F8350084F83450D7E720680068C007FD
:101DC000EED194F85C103F208840B860012084F880
:101DD000350084F834500020C7E790F83510022908
:101DE00003D08021416501207047052180F835101E
:101DF0000068016821F001010160002070470000C7
:101E000070B5044600F00CF90546601C02D0044889
:101E10000078044400F004F9401BA042FAD370BDDE
:101E20009C0100202DE9F84FDFF8BCA1002201251C
:101E300003264FF00F090AF1040BAAF1040E00BFAC
:101E40000B6805FA02F42340A34270D10F7907F022
:101E50000307012F01D0022F16D187684FEA4208ED
:101E600006FA08FC27EA0C07D1F80CC00CFA08FCAB
:101E70004CEA070CC0F808C04768A7430C79C4F3C4
:101E8000001494403C4344600C79E443A4070AD016
:101E9000C4684FEA420C06FA0CF7BC438F6807FA95
:101EA0000CF72743C7600C7904F00304022C12D10D
:101EB000D40800EB840CDCF820405707FF0E09FA29
:101EC00007F824EA0804D1F8108008FA07F848EA6D
:101ED0000408CCF8208004684FEA420C06FA0CF79C
:101EE000BC430F7907F0030707FA0CF72743076095
:101EF0004C6814F4403F70D03C4C276847F480474E
:101F00002760246822F0030704F480440094384CCE
:101F100007EB040CDCF8084897074FEA177809FA32
:101F200008F7BC43334FB84202D1002724E054E005
:101F3000314FB84201D101271EE0304FB84201D1E4
:101F4000022719E02E4FB84201D1032714E02D4F8C
:101F5000B84201D104270FE02B4FB84201D1052729
:101F60000AE02A4FB84201D1062705E0284FB842BF
:101F700001D1072700E0082707FA08F72743CCF824
:101F80000878DAF800405746D1F804C09C435FEA6D
:101F9000CC2C00D51C433C60DBF800405F46D1F8F8
:101FA00004C09C435FEA8C2C00D51C433C60DEF8E7
:101FB00000407746D1F804C09C435FEA8C3C00D5D2
:101FC0001C433C60084F083F3C68D1F804C09C4368
:101FD0005FEACC3C00D51C433C60521C102AFFF445
:101FE0002FAFBDE8F88F0000083C014044380240A4
:101FF000003001400000024000040240000802409E
:10200000000C024000100240001402400018024080
:10201000001C02400AB1816170470904FBE700001F
:1020200001488068704700009C01002070B50400E2
:1020300025D094F83D00002520B984F83C50204676
:1020400000F050F9242084F83D002068016821F058
:10205000010101602068016841F4004101602068CD
:10206000016821F40041016000F0F6FA4D4A616810
:10207000914201D84C4900E04C49884201D20120EC
:1020800070BD4B492368B0FBF1F15E6826F03F0656
:102090000E435E606368934206D94FF496735943CA
:1020A0004FF47A73B1FBF3F12368491C1E6A26F0E2
:1020B0003F06314319626168914210D84900401EC1
:1020C000B0FBF1F2521CC2F30B02042A01D204202D
:1020D00022E0B0FBF1F0401CC0F30B001CE0A26852
:1020E000F2B301EBC10303EB0116431EB3FBF6F39E
:1020F0005B1C43F480431B0549D092B301EBC10242
:1021000002EB0111401EB0FBF1F0401CC0F30B00CC
:1021100040F4804040F400402168CA694CF6FF73E7
:102120009A431043C861D4E907100143206802684C
:1021300022F0C00211430160D4E903010143206889
:10214000826848F2FF339A4311438160D4E9050164
:1021500008432168CA6822F0FF021043C86001E00A
:102160000EE016E02068016841F00101016025647D
:10217000202084F83D00256384F83E50002070BD87
:1021800001EB4106431EB3FBF6F35B1CB3E70120F2
:10219000C2E701EB4101401EB0FBF1F0401CC0F36F
:1021A0000B00B7E7A086010080841E0000093D00F7
:1021B00040420F002DE9FF4F83B09A46DDE91197A9
:1021C00093460446DDF84080FFF72AFF054694F861
:1021D0003D0020287FD11923012240492046009547
:1021E00001F0FCFA002876D194F83C00012872D066
:1021F000012084F83C0020680168C90703D1016808
:1022000041F0010101602068016821F40061016072
:10221000212084F83D00402084F83E0000262664FA
:10222000C4F82480A4F82A90608D20852C48E062B0
:10223000CDE9007553465A462046049901F04EFAFE
:1022400070B930E02A463946204601F06DFB58B19E
:10225000206C042804D12068016841F400710160F9
:10226000012007B0BDE8F08F606A2168007808613E
:10227000606A401C6062218D491E89B22185628D91
:10228000521E628522685369DB435B070BD469B138
:1022900000781061606A401C6062208D401E2085BD
:1022A000608D401E6085208D0028CBD12A4639469E
:1022B000204601F067FA0028CAD154F83D0B0168A6
:1022C00041F400710160202004F81E09E67766776A
:1022D0000020C6E7FFE70220C3E70000020010006D
:1022E0000000FFFF10B586B0044614216846FEF7D3
:1022F0008AFA14492068884221D1134800210268D3
:1023000042F002020260006800F0020005904FF403
:10231000406000901220CDE90101032003900420C9
:10232000049069460948FFF77DFD074810300168B1
:1023300041F480010160006800F48000059006B05F
:1023400010BD000000580040303802400004024038
:102350000248816802781144816070479C01002026
:102360000B4810B5016841F400710160016841F447
:1023700080610160016841F480710160032000F018
:102380009FF80F2000F006F800F050F8002010BD74
:10239000003C024030B505461F4887B00024016864
:1023A00041F010010160006806A900F010000090E3
:1023B00001A800F031F90498A8B100F04DF94000EF
:1023C0001649174AB0FBF1F11648491E026040F267
:1023D000E732C0E90324C0E90114846100F0B6FBD0
:1023E000040003D015E000F037F9E9E70D4800F0EC
:1023F000EFFB04000DD1362000F034F8102D07D289
:1024000000222946362000F03BF80748056000E02E
:10241000012407B0204630BD4038024040420F0042
:102420000010004068090020A00100200C4882B084
:10243000016841F480410160006800F48040009030
:102440000748001F016841F08051016000680022C8
:1024500000F0805000900F21901E02B000F010B8E4
:1024600044380240002809DB00F01F02012191409E
:102470004009800000F1E020C0F800117047000022
:10248000F0B40E4B1B680C46C3F30223C3F10705DF
:10249000042D00D90425191D072901D2002300E0CD
:1024A000DB1E012606FA05F1491E214099409E4097
:1024B000761E16403143F0BC03F09EBA0CED00E0EE
:1024C000064900F0070208684FF6FF03184040EA8B
:1024D0000220034A10430860704700000CED00E042
:1024E0000000FA052DE9F0470E46050065D0DFF83B
:1024F0001481D8F80000F7B200F00700B04207D20C
:1025000088F80070D8F8000000F00700B04254D1FD
:1025100028683D4C810712D5400703D5206840F458
:10252000E05020602878000703D5206840F4604020
:1025300020602068A96820F0F00008432060287817
:10254000C0072DD0304968680839012812D0022808
:1025500013D0032811D00968890700292DDA2168D2
:1025600021F0030101432160FFF75AFD814641F24A
:10257000883A0EE009688903EFE709688901ECE70A
:10258000FFF74EFDA0EB0901514502D90320BDE83C
:10259000F0872068696800F00C00B0EB810FEFD184
:1025A000D8F80010404601F00701B14207D9077082
:1025B000006800F00700B04201D00120E7E728786A
:1025C000400705D52068E96820F4E0500843206002
:1025D0002878000706D52068296920F4604040EA81
:1025E000C100206000F058F82168084AC1F30311C7
:1025F000515CC8400649086006480068FFF7CAFEFB
:102600000020C4E7003C024008380240908B0008DC
:10261000A8010020A00100200F2202600C4A1368CC
:1026200003F003034360136803F0F003836013684F
:1026300003F4E053C36012684FF4E05303EAD2029C
:1026400002610448006800F007000860704700005D
:1026500008380240003C0240044805490068096807
:10266000044AC1F38221515CC8407047A801002090
:1026700008380240A08B0008044805490068096832
:10268000044AC1F34231515CC8407047A8010020A0
:1026900008380240A08B0008154810B5006810F0FB
:1026A0000C02144813D04110042A0FD0082A0ED16E
:1026B0000F4C241F2268236802F03F025B0207D5FB
:1026C0002068C0F38810A0FB010106E0084610BD99
:1026D0002168C1F38811A1FB00010023FDF756FE1C
:1026E0002168C1F30141491C4900B0FBF1F010BD64
:1026F000083802400024F4002DE9F84F04006ED0A1
:102700002078DFF84C93C007A9F104054AD009F1FD
:1027100004000168C1F38101012908D00068C0F3F9
:10272000810002280AD1D9F80000400206D52868A5
:10273000800337D560680028E1D033E06068B0F5E9
:10274000803F10D0B0F5A02F286810D020F4803042
:102750002860286820F4802028606068A8B1FFF70E
:102760005FFC06460DE0286840F48030F4E740F452
:1027700080202860F7E700BFFFF752FC801B642829
:1027800073D828688003F7D50CE0FFF749FC0646AC
:1027900005E000BFFFF744FC801B6428F0D82868E0
:1027A0008003F7D42078DFF8AC8280074FF0000A6E
:1027B0003ED5A748001D016811F00C0F08D0006835
:1027C000C0F3810002280BD1D9F80000400207D4E1
:1027D0002868800716D5E068012800D112E033E1AF
:1027E000E068B8B10120C8F80000FFF719FC064600
:1027F00005E000BFFFF714FC801B0228C0D8286842
:102800008007F7D52868216920F0F80040EAC10068
:1028100028600DE0C8F800A0FFF702FC064604E0BF
:10282000FFF7FEFB801B02281FD828688007F7D41B
:102830002078000722D5864F87486169703771B1CB
:1028400001210160FFF7ECFB064604E0FFF7E8FB1F
:10285000801B022809D838688007F7D50EE0C0F839
:1028600000A0FFF7DDFB064605E082E0FFF7D8FB9E
:10287000801B02287DD838688007F7D4207840076D
:1028800068D5DFF8CCB100270BF13C0BDBF800007A
:10289000C0000BD4DBF8001041F08051CBF80010E1
:1028A000DBF80000012700F0805000906B4E30688C
:1028B000C00510D4306840F480703060FFF7B0FB82
:1028C000009005E0FFF7ACFB0099401A022850D8B1
:1028D0003068C005F6D55E4EA0686C3601280FD072
:1028E0000528306810D020F001003060306820F0FA
:1028F00004003060A068B8B1FFF792FB00900FE0D1
:10290000306840F00100F4E740F004003060F7E781
:10291000FFF786FB0099411A41F28830814266D860
:1029200030688007F4D50EE0FFF77AFB009007E0EF
:10293000FFF776FB0099411A41F28830814256D860
:1029400030688007F4D42FB1DBF8001021F08051FB
:10295000CBF80010A069C8B33D49091D0968C1F34F
:10296000810102294AD00228504607D0C8F86000E9
:1029700000E03CE0FFF754FB04463BE04746C8F864
:102980006000FFF74DFB064605E000BFFFF748FB80
:10299000801B02282BD828688001F7D4D4E90701CE
:1029A0000843A16A2E4A490802EB0141626A41EAE2
:1029B0008211084394F82C1040EA0161C9F8001014
:1029C00001203866FFF72CFB044606E03EE000BF1E
:1029D000FFF726FB001B022809D828688001F7D5DD
:1029E00034E000BFFFF71CFB001B022802D90320C4
:1029F000BDE8F88F28688001F4D427E00128F7D0DB
:102A0000D9F80000E26900F4800191421CD1226AE9
:102A100000F03F01914217D147F6C071626A014050
:102A2000B1EB821F10D1A26A4FF0FF3300F44031A6
:102A300003EB5202B1EB024F06D194F82C1000F0D8
:102A40007060B0EB016F01D00120D1E70020CFE72B
:102A50000438024000004742800E474200700040A8
:102A60000000FFFF7047704710B590F83C20012A26
:102A700022D0012280F83C20CA688C6822F440727F
:102A800022434C6822F4806222430C6822F40062E4
:102A900022430C6922F4805222434C6922F40052F2
:102AA0002243C969002322F480420A4301684A6430
:102AB00080F83C30002010BD022010BD70B590F8A9
:102AC0003C20012A32D0012480F83C40022280F8C8
:102AD0003D2003685A689D6822F070060A683243F8
:102AE0005A60134B02689A4214D0B2F1804F11D051
:102AF000104B9A420ED0104B9A420BD00F4B9A4279
:102B000008D00F4B9A4205D00E4B9A4202D00E4B82
:102B10009A4204D1496825F080031943916080F8F6
:102B20003D40002180F83C10084670BD022070BD79
:102B3000000001400004004000080040000C00407C
:102B400000040140004001400018004010B504009E
:102B500003D094F83D0010B107E0012010BD002023
:102B600084F83C00204600F01FF8022084F83D0065
:102B7000211D206802F030FA012084F8460084F814
:102B80003E0084F83F0084F8400084F8410084F857
:102B9000420084F8430084F8440084F8450084F837
:102BA0003D00002010BD000008B5006806498842BD
:102BB00008D10648016841F020010160006800F07A
:102BC0002000009008BD0000001400404038024082
:102BD00090F83D10012901D001207047022180F8B2
:102BE0003D100168CA6842F00102CA6000681149DC
:102BF000884214D0B0F1804F11D00F4988420ED0D6
:102C00000E4988420BD00E49884208D00D498842AF
:102C100005D00D49884202D00C49884204D1816810
:102C200001F00701062903D0016841F001010160AC
:102C300000207047000001400004004000080040F0
:102C4000000C00400004014000400140001800401A
:102C500070472DE9F04104460068C66805694FF0E9
:102C60000007A90713D5B10711D5F91E016101208D
:102C70002077206880698007204602D0FFF7E8FFB0
:102C800004E000F0E7F8204600F094F927776807A1
:102C900016D5700714D521686FF004000861022072
:102CA00020772068806910F4407F204602D0FFF72B
:102CB000CFFF04E000F0CEF8204600F07BF9277744
:102CC000280715D5300713D521686FF00800086173
:102CD000042020772068C0698007204602D0FFF7D3
:102CE000B7FF04E000F0B6F8204600F063F927775C
:102CF000E80616D5F00614D521686FF010000861BB
:102D0000082020772068C06910F4407F204602D058
:102D1000FFF79EFF04E000F09DF8204600F04AF91E
:102D20002777E80708D0F00706D021686FF0010088
:102D30000861204600F040F9280608D5300606D57F
:102D400021686FF0800008612046FFF78BFE68065F
:102D500008D5700606D521686FF04000086120464E
:102D600000F034F9A8060AD5B00608D521686FF03E
:102D7000200008612046BDE8F041FFF774BEBDE8C1
:102D8000F0810000F0B587B0044614216846FDF7D5
:102D90003AFD2A4A2068002429490225294E9042FA
:102DA0000FD1086840F00200086008680095CDE97E
:102DB000015400F00200CDE9045069460394304606
:102DC00037E0214A904236D1086840F0010008609F
:102DD000086800F001000590086840F002000860F3
:102DE000086800F002000590086840F004000860E0
:102DF0000868032700F00400059020200090CDE92A
:102E00000154CDE9034769461048FFF70BF801204C
:102E10000090CDE90154CDE9034769463046FFF7FC
:102E200001F838020090CDE90154CDE90347694625
:102E30000748FEF7F7FF07B0F0BD000000040040B0
:102E4000303802400004024000040140000002400B
:102E500000080240704770B5044690F83C00002618
:102E60000D4601280FD0012084F83C006AB1042AE5
:102E70001DD0082A2FD00C2A3FD00126002084F82C
:102E80003C00304670BD022070BD206802F00CF995
:102E90002068816941F0080181612068816921F021
:102EA00004018161206881692A69114311E0206869
:102EB00002F02AF92068816941F40061816120688B
:102EC000816921F480618161206881692A6941EA10
:102ED00002218161D2E7206802F04CF92068C169C3
:102EE00041F00801C1612068C16921F00401C1619C
:102EF0002068C1692A69114311E0206802F06EF967
:102F00002068C16941F40061C1612068C16921F490
:102F10008061C1612068C1692A6941EA0221C161F9
:102F2000ACE710B5040003D094F83D0010B107E001
:102F3000012010BD002084F83C00204600F01EF85F
:102F4000022084F83D00211D206802F045F8012090
:102F500084F8460084F83E0084F83F0084F840007E
:102F600084F8410084F8420084F8430084F8440067
:102F700084F8450084F83D00002010BD08B50068C5
:102F80000949884201D1094804E00949884209D128
:102F90000648001D016841F002010160006800F070
:102FA0000200009008BD00000004004040380240CC
:102FB000000401407047000000680349884201D1C5
:102FC000FFF7C6B970470000001000407047704717
:102FD00070470000F8B5016804460868CA684B6984
:102FE00010F00F0F4FF0000559D003F0010602F466
:102FF0009077374365D0C10705D0D10503D5616C03
:1030000041F001016164410705D5D90703D0616C26
:1030100041F002016164810705D5D90703D0616CD5
:1030200041F004016164010707D502F0200131433A
:1030300003D0616C41F008016164616C00293AD0F1
:10304000800604D5900602D5204602F099F9206842
:103050004069616CC0F38010090700D460B320465A
:1030600002F067F920684069400621D520681430D5
:1030700050E8001F21F0400140E80012002AF5D17D
:10308000E06BA8B172490165E06BFEF7A6FE00286F
:1030900011D0E06B016D01B0BDE8F0400847830638
:1030A0000FD593060DD52046BDE8F84002F068B96B
:1030B0002046FFF78DFFF8BD2046FFF789FF6564C6
:1030C000F8BD266B2023012E7ED1C6067CD5D60600
:1030D0007AD508684868009048694FF002064006B3
:1030E0004DD5E26B106840684FF480770004000C07
:1030F0003AD0A18D814237D9E085D069B8422DD030
:1031000020680C3050E8001F21F4807140E8001264
:10311000002AF5D12068143050E8001F21F0010189
:1031200040E80012002AF5D12068143050E8001F52
:1031300021F0400140E80012002AF5D184F8423025
:10314000256320680C3050E8001F21F0100140E892
:103150000012002AF5D1E06BFEF7F6FD6663A08D44
:10316000E18D401A81B206E0A18D8142A8D1D069DB
:10317000B842A5D166632046FFF729FFF8BDA08DB0
:10318000E18D401A81B2E08D0028F7D00029F5D0FA
:1031900020680C3050E8002F22F4907240E800279D
:1031A000002FF5D12068143050E8002F22F00102E2
:1031B00040E80027002FF5D184F8423025632068CD
:1031C0000C3050E8002F00E006E022F0100240E84A
:1031D0000023002BF3D1CDE705062BD5150629D505
:1031E00094F841002128C9D1A068B0F5805F01D1D1
:1031F0002069B0B1206A411C2162216800784860D2
:10320000E08C401E0004000CE084B7D12068C16847
:1032100021F08001C1602068C16841F04001C160B7
:10322000F8BD206A0088C0F308004860206A801C4E
:103230002062E5E74006F3D55006F1D5CA6820467E
:1032400022F04002CA6084F8413000F0AAF9F8BDCB
:103250002553000870B5040004D094F841000025FF
:1032600010B106E0012070BD84F84050204600F007
:1032700023F8242084F841002068C16821F400511B
:10328000C160204602F0DEF82068016921F4904117
:1032900001612068416921F02A0141612068C1680B
:1032A00041F40051C1606564202084F8410084F835
:1032B00042006563002070BD2DE9F04F87B00446E1
:1032C00014216846FDF79FFA834982482368002449
:1032D000814A1039032502260827DFF800B283420D
:1032E0001FD1106840F400201060106800F4002026
:1032F0000590086840F0010008600868CDE90056B4
:1033000000F00100CDE9047069465846CDE9024558
:10331000FEF788FD002206213420FFF7B1F83420A3
:1033200035E0DFF8BCC16F48634535D1136843F41D
:1033300080131360126802F4801205920A6842F04A
:1033400004020A600A6802F0040205920A6842F068
:1033500008020A60096802AB01F0080105918114B6
:10336000CDE9001683E8B0006946FEF75BFD042056
:10337000CDE9000602AB694683E8B0005A48FEF783
:1033800051FD002206213520FFF77AF83520FFF79E
:1033900069F807B0BDE8F08FDFF85081DFF83891A9
:1033A0004FF0C00A09F104094FF0070C434522D140
:1033B000D9F8002042F01002C9F80020D9F8000026
:1033C00000F010000590086840F0020008600868EE
:1033D000694600F00200CDE904C0CDE900A64448EA
:1033E000CDE90245FEF71EFD002206212520FFF74C
:1033F00047F82520CBE7DFF8FC80434520D1106853
:1034000040F400301060106800F400300590086847
:1034100040F001000860086802AB00F00100059070
:103420000C20CDE9000683E8301069465846FEF7C7
:10343000F9FC002206212620FFF722F82620A6E725
:10344000DFF8B480434520D1136843F48023136030
:10345000126802F4802205920A6842F004020A60AF
:10346000096802AB01F0040105914FF44061CDE918
:10347000001683E830106946FEF7D4FC00220621CE
:103480002720FEF7FDFF272081E71C4A934280D1C9
:10349000D9F8003043F02003C9F80030D9F80020F3
:1034A00002F0200205920A6842F004020A600968EC
:1034B000CDE9024501F00401CDE90471CDE900A692
:1034C0006946FEF7AFFC002205214720FEF7D8FF32
:1034D00047205CE7004C00404038024000000240BA
:1034E0000050004000080240000C02400010014063
:1034F0000004024000440040004800400014014025
:1035000070472DE9F843044690F841009846164666
:103510000D46202802D00220BDE8F88385B17EB197
:1035200000206064212084F84100FEF779FDA68424
:103530008146E684A0682027B0F5805F02D003E0D2
:103540000120E9E7206910B12E4600250EE0002693
:103550000CE08021204601F0FBFFA8B9C6B116F8A7
:10356000010B21684860E08C401EE084E08C4B46F3
:103570004FF00002CDF800800028EAD14FF0400162
:10358000204601F0E5FF40B184F841700320C3E715
:1035900035F8020BC0F30800E3E784F8417000201F
:1035A000BAE77047FEF72CBC08B5144802F010F9D2
:1035B000002822D1124802F0E9F800281DD1114854
:1035C00002F0FCF8002818D1502102F0E9F8002898
:1035D00013D10E2002F006F900280ED1062002F0C9
:1035E0002BF9002809D1084800680168416800915A
:1035F000C16841F02001C160002008BD9D3600086F
:10360000A535000899360008AC0700200A2310B53C
:1036100000221146445C491C224489B2D2B299422C
:10362000F8D3817A914230D1017855292DD1417852
:1036300053292AD1B0F90210DFED140A00EE101A56
:103640001449B8EEC00A20EE201A9FED110A21EEAF
:10365000001A81ED011AB0F9042001EE102AB8EE2B
:10366000C11A21EE201A21EE001A81ED021AB0F9DA
:10367000060001EE100A0120B8EEC11A61EE200A20
:1036800020EE800A81ED030A087010BD00000038AA
:103690000000344328000020704700008AB2014631
:1036A00064230148FFF72DBFAC070020FEE7016847
:1036B0004A69D24352050FD46FF480624A610021F7
:1036C00040F8301F202242738173026942F00402E5
:1036D0000261017301207047002070472DE9F84313
:1036E000044600680D46DDE90897016898461646CD
:1036F00041F4807101604B4600224FF001112046D9
:10370000009700F06BF848B120680068C00502D54A
:103710004FF4007020640320BDE8F883216805F0B1
:10372000FE0008613B464A461549204600F09EF8D7
:1037300088B920684169806900903A464946204628
:1037400000F0F2F848B1206C042804D12068016828
:1037500041F4007101600120DEE7F5B2B8F1010F1C
:1037600009D02168300A08613A464946204600F0EF
:10377000DBF80028E7D1206805610020CCE70000D5
:103780000200010070B516460D4604461EE02046B4
:10379000FFF78DFF08B1012070BD681C16D0FEF741
:1037A0003FFC801BA84200D885B920684069C0430F
:1037B00040070BD5002044F8300F20216173A0731F
:1037C000216941F0200121612073E4E7206840690C
:1037D000C0434007DBD4002070BD00002DE9F04756
:1037E000984617460D460446C1F30746DDF820907B
:1037F0002AE000BFB8F1FF3F26D0FEF711FCA0EB96
:103800000901414502D8B8F1000F1DD12068012EF1
:1038100016D0806925EA00000004000C12D00020B8
:10382000B84211D1002044F8300F20216173A073F9
:10383000216941F02001216120730120BDE8F0875A
:103840004069E7E70120EBE72068012E0AD0806994
:1038500025EA00000004000C06D00020B842C9D0C0
:103860000020EBE74069F3E70120F7E72DE9F04797
:10387000984616460D4604464FF000094FF0200AC0
:10388000C1F3074723E020684069C043400515D4D1
:103890002068016841F40071016021686FF4806064
:1038A0004861C4F8309084F83DA084F83E90216CC3
:1038B00041F00401216484F83C9021E0701C06D0A2
:1038C000FEF7AEFBA0EB0800B04203D816B1012F03
:1038D0001FD021E02068012F15D0806925EA000063
:1038E0000004000C18D000BF44F8309F84F80DA0ED
:1038F00084F80E90216941F02001216184F80C9038
:103900000120BDE8F087406925EA00000004000CB2
:10391000EAD12068406901E02068806925EA00005A
:103920000004000CAFD1ECE770B516460D46044616
:103930001EE02046FFF7BBFE08B1012070BD681CE9
:1039400016D0FEF76DFB801BA84200D885B9206811
:103950004069C04300060BD5002044F8300F2021F9
:103960006173A073216941F0200121612073E4E7B4
:1039700020684069C0430006DBD4002070BD000011
:103980001CB505A1D1E90001CDE90001052168467A
:1039900000F072F81CBD0000AA180102C50000006A
:1039A0001CB505A1D1E90001CDE900010621684659
:1039B00000F062F81CBD0000AA19020002C7000056
:1039C00008B504A0042100680090684600F054F88F
:1039D00008BD0000AA1000BAF0B58DB00E4607462B
:1039E000154630216C4601A8FCF70DFF19480B2144
:1039F000006800908DF801708DF8021004208DF899
:103A0000036000216A5C2254401C491CC9B2C0B248
:103A10000629F7D32A212154401CC0B23F2121544A
:103A2000401CC0B22154401CC0B22154401CC1B241
:103A3000002005E0235C625C401C1A446254C0B262
:103A40008842F7D3491CC9B2684600F015F80DB09A
:103A5000F0BD0000C08A00080A4601460820FFF7B2
:103A6000BBBF0A4610B501461720FFF7B5FFBDE8FA
:103A700010400A20FEF7C4B90A4601464FF0FF3352
:103A80000148FFF73EBD0000CC08002010B51B48E0
:103A900002F011FC1A4C194A0021E061FC3A194865
:103AA00002F05EFC154A2060D83A0021164802F068
:103AB00057FC124A6060B43A0021144802F050FCEE
:103AC0000E4AA060903A0021114802F049FC0B4ACE
:103AD000E0606C3A00210F4802F042FC074A206186
:103AE000483A00210C4802F03BFC044A6061243A49
:103AF00000210A4802F034FCA06110BDB08A000821
:103B000098000020854D00088D4D0008C14E00082A
:103B1000E14E0008F14E0008F94E0008014F000880
:103B200030B587B014216846FCF76DFE1E480024AE
:103B3000016841F080010160016801F08001059198
:103B4000016841F001010160016801F00101059186
:103B5000016841F002010160016801F00201059174
:103B6000016841F004010160016801F00401059160
:103B7000016841F00801016000680C4D00F0080088
:103B80000590012230212846FEF744FA30200090AB
:103B90001120CDE901040120039069462846FEF773
:103BA00041F907B030BD0000303802400004024047
:103BB0000D4810B50B4901600C49416000214FF4DC
:103BC00080428160C0E9031241618161C16101628B
:103BD000FEF72CFA002803D0BDE81040FEF7A4B889
:103BE00010BD00000058004080060020A0860100A3
:103BF00010B58AB0002407941C2168460894FCF78D
:103C000002FE164814490160A721C0E9011444F6D8
:103C10001F61C0E903148461FFF783F908B1FEF75F
:103C200083F8079407A90D480894FEF747FF08B1E9
:103C3000FEF77AF86020CDE9000402940C22694670
:103C400006480494FFF707F908B1FEF76DF803483A
:103C5000FFF798F80AB010BD00040040D406002019
:103C60001CB500240E4800940C49019401605321B6
:103C7000C0E9011442F20F718461C160FEF766FF72
:103C800008B1FEF751F80094694605480194FEF723
:103C900015FF002801D0FEF747F81CBD00140040B6
:103CA0001C07002010B592B000240F941C21684618
:103CB0001094FCF7A8FD202107A8FCF7A4FD2C48D0
:103CC0002A490160A721C0E901144FF6FF71C0E93C
:103CD000031444618461FFF724F908B1FEF724F866
:103CE0000F940FA922481094FEF7E8FE08B1FEF7E2
:103CF0001BF86020CDE90004029403940494059419
:103D0000002269461A480694FFF7A5F808B1FEF7A5
:103D10000BF8042269461648FFF79DF808B1FEF734
:103D200003F8082269461248FFF795F808B1FDF735
:103D3000FBFF0C2269460E48FFF78DF808B1FDF72E
:103D4000F3FF0794089409944FF400500A94CDE9C6
:103D50000B4007A906480E94FEF786FE08B1FDF752
:103D6000E3FF0348FFF70EF812B010BD0004014056
:103D7000640700200C4810B50A4901604FF4E13196
:103D80004160002181600C22C160C0E904128161A0
:103D9000C161FFF75FFA002803D0BDE81040FDF7CE
:103DA000C3BF10BD004C0040AC07002010B50E4C46
:103DB0000C480C2120604FF4E13060600020A060CE
:103DC000E060C4E90401A061E0612046FFF742FA27
:103DD00008B1FDF7A9FF2068C16841F02001C1606A
:103DE00010BD000000500040F40700200C4810B542
:103DF0000A4901604FF4E1314160002181600C22E9
:103E0000C160C0E904128161C161FFF723FA002893
:103E100003D0BDE81040FDF787BF10BD0010014082
:103E20003C0800200C4810B50A4901604FF461219C
:103E30004160002181600C22C160C0E904128161EF
:103E4000C161FFF707FA002803D0BDE81040FDF775
:103E50006BBF10BD00440040840800200C4810B522
:103E60000A4901604FF416514160002181600C2223
:103E7000C160C0E904128161C161FFF7EBF900285C
:103E800003D0BDE81040FDF74FBF10BD0048004013
:103E9000CC08002010B50E4C0C480C2120604FF4CB
:103EA000E13060600020A060E060C4E90401A0612E
:103EB000E0612046FFF7CEF908B1FDF735FF206835
:103EC000C16841F02001C16010BD00000014014034
:103ED00014090020FEE7FEE770B53748DFED370A2A
:103EE0009FED371A2DED028B90ED020A243060EE23
:103EF000200A80EE810AD0ED020A30EEC00A00F0FE
:103F000045FAB0EE408A2F49B0EEC80A10EE100A0A
:103F10002D4C884206DA00F0B1FA00202071BDEC89
:103F2000028B70BD2079DFED298A032804D0C4ED0F
:103F3000098A03F0AFFDA0620320207103F0AAFDFF
:103F40000546A06A9FED221A281A00EE100AF8EE24
:103F5000400A80EE810AB5EEC00AF1EE10FA04D9EB
:103F600010EE100A1B49884201DD9FED1B0AD4EDBB
:103F7000090A9FED1A1A1A4978EE600A20EE811A92
:103F8000C1EE000AB0EE000A48EE400A10EE900AB8
:103F9000884202DDDFED130A06E010EE900A1249B6
:103FA000884201D9DFED110AB0EE680AFDF73EFD47
:103FB00084ED098AA562B2E72C020020DB0F49409C
:103FC000000034430AD7A33C380000200000000062
:103FD00000007A44CDCCCC3D0AD7233CCDCCCCBD1F
:103FE0009A99193F9A99193F9A9919BF9A9919BFA5
:103FF00070B569482DED048BA0F1240590ED000A01
:10400000D5ED000A70EE609A90ED010AD5ED010A37
:1040100030EE609A29EEA90A09EE090A01F094FF30
:1040200010EE100A5D49B0EE408ADFED5D8A5D4C0E
:1040300088420EDA03202070F0EE680AB0EE680ABB
:10404000FDF7F4FCC4ED078A0020E070BDEC048BA2
:1040500070BDE078022806D0C4ED068AC4ED078A58
:1040600003F018FD20620220E070F0EE490AB0EE85
:10407000690A01F0D1FC6078DFED4B8A18B130EEAF
:10408000280A00F083F9D5ED020A20EEA81ADFED28
:10409000471AC1EE210A30EE600A00F077F9F0EE1F
:1040A000408A03F0F7FC0546206A281A00EE100A41
:1040B000F8EE400A9FED3E1A3E4980EE810A10EE6E
:1040C000100A08443C49884201D39FED3C0AD4EDD4
:1040D000060A9FED3B1A78EEE00A20EE811AC1EE47
:1040E000000AB7EE080A48EEC00A10EE900AB0F1D6
:1040F0007F5F02DDF0EE400A06E010EE900A3149E3
:10410000884201D9FFEE080A18EE100A2E4A9FEDE8
:104110002F1A2F49F3EE041A90420BDA28EE012AE7
:10412000DFED2C2A82EE221A11EE100A884201DA03
:10413000B0EE611AF0EEE02A82EE802AF6EE002A56
:10414000B7EE000A02EE620A20EE010A10EE100A33
:10415000884201DAB0EE610A94ED071AB4EEC01A93
:10416000F1EE10FA0AD2F2EE0E1A31EE211A84EDB7
:10417000071AB4EEC01AF1EE10FA01DD84ED070A59
:10418000607894ED070A08B1B1EE400AFDF74EFCE5
:10419000C4ED068A256259E7500200200000204144
:1041A0000000000038000020DA0F494000003443CE
:1041B00000007A44F628DCC3C4F5A8010AD7233CE2
:1041C000CDCCCCBD0000C0BF000048430000C843B8
:1041D0000000A0410000484370B54C4C2DED048B0D
:1041E000A0789FED4B8A9FED4B9A01281DD04A483D
:1041F00000F10C0190ED010AD1ED010A91ED001AD8
:1042000070EE600A90ED000A30EE410A01F004FC05
:10421000607818B130EE080A00F0B8F884ED030AAF
:1042200084ED049A03F036FC60610120A0703A48E6
:104230009FED3A1A243890ED020A60EE080A80EEEB
:10424000810AD4ED030A30EEC00A00F09FF8B0EE08
:10425000408A3349F0EEC88A18EE900A884206DA9E
:10426000022020700020A070BDEC048B70BD03F014
:1042700011FC054660699FED2B1A281A00EE100A02
:10428000F8EE400A80EE810AB5EEC00AF1EE10FAAF
:1042900004D910EE100A2449884201DD9FED230A5B
:1042A000D4ED040A9FED221A18EE900A78EE600A07
:1042B0002149884220EE811AC1EE000A9FED1D0AB5
:1042C00048EE400A0BDDB5EEC08AF1EE10FA02DDD1
:1042D0009FED1A0A01E09FED1A0A70EEC00A10EE77
:1042E000900AB0F1804F02DDF0EE000A06E010EE19
:1042F000900AB0F1404F01D9F8EE000AB0EE490A39
:10430000FDF794FB84ED048A6561ADE73800002079
:10431000DA0F494000000000500200200000344342
:104320000AD7233C00007A44CDCCCC3D0AD7233CAD
:104330009A9999BE333333409A99193E9A99193F05
:104340009A9919BF0348007808B1002070470120EE
:104350007047000038000020DFED090A094901E03C
:1043600030EE600A10EE100A8842F9DC064900BF00
:1043700010EE100A884202D930EE200AF8E77047A2
:104380000000B44300003443000034C3DFED090AE9
:10439000094901E030EE600A10EE100A8842F9DCAB
:1043A000064900BF10EE100A884202D930EE200AFA
:1043B000F8E77047DB0FC940DB0F4940DB0F49C00E
:1043C00070B51D4C207810B14FF0FF3070BD1B4808
:1043D000A0F1240580EC030A0C3095ED001A80ED65
:1043E000001AD5ED011A30EE410AC0ED011A95ED23
:1043F000022A70EEE10A80ED022A01F00DFBD5EDF4
:10440000020A9FED0F1ADFED0F1A20EE811AC1EE9E
:10441000210A30EE600AFFF7B9FFB0EEC00A10EED5
:10442000101A094A0120914201DD607001E000216B
:1044300061702070002070BD380000205002002004
:10444000DA0F494000003443295CDF3F084800216F
:1044500080ED000A9FED070AC0ED010A80ED020A17
:104460000548F0EE400A80ED021A0170FDF7DEBA51
:104470002C020020000000003800002004499FEDBD
:10448000050A00200870F0EE400AFDF7CFBA0000E0
:1044900038000020000000000D48017841B10129DA
:1044A0000FD002290FD003290FD0002101707047CF
:1044B00009489FED080A80ED010A0C3080ED010AE1
:1044C0007047FFF789BEFFF793BDFFF705BD0000FA
:1044D00038000020000000003802002010B59FEDD9
:1044E000141A144C2DED028BB0EE408A9FED0F0A8A
:1044F000C4ED020A20EE800AC0EE018AB0EE680A1E
:1045000001F05AFCD4ED000A48EE000AB0EE680A49
:10451000C4ED000A01F0A8FBD4ED010A48EE000A40
:10452000C4ED010ABDEC028B10BD0000DA0F49405A
:10453000000034432C02002030B40021084B0A460E
:104540005FF0000003EBC004401CC0B2625480283E
:10455000F8D3491CC9B20829F2D330BC00F0B4B872
:104560008002002070B500240646802525FA04F05C
:10457000304000D0012000F005FA012000F0F8F9E9
:10458000002000F0F5F9641CE4B2082CEED3012001
:1045900000F0EEF9BDE87040002000F0E9B910B578
:1045A000012000F0EFF9012000F0E2F9002000F016
:1045B000E9F9BDE81040002000F0DAB910B500209C
:1045C00000F0E0F9012000F0D3F9BDE8104001202F
:1045D00000F0D8B910B5012000F0CAF9012000F0B0
:1045E000D1F90120FDF70CFC0021AE2000F0BAF952
:1045F0000021084600F0B6F90021102000F0B2F9C1
:104600000021402000F0AEF90021B02000F0AAF90E
:104610000021812000F0A6F90021FF2000F0A2F97E
:104620000021A12000F09EF90021A62000F09AF9B7
:104630000021A82000F096F900213F2000F092F917
:104640000021C82000F08EF90021D32000F08AF963
:104650000021084600F086F90021D52000F082F9FB
:104660000021802000F07EF90021D82000F07AF9A6
:104670000021052000F076F90021D92000F072F920
:104680000021F12000F06EF90021DA2000F06AF933
:104690000021122000F066F90021DB2000F062F911
:1046A0000021302000F05EF900218D2000F05AF941
:1046B0000021142000F056F90021AF2000F052F93B
:1046C000BDE81040FFF738BF70B5114E002400BFA1
:1046D00004F1B000C0B2002100F044F90021084606
:1046E00000F040F90021102000F03CF95FF00005D7
:1046F00006EBC5000121005D00F034F96D1CEDB240
:10470000802DF5D3641CE4B2082CE1D370BD000009
:104710008002002010B50446B031C8B2002100F07C
:1047200021F9102040EA1410002100F01BF904F0D8
:104730000F00BDE81040002100F014B92DE9F04150
:10474000203A0D468046D6B27F2803D900208D1C22
:104750008046EDB2102B294611D0FFF7DBFF184938
:1047600006EB4600002401EB40050121285D00F026
:10477000F9F8641CE4B2062CF7D3BDE8F081FFF72A
:10478000C9FF104F002400BF04EB06100121385C64
:1047900000F0E8F8641CE4B2082CF5D36D1CE9B213
:1047A0004046FFF7B7FF002404EB06103844012110
:1047B000007A00F0D7F8641CE4B2082CF4D3DCE7EC
:1047C0009C810008C48300082DE9FF4F00252DEDD2
:1047D000020B1E4690462DED028BB0EE408A83B050
:1047E000BDEEC80AB5EEC08A074610EE104AF1EEDB
:1047F00010FA0CD2A7EB5600C0B22EA2089900F016
:1048000096F8B1EE488ABDEEC80A10EE104A0A21A9
:104810002046B0FBF1F06D1CEDB20028F9D105F196
:1048200001094FF0010BC84536D9A8EB0500A0F1EE
:10483000010A0AF0FF010A2001F0C0FC00EE100A94
:10484000CDE9006BF8EE400A00EE104A2B462246F6
:10485000B8EEC00A3846089938EE400A20EE800AC1
:10486000BCEEC00A10EE108A00F028F8754307EB82
:104870005500C0B2334610A2089900F058F8002045
:10488000CDE9006009FB06F007EB50000AF0FF03DA
:10489000C0B24246089905E0CDE9006B2B4622469E
:1048A0003846089900F00AF803B0BDEC028B06B058
:1048B000BDE8F08F2D0000002E0000002DE9FF5F05
:1048C0000026DDE90E8B1D469146824634464FEAAE
:1048D000580720E0281B401EC1B20A2001F06EFCE0
:1048E000B9FBF0F00A21B0FBF1F201FB1200BEB9F6
:1048F000AC4215D298B9BBF1000F10D0691E8C42A2
:104900000ED007FB04A0C0B2434620220199FFF756
:1049100015FF641CE4B2AC42DCD3BDE8FF9F012666
:104920003030C2B207FB04A0C0B24346EEE72DE927
:10493000F041984617460E46044600250DE04346D2
:1049400031462046FFF7FAFE0834E4B2782C02D94B
:104950000024B61CF6B26D1CEDB27A5D002AEED1D1
:10496000BDE8F08109B100F028B800F015B80000EA
:1049700008B1012200E0002220210148FDF74ABBD6
:104980000004024008B1012200E000221021014889
:10499000FDF740BB0004024010B50446FFF7FFFDE1
:1049A0007820FFF7DFFD0020FFF7DCFD2046FFF752
:1049B000D9FDBDE81040FFF701BE10B50446FFF772
:1049C000EEFD7820FFF7CEFD4020FFF7CBFD20461F
:1049D000FFF7C8FDBDE81040FFF7F0BD38B50C4A41
:1049E0000C4B002513CA13C307CA83E807000A4803
:1049F0009FED0A0A457080ED020A094800680168C7
:104A000041680091C16841F02001C16038BD0000DB
:104A100084810008680200206C0000200000000073
:104A20008408002070B51B4C04F10C0162781AB1A7
:104A30000025012A08D009E0032801D0042802D16A
:104A400008700120607070BD362820D18854521C37
:104A5000D0B260700828F6D3CA796B2A17D108281B
:104A600015D1D1F803008A7900BA20F0FF00104375
:104A700000EE100ADFED080A8878B8EE400A20EE52
:104A8000200A08B1B1EE400A087800F021F86570FC
:104A900070BD00006C0000200000B43B10B5FDF7B5
:104AA000BFFA0A4C6168411A322909D36060207844
:104AB0004FF00A0128B10420FDF7C4F8002020704F
:104AC00010BD0320FDF7BEF80120F8E76C000020C0
:104AD000032817D004281BD12448002818D00178B7
:104AE000012291B1D0ED010A80ED010A204B70EE58
:104AF000600A9FED200A10EE901A994209DD70EECF
:104B0000C00A0DE019480C38E7E780ED010A027091
:104B1000704710EE901A184B994201D970EE800A36
:104B20009FED160A20EE800A80ED020A42700F48BF
:104B30000C3841780029EBD00C494A78002AE7D09C
:104B400090ED020AD1ED020A0D4A30EE600AF6EE4F
:104B5000000A20EE200A82ED020A00224270094873
:104B60004A70D0ED020AFFF7B9BC000074020020C1
:104B7000000034430000B443000034C34EE43D3F22
:104B80006C0000202C020020B1EE601AB4EEC10AC5
:104B9000F1EE10FA01D2B0EE410AB4EEE00AF1EE05
:104BA00010FA01DDB0EE600A9FED091A20EE010A4D
:104BB00080EE201A9FED070AF6EE000A31EE000A99
:104BC00030EE200ABCEEC00A10EE100A80B2704728
:104BD00000007A440080BB4438B510208DF80000F6
:104BE00001226946002000F0BBF84FF0FF3480B985
:104BF00079208DF8000001226946FE2000F0B0F80F
:104C000038B900208DF800000122694600F0A8F8AC
:104C100008B1204638BD0120FDF7F2F8A1208DF83B
:104C2000000001226946002000F09AF838BD4FF4D8
:104C3000FA7240F6C411904201D2104602E0884256
:104C400000D9084642F2107101EB00304900B0FB78
:104C5000F1F080B27047000010B50446401E0428F1
:104C600002D34FF0FF3010BD0848DFED090A00EB1A
:104C7000840080ED000AFFF787FFFFF7D8FF0146A9
:104C80002046BDE8104000F051B80000B0090020F7
:104C90000000B4422DE9F04707462DED048B401E7D
:104CA00014460E46B0EE409A042814D29EB11E4817
:104CB00000EE906A00EB87004FF47A7190ED008A65
:104CC000F8EE600A002539EE480A04FB01F889462F
:104CD000C0EE208A17E0BDEC048B4FF0FF30BDE83A
:104CE000F08700BF38EE288A3846B0EE480AFFF752
:104CF000B3FF34B102F0C0FE02280FD02046FDF70A
:104D00007FF86D1CADB2B542ECD3B0EE490ABDECF4
:104D1000048B3846BDE8F047FFF79EBFB8FBF9F0BB
:104D200002F0FEF8EDE70000B009002008B50F28FA
:104D300002D94FF0FF3008BD00228DF800208DF819
:104D400001208DF80210090A8DF80310062101EBED
:104D50008000C0B20422694600F002F808BD0000DD
:104D60003EB54FF0FF348DE8160002460123802146
:104D70000348FDF71FFA002800D020463EBD000082
:104D800080060020642001F021FAFBE72DED028B64
:104D9000DFF8EC80DFF8ECA0DFF8ECB098B0B2EE12
:104DA000048A102339A200212820FFF7C0FD98EDC6
:104DB000020A1023062200212820FFF705FD1023F8
:104DC00032A202212820FFF7B2FDDAED000A1023FB
:104DD000062280EE880A02212820FFF7F5FC102326
:104DE0002AA204211820FFF7A2FD98ED000A102343
:104DF000062204211820FFF7E7FC102323A2062136
:104E00001820FFF794FD062298ED010A10231146A1
:104E10001820FFF7D9FC00F029FC98ED020A814622
:104E200010EE100A03F036F8D8ED010A06460F46D8
:104E300080EE880A10EE100A03F02CF8D8ED000A74
:104E400004460D4680EE880A10EE100A03F022F8A0
:104E50000B4602469BF800108DE8FC00CDE90619D0
:104E60000DA2402108A8FBF709FB82B2642308A920
:104E70001248FEF746FB642001F0A8F991E7000014
:104E80002C02002084000020380000202020202058
:104E90002020202000000000583A252E326620599C
:104EA0003A252E3266205961773A252E32662053F4
:104EB0003A2564204B3A2573200D0A00140900207E
:104EC000064C00BFFCF732FF84ED020AFFF7E4FA5C
:104ED000FFF7E4FD0A2002F023F8F3E72C0200209C
:104EE000FCF7ECFCFCF7F2FC642001F06FF9F9E749
:104EF000642001F06BF9FBE7642001F067F9FBE740
:104F00004FF47A74204601F061F9FBE710B54FF0D9
:104F1000E020006902F0B0FD012803D0BDE8104098
:104F200002F0A6B910BD000030B593B0302168463C
:104F3000FBF769FC14210CA8FBF765FC1D48002554
:104F4000016841F080510160006800F080501190CC
:104F50001948016841F4804101600068022400F4AE
:104F60008040119001200090000401908001CDE963
:104F7000064008AA0420A82182E813000B90684686
:104F8000FDF7BAFB08B172B6FEE70CA90F2081E865
:104F900031004FF4A0500F904FF480501090052135
:104FA0000CA8FDF79FFA002801D072B6FEE713B0F7
:104FB00030BD0000403802400070004002480168E7
:104FC00041F470010160704788ED00E00148FDF791
:104FD00040BE000068090020F0B50268274B284D4C
:104FE000284E294F294C4FF0804C984209D06045FB
:104FF00007D0A84205D0B04203D0B84201D0A042A9
:1050000004D122F0700E4A6842EA0E0298421BD088
:10501000604519D0A84217D0B04215D0B84213D07D
:10502000A04211D01A4DA8420ED01A4DA8420BD062
:10503000194DA84208D0194DA84205D0184DA842D4
:1050400002D0184DA84203D122F44075CA682A4301
:105050004D6922F080022A438D68C5620D68856221
:10506000984201D0A04201D109690163016841F071
:1050700004010160012141610260F0BD00000140B6
:105080000004004000080040000C00400004014003
:105090000040014000440140004801400018004029
:1050A000001C004000200040F0B5036A026A22F0B4
:1050B0000102026242688469124E24F073050C6892
:1050C0002C4323F002058B682B430D4DA84201D0E1
:1050D000B04205D123F00807CB683B4323F004031B
:1050E000A84201D0B04205D14D6922F44072154367
:1050F0008A692A4342608461496841630362F0BD62
:105100000000014000040140F0B5026A036A23F088
:1051100010030362436884690D6824F4E64444EA9A
:1051200005248D6822F0200242EA05120F4D104E30
:10513000A84201D0B04206D1CF6822F0800242EAF4
:10514000071222F04002A84201D0B04207D14D69B7
:1051500023F4406343EA85038D6943EA8503436092
:105160008461496881630262F0BD00000000014073
:1051700000040140F0B5026A036A23F480730362FD
:105180004368C46922F4007224F073050C68124E5F
:105190002C438D6842EA05220E4DA84201D0B04250
:1051A00006D1CF6822F4006242EA072222F480622C
:1051B000A84201D0B04207D14D6923F4405343EADD
:1051C00005138D6943EA05134360C4614968C163EF
:1051D0000262F0BD000001400004014030B5046AE5
:1051E000026A22F4805202624268C3690D6823F4A5
:1051F000E64343EA05238D6824F4005444EA053469
:10520000084DA84202D0084DA84204D14D6922F4AD
:10521000804242EA85124260C361496801640462C7
:1052200030BD00000000014000040140124910B5EB
:105230000A78002322B1012A05D0022A06D009E00B
:10524000012806D106E0032802D103E0022801D09C
:105250000B7010BD084C0834A054521CD0B208701A
:105260000728F6D3B4F8030040BA00EE100AB8EEEF
:10527000400A81ED010AEBE78000002070B5194873
:10528000FDF7A8FE174800680168C943890616D4CF
:105290004068154CC2B215486378012183B1012BD7
:1052A0000DD123780025C2545B1CDAB22270022A89
:1052B0000CD00B2A03D1FEF7A9F92570657070BDDB
:1052C000552AFCD102702170617070BD407853285E
:1052D000FBD05228F9D0552802D06570257070BDDA
:1052E000217070BDAC070020B80000205C090020D0
:1052F0000B4882B000680168C943090702D40168FD
:10530000416800910168C943890604D4406802B02D
:10531000C0B200F0AFB9024802B0FDF75BBE0000BA
:10532000F407002010B5806B0021C185FDF750FE09
:1053300010BD01680C3151E8002F22F4907241E851
:105340000023002BF5D10168143151E8002F22F021
:10535000010241E80023002BF5D1016B012909D19D
:1053600001680C3151E8002F22F0100241E80023BF
:10537000002BF5D1202180F84210002101637047F5
:1053800008B590F84210222901D0022008BD826899
:105390004FF480539A4201D1016921B1816A9A4246
:1053A0001BD04AB10AE00268816A5268C2F308025F
:1053B0000A80816A891C08E0026972B10268526839
:1053C00002F07F020A70816A491C8162C18D491E08
:1053D0000904090CC18503D01BE002685268F1E79B
:1053E0000168CA6822F02002CA600168CA6822F413
:1053F0008072CA6001684A6922F001024A61202174
:1054000080F8421000214163026B012A03D0FEF7AD
:1054100077F8002008BD016301680C3151E8002FC6
:1054200022F0100241E80023002BF5D101680A6840
:10543000D20602D50A6849680091818DFDF7C7FD43
:10544000E7E7000070B5044600680169E26821F4EE
:105450004051114301612169A068E2690843616913
:10546000114308432168CA6849F20C639A43024316
:10547000CA6020684169A26921F440711143416109
:1054800031492068884202D03049884202D1FDF774
:10549000F3F801E0FDF7E0F8E26900231921642543
:1054A0003226B2F5004F626828D0A0FB0101930FAD
:1054B0009200FAF76BFF0146B0FBF5F06FF01802AF
:1054C000504301EB800006EB0010B0FBF5F000F05C
:1054D000F002B1FBF5F002EB0012B1FBF5F06FF05A
:1054E0001803584301EB800006EB0010B0FBF5F009
:1054F00000F00F0021681044886070BDA0FB01011E
:1055000092185B41FAF742FF0146B0FBF5F0020149
:10551000B1FBF5F06FF01803584301EB800006EB88
:10552000C000B0FBF5F000F0F80002EB4002B1FB68
:10553000F5F0584301EB800006EBC000B0FBF5F03E
:1055400000F00700D6E70000001001400014014001
:105550002DE9F843984617460D460446089E24E078
:10556000701C22D0FCF75CFDA0EB0800B0421AD8FA
:10557000CEB12068C168490717D5802D15D0402DC0
:1055800013D00168C94309070FD40168002540689A
:1055900000902046FFF7CDFE0820606484F840505C
:1055A0000120BDE8F8830320FBE72068006835EAA6
:1055B000000004D00020B842D2D00020F1E7012042
:1055C000F9E700000B4882B000680168C943090789
:1055D00002D40168416800910168C943890604D476
:1055E000406802B0C0B2FFF721BE024802B0FDF72A
:1055F000F1BC00003C0800200B4882B00068016844
:10560000C943090702D40168416800910168C94390
:10561000890604D4406802B0C0B2FFF703BA02485A
:1056200002B0FDF7D7BC0000840800200148FDF758
:10563000D1BC0000CC0800200B4882B00068016893
:10564000C943090702D40168416800910168C94350
:10565000890604D4406802B0C0B2FCF711B9024810
:1056600002B0FDF7B7BC00001409002000487047E5
:10567000C40A0020084910B58A888870521C02F0BC
:105680007F020B695B1C0B61CB889A4203D0034BF2
:105690008C8818558A8010BD80010020C409002024
:1056A000FEE7000010B50B284AD009DC0B2869D2B0
:1056B000DFE800F024282B2E3134373A3D404300F8
:1056C00011284FD008DCA0F10C0005285AD2DFE8E1
:1056D00000F03A3D40434600122846D0132847D0F8
:1056E000142848D063284DD1FEF74AF9FEF758F93F
:1056F000BDE8104024490220FEF7AEB9BDE81040D5
:10570000FEF75EB920498C3937E01F49853934E00E
:105710001D497E3931E01C4977392EE01A4970392C
:105720002BE01949693928E01749623925E0164903
:105730005B3922E0144954391FE013494D391CE00C
:105740001149463919E010493F3916E00E493839F8
:1057500013E00D49313910E00B492A390DE00A49AF
:1057600023390AE008491C3907E00749153904E0E4
:1057700005490E3901E00449C91FBDE81040022067
:10578000FEF76FB910BD00004801002018B10349B1
:105790008861002070476FF005007047000000200E
:1057A000032802D96FF005007047034A1062117098
:1057B0000020D061704700000000002018B10349AC
:1057C0004861002070476FF005007047000000201E
:1057D00018B103494860002070476FF0050070471A
:1057E0000000002070B5044640F6FF72012100B2AF
:1057F000FCF79CF940B14BF28851692000F046F863
:105800006FF00205A0B902E06FF0050070BD094914
:10581000086A012801D010B104E0142000E0012042
:1058200089698847A1B2022000F030F80028EDD045
:10583000284670BD0000002070B504460D220121ED
:1058400000B2FCF773F940B14BF28851692000F0C7
:105850001DF86FF00205A0B902E06FF0050070BD01
:105860000949086A012801D010B104E0142000E0C1
:10587000012089698847A1B2032000F007F80028B9
:10588000EDD0284670BD0000000000202DE9FC4747
:105890006FF0050A90281AD2354CCAB22346D4F8C4
:1058A0002080FF27090A5B686FF0040C4FF0AA09FB
:1058B000C6B2B8F1000F0DD02546B8F1010F2D7812
:1058C00017D0B8F1020F31D0B8F1030F40D05046D5
:1058D000BDE8FC87DBB38DF800708DF801908DF882
:1058E00002608DF804108DF8032005216846984762
:1058F0003AE063B306238DF800508DF80130000ABA
:105900008DF802008DF804108DF803608DF80520E5
:105910001946684600F05AF8010A8DF806108DF80D
:10592000070062680821684690471DE0236973B14B
:105930008DF800708DF801908DF802608DF80320CD
:105940008DF8041005226946284698470CE00DE0C2
:10595000A4685CB18DF800208DF80110C1B2680612
:10596000000E02236A46A0470020B1E76046AFE779
:105970000000002003B401984100009850EAC120C3
:1059800018BF04204A0D18BF40F0010040F2FF721A
:10599000B2EB515F08BF40F00200012808BF0520AC
:1059A00002B070474100080218BF04200A0E18BF59
:1059B00040F001004FF07F4232EA010108BF40F0A1
:1059C0000200012808BF052070470000F0B5FF2342
:1059D000084E1C46002206F5807705E0855C5D4098
:1059E000735D63407C5D521C8A42F7DB44EA03200E
:1059F000F0BD0000847F00080907090E002804DBC1
:105A000000F1E02080F80014704700F00F0000F172
:105A1000E02080F8141D704710EE100A10B510EE4B
:105A2000901A4FF0684202EB40032DED028BB3F168
:105A3000654F3CBF02EB4102B2F1654F7CD200BF23
:105A4000C0F3C753C1F3C7529A1A1B2A09DD10F0DD
:105A5000004F14BF9FED6E0A9FED6E0ABDEC028BE6
:105A600010BD12F11A0F1BDA11F0004F09D010F01F
:105A7000004F0CBF9FED680A9FED680ABDEC028BDA
:105A800010BD80EE208A18EE100AFFF78BFF042865
:105A900008BF00F085FAB0EE480ABDEC028B10BDDD
:105AA0004200B2EB410F37D910F0004F19BFDFEDC4
:105AB0005C1A9FED5C1ADFED5C1A9FED5C1AB0EE8C
:105AC000602A0A46F1EE400A80F00041B0EE420A38
:105AD00010460A1A5200B2F1807F34D2484010F0CA
