:020000040800F2
:10000000706B00200903000883220008851E000889
:10001000812200085F060008DD2F000800000000B4
:10002000000000000000000000000000490200087D
:100030007106000800000000A50200088D280008D5
:1000400023030008230300082303000823030008F8
:1000500023030008230300082303000823030008E8
:1000600023030008230300082303000823030008D8
:1000700023030008230300082303000823030008C8
:1000800023030008230300082303000823030008B8
:1000900023030008230300082303000823030008A8
:1000A0002303000823030008230300082303000898
:1000B0002303000823030008230300082303000888
:1000C0002303000823030008230300082303000878
:1000D00023030008692F00089D2F0008D12F000876
:1000E0002303000823030008230300082303000858
:1000F0002303000823030008230300082303000848
:100100002303000823030008230300082303000837
:10011000492C0008BD2C00084D29000823030008C5
:100120002303000823030008230300082303000817
:100130002303000823030008230300082303000807
:1001400023030008230300082303000823030008F7
:1001500023030008230300082303000823030008E7
:1001600023030008230300082303000823030008D7
:1001700023030008230300082303000800000000F5
:10018000230300082303000800F002F800F04CF8F5
:100190000AA090E8000C82448344AAF10107DA45E2
:1001A00001D100F041F8AFF2090EBAE80F0013F0E8
:1001B000010F18BFFB1A43F001031847045E00004B
:1001C000245E00000A4410F8014B14F00F0508BF2C
:1001D00010F8015B240908BF10F8014B6D1E05D013
:1001E00010F8013B6D1E01F8013BF9D1641E03D0EC
:1001F000641E01F8015BFBD19142E4D3704700001B
:100200000023002400250026103A28BF78C1FBD81F
:10021000520728BF30C148BF0B6070471FB505F0BB
:10022000EBF81FBD10B510BD00F0E4F91146FFF763
:10023000F5FF03F031FA00F002FA03B4FFF7F2FF22
:1002400003BC00F005FA00002C4B19680868B0E800
:10025000F04F80F30988BFF36F8F4FF0000080F3F9
:10026000118870470000000008480068006880F3AB
:1002700008884FF0000080F3148862B661B6BFF3BF
:100280004F8FBFF36F8F00DF00BF00BF08ED00E0AE
:10029000DFF80C00016841F470010160704700BF95
:1002A00088ED00E0EFF30980BFF36F8F134B1A68FE
:1002B0001EF0100F08BF20ED108A20E9F04F1060EB
:1002C00009B44FF0500080F31188BFF34F8FBFF394
:1002D0006F8F04F0EFF94FF0000080F3118809BC34
:1002E00019680868B0E8F04F1EF0100F08BFB0ECB6
:1002F000108A80F30988BFF36F8F7047DC000020FD
:10030000EFF305807047000009488047094800471F
:10031000FEE7FEE7FEE7FEE7FEE7FEE7FEE7FEE7B5
:10032000FEE7FEE704480549054A064B7047000012
:100330003D2900088901000870650020706B0020CD
:10034000706700207067002053EA020C00F069809B
:100350002DE9F04B4FF00006002B1FBFB3FA83F5D9
:1003600003FA05F424FA05F65E4012BF1643B2FA0A
:1003700082F502FA05F4C5F120051EBF22FA05FC3C
:1003800044EA0C04203556EA044C4FEA144418BFE2
:10039000641C4FF000084FF00009904271EB030C11
:1003A00039D3002919BFB1FA81F701FA07F6B0FA7B
:1003B00080F700FA07F6C7F120071EBF20FA07FCF6
:1003C00046EA0C062037B6FBF4FCA7EB0507103F06
:1003D00007F01F0BCBF120060CFA0BFB2CFA06F6EC
:1003E00044BFB3460026202FA4BF5E464FF0000B4B
:1003F0005BEA060C08BF4FF0010B19EB0B09ABFBD6
:10040000027C48EB0608C01B06FB02CC0BFB03CCAE
:1004100071EB0C01C1E70B46024641464846BDE878
:10042000F08B13B54FF000004FF00001AFF30080E8
:10043000BDE81C407047032A40F2308010F0030CE6
:1004400000F0158011F8013BBCF1020F624498BF27
:1004500011F801CB00F8013B38BF11F8013BA2F1C4
:10046000040298BF00F801CB38BF00F8013B11F03F
:10047000030300F02580083AC0F0088051F8043BDF
:10048000083A51F804CBA0E80810F5E7121D5CBF4C
:1004900051F8043B40F8043BAFF30080D20724BF7F
:1004A00011F8013B11F801CB48BF11F8012B24BF13
:1004B00000F8013B00F801CB48BF00F8012B704762
:1004C00010B5203AC0F00B80B1E81850203AA0E8EF
:1004D0001850B1E81850A0E81850BFF4F5AF5FEA23
:1004E000027C24BFB1E81850A0E8185044BF18C9D6
:1004F00018C0BDE810405FEA827C24BF51F8043B7D
:1005000040F8043B08BF7047D20728BF31F8023BD0
:1005100048BF11F8012B28BF20F8023B48BF00F864
:10052000012B704702F0FF0343EA032242EA024232
:1005300000F037B84FF0000200B5134694469646D7
:10054000203922BFA0E80C50A0E80C50B1F12001E6
:10055000BFF4F7AF090728BFA0E80C5048BF0CC094
:100560005DF804EB890028BF40F8042B08BF7047F2
:1005700048BF20F8022B11F0804F18BF00F8012B64
:10058000704770477047704710B500F02BF800684F
:1005900010BD10B5044600F025F8046010BD4FF002
:1005A00000020429C0F0128010F0030C3FF4C4AF25
:1005B000CCF1040CBCF1020F18BF00F8012BA8BF4E
:1005C00020F8022BA1EB0C01FFF7B6BF5FEAC17C5C
:1005D00024BF00F8012B00F8012B48BF00F8012BC5
:1005E00070470000004870470C65002000487047C5
:1005F0000C6500207546FFF7F9FFAE460500694619
:10060000534620F00700854618B020B5FFF78AFE54
:10061000BDE820404FF000064FF000074FF0000803
:100620004FF0000B21F00701AC46ACE8C009ACE884
:10063000C009ACE8C009ACE8C0098D46704710B5E8
:100640000446AFF300802046BDE81040FFF7F5BD3B
:1006500001491820ABBEFEE7260002007047FEE706
:10066000884203DB904201DC012070470020704784
:10067000704700002DE9F041104D804600242868A5
:100680000F46661E50B103F07DF8022806D1012402
:100690003146286803F0B4F800280CD133463A46B6
:1006A0004146074801F013FB002C04D02868BDE840
:1006B000F04103F002B9BDE8F0810000C400002061
:1006C0000C070020FEB5B5EEC00ADDE90856F1EED4
:1006D00010FA01D800240FE09FED0A1AC0EE010ABB
:1006E0009FED090A20EE800AF6EE000A30EE200A9D
:1006F000BCEEC00A10EE104A8DE8700000F006F85B
:10070000FEBD000087840544000048452DE9FF47F1
:100710000CAE96E8300214A696E8C0118DE8C01120
:100720008DF800008DF80210100A8DF803008DF886
:1007300004208DF80530200E8DF80600200C8DF871
:100740000700200A8DF808008DF809408DF80A503E
:100750008DF80B900D216846FFF78CFF052000F007
:1007600069F8BDE8FF87000000FD00000000000000
:10077000000000006B00000072B6FEE72DE9F041BA
:100780000446876D00F066F9064694F835000025AA
:10079000022806D08020606584F834500120BDE82E
:1007A000F0812068016821F016010160206841692C
:1007B00021F080014161206C08B9A06C20B1206853
:1007C000016821F0080101602068016821F0010141
:1007D00001600CE000F03EF9801B052807D92020BD
:1007E0006065032084F8350084F83450D7E720682A
:1007F0000068C007EED194F85C103F208840B860D4
:10080000012084F8350084F834500020C7E790F8C0
:100810003510022903D08021416501207047052150
:1008200080F835100068016821F0010101600020A6
:100830007047000070B5044600F00CF90546601CD6
:1008400002D004480078044400F004F9401BA042A0
:10085000FAD370BDCC0000202DE9F84FDFF8BCA121
:100860000022012503264FF00F090AF1040BAAF11B
:10087000040E00BF0B6805FA02F42340A34270D1B6
:100880000F7907F00307012F01D0022F16D18768D7
:100890004FEA420806FA08FC27EA0C07D1F80CC018
:1008A0000CFA08FC4CEA070CC0F808C04768A743DC
:1008B0000C79C4F3001494403C4344600C79E44345
:1008C000A4070AD0C4684FEA420C06FA0CF7BC43EE
:1008D0008F6807FA0CF72743C7600C7904F003040C
:1008E000022C12D1D40800EB840CDCF8204057070E
:1008F000FF0E09FA07F824EA0804D1F8108008FA74
:1009000007F848EA0408CCF8208004684FEA420C53
:1009100006FA0CF7BC430F7907F0030707FA0CF748
:10092000274307604C6814F4403F70D03C4C276864
:1009300047F480472760246822F0030704F48044CA
:100940000094384C07EB040CDCF8084897074FEA92
:10095000177809FA08F7BC43334FB84202D1002791
:1009600024E054E0314FB84201D101271EE0304F5E
:10097000B84201D1022719E02E4FB84201D1032716
:1009800014E02D4FB84201D104270FE02B4FB8429D
:1009900001D105270AE02A4FB84201D1062705E018
:1009A000284FB84201D1072700E0082707FA08F7C7
:1009B0002743CCF80878DAF800405746D1F804C04D
:1009C0009C435FEACC2C00D51C433C60DBF8004024
:1009D0005F46D1F804C09C435FEA8C2C00D51C43D1
:1009E0003C60DEF800407746D1F804C09C435FEAE3
:1009F0008C3C00D51C433C60084F083F3C68D1F854
:100A000004C09C435FEACC3C00D51C433C60521CB4
:100A1000102AFFF42FAFBDE8F88F0000083C01401A
:100A2000443802400030014000000240000402400F
:100A300000080240000C0240001002400014024076
:100A400000180240001C02400AB18161704709048D
:100A5000FBE700000148806870470000CC000020E0
:100A6000024881680278114481607047CC00002000
:100A70000B4810B5016841F400710160016841F450
:100A800080610160016841F480710160032000F021
:100A90009FF80F2000F006F800F050F8002010BD7D
:100AA000003C024030B505461F4887B0002401686D
:100AB00041F010010160006806A900F010000090EC
:100AC00001A800F031F90498A8B100F04DF94000F8
:100AD0001649174AB0FBF1F11648491E026040F270
:100AE000E732C0E90324C0E90114846100F0B6FBD9
:100AF000040003D015E000F037F9E9E70D4800F0F5
:100B0000EFFB04000DD1362000F034F8102D07D291
:100B100000222946362000F03BF80748056000E037
:100B2000012407B0204630BD4038024040420F004B
:100B300000100040F0070020D00000200C4882B0D8
:100B4000016841F480410160006800F48040009039
:100B50000748001F016841F08051016000680022D1
:100B600000F0805000900F21901E02B000F010B8ED
:100B700044380240002809DB00F01F0201219140A7
:100B80004009800000F1E020C0F80011704700002B
:100B9000F0B40E4B1B680C46C3F30223C3F10705E8
:100BA000042D00D90425191D072901D2002300E0D6
:100BB000DB1E012606FA05F1491E214099409E40A0
:100BC000761E16403143F0BC02F028BB0CED00E06D
:100BD000064900F0070208684FF6FF03184040EA94
:100BE0000220034A10430860704700000CED00E04B
:100BF0000000FA052DE9F0470E46050065D0DFF844
:100C00001481D8F80000F7B200F00700B04207D214
:100C100088F80070D8F8000000F00700B04254D106
:100C200028683D4C810712D5400703D5206840F461
:100C3000E05020602878000703D5206840F4604029
:100C400020602068A96820F0F00008432060287820
:100C5000C0072DD0304968680839012812D0022811
:100C600013D0032811D00968890700292DDA2168DB
:100C700021F0030101432160FFF7ECFE814641F2C0
:100C8000883A0EE009688903EFE709688901ECE713
:100C9000FFF7E0FEA0EB0901514502D90320BDE8B2
:100CA000F0872068696800F00C00B0EB810FEFD18D
:100CB000D8F80010404601F00701B14207D907708B
:100CC000006800F00700B04201D00120E7E7287873
:100CD000400705D52068E96820F4E050084320600B
:100CE0002878000706D52068296920F4604040EA8A
:100CF000C100206000F058F82168084AC1F30311D0
:100D0000515CC8400649086006480068FFF7CAFE03
:100D10000020C4E7003C024008380240285F000879
:100D2000D8000020D00000200F2202600C4A136877
:100D300003F003034360136803F0F0038360136858
:100D400003F4E053C36012684FF4E05303EAD202A5
:100D500002610448006800F0070008607047000066
:100D600008380240003C0240044805490068096810
:100D7000044AC1F38221515CC8407047D80000206A
:100D800008380240385F00080448054900680968CF
:100D9000044AC1F34231515CC8407047D80000207A
:100DA00008380240385F0008154810B5006810F098
:100DB0000C02144813D04110042A0FD0082A0ED177
:100DC0000F4C241F2268236802F03F025B0207D504
:100DD0002068C0F38810A0FB010106E0084610BDA2
:100DE0002168C1F38811A1FB00010023FFF7ACFAD1
:100DF0002168C1F30141491C4900B0FBF1F010BD6D
:100E0000083802400024F4002DE9F84F04006ED0A9
:100E10002078DFF84C93C007A9F104054AD009F106
:100E200004000168C1F38101012908D00068C0F302
:100E3000810002280AD1D9F80000400206D52868AE
:100E4000800337D560680028E1D033E06068B0F5F2
:100E5000803F10D0B0F5A02F286810D020F480304B
:100E60002860286820F4802028606068A8B1FFF717
:100E7000F1FD06460DE0286840F48030F4E740F4C8
:100E800080202860F7E700BFFFF7E4FD801B64289F
:100E900073D828688003F7D50CE0FFF7DBFD064622
:100EA00005E000BFFFF7D6FD801B6428F0D8286856
:100EB0008003F7D42078DFF8AC8280074FF0000A77
:100EC0003ED5A748001D016811F00C0F08D000683E
:100ED000C0F3810002280BD1D9F80000400207D4EA
:100EE0002868800716D5E068012800D112E033E1B8
:100EF000E068B8B10120C8F80000FFF7ABFD064676
:100F000005E000BFFFF7A6FD801B0228C0D82868B7
:100F10008007F7D52868216920F0F80040EAC10071
:100F200028600DE0C8F800A0FFF794FD064604E035
:100F3000FFF790FD801B02281FD828688007F7D490
:100F40002078000722D5864F87486169703771B1D4
:100F500001210160FFF77EFD064604E0FFF77AFD00
:100F6000801B022809D838688007F7D50EE0C0F842
:100F700000A0FFF76FFD064605E082E0FFF76AFD7F
:100F8000801B02287DD838688007F7D42078400776
:100F900068D5DFF8CCB100270BF13C0BDBF8000083
:100FA000C0000BD4DBF8001041F08051CBF80010EA
:100FB000DBF80000012700F0805000906B4E306895
:100FC000C00510D4306840F480703060FFF742FDF7
:100FD000009005E0FFF73EFD0099401A022850D826
:100FE0003068C005F6D55E4EA0686C3601280FD07B
:100FF0000528306810D020F001003060306820F003
:1010000004003060A068B8B1FFF724FD00900FE045
:10101000306840F00100F4E740F004003060F7E78A
:10102000FFF718FD0099411A41F28830814266D8D5
:1010300030688007F4D50EE0FFF70CFD009007E064
:10104000FFF708FD0099411A41F28830814256D8D5
:1010500030688007F4D42FB1DBF8001021F0805104
:10106000CBF80010A069C8B33D49091D0968C1F358
:10107000810102294AD00228504607D0C8F86000F2
:1010800000E03CE0FFF7E6FC04463BE04746C8F8DA
:101090006000FFF7DFFC064605E000BFFFF7DAFC63
:1010A000801B02282BD828688001F7D4D4E90701D7
:1010B0000843A16A2E4A490802EB0141626A41EAEB
:1010C0008211084394F82C1040EA0161C9F800101D
:1010D00001203866FFF7BEFC044606E03EE000BF94
:1010E000FFF7B8FC001B022809D828688001F7D553
:1010F00034E000BFFFF7AEFC001B022802D903203A
:10110000BDE8F88F28688001F4D427E00128F7D0E3
:10111000D9F80000E26900F4800191421CD1226AF2
:1011200000F03F01914217D147F6C071626A014059
:10113000B1EB821F10D1A26A4FF0FF3300F44031AF
:1011400003EB5202B1EB024F06D194F82C1000F0E1
:101150007060B0EB016F01D00120D1E70020CFE734
:101160000438024000004742800E474200700040B1
:101170000000FFFF7047704710B590F83C20012A2F
:1011800022D0012280F83C20CA688C6822F4407288
:1011900022434C6822F4806222430C6822F40062ED
:1011A00022430C6922F4805222434C6922F40052FB
:1011B0002243C969002322F480420A4301684A6439
:1011C00080F83C30002010BD022010BD70B590F8B2
:1011D0003C20012A32D0012480F83C40022280F8D1
:1011E0003D2003685A689D6822F070060A68324301
:1011F0005A60134B02689A4214D0B2F1804F11D05A
:10120000104B9A420ED0104B9A420BD00F4B9A4281
:1012100008D00F4B9A4205D00E4B9A4202D00E4B8B
:101220009A4204D1496825F080031943916080F8FF
:101230003D40002180F83C10084670BD022070BD82
:10124000000001400004004000080040000C004085
:1012500000040140004001400018004010B50400A7
:1012600003D094F83D0010B107E0012010BD00202C
:1012700084F83C00204600F01FF8022084F83D006E
:10128000211D206801F068FB012084F8460084F8E5
:101290003E0084F83F0084F8400084F8410084F860
:1012A000420084F8430084F8440084F8450084F840
:1012B0003D00002010BD000008B5006806498842C6
:1012C00008D10648016841F020010160006800F083
:1012D0002000009008BD000000140040403802408B
:1012E00090F83D10012901D001207047022180F8BB
:1012F0003D100168CA6842F00102CA6000681149E5
:10130000884214D0B0F1804F11D00F4988420ED0DE
:101310000E4988420BD00E49884208D00D498842B8
:1013200005D00D49884202D00C49884204D1816819
:1013300001F00701062903D0016841F001010160B5
:1013400000207047000001400004004000080040F9
:10135000000C004000040140004001400018004023
:1013600070472DE9F04104460068C66805694FF0F2
:101370000007A90713D5B10711D5F91E0161012096
:101380002077206880698007204602D0FFF7E8FFB9
:1013900004E000F0E7F8204600F094F927776807AA
:1013A00016D5700714D521686FF00400086102207B
:1013B00020772068806910F4407F204602D0FFF734
:1013C000CFFF04E000F0CEF8204600F07BF927774D
:1013D000280715D5300713D521686FF0080008617C
:1013E000042020772068C0698007204602D0FFF7DC
:1013F000B7FF04E000F0B6F8204600F063F9277765
:10140000E80616D5F00614D521686FF010000861C3
:10141000082020772068C06910F4407F204602D061
:10142000FFF79EFF04E000F09DF8204600F04AF927
:101430002777E80708D0F00706D021686FF0010091
:101440000861204600F0A4F9280608D5300606D524
:1014500021686FF0800008612046FFF78BFE680668
:1014600008D5700606D521686FF040000861204657
:1014700000F098F9A8060AD5B00608D521686FF0E3
:10148000200008612046BDE8F041FFF774BEBDE8CA
:10149000F0810000F0B587B0044614216846FFF7DC
:1014A00049F82A4A2068002429490225294E9042F9
:1014B0000FD1086840F00200086008680095CDE987
:1014C000015400F00200CDE904506946039430460F
:1014D00037E0214A904236D1086840F001000860A8
:1014E000086800F001000590086840F002000860FC
:1014F000086800F002000590086840F004000860E9
:101500000868032700F00400059020200090CDE932
:101510000154CDE9034769461048FFF79DF90120C2
:101520000090CDE90154CDE9034769463046FFF705
:1015300093F938020090CDE90154CDE9034769469B
:101540000748FFF789F907B0F0BD0000000400402C
:101550003038024000040240000401400000024014
:1015600000080240704770B5044690F83C00002621
:101570000D4601280FD0012084F83C006AB1042AEE
:101580001DD0082A2FD00C2A3FD00126002084F835
:101590003C00304670BD022070BD206801F052FA58
:1015A0002068816941F0080181612068816921F02A
:1015B00004018161206881692A69114311E0206872
:1015C00001F070FA2068816941F40061816120684E
:1015D000816921F480618161206881692A6941EA19
:1015E00002218161D2E7206801F092FA2068C16986
:1015F00041F00801C1612068C16921F00401C161A5
:101600002068C1692A69114311E0206801F0B4FA29
:101610002068C16941F40061C1612068C16921F499
:101620008061C1612068C1692A6941EA0221C16102
:10163000ACE710B5040003D094F83D0010B107E00A
:10164000012010BD002084F83C00204600F01EF868
:10165000022084F83D00211D206801F07DF9012061
:1016600084F8460084F83E0084F83F0084F8400087
:1016700084F8410084F8420084F8430084F8440070
:1016800084F8450084F83D00002010BD08B50068CE
:101690000949884201D1094804E00949884209D131
:1016A0000648001D016841F002010160006800F079
:1016B0000200009008BD00000004004040380240D5
:1016C000000401407047000010B50446022249B1F1
:1016D00004290ED0082913D094F84100012816D00F
:1016E000012010BD94F83E000128F9D184F83E2075
:1016F0000FE094F83F000128F2D184F83F2008E081
:1017000094F840000128EBD184F8402001E084F8EF
:1017100041200122206801F087F916492068164A05
:10172000884201D0904203D1436C43F400434364A8
:101730002068884213D0B0F1804F10D00F49884202
:101740000DD00F4988420AD00E49884207D09042F6
:1017500005D00D49884202D00C49884204D18168E5
:1017600001F00701062903D0016841F00101016081
:10177000002010BD000001400004014000040040B2
:1017800000080040000C00400040014000180040EC
:1017900000680349884201D1FFF762B97047000031
:1017A000001000407047704770470000F8B50168AE
:1017B00004460868CA684B6910F00F0F4FF0000527
:1017C00059D003F0010602F49077374365D0C10782
:1017D00005D0D10503D5616C41F001016164410779
:1017E00005D5D90703D0616C41F00201616481071E
:1017F00005D5D90703D0616C41F00401616401078C
:1018000007D502F02001314303D0616C41F008019B
:101810006164616C00293AD0800604D5900602D537
:10182000204601F07FFA20684069616CC0F38010A7
:10183000090700D460B3204601F04DFA20684069E2
:10184000400621D52068143050E8001F21F04001E7
:1018500040E80012002AF5D1E06BA8B17249016599
:10186000E06BFEF7D4FF002811D0E06B016D01B0F2
:10187000BDE8F040084783060FD593060DD52046F6
:10188000BDE8F84001F04EBA2046FFF78DFFF8BDE5
:101890002046FFF789FF6564F8BD266B2023012EE3
:1018A0007ED1C6067CD5D6067AD5086848680090F1
:1018B00048694FF0020640064DD5E26B106840685B
:1018C0004FF480770004000C3AD0A18D814237D9C3
:1018D000E085D069B8422DD020680C3050E8001F58
:1018E00021F4807140E80012002AF5D120681430FC
:1018F00050E8001F21F0010140E80012002AF5D154
:101900002068143050E8001F21F0400140E8001228
:10191000002AF5D184F84230256320680C3050E865
:10192000001F21F0100140E80012002AF5D1E06B01
:10193000FEF724FF6663A08DE18D401A81B206E0B8
:10194000A18D8142A8D1D069B842A5D16663204655
:10195000FFF729FFF8BDA08DE18D401A81B2E08D1F
:101960000028F7D00029F5D020680C3050E8002F6F
:1019700022F4907240E80027002FF5D1206814303F
:1019800050E8002F22F0010240E80027002FF5D197
:1019900084F84230256320680C3050E8002F00E0C6
:1019A00006E022F0100240E80023002BF3D1CDE73F
:1019B00005062BD5150629D594F841002128C9D153
:1019C000A068B0F5805F01D12069B0B1206A411CE8
:1019D0002162216800784860E08C401E0004000C01
:1019E000E084B7D12068C16821F08001C16020681F
:1019F000C16841F04001C160F8BD206A0088C0F3B1
:101A000008004860206A801C2062E5E74006F3D5A4
:101A10005006F1D5CA68204622F04002CA6084F818
:101A2000413000F0A4F9F8BDC92C000870B50400DD
:101A300004D094F84100002510B106E0012070BDEB
:101A400084F84050204600F023F8242084F8410018
:101A50002068C16821F40051C160204601F0C4F93A
:101A60002068016921F4904101612068416921F0F9
:101A70002A0141612068C16841F40051C160656478
:101A8000202084F8410084F842006563002070BD86
:101A90002DE9F04F87B0044614216846FEF74AFD51
:101AA00080497F48236800247E4A10390325022696
:101AB0000827DFF8F4B183421FD1106840F40020FA
:101AC0001060106800F400200590086840F00100E4
:101AD00008600868CDE9005600F00100CDE9047007
:101AE00069465846CDE90245FEF7B6FE00220621BA
:101AF0003420FFF74DF8342035E0DFF8B0C16C48F2
:101B0000634535D1136843F480131360126802F4FF
:101B1000801205920A6842F004020A600A6802F024
:101B2000040205920A6842F008020A60096802ABE2
:101B300001F0080105918114CDE9001683E8B00099
:101B40006946FEF789FE0420CDE9000602AB69462E
:101B500083E8B0005748FEF77FFE002206213520BB
:101B6000FFF716F83520FFF705F807B0BDE8F08F4E
:101B7000DFF84481DFF82C914FF0C00A09F1040925
:101B80004FF0070C434522D1D9F8002042F0100253
:101B9000C9F80020D9F8000000F01000059008688E
:101BA00040F0020008600868694600F00200CDE9D4
:101BB00004C0CDE900A64148CDE90245FEF74CFE40
:101BC000002206212520FEF7E3FF2520CBE7DFF8E2
:101BD000F080434520D1106840F400301060106858
:101BE00000F400300590086840F0010008600868C3
:101BF00002AB00F0010005900C20CDE9000683E85F
:101C0000301069465846FEF727FE0022062126209E
:101C1000FEF7BEFF2620A6E7DFF8A880434520D1C7
:101C2000136843F480231360126802F48022059243
:101C30000A6842F004020A60096802AB01F004017C
:101C400005914FF44061CDE9001683E830106946F4
:101C5000FEF702FE002206212720FEF799FF27202B
:101C600081E7194A934280D1D9F8003043F020032C
:101C7000C9F80030D9F8002002F0200205920A6865
:101C800042F004020A600968CDE9024501F004014E
:101C9000CDE90471CDE900A66946FEF7DDFD64E7F4
:101CA000004C00404038024000000240005000401C
:101CB00000080240000C02400010014000040240F5
:101CC00000440040004800400014014070472DE9E6
:101CD000F843044690F84100984616460D462028E1
:101CE00002D00220BDE8F88385B17EB10020606497
:101CF000212084F84100FEF7ADFEA6848146E684EB
:101D0000A0682027B0F5805F02D003E00120E9E75A
:101D1000206910B12E4600250EE000260CE080213F
:101D2000204601F0E7F8A8B9C6B116F8010B216802
:101D30004860E08C401EE084E08C4B464FF000028F
:101D4000CDF800800028EAD14FF04001204601F094
:101D5000D1F840B184F841700320C3E735F8020B95
:101D6000C0F30800E3E784F841700020BAE7704749
:101D7000FEF760BD014890ED030A7047280000207F
:101D800008B5144801F04EF9002822D1124801F09C
:101D900027F900281DD1114801F03AF9002818D17F
:101DA000502101F027F9002813D10E2001F044F949
:101DB00000280ED1062001F069F9002809D1084851
:101DC0000068016841680091C16841F02001C1606C
:101DD000002008BD751E0008711D0008711E000856
:101DE000340600200A2310B500221146445C491C29
:101DF000224489B2D2B29942F8D3817A914230D149
:101E0000017855292DD1417853292AD1B0F90210F2
:101E1000DFED140A00EE101A1449B8EEC00A20EEE5
:101E2000201A9FED110A21EE001A81ED011AB0F976
:101E3000042001EE102AB8EEC11A21EE201A21EE7C
:101E4000001A81ED021AB0F9060001EE100A012015
:101E5000B8EEC11A61EE200A20EE800A81ED030A75
:101E6000087010BD00000038000034432800002036
:101E7000704700008AB2014664230148FFF727BF7C
:101E800034060020FEE7000010B51B4801F0E1FC1D
:101E90001A4C194A0021E061FC3A194801F02EFD64
:101EA000154A2060D83A0021164801F027FD124A51
:101EB0006060B43A0021144801F020FD0E4AA06091
:101EC000903A0021114801F019FD0B4AE0606C3A8C
:101ED00000210F4801F012FD074A2061483A002115
:101EE0000C4801F00BFD044A6061243A00210A48C5
:101EF00001F004FDA06110BD185F0008A8000020DB
:101F0000352800083D280008652800086D280008CD
:101F1000752800087D2800088528000830B587B09E
:101F200014216846FEF706FB1E480024016841F0B4
:101F300080010160016801F080010591016841F0B4
:101F400001010160016801F001010591016841F0A2
:101F500002010160016801F002010591016841F090
:101F600004010160016801F004010591016841F07C
:101F70000801016000680C4D00F008000590012286
:101F800018212846FEF760FD182000901120CDE9A9
:101F900001040120039069462846FEF75DFC07B066
:101FA00030BD0000303802400004024010B58AB055
:101FB000002407941C2168460894FEF7BBFA1648D3
:101FC00014490160A721C0E9011444F61F61C0E96A
:101FD00003148461FFF72DFB08B1FEF7CDFB0794D6
:101FE00007A90D480894FFF7F1F808B1FEF7C4FB04
:101FF0006020CDE9000402940C226946064804944E
:10200000FFF7B1FA08B1FEF7B7FB0348FFF742FA52
:102010000AB010BD000400405C0500201CB500247F
:102020000E4800940C49019401605321C0E9011449
:1020300042F20F718461C160FFF710F908B1FEF739
:102040009BFB0094694605480194FFF7BFF8002800
:1020500001D0FEF791FB1CBD00140040A405002038
:1020600010B592B000240F941C2168461094FEF71E
:1020700061FA202107A8FEF75DFA2C482A49016081
:10208000A721C0E901144FF6FF71C0E903144461B0
:102090008461FFF7CEFA08B1FEF76EFB0F940FA92B
:1020A00022481094FFF792F808B1FEF765FB602014
:1020B000CDE9000402940394049405940022694637
:1020C0001A480694FFF74FFA08B1FEF755FB0422B1
:1020D00069461648FFF747FA08B1FEF74DFB08229C
:1020E00069461248FFF73FFA08B1FEF745FB0C229C
:1020F00069460E48FFF737FA08B1FEF73DFB079433
:10210000089409944FF400500A94CDE90B4007A9B4
:1021100006480E94FFF730F808B1FEF72DFB034890
:10212000FFF7B8F912B010BD00040140EC05002023
:102130000C4810B50A4901604FF4E13141600021BB
:1021400081600C22C160C0E904128161C161FFF7A6
:102150006DFC002803D0BDE81040FEF70DBB10BD9C
:10216000004C0040340600200C4810B50A490160BC
:102170004FF4E1314160002181600C22C160C0E96F
:1021800004128161C161FFF751FC002803D0BDE852
:102190001040FEF7F1BA10BD005000407C06002050
:1021A0000C4810B50A4901604FF4E131416000214B
:1021B00081600C22C160C0E904128161C161FFF736
:1021C00035FC002803D0BDE81040FEF7D5BA10BD9D
:1021D00000100140C40600200C4810B50A490160F7
:1021E0004FF461214160002181600C22C160C0E98F
:1021F00004128161C161FFF719FC002803D0BDE81A
:102200001040FEF7B9BA10BD004400400C07002092
:102210000C4810B50A4901604FF416514160002185
:1022200081600C22C160C0E904128161C161FFF7C5
:10223000FDFB002803D0BDE81040FEF79DBA10BD9D
:1022400000480040540700200C4810B50A490160BE
:102250004FF4E1314160002181600C22C160C0E98E
:1022600004128161C161FFF7E1FB002803D0BDE8E2
:102270001040FEF781BA10BD001401409C070020F9
:10228000FEE7FEE7054880ED090A9FED050AC0ED6F
:102290000A0A80ED0B0A80ED0C1A70473800002006
:1022A0000000000010B51F4C9FED1F1A1F492DEDB7
:1022B000028BB0EE408A94ED0C0A70EEC00A01E089
:1022C00070EEC10A10EE900A8842F9DC184900BF8E
:1022D00010EE900A884202D970EE810AF8E7C4ED48
:1022E0000B0A94ED0B0ADFED130A20EE200ADFED56
:1022F000120AC0EE208AB0EE680A01F047F8D4ED69
:10230000090A48EE000AB0EE680AC4ED090A00F0B6
:1023100095FFD4ED0A0A48EE000AC4ED0A0ABDECA6
:10232000028B10BD380000200000B443000034438D
:10233000000034C3DA0F49400000344330B40021B8
:10234000084B0A465FF0000003EBC004401CC0B21B
:1023500062548028F8D3491CC9B20829F2D330BC92
:1023600000F0B4B85C01002070B50024064680255A
:1023700025FA04F0304000D0012000F051F901208E
:1023800000F044F9002000F041F9641CE4B2082C8C
:10239000EED3012000F03AF9BDE87040002000F0D3
:1023A00035B910B5012000F03BF9012000F02EF9FD
:1023B000002000F035F9BDE81040002000F026B9FB
:1023C00010B5002000F02CF9012000F01FF9BDE845
:1023D0001040012000F024B910B5012000F016F9DA
:1023E000012000F01DF90120FEF724FA0021AE20A3
:1023F00000F007F90021084600F003F90021102041
:1024000000F0FFF80021402000F0FBF80021B02090
:1024100000F0F7F80021812000F0F3F80021FF2000
:1024200000F0EFF80021A12000F0EBF80021A62039
:1024300000F0E7F80021A82000F0E3F800213F2099
:1024400000F0DFF80021C82000F0DBF80021D320E5
:1024500000F0D7F80021084600F0D3F80021D5207D
:1024600000F0CFF80021802000F0CBF80021D82028
:1024700000F0C7F80021052000F0C3F80021D920A2
:1024800000F0BFF80021F12000F0BBF80021DA20B5
:1024900000F0B7F80021122000F0B3F80021DB2093
:1024A00000F0AFF80021302000F0ABF800218D20C3
:1024B00000F0A7F80021142000F0A3F80021AF20BD
:1024C00000F09FF8BDE81040FFF738BF70B5114E1F
:1024D000002400BF04F1B000C0B2002100F091F868
:1024E0000021084600F08DF80021102000F089F846
:1024F0005FF0000506EBC5000121005D00F081F8EA
:102500006D1CEDB2802DF5D3641CE4B2082CE1D330
:1025100070BD00005C01002010B50446B031C8B2A7
:10252000002100F06EF8102040EA1410002100F0A5
:1025300068F804F00F00BDE81040002100F061B819
:102540002DE9F041203A0D468046D6B27F2803D9C6
:1025500000208D1C8046EDB2102B294611D0FFF7CC
:10256000DBFF184906EB4600002401EB4005012182
:10257000285D00F046F8641CE4B2062CF7D3BDE8F1
:10258000F081FFF7C9FF104F002400BF04EB0610D5
:102590000121385C00F035F8641CE4B2082CF5D356
:1025A0006D1CE9B24046FFF7B7FF002404EB0610AC
:1025B00038440121007A00F024F8641CE4B2082CAD
:1025C000F4D3DCE7025600082A5800082DE9F04150
:1025D000984617460E46044600250DE04346314610
:1025E0002046FFF7ADFF0834E4B2782C02D900246E
:1025F000B61CF6B26D1CEDB27A5D002AEED1BDE8D4
:10260000F08109B100F027B800F014B808B1012238
:1026100000E0002208210148FEF716BA000402403B
:1026200008B1012200E0002210210148FEF70CBA97
:102630000004024010B50446FFF7B3FE7820FFF710
:1026400093FE0020FFF790FE2046FFF78DFEBDE8C9
:102650001040FFF7B5BE10B50446FFF7A2FE782084
:10266000FFF782FE4020FFF77FFE2046FFF77CFE4B
:10267000BDE81040FFF7A4BE0D4808B59FED0B0A5A
:10268000002180ED010A80ED020A80ED030A80ED51
:10269000040A4170017007480068016841680091B0
:1026A000C16841F02001C16008BD000000000000C9
:1026B000740000200C07002070B5194C04F11401BF
:1026C00022781AB10025012A06D007E0032802D19A
:1026D00008700120207070BD36281FD18854521C0C
:1026E000D0B220700828F6D3CA796B2A16D10828F0
:1026F00014D1D1F803008A7800BA897920F0FF005C
:10270000084300EE100ADFED070AB8EE400A20EE9B
:10271000200A0AB1B1EE400A00F006F8257070BD3B
:10272000740000200000B43B10B51E482DED028B54
:1027300080ED030A417879B1D0ED040A80ED040AF6
:10274000194A70EE600A9FED190A10EE901A914234
:1027500009DD70EEC00A0DE080ED040A0121417030
:10276000BDEC028B10BD10EE901A114A914201D9B6
:1027700070EE800A9FED0F0A20EE808A80ED028ABB
:1027800090ED010A30EE080A80ED010AFFF7F2FA37
:10279000F0EE400AB0EE480ABDEC028BBDE81040F6
:1027A000FFF780BD74000020000034430000B443F4
:1027B000000034C3C00F733C10B500F007F80249A5
:1027C0000968486310BD0000EC0500204FF4FA7161
:1027D000884203D340F6C411884200D908467047A6
:1027E00010B540F2DC54204600F01AF80C210A48DB
:1027F000FEF76AFF08B1FDF7BFFF2046FFF7DCFFD9
:1028000000210648FEF760FF002803D0BDE8104015
:10281000FDF7B2BF10BD00005C050020EC050020F4
:1028200010B5FFF7D3FF02490968086410BD000026
:102830005C050020642000F097FFFBE71CB500203A
:102840000090014601909FED060A0523C82203204F
:10285000FDF738FF4FF47A7000F086FF0120FBE7A8
:102860000000C842012000F07FFFFBE7012000F0DC
:102870007BFFFBE7012000F077FFFBE7012000F082
:1028800073FFFBE7012000F06FFFFBE710B54FF08F
:10289000E020006902F0BEFB012803D0BDE8104033
:1028A00001F0B4BF10BD000030B593B030216846D0
:1028B000FDF740FE14210CA8FDF73CFE1D48002545
:1028C000016841F080510160006800F08050119073
:1028D0001948016841F4804101600068022400F455
:1028E0008040119001200090000401908001CDE90A
:1028F000064008AA0420A82182E813000B9068462D
:10290000FEF782FA08B172B6FEE70CA90F2081E843
:1029100031004FF4A0500F904FF4805010900521DB
:102920000CA8FEF767F9002801D072B6FEE713B0D5
:1029300030BD00004038024000700040024801688D
:1029400041F470010160704788ED00E00148FEF736
:1029500008BD0000F0070020F0B50268274B284DA5
:10296000284E294F294C4FF0804C984209D06045A1
:1029700007D0A84205D0B04203D0B84201D0A0424F
:1029800004D122F0700E4A6842EA0E0298421BD02F
:10299000604519D0A84217D0B04215D0B84213D024
:1029A000A04211D01A4DA8420ED01A4DA8420BD009
:1029B000194DA84208D0194DA84205D0184DA8427B
:1029C00002D0184DA84203D122F44075CA682A43A8
:1029D0004D6922F080022A438D68C5620D688562C8
:1029E000984201D0A04201D109690163016841F018
:1029F00004010160012141610260F0BD000001405D
:102A00000004004000080040000C004000040140A9
:102A100000400140004401400048014000180040CF
:102A2000001C00400020004010B501F01F030121F0
:102A3000046A99408C430462016A9A40114301621E
:102A400010BD0000F0B5036A026A22F001020262C2
:102A500042688469124E24F073050C682C4323F0FD
:102A600002058B682B430D4DA84201D0B04205D121
:102A700023F00807CB683B4323F00403A84201D0AE
:102A8000B04205D14D6922F4407215438A692A4348
:102A900042608461496841630362F0BD0000014007
:102AA00000040140F0B5026A036A23F010030362D8
:102AB000436884690D6824F4E64444EA05248D687B
:102AC00022F0200242EA05120F4D104EA84201D01A
:102AD000B04206D1CF6822F0800242EA071222F00B
:102AE0004002A84201D0B04207D14D6923F44063AF
:102AF00043EA85038D6943EA85034360846149683D
:102B000081630262F0BD000000000140000401404A
:102B1000F0B5026A036A23F4807303624368C469F0
:102B200022F4007224F073050C68124E2C438D6859
:102B300042EA05220E4DA84201D0B04206D1CF682C
:102B400022F4006242EA072222F48062A84201D005
:102B5000B04207D14D6923F4405343EA05138D6910
:102B600043EA05134360C4614968C1630262F0BD72
:102B7000000001400004014030B5046A026A22F4FA
:102B8000805202624268C3690D6823F4E64343EA57
:102B900005238D6824F4005444EA0534084DA84206
:102BA00002D0084DA84204D14D6922F4804242EA85
:102BB00085124260C36149680164046230BD00004F
:102BC0000000014000040140084808B500219FEDC5
:102BD000080A017080ED010A064800680168416832
:102BE0000091C16841F02001C16008BD9000002043
:102BF00000000000C4060020124910B50A78002326
:102C000022B1012A05D0022A06D009E0012806D106
:102C100006E0032802D103E0022801D00B7010BDAA
:102C2000084C0834A054521CD0B208700728F6D3C0
:102C3000B4F8030040BA00EE100AB8EE400A81ED85
:102C4000010AEBE79000002070B51948FEF7AEFDD1
:102C5000174800680168C943890616D44068154CB6
:102C6000C2B215486378012183B1012B0DD12378BD
:102C70000025C2545B1CDAB22270022A0CD00B2A47
:102C800003D1FFF7AFF82570657070BD552AFCD1F0
:102C900002702170617070BD40785328FBD05228BB
:102CA000F9D0552802D06570257070BD217070BDB7
:102CB00034060020C8000020E40700200148FEF789
:102CC00075BD00007C06002010B5806B0021C18519
:102CD000FEF76AFD10BD01680C3151E8002F22F4A7
:102CE000907241E80023002BF5D10168143151E8BE
:102CF000002F22F0010241E80023002BF5D1016BE7
:102D0000012909D101680C3151E8002F22F010028D
:102D100041E80023002BF5D1202180F8421000214A
:102D20000163704708B590F84210222901D00220B3
:102D300008BD82684FF480539A4201D1016921B1E4
:102D4000816A9A421BD04AB10AE00268816A5268DD
:102D5000C2F308020A80816A891C08E0026972B124
:102D60000268526802F07F020A70816A491C81621F
:102D7000C18D491E0904090CC18503D01BE00268FE
:102D80005268F1E70168CA6822F02002CA6001684F
:102D9000CA6822F48072CA6001684A6922F001029E
:102DA0004A61202180F8421000214163026B012A10
:102DB00003D0FEF78BFF002008BD016301680C31D2
:102DC00051E8002F22F0100241E80023002BF5D13A
:102DD00001680A68D20602D50A6849680091818DA7
:102DE000FEF7E1FCE7E7000070B504460068016902
:102DF000E26821F44051114301612169A068E26950
:102E000008436169114308432168CA6849F20C63A9
:102E10009A430243CA6020684169A26921F4407163
:102E20001143416131492068884202D030498842CB
:102E300002D1FDF7A9FF01E0FDF796FFE26900234B
:102E4000192164253226B2F5004F626828D0A0FB14
:102E50000101930F9200FDF777FA0146B0FBF5F000
:102E60006FF01802504301EB800006EB0010B0FB3E
:102E7000F5F000F0F002B1FBF5F002EB0012B1FB4F
:102E8000F5F06FF01803584301EB800006EB0010DB
:102E9000B0FBF5F000F00F0021681044886070BDB1
:102EA000A0FB010192185B41FDF74EFA0146B0FB11
:102EB000F5F00201B1FBF5F06FF01803584301EB98
:102EC000800006EBC000B0FBF5F000F0F80002EB6C
:102ED0004002B1FBF5F0584301EB800006EBC00067
:102EE000B0FBF5F000F00700D6E70000001001404D
:102EF000001401402DE9F843984617460D46044654
:102F0000089E24E0701C22D0FDF7A4FDA0EB080071
:102F1000B0421AD8CEB12068C168490717D5802DB4
:102F200015D0402D13D00168C94309070FD401689B
:102F30000025406800902046FFF7CDFE0820606421
:102F400084F840500120BDE8F8830320FBE72068A7
:102F5000006835EA000004D00020B842D2D000203A
:102F6000F1E70120F9E700000B4882B00068016832
:102F7000C943090702D40168416800910168C94347
:102F8000890604D4406802B0C0B2FFF735BE0248DB
:102F900002B0FEF70BBC0000C40600200B4882B054
:102FA00000680168C943090702D4016841680091BB
:102FB0000168C943890604D4406802B0C0B2FFF773
:102FC0007BBB024802B0FEF7F1BB00000C070020FB
:102FD0000148FEF7EBBB000054070020FEE70000AD
:102FE00018B103498861002070476FF005007047F1
:102FF00000000020032802D96FF005007047034A43
:10300000106211700020D0617047000000000020A5
:1030100018B103494861002070476FF00500704700
:103020000000002018B103494860002070476FF08D
:10303000050070470000002070B5044640F6FF729E
:10304000012100B2FDF70CFB40B14BF28851692021
:1030500000F046F86FF00205A0B902E06FF005003D
:1030600070BD0949086A012801D010B104E014209C
:1030700000E0012089698847A1B2022000F030F801
:103080000028EDD0284670BD0000002070B5044631
:103090000D22012100B2FDF7E3FA40B14BF2885155
:1030A000692000F01DF86FF00205A0B902E06FF092
:1030B000050070BD0949086A012801D010B104E07B
:1030C000142000E0012089698847A1B2032000F0A4
:1030D00007F80028EDD0284670BD00000000002051
:1030E0002DE9FC476FF0050A90281AD2354CCAB278
:1030F0002346D4F82080FF27090A5B686FF0040C90
:103100004FF0AA09C6B2B8F1000F0DD02546B8F1AC
:10311000010F2D7817D0B8F1020F31D0B8F1030F9D
:1031200040D05046BDE8FC87DBB38DF800708DF8C9
:1031300001908DF802608DF804108DF803200521B0
:10314000684698473AE063B306238DF800508DF83F
:103150000130000A8DF802008DF804108DF803602C
:103160008DF805201946684600F042F8010A8DF8EE
:1031700006108DF8070062680821684690471DE038
:10318000236973B18DF800708DF801908DF802609D
:103190008DF803208DF804100522694628469847CB
:1031A0000CE00DE0A4685CB18DF800208DF80110F2
:1031B000C1B26806000E02236A46A0470020B1E7AC
:1031C0006046AFE7000000204100080218BF04205D
:1031D0000A0E18BF40F001004FF07F4232EA0101B1
:1031E00008BF40F00200012808BF0520704700001A
:1031F000F0B5FF23084E1C46002206F5807705E057
:10320000855C5D40735D63407C5D521C8A42F7DBE8
:1032100044EA0320F0BD0000025400080907090E2B
:10322000002804DB00F1E02080F80014704700F073
:103230000F0000F1E02080F8141D704710EE101A06
:1032400008B5444A6846B2EB410F28D94FF0E64032
:10325000B0EB410F94BF00204FF0FF30009000987A
:10326000002861DB60EE000A10F0010F45D010F07D
:10327000020FDFED391A9FED391A00EEE11ADFED8A
:10328000381A40EE811A21EEA01AF0EE400A40EE04
:10329000010A08BFF1EE600AB0EE600A08BD314BCA
:1032A00021F0004293423CD911F0004FDFED2E0A8D
:1032B00020EE201ADFED2D0A19BF31EE601A71EEF3
:1032C000200A31EE201A71EE600ABDEEE01A11EE0E
:1032D000100A9FED271A00F0030000EEC10A9FEDCF
:1032E000251A009000EEC10A9FED231A00EEC10AD4
:1032F0009FED221A00EEC10AB1E79FED211A9FED62
:10330000210A10F0020F00EE810A9FED1F1A00EE55
:10331000801AB7EE000A00EE810A18BFB1EE400A2B
:1033200008BD00F00FF99AE710EE100A4000B0F166
:103330007F4F3CBFB7EE000A08BD07D14FF0010038
:10334000FDF727F9BDE8084000F0ECB8BDE80840FB
:1033500000F0E4B8B61F927E336D4C39DA82083C37
:10336000A0AA2ABE490E494683F9223F0000004B1D
:103370000000C93F00A0FD390020A2331A61342C9F
:10338000B93AB2BACA9F2A3DDDFFFFBE00B510EEC2
:10339000101A2DED028B81B0524A6846B2EB410FF4
:1033A0002ED94FF0E640B0EB410F94BF00204FF014
:1033B000FF3000900098B0EE408A00286ADB10F0E1
:1033C000010F4BD068EE080A9FED471A9FED470AA0
:1033D00000EE810A9FED461A10F0020F00EE801AEF
:1033E000B7EE000A00EE810A02BF01B0BDEC028B0D
:1033F00000BD00BF01B0B1EE400ABDEC028B00BDC4
:103400003C4B21F00042934241D911F0004FDFEDD7
:103410003A0A20EE201ADFED390A19BF31EE601AA0
:1034200071EE200A31EE201A71EE600ABDEEE01A4C
:1034300011EE100A9FED321A00F0030000EEC10AEF
:103440009FED301A009000EEC10A9FED2F1A00EE9A
:10345000C10A9FED2E1A00EEC10AABE728EE080A5A
:103460009FED2B1ADFED2B0A10F0020F40EE410A00
:103470009FED291A00EE201A61EE000AB0EE480A0C
:1034800008EE200AB6D101B0BDEC028B00BD00F001
:1034900059F88FE718EE100A4000B0F17F4F0DD2B7
:1034A00018EE100AFFF790FE042808BF00F042F85B
:1034B000B0EE480A01B0BDEC028B00BD09D101207D
:1034C000FDF767F801B0BDEC028B5DF804EB00F08E
:1034D00029B801B0B0EE480ABDEC028B5DF804EBF0
:1034E00000F01CB8B61F927EB93AB2BACA9F2A3D04
:1034F000DDFFFFBE490E494683F9223F0000004B25
:103500000000C93F00A0FD390020A2331A61342C0D
:10351000336D4C39DA82083CA0AA2ABE30EE000A8C
:1035200070470000DFED020A80EEA00A704700003D
:10353000000000009FED020A20EE000A7047000024
:10354000000000102DE9F0014FF07F42B2EB410F77
:103550009FBF4FF0FF310160BDE8F00170474FF0B1
:10356000004242EA0123C1F3C752783A551112F0E2
:103570001F0C434CCCF120067C44C1F3C752A2F18E
:1035800078024FEA621204EB820254F8254008BF29
:10359000D2E9015612D0556804FA0CF425FA06F760
:1035A0003C43976805FA0CF527FA06F8D26807FA43
:1035B0000CFCF24045EA08054CEA0206A4FB034C69
:1035C000A5FB0352A6FB03631D449D4234BF0126A5
:1035D00000261319334416B1934202D903E09342F3
:1035E00001D2012200E00022624402F1200C920686
:1035F000DC0C42EA443200EE102A5B03DFED210AC4
:10360000F8EEC01A00EE103A4FEA9C1C11F0004F81
:10361000B8EE400AC0F800C020EE201A00EE105AA2
:10362000DFED190AB8EE400A20EE200A71EE810A99
:1036300070EE800A10EE902A02F500626FF30B0222
:1036400000EE902A70EEE11A31EEC11ADFED101A89
:1036500030EE411A9FED0D0A20EE800A01EE210A9C
:103660009FED0C1A00EE810A04BFBDE8F00170471F
:10367000CCF180510160BDE8F001B1EE400A704725
:10368000C4290000000000360000802C22AAFD2979
:10369000DB0FC92F0000C92FFDF7EAF9FFF704F986
:1036A000FEF73CFCFEF744FDFEF75EFDFEF778FDFD
:1036B000FEF792FDFEF7ACFDFEF778FCFEF7AEFCE0
:1036C000FEF7CEFCFEF7C0FDFFF78AF8FEF758FBC9
:1036D0001E4D00202870FDF7BDF904464FF47A76A0
:1036E000287820B9FDF7B6F9001BB042F8D3FEF7F1
:1036F00041FBB0EE401AF3EE090AB3EE090AFEF7F9
:10370000C1FDFEF7B9FFFFF75FFAFEF765FE002186
:1037100010230FA20846FEF759FF10230EA2022124
:103720000020FEF753FF10230DA204210020FEF716
:103730004DFF10230BA206210020FEF747FF00F0EB
:1037400031F8FEF7A1FB00F03FF8FEE7280000206B
:103750005961773A000000004469733A00000000A4
:10376000583A0000593A000010B5EFF3058111B145
:103770006FF0050403E0002408B100F09FFE20462E
:1037800010BD000010B501F045FC38B1022804D08E
:1037900003480068012800D0002010BD032010BDA0
:1037A0002C010020EFF3058010B16FF00500704789
:1037B0000448016811B14FF0FF30704701210160EA
:1037C000002070472C01002010B5EFF3058010B1E8
:1037D0006FF0050010BD08480168012902D04FF0C4
:1037E000FF3010BD054A002182F8141D022101603E
:1037F00000F014FF002010BD2C0100200BE000E0C1
:103800002DE9F0410D46014621F0010001F00101D2
:103810004FF00004EFF305820AB1A41F16E048B18F
:1038200000296FF001066FF00207294608D001F069
:1038300039FB07E06FF0030408E035B1344605E0DA
:1038400001F074FA0128F8D100E03C462046BDE8BA
:10385000F08170B505464FF00004EFF3058050BBD2
:103860000DB1686800E00020C10701D0012600E02A
:10387000002600071FD46DB1D5E9021021B15028F0
:1038800019D31EB1042002E020B114E0012000F0A1
:10389000DEFF05E00EB1042000E0012000F0CCFFC7
:1038A000040008D00DB1296800E0002100F0D0FD2F
:1038B0000EB144F00104204670BD70B5014621F000
:1038C000010001F001014FF00004EFF305820AB19D
:1038D000A41F11E028B16FF0020529B101F06BF9C6
:1038E00007E06FF0030407E000231A46194601F0D1
:1038F00053F8012800D02C46204670BD2DE9FF4129
:103900004FEA01034FF00005EFF30581039549BB32
:1039100040B38027182100244AB3166806B1344604
:1039200096691EB13146761E382E02D21679F607F8
:1039300003D0002004B0BDE8F081566906B1B70895
:10394000D2F808C0BCF1000F0DD0D5685C2D18D39B
:1039500012693AB136B18DE806103A46214601F0B7
:1039600028FB03900DE0D6685EB912694AB903AA34
:10397000CDE90012BAB2214601F0EEFA012800D0DA
:1039800003950398D6E700002DE9F041134C0F464C
:103990000546E6682068001D00F05CFC681C07D145
:1039A00037B12168BDE8F0410D48091D00F0A2BC07
:1039B00020683544B5424560216805D2A06BBDE85A
:1039C000F041091D00F07EBC606B091D00F07AFC1F
:1039D000A06A854200D2A562BDE8F081DC0000202B
:1039E000280D00202DE9F041054600F08FFC2D4CFC
:1039F000A068401CA06020682B4F10B1606930B3F4
:103A00002BE02560A068012827D1002606EB860060
:103A100007EB800000F048FC761C382EF6D32348D4
:103A200000F042FC2148143000F03EFC1F482830D2
:103A300000F03AFC1D483C3000F036FC1B4850308A
:103A400000F032FC194860631430A06305E0206880
:103A5000E96AC06A884200D82560606A401C6062DA
:103A60006864E86A2169884200D9206100EB80001F
:103A700007EB8000291D00F03DFC00F067FC606949
:103A800000280CD02068E96AC06A884207D2084939
:103A90004FF080500860BFF34F8FBFF36F8FBDE8CA
:103AA000F0810000DC00002078080020D80C002005
:103AB00004ED00E038B500F029FC104C2068C8B9CE
:103AC0000F4800F0F1FB0E48143000F0EDFB0C48FD
:103AD000E060143020610A4B0020F03B009003F1BD
:103AE000500210210A2000F0E0FE206010B105A174
:103AF00000F0AEFCBDE8384000F028BC1801002002
:103B00002C0E0020546D72510000000030B4026C85
:103B10000B46002A0BD0C1681144C1608468A142E1
:103B200001D30168C16030BC1846FCF784BC30BCCE
:103B300070472DE9F041856B174604460026026C5C
:103B400082B1C7B1E068FCF776FCE168206C091A25
:103B5000E1602268914202D2A168081AE060022F57
:103B600016D017E02068A8B9A06801F0CBFA064685
:103B70000020A0600EE06068FCF75DFC216C6068CE
:103B800008446060A168884204D32068606001E056
:103B900005B16D1E6D1CA5633046BDE8F08110B502
:103BA000044690F8590058B101280CD002280FD0D3
:103BB000502080F31188BFF34F8FBFF36F8FFEE764
:103BC000206B00F0D7FB2046BDE8104000F0D2BBD0
:103BD00010BD000010484FF4A041420706D0C01DA0
:103BE0000D4920F00700411AC1F5A0410B4A0023FE
:103BF0000144C2E900030839183A21F007011160B5
:103C00004B600B600B1AC0E9001393604FF000404B
:103C100053605061704700000C15002048010020DF
:103C2000144E154CA6F29C474FF08058DFF84C908C
:103C300012E000BF00F06AFBF068C568281D00F0C4
:103C400009FBA068401EA0606068401E606000F034
:103C50007DFB2846FFF7A3FF60680028EAD138689B
:103C60000128F9D9C9F80080BFF34F8FBFF36F8FD8
:103C7000F2E70000140D0020DC00002004ED00E05D
:103C8000002807D00021816001600B460A46C16010
:103C900000F082BE7047000070B51D46049C51B113
:103CA000C4F80020C4E90F010121204600F030FED5
:103CB00084F84C5070BD2460F4E700002DE9F05FFB
:103CC0008846DDE90B941546834691009A460A9E84
:103CD000A522206BFCF726FC6FF00301206B01EBA3
:103CE0008501084420F00707780707D0502080F3AB
:103CF0001188BFF34F8FBFF36F8FFEE70025B8F138
:103D0000000F0FD05FF00000221818F8001082F8A2
:103D1000341018F8001011B1401C1028F4D384F8A6
:103D2000435001E084F83450382E00D33726E66241
:103D3000C4E91365201D00F0C2FA04F1180000F078
:103D4000BEFA2461C6F138006462A061656584F83A
:103D5000585052465946384600F066FA2060B9F18C
:103D6000000F01D0C9F80040BDE8F09F30B51149FF
:103D700000E011460A688242FBD34B685C1884421B
:103D800003D1406818444860084643681C189442B0
:103D900009D1084C183C2468A24209D052681A4440
:103DA00042600A6812680260814200D0086030BD3B
:103DB0000460F9E74801002070B5002441600B4D14
:103DC0000061914206D8D11A8269914206D2011D42
:103DD000286907E09A4203D2994201D3012403E003
:103DE000011DE86800F06EFA204670BD1801002041
:103DF00010B5044600F08AFAA06B28B15FF0000409
:103E000000F0A4FA204610BD0124F9E730B589B0CE
:103E10003C4D6EE00498002806DADDE90601059ABB
:103E200090470498002864DB069C606910B1201D4F
:103E300000F010FA03A800F0D7F8024604980A2808
:103E400057D2DFE800F00505052D334A05052D336F
:103E500094F8280040F0010084F828000599A06932
:103E6000059B01442046FFF7A7FF68B3216A20465F
:103E7000884794F8280040073BD50020009005981B
:103E8000A169002342181946204601F081FAD8B9E9
:103E9000502080F31188BFF34F8FBFF36F8FFEE781
:103EA00014F8280F20F00100207022E094F8280078
:103EB00040F0010084F828000598A06128B181181D
:103EC00013462046FFF778FF13E0502080F3118857
:103ED000BFF34F8FBFF36F8FFEE794F82800810781
:103EE00003D4204600F046FA03E020F0010084F8F5
:103EF0002800002204A9286800F07CFE002889D14F
:103F000009B030BD180100202DE9FC410F460546DF
:103F100000F0C8FB01A800F067F80446019818B14A
:103F200001F0A4F9BDE8FC81254EAFB1306900680D
:103F3000D0B30027291B3A46306800F09DFA01F003
:103F400095F90028EED11F494FF080500860BFF36B
:103F50004F8FBFF36F8FE5E7A542EBD801F086F9ED
:103F6000F0682746C068C468201D00F073F994F813
:103F70002800410719D5A0692B4641193A46204629
:103F8000FFF71AFFA8B100200346014600902A4619
:103F9000204601F0FDF960B9502080F31188BFF38D
:103FA0004F8FBFF36F8FFEE707E020F0010084F82A
:103FB0002800216A20468847B4E70127BAE70000B5
:103FC0001801002004ED00E00648416B096829B1A2
:103FD000416BC968C9684968816270474FF0FF3119
:103FE000FAE70000DC00002070B5054601F020F87B
:103FF000064E0446B068844203D200F009F801205E
:1040000000E0002028602046B46070BD1801002048
:10401000F8B5194D20E0C068C4680668201D00F09E
:1040200019F9216A2046884794F82800400713D5DB
:10403000A0693044B04206D924616060211DE8685F
:1040400000F040F908E000200346014600903246A7
:10405000204601F09DF938B1E86801680029DAD1FD
:104060002969C5E90310F8BD502080F31188BFF31A
:104070004F8FBFF36F8FFEE718010020084840689C
:10408000401C4FF0500080F3118804D0BFF34F8FD5
:10409000BFF36F8FFEE7BFF34F8FBFF36F8FFEE766
:1040A00050010020074CE068016841B1C068002160
:1040B000D0F80000FFF728FFFFF7A8FEF3E7012183
:1040C0000020F7E7180100202DE9F041044600F038
:1040D0001DF994F9455004F1240609E0606A48B1DD
:1040E000304601F08BF808B100F016FA6D1E6DB283
:1040F000002DF3DC4FF0FF3684F8456000F026F920
:1041000000F004F994F9445004F1100709E0206923
:1041100048B1384601F072F808B100F0FDF96D1EA3
:104120006DB2002DF3DC84F84460BDE8F04100F08E
:104130000DB900002DE9F0410546002700F0B2FA64
:10414000324E306808B9FFF745FD706905424ED11F
:10415000C5B3083568070ED005F00700C0F10800A8
:104160000544680707D0502080F31188BFF34F8FB4
:10417000BFF36F8FFEE72DB37068854237D82348B1
:10418000183001460C6801E020460C466168A942DF
:1041900002D221680029F7D131688C4227D0076804
:1041A0002168016060680837411B10290FD9601928
:1041B000420708D0502080F31188BFF34F8FBFF320
:1041C0006F8FFEE713E041606560FFF7CFFD616828
:1041D0007068401A7060B268904200D2B060706936
:1041E00001430020C4E90001F068401CF06001F0C8
:1041F0003DF8780707D0502080F31188BFF34F8F28
:10420000BFF36F8FFEE73846BDE8F0813001002034
:104210000449086818B10868026D521C02650868F4
:1042200070470000DC00002010B5031F4FF08074C1
:104230001C601B1F21F001011960191F044B0B604A
:1042400014390A60091F6FF0020244380A6010BD79
:104250007D400008D0E9013201699A60D0E901236C
:104260005A604A68824201D182684A600022026133
:104270000868401E0860086870470000034B036030
:1042800003F15C000860802010607047540E00202D
:10429000044B036003F15C0008604FF48070106011
:1042A00070470000B010002000F108014FF0FF320D
:1042B000C0E90112C1600161002101607047002165
:1042C0000161704730B50B685A1C02D000F108023A
:1042D00002E0026904E02246546825689D42FAD94A
:1042E00053684B6099608A60516008610168491C9D
:1042F000016030BD42684A6093688B609368596082
:10430000916008610168491C01607047502080F38A
:104310001188BFF34F8FBFF36F8F0A494868401C65
:10432000486001280CD10848006810F0FF0F07D042
:10433000502080F31188BFF34F8FBFF36F8FFEE7DC
:10434000704700005001002004ED00E00849486873
:1043500028B1401E486001D180F311887047502079
:1043600080F31188BFF34F8FBFF36F8FFEE700001C
:104370005001002070B500282AD0164DA0F1080485
:1043800060686969084207D1502080F31188BFF343
:104390004F8FBFF36F8FFEE722683AB1502080F352
:1043A0001188BFF34F8FBFF36F8FFEE788436060C4
:1043B00000F078F960686968084468602046FFF793
:1043C000D5FC2869401C2861BDE8704000F04EBF54
:1043D00070BD0000300100204FF0E020002101619D
:1043E000816105494FF47A720968B1FBF2F1491E07
:1043F0004161072101617047D800002010B5FBF72B
:104400007FFF114910280ED300F1E02090F8F0034F
:104410000A78904207D2502080F31188BFF34F8F63
:10442000BFF36F8FFEE709480068896800F4E06019
:10443000884207D9502080F31188BFF34F8FBFF314
:104440006F8FFEE710BD0000500100200CED00E072
:1044500010B5084B002200BF53F832401CB1521C6B
:10446000082AF9D310BD43F8321003EBC2014860AB
:1044700010BD00003808002070B515460E460446F1
:10448000FFF744FF94F944100020491C01D184F83F
:10449000440094F94510491C01D184F84500FFF708
:1044A00055FFA06B28B92A46314604F1240000F0DC
:1044B00051F82046BDE87040FFF706BE10B5020077
:1044C00014D00F48006B38B1502080F31188BFF32F
:1044D0004F8FBFF36F8FFEE700F0E4F80021104626
:1044E000FFF752FA00F0C2FE002807D105494FF04D
:1044F00080500860BFF34F8FBFF36F8F10BD000077
:10450000DC00002004ED00E002490A6A0260C9688C
:1045100041607047DC00002001490120C8617047FC
:10452000DC00002010B50C4650B10949096818316B
:10453000FFF7C8FE2046BDE810400121FFF724BA6E
:10454000502080F31188BFF34F8FBFF36F8FFEE7CA
:10455000DC00002070B514460D4668B10A490968B0
:104560001831FFF7C7FE0CB14FF0FF352146284642
:10457000BDE87040FFF708BA502080F31188BFF300
:104580004F8FBFF36F8FFEE7DC00002070B5040093
:104590003ED0226DA2B1E06C884200D30146E06AB1
:1045A000884235D0012A33D11A4D2A6894420FD15E
:1045B000502080F31188BFF34F8FBFF36F8FFEE75A
:1045C000502080F31188BFF34F8FBFF36F8FFEE74A
:1045D000E162A269002A02DBC1F13801A1610E4E3D
:1045E00000EB8000616906EB8000814210D1201D44
:1045F000FFF730FEE06A2969884200D9286100EBA4
:10460000800006EB8000211DBDE87040FFF772BE00
:1046100070BD0000DC0000207808002030B587B0B5
:104620000024039405AA04A903A80494FFF726FE16
:10463000DDE903010094CDE90110002315A117481D
:10464000059A00F0B6FC164D0028E8621FD000F075
:104650006FFE012809D0401C19D1502080F3118829
:10466000BFF34F8FBFF36F8FFEE7502080F31188A9
:10467000BFF34F8FBFF36F8F4FF0FF30A862012061
:104680006861EC6007B0BDE8304000F045B807B0A5
:1046900030BD000049444C4500000000213C0008AA
:1046A000DC0000200248016B491C016370470000D8
:1046B000DC000020164810B5016B11B10121C16169
:1046C00010BD0021C1610169124A01E0B9B1491E62
:1046D00001EB810352F82330002BF7D001EB81036B
:1046E00002EB830202F1080453685B685360A34243
:1046F00001D15B685360DA680260016110BD50202F
:1047000080F31188BFF34F8FBFF36F8FFEE7000078
:10471000DC000020780800201CB537480168374AC3
:10472000914207D1502080F31188BFF34F8FBFF320
:104730006F8FFEE700683149491E884207D150203B
:1047400080F31188BFF34F8FBFF36F8FFEE72C49C3
:1047500008780190FF20087008788DF800009DF817
:1047600000009DF8002000F0F000904207D050209B
:1047700080F31188BFF34F8FBFF36F8FFEE79DF873
:104780000000204C00F0500020700720A06005E0E1
:104790009DF8002052008DF80020401E9DF800205A
:1047A0001206F5D4A060032807D0502080F31188AA
:1047B000BFF34F8FBFF36F8FFEE74FF44070A060E1
:1047C000019808700C482030016841F470010160C4
:1047D000016841F070410160FFF7FEFD002060605C
:1047E000FBF756FD0848016841F040410160FBF7C6
:1047F0003BFD00201CBD000000ED00E071C20F4138
:1048000000E400E05001002034EF00E010B550203B
:1048100080F31188BFF34F8FBFF36F8F00F00EFC52
:1048200018B104494FF080500860002080F31188CF
:1048300010BD000004ED00E010B50246002101208B
:1048400000F012F80446FFF71BFA204610BD38B5F9
:104850000B46002200901146012000F026F8044685
:10486000FFF70EFA204638BDF8B517460E4605008C
:1048700013D005FB06F05030FFF75CFC04000AD0B3
:10488000002084F8460004F150023B463146284699
:104890000094FFF701FA2046F8BD502080F31188FC
:1048A000BFF34F8FBFF36F8FFEE738B5049D18B18C
:1048B00053B1CAB181B120E0502080F31188BFF319
:1048C0004F8FBFF36F8FFEE7502080F31188BFF347
:1048D0004F8FBFF36F8FFEE7502080F31188BFF337
:1048E0004F8FBFF36F8FFEE739B1502080F31188EF
:1048F000BFF34F8FBFF36F8FFEE750241C46012399
:1049000084F846302B460094FFF7C6F9204638BDA0
:1049100070B50D46040025D0FFF7F8FCD4E90F2050
:10492000216802FB0011A1600021A1632168616080
:104930000A46D4E90F01401E00FB0121E160214637
:104940004FF0FF3001F8440F487004F110008DB1B2
:10495000FFF7AAFC04F12400FFF7A6FCFFF7F6FC22
:10496000012070BD502080F31188BFF34F8FBFF33B
:104970006F8FFEE721690029F0D000F03FFC00288E
:10498000ECD004494FF080500860BFF34F8FBFF365
:104990006F8FE3E704ED00E02DE9FF4782B01D468D
:1049A0008A464FF00008040003D0BAF1000F08D087
:1049B00011E0502080F31188BFF34F8FBFF36F8F4A
:1049C000FEE7206C38B1502080F31188BFF34F8F81
:1049D000BFF36F8FFEE7022D0AD1E06B012807D0ED
:1049E000502080F31188BFF34F8FBFF36F8FFEE726
:1049F00000F010FB3F4F4FF000094FF0805648B9D0
:104A0000049838B1502080F31188BFF34F8FBFF363
:104A10006F8FFEE7FFF77AFCA06BE16B884207D34C
:104A2000022D05D00498D0B1B8F1000F1AD01EE0C5
:104A30002A4651462046FFF77CF8616A19B104F115
:104A4000240000F0DBFB20B13E60BFF34F8FBFF3CB
:104A50006F8FFFF77BFC012006B0BDE8F087FFF702
:104A600075FC22E06846FFF74FFD4FF00108FFF7A5
:104A70006DFCFFF717FEFFF749FC94F94400401C5A
:104A800001D184F8449094F94500401C01D184F888
:104A90004590FFF75BFC04A9684600F023FA30B1AB
:104AA0002046FFF711FB00F0E1FB0020D4E7FFF701
:104AB0002DFCA06BE16B884213D1FFF747FC04F19A
:104AC00010000499FFF72EFD2046FFF7FDFA00F0D5
:104AD000CDFB00289ED13E60BFF34F8FBFF36F8F99
:104AE00098E7FFF733FC2046FFF7EEFA00F0BEFB35
:104AF00090E7000004ED00E02DE9F0471F469046E6
:104B00008946040003D0B9F1000F08D011E050200D
:104B100080F31188BFF34F8FBFF36F8FFEE7206CD8
:104B200038B1502080F31188BFF34F8FBFF36F8FE0
:104B3000FEE7022F0AD1E06B012807D0502080F356
:104B40001188BFF34F8FBFF36F8FFEE7FFF756FC5F
:104B50005020EFF3118680F31188BFF34F8FBFF31E
:104B60006F8FA06BE16B884206D3022F04D0002028
:104B700086F31188BDE8F08794F94550A06B3A465A
:104B800049462046FEF7D5FF681C04D06D1C84F80A
:104B900045500120ECE7606A0028FAD004F12400B7
:104BA00000F02CFB0028F4D0B8F1000FF1D0012167
:104BB000C8F80010EDE710B5040009D000F024FAA1
:104BC000A168884214D1E068401EE06008D00DE082
:104BD000502080F31188BFF34F8FBFF36F8FFEE734
:104BE00000231A4619462046FFF7D6FE012010BDC5
:104BF000002010BD2DE9F747002683B08A46040047
:104C000003D0BAF1000F08D011E0502080F31188D2
:104C1000BFF34F8FBFF36F8FFEE7206C38B150208A
:104C200080F31188BFF34F8FBFF36F8FFEE700F063
:104C3000F1F9DFF8F4804FF000094FF0805748B9E0
:104C4000059838B1502080F31188BFF34F8FBFF320
:104C50006F8FFEE7FFF75AFBA56BC5B151462046A3
:104C6000FEF754FF6D1EA563206950B104F11000DA
:104C700000F0C4FA28B1C8F80070BFF34F8FBFF33B
:104C80006F8FFFF763FB012006B0BDE8F087059842
:104C900008B11EB106E0FFF759FB27E06846FFF7B1
:104CA00033FC0126FFF752FBFFF7FCFCFFF72EFB5E
:104CB00094F94400401C01D184F8449094F94500D3
:104CC000401C01D184F84590FFF740FB05A96846D8
:104CD00000F008F9002820460AD0FFF7F5F900F0A7
:104CE000C5FA2046FFF784F80028B3D00020CBE7B0
:104CF000FFF77EF890B104F124000599FFF712FC4C
:104D00002046FFF7E1F900F0B1FA0028A2D1C8F877
:104D10000070BFF34F8FBFF36F8F9BE72046FFF705
:104D2000D3F900F0A3FA95E704ED00E02DE9F34391
:104D3000002683B00400354609D0206C78B150209D
:104D400080F31188BFF34F8FBFF36F8FFEE75020C2
:104D500080F31188BFF34F8FBFF36F8FFEE700F032
:104D600059F9DFF83C814FF000094FF0805748B9FE
:104D7000049838B1502080F31188BFF34F8FBFF3F0
:104D80006F8FFEE7FFF7C2FAA06BC8B1401EA063A9
:104D9000206810B9FFF73CFAA060206950B104F117
:104DA000100000F02BFA28B1C8F80070BFF34F8F45
:104DB000BFF36F8FFFF7CAFA012005B0BDE8F0839B
:104DC000049808B166B10FE03DB1502080F311881E
:104DD000BFF34F8FBFF36F8FFEE7FFF7B7FA5DE0CA
:104DE0006846FFF791FB0126FFF7B0FAFFF75AFC80
:104DF000FFF78CFA94F94400401C01D184F84490E8
:104E000094F94500401C01D184F84590FFF79EFAC3
:104E100004A9684600F066F80028204612D0FFF783
:104E200053F900F023FA2046FEF7E2FF0028A9D04C
:104E30009DB3FFF76BFA606A50B3206B0068C0F156
:104E4000380126E0FEF7D4FFE0B1206838B9FFF75B
:104E50005DFAA06800F096F90546FFF777FA04F1CD
:104E600024000499FFF75EFB2046FFF72DF900F0C0
:104E7000FDF9002886D1C8F80070BFF34F8FBFF34B
:104E80006F8F7FE72046FFF71FF900F0EFF979E712
:104E90000021A068FFF77AFB9FE7FFE700208CE77F
:104EA00004ED00E070B50D46040009D000F0ACF848
:104EB000A16888420CD1E068401CE060012070BD10
:104EC000502080F31188BFF34F8FBFF36F8FFEE741
:104ED00029462046FFF72AFF0028F0D0E168491C48
:104EE000E16070BD2DE9F0410C46050011D0C4B160
:104EF000FFF70CFA174BDA686E682068911B471CA5
:104F000017D02F681B6A9F4219D0964217D80124E8
:104F100010E0502080F31188BFF34F8FBFF36F8FE5
:104F2000FEE7502080F31188BFF34F8FBFF36F8FE0
:104F3000FEE70024FFF70AFA2046BDE8F081884228
:104F400005D9401A20602846FFF7DEFAF1E7002075
:104F50002060DCE7DC0000202DE9FF5F8346DDE90F
:104F60000E87994616468A469000FFF7E3F805003B
:104F70001CD05C20FFF7DEF8040014D0002025636D
:104F800084F85900CDE90240CDE900874B4632460E
:104F900051465846FEF792FE2046FEF723FD0120BB
:104FA00004B0BDE8F09F2846FFF7E4F94FF0FF306A
:104FB000F6E7F0B585B0DDE90B640A9DA6B1DCB17A
:104FC0005C2700972663022684F85960002604AF08
:104FD000CDE90246CDE90057FEF770FE2046FEF708
:104FE00001FD049805B0F0BD502080F31188BFF397
:104FF0004F8FBFF36F8FFEE7502080F31188BFF310
:105000004F8FBFF36F8FFEE70148006870470000C5
:10501000DC0000200548416919B1006B18B100207F
:10502000704701207047022070470000DC0000201C
:105030000148C06870470000DC0000202DE9F04105
:105040002E4C0027206B28B1A069401CA061384677
:10505000BDE8F081E668761CE66013D1606B0068FD
:1050600038B1502080F31188BFF34F8FBFF36F8F9B
:10507000FEE7606BA16B6163A063206A401C206245
:10508000FEF7A2FFA06ADFF87880864209D3606B42
:105090000068A0B1606BC068C5686868864211D2BC
:1050A000A0622068C06A00EB800158F82100012846
:1050B00000D90127E0690028C9D00127C7E74FF0D0
:1050C000FF30EDE7281DFFF7C5F8A86A18B105F114
:1050D0001800FFF7BFF8E86A2169884200D920610B
:1050E00000EB800108EB8100291DFFF703F9E86A56
:1050F0002168C96A8842CAD30127C8E7DC000020BA
:105100007808002070B504004FF0000133D01B4D2B
:105110002868844207D0502080F31188BFF34F8F56
:10512000BFF36F8FFEE7206D38B1401E2065E36C42
:10513000E26A9A421FD040B11DE0502080F31188EE
:10514000BFF34F8FBFF36F8FFEE7201DFFF782F88D
:10515000E06CE062C0F13800A061E06A2969884231
:1051600000D92861064900EB800001EB8000211D79
:10517000FFF7C0F80121084670BD0000DC000020E8
:105180007808002070B504004FF000002BD0194DB6
:10519000E16A2A68D26A914226D2A069002804DB1B
:1051A0002868C06AC0F13800A061134E01EB81018C
:1051B000606906EB8101884211D1201DFFF74AF892
:1051C0002868C06AE0622969884200D9286100EB3A
:1051D000800006EB8000211DFFF78CF802E02868B4
:1051E000C06AE062012070BDE16C2A68D26A914217
:1051F000F8D370BDDC0000207808002070B5C068CE
:10520000C46854B104F118000646FFF723F8144DA2
:10521000286B50B13146134815E0502080F31188B7
:10522000BFF34F8FBFF36F8FFEE7201DFFF712F81C
:10523000E06A2969884200D928610B4900EB8000A7
:1052400001EB8000211DFFF755F8E06A2968C96A63
:10525000884202D90120E86170BD002070BD0000C5
:10526000DC000020000D0020780800202DE9F04728
:105270002C4D00242746286B38B1FFF747F8286BE0
:10528000401E2863286B40B146E0502080F311880F
:10529000BFF34F8FBFF36F8FFEE7A968224E012047
:1052A000D1B3A6F5916980463068E0B1F068C46872
:1052B00004F11800FEF7CEFF201DFEF7CBFFE06AD9
:1052C0002969884200D9286100EB800109EB81003F
:1052D000211DFFF70FF8E06A2968C96A8842E3D305
:1052E000C5F81C80E0E70CB1FEF76EFEAC694CB16E
:1052F0004FEA0806FFF7A2FE00B1EE61641EF9D185
:105300000020A861E86938B108490127380708601A
:10531000BFF34F8FBFF36F8FFFF718F83846BDE824
:10532000F0870000DC000020000D002004ED00E00C
:1053300010B586B0FEF7BEFB114C2068B8B1002056
:105340000390049005AA04A903A8FEF7A1FFDDE9D4
:10535000032102208DE8070000230AA10B48059ACB
:10536000FFF727FE606010B106B0012010BD50208D
:1053700080F31188BFF34F8FBFF36F8FFEE70000FC
:1053800018010020546D722053766300A540000878
:105390002DE9FF411E46134602000A9D4FF0000012
:1053A00016D0144C2768002F0FD0CDE900130292BD
:1053B000062917DAFFF72EFE02284FF000030FD060
:1053C000002269462068FFF7E7FA04B0BDE8F081E3
:1053D000502080F31188BFF34F8FBFF36F8FFEE72C
:1053E0002A46EEE70023324669463846FFF784FB3B
:1053F000EBE70000180100204FF04070E1EE100ACA
:10540000704700C1814001C0804101C0804100C19E
:10541000814001C0804100C1814000C1814001C084
:10542000804101C0804100C1814000C1814001C074
:10543000804100C1814001C0804101C0804100C164
:10544000814001C0804100C1814000C1814001C054
:10545000804100C1814001C0804101C0804100C144
:10546000814000C1814001C0804101C0804100C134
:10547000814001C0804100C1814000C1814001C024
:10548000804101C0804100C1814000C1814001C014
:10549000804100C1814001C0804101C0804100C104
:1054A000814000C1814001C0804101C0804100C1F4
:1054B000814001C0804100C1814000C1814001C0E4
:1054C000804100C1814001C0804101C0804100C1D4
:1054D000814001C0804100C1814000C1814001C0C4
:1054E000804101C0804100C1814000C1814001C0B4
:1054F000804100C1814001C0804101C0804100C1A4
:10550000814000C0C101C30302C2C60607C705C56A
:10551000C404CC0C0DCD0FCFCE0E0ACACB0BC909DB
:1055200008C8D81819D91BDBDA1A1EDEDF1FDD1DEB
:105530001CDC14D4D515D71716D6D21213D311D11B
:10554000D010F03031F133F3F23236F6F737F5356B
:1055500034F43CFCFD3DFF3F3EFEFA3A3BFB39F99B
:10556000F83828E8E929EB2B2AEAEE2E2FEF2DED6B
:10557000EC2CE42425E527E7E62622E2E323E121DB
:1055800020E0A06061A163A3A26266A6A767A565EB
:1055900064A46CACAD6DAF6F6EAEAA6A6BAB69A95B
:1055A000A86878B8B979BB7B7ABABE7E7FBF7DBD6B
:1055B000BC7CB47475B577B7B67672B2B373B1719B
:1055C00070B050909151935352929656579755956B
:1055D00094549C5C5D9D5F9F9E5E5A9A9B5B99591B
:1055E0005898884849894B8B8A4A4E8E8F4F8D4DEB
:1055F0004C8C44848545874746868242438341815B
:1056000080400000000000000000002F00000000AB
:105610000700070000147F147F1400242A7F2A1239
:105620000062640813230036495522500000050328
:10563000000000001C224100000041221C00001458
:10564000083E08140008083E0808000000A060009A
:10565000000808080808000060600000002010082A
:105660000402003E5149453E0000427F4000004296
:1056700061514946002141454B31001814127F10F9
:10568000002745454539003C4A4949300001710928
:10569000050300364949493600064949291E0000DC
:1056A0003636000000005636000000081422410083
:1056B00000141414141400004122140800020151B3
:1056C000090600324959513E007C1211127C007FBC
:1056D00049494936003E41414122007F4141221C57
:1056E000007F49494941007F09090901003E4149BC
:1056F000497A007F0808087F0000417F41000020B0
:1057000040413F01007F08142241007F404040405B
:10571000007F020C027F007F0408107F003E4141A1
:10572000413E007F09090906003E4151215E007F8C
:10573000091929460046494949310001017F010103
:10574000003F4040403F001F2040201F003F4038A6
:10575000403F0063140814630007087008070061E5
:105760005149454300007F41410000552A552A55C3
:10577000000041417F00000402010204004040405B
:105780004040000001020400002054545478007F7F
:105790004844443800384444442000384444487F56
:1057A00000385454541800087E0901020018A4A4BB
:1057B000A47C007F080404780000447D4000004081
:1057C00080847D00007F102844000000417F40005D
:1057D000007C04180478007C0804047800384444F1
:1057E000443800FC242424180018242418FC007CCD
:1057F0000804040800485454542000043F44402046
:10580000003C4040207C001C2040201C003C4030DC
:10581000403C004428102844001CA0A0A07C004468
:1058200064544C44141414141414000000000000B8
:1058300000000000000000000000000000F8000070
:105840000000000000333000000000100C06100CB7
:105850000600000000000000000040C07840C07852
:105860004000043F04043F040400007088FC08303A
:105870000000001820FF211E0000F008F000E018D2
:10588000000000211C031E211E0000F0088870008B
:1058900000001E2123241927211010160E000000DD
:1058A00000000000000000000000000000E01804FC
:1058B0000200000000071820400000020418E00069
:1058C00000000040201807000000404080F08040A9
:1058D00040000202010F01020200000000F000007F
:1058E00000000101011F0101010000000000000093
:1058F000000080B070000000000000000000000008
:105900000000000101010101010100000000000090
:105910000000003030000000000000000000806047
:105920001804006018060100000000E010080810CC
:10593000E000000F102020100F00001010F80000F1
:1059400000000020203F2020000000700808088888
:105950007000003028242221300000300888884858
:1059600030000018202020110E000000C02010F888
:10597000000000070424243F240000F80888880859
:1059800008000019212020110E0000E0108888185E
:105990000000000F112020110E0000380808C83840
:1059A00008000000003F0000000000708808088820
:1059B0007000001C222121221C0000E010080810A9
:1059C000E0000000312222110F00000000C0C000E2
:1059D00000000000003030000000000000800000E7
:1059E00000000000806000000000000080402010E7
:1059F00008000001020408102000404040404040E0
:105A00004000040404040404040000081020408042
:105A10000000002010080402010000704808080877
:105A2000F0000000003036010000C030C828E81047
:105A3000E0000718272423140B000000C038E00002
:105A40000000203C23020227382008F8888888704C
:105A50000000203F202020110E00C0300808080858
:105A60003800071820202010080008F8080808103F
:105A7000E000203F202020100F0008F88888E80868
:105A80001000203F20202320180008F88888E8080C
:105A90001000203F200003000000C0300808083834
:105AA000000007182020221E020008F80800000845
:105AB000F808203F210101213F20000808F80808CC
:105AC00000000020203F2020000000000808F80807
:105AD0000800C08080807F00000008F888C0281877
