:020000040800F2
:10000000A86B0020090300087B29000821250008AF
:10001000792900088D060008D1360008000000008C
:10002000000000000000000000000000490200087D
:100030000D07000800000000A5020008812F00083D
:1000400023030008230300082303000823030008F8
:1000500023030008230300082303000823030008E8
:1000600023030008230300082303000823030008D8
:1000700023030008230300082303000823030008C8
:10008000230300082303000823030008B506000823
:10009000910600089D060008A90600082303000831
:1000A0002303000823030008230300082303000898
:1000B0002303000823030008230300082303000888
:1000C0002303000823030008230300082303000878
:1000D000230300085D36000891360008C536000885
:1000E0002303000823030008230300082303000858
:1000F0002303000823030008230300082303000848
:100100002303000823030008230300082303000837
:100110003D330008B13300084130000823030008D4
:100120002303000823030008230300082303000817
:100130002303000823030008230300082303000807
:1001400023030008230300082303000823030008F7
:1001500023030008230300082303000823030008E7
:1001600023030008230300082303000823030008D7
:1001700023030008230300082303000800000000F5
:10018000230300082303000800F002F800F04CF8F5
:100190000AA090E8000C82448344AAF10107DA45E2
:1001A00001D100F041F8AFF2090EBAE80F0013F0E8
:1001B000010F18BFFB1A43F0010318472861000024
:1001C000486100000A4410F8014B14F00F0508BF05
:1001D00010F8015B240908BF10F8014B6D1E05D013
:1001E00010F8013B6D1E01F8013BF9D1641E03D0EC
:1001F000641E01F8015BFBD19142E4D3704700001B
:100200000023002400250026103A28BF78C1FBD81F
:10021000520728BF30C148BF0B6070471FB505F0BB
:100220007DFA1FBD10B510BD00F0E4F91146FFF7CF
:10023000F5FF03F0ABFD00F002FA03B4FFF7F2FFA5
:1002400003BC00F005FA00002C4B19680868B0E800
:10025000F04F80F30988BFF36F8F4FF0000080F3F9
:10026000118870470000000008480068006880F3AB
:1002700008884FF0000080F3148862B661B6BFF3BF
:100280004F8FBFF36F8F00DF00BF00BF08ED00E0AE
:10029000DFF80C00016841F470010160704700BF95
:1002A00088ED00E0EFF30980BFF36F8F134B1A68FE
:1002B0001EF0100F08BF20ED108A20E9F04F1060EB
:1002C00009B44FF0500080F31188BFF34F8FBFF394
:1002D0006F8F04F0BDFC4FF0000080F3118809BC63
:1002E00019680868B0E8F04F1EF0100F08BFB0ECB6
:1002F000108A80F30988BFF36F8F7047EC000020ED
:10030000EFF305807047000009488047094800471F
:10031000FEE7FEE7FEE7FEE7FEE7FEE7FEE7FEE7B5
:10032000FEE7FEE704480549054A064B7047000012
:100330003130000889010008A8650020A86B002062
:10034000A8670020A867002053EA020C00F069802B
:100350002DE9F04B4FF00006002B1FBFB3FA83F5D9
:1003600003FA05F424FA05F65E4012BF1643B2FA0A
:1003700082F502FA05F4C5F120051EBF22FA05FC3C
:1003800044EA0C04203556EA044C4FEA144418BFE2
:10039000641C4FF000084FF00009904271EB030C11
:1003A00039D3002919BFB1FA81F701FA07F6B0FA7B
:1003B00080F700FA07F6C7F120071EBF20FA07FCF6
:1003C00046EA0C062037B6FBF4FCA7EB0507103F06
:1003D00007F01F0BCBF120060CFA0BFB2CFA06F6EC
:1003E00044BFB3460026202FA4BF5E464FF0000B4B
:1003F0005BEA060C08BF4FF0010B19EB0B09ABFBD6
:10040000027C48EB0608C01B06FB02CC0BFB03CCAE
:1004100071EB0C01C1E70B46024641464846BDE878
:10042000F08B13B54FF000004FF00001AFF30080E8
:10043000BDE81C407047032A40F2308010F0030CE6
:1004400000F0158011F8013BBCF1020F624498BF27
:1004500011F801CB00F8013B38BF11F8013BA2F1C4
:10046000040298BF00F801CB38BF00F8013B11F03F
:10047000030300F02580083AC0F0088051F8043BDF
:10048000083A51F804CBA0E80810F5E7121D5CBF4C
:1004900051F8043B40F8043BAFF30080D20724BF7F
:1004A00011F8013B11F801CB48BF11F8012B24BF13
:1004B00000F8013B00F801CB48BF00F8012B704762
:1004C00010B5203AC0F00B80B1E81850203AA0E8EF
:1004D0001850B1E81850A0E81850BFF4F5AF5FEA23
:1004E000027C24BFB1E81850A0E8185044BF18C9D6
:1004F00018C0BDE810405FEA827C24BF51F8043B7D
:1005000040F8043B08BF7047D20728BF31F8023BD0
:1005100048BF11F8012B28BF20F8023B48BF00F864
:10052000012B704702F0FF0343EA032242EA024232
:1005300000F037B84FF0000200B5134694469646D7
:10054000203922BFA0E80C50A0E80C50B1F12001E6
:10055000BFF4F7AF090728BFA0E80C5048BF0CC094
:100560005DF804EB890028BF40F8042B08BF7047F2
:1005700048BF20F8022B11F0804F18BF00F8012B64
:10058000704770477047704710B500F02BF800684F
:1005900010BD10B5044600F025F8046010BD4FF002
:1005A00000020429C0F0128010F0030C3FF4C4AF25
:1005B000CCF1040CBCF1020F18BF00F8012BA8BF4E
:1005C00020F8022BA1EB0C01FFF7B6BF5FEAC17C5C
:1005D00024BF00F8012B00F8012B48BF00F8012BC5
:1005E000704700000048704744650020004870478D
:1005F000446500207546FFF7F9FFAE4605006946E1
:10060000534620F00700854618B020B5FFF78AFE54
:10061000BDE820404FF000064FF000074FF0000803
:100620004FF0000B21F00701AC46ACE8C009ACE884
:10063000C009ACE8C009ACE8C0098D46704710B5E8
:100640000446AFF300802046BDE81040FFF7F5BD3B
:1006500001491820ABBEFEE726000200704770B5C6
:10066000C0F3072015460E4603280ED1002E0CD0ED
:10067000002D0AD002F09CFB002404E0305D02F063
:1006800097FB641CE4B2AC42F8D370BDFEE70000F7
:10069000014800F0A9B900006C050020014800F0F5
:1006A000A3B900006C050020014800F09DB90000CE
:1006B0006C050020014800F097B900006C0500208F
:1006C00000B589B0002306930793082A00D90822B1
:1006D00001900420CDE9020304928DF8143011B189
:1006E00006A8FFF7A8FE08AB06AA6946024800F074
:1006F0009FF809B000BD00006C050020884203DBB4
:10070000904201DC012070470020704770477CB5A3
:100710000A46411C521E94B24FF44070082C05D872
:1007200002B0E2B2BDE87040FFF7CABF11F8015B4A
:100730000E468DF800500968CDF80110B188ADF86B
:100740000510B1798DF8071008226946641EFFF77D
:10075000B7FFE41FA4B28DF800502246F11D0DF141
:100760000100FFF768FE641CE2B2694640F2013006
:10077000FFF7A6FF7CBD0000FEB5B5EEC00ADDE9BF
:100780000856F1EE10FA01D800240FE09FED0A1A86
:10079000C0EE010A9FED090A20EE800AF6EE000A7B
:1007A00030EE200ABCEEC00A10EE104A8DE8700050
:1007B00000F006F8FEBD00008784054400004845AF
:1007C0002DE9FF470CAE96E8300214A696E8C0115A
:1007D0008DE8C0118DF800008DF80210100A8DF818
:1007E00003008DF804208DF80530200E8DF80600EA
:1007F000200C8DF80700200A8DF808008DF80940BC
:100800008DF80A508DF80B900D216846FFF77FFF99
:10081000052000F05DFBBDE8FF87000000FD000043
:1008200000000000000000006B00000072B6FEE750
:10083000F0B590F820500468A468012D05D0022D71
:1008400003D0416A41F480214DE014F0406F01D1A2
:10085000E50045D5C4F301640125A5401D608D6800
:100860004FF4C0739DB1CE6835434E6845EAC60566
:10087000066803EB0417F5514FF4C275076805EBE2
:1008800004150E697E51097D012905D009E00E8805
:10089000CD6845EA4655EBE701684E5946F4807647
:1008A0004E511179D2F805504FF4C67641EA052130
:1008B000056806EB0416A9511178D2F801204FF40F
:1008C000C47541EA0221026805EB04155151006824
:1008D00003EB0411425842F0010242500020F0BDE7
:1008E000416A41F4001141620120F0BDAFF3008084
:1008F000406A704770B590F82040012C05D0022C5A
:1009000003D0416A41F4802128E0046809B32469D6
:10091000A40720D04FF4D874056804EB01142D59B6
:1009200015F00405956005682D591AD0ED0855603D
:1009300005682C5904F00204D4604FF4DA74056899
:1009400004EB01142E5906F00F06082E0CD30825CF
:100950000DE0E468DCE7416A41F4001141620120E6
:1009600070BD6D0D1560E3E72D5905F00F0515619C
:1009700005682D59C5F30725956105682C59240C88
:1009800054614FF4DC72046802EB0112A4581C702D
:100990000468A458240A5C700468A458240C9C7051
:1009A0000468A258120EDA704FF4DE72046802EB8B
:1009B0000112A4581C710468A458240A5C710468CC
:1009C000A458240C9C710468A258120EDA710068B5
:1009D00029B1016941F020010161002070BDC168A9
:1009E00041F02001C160F8E72DE9F05F054600689D
:1009F00000244669D0F804908768D0F80CB0D0F88D
:100A000010A0D0F81880F10748D0F90714D00121C0
:100A10008160B80703D5284600F0F8F90CE07807A4
:100A200002D54FF4006407E0380702D54FF4805434
:100A300002E0284600F0E9F9F80516D529684FF4D8
:100A400080708860B80503D5284600F0E1F90CE015
:100A5000780502D544F4005407E0380502D544F483
:100A6000804402E0284600F0D2F9F80316D5296840
:100A70004FF480308860B80303D5284600F0CAF9E7
:100A80000CE0780302D544F4004407E0380302D5B3
:100A900044F4803402E0284600F0BBF9300707D563
:100AA0005FEACB6004D52968102044F40074C86064
:100AB00070074FF0080707D55FEA0B7004D5286868
:100AC000C760284600F072F9B00706D52868C068EC
:100AD000800702D0284600F06BF9700607D55FEA60
:100AE000CA6004D52968102044F480640861B00607
:100AF00007D55FEA0A7004D528680761284600F028
:100B000081F9F00606D528680069800702D02846DA
:100B100000F079F9B00308D55FEAC96005D5296806
:100B200010204860284600F06FF9F00307D55FEA0F
:100B3000097004D528684760284600F06CF9300435
:100B400046D55FEA497040D5F00504D55FEAC87024
:100B500001D044F00104B00504D55FEA887001D5E6
:100B600044F00204700504D55FEA487001D544F0F2
:100B70000404300529D518F0700F26D008F0700055
:100B8000402815D006DC102809D020280AD03028AB
:100B900016D10AE050280ED0602811D10EE044F0A2
:100BA00008040DE044F010040AE044F0200407E0DB
:100BB00044F0400404E044F0800401E044F4807414
:100BC0002868816921F070018161296804204860EA
:100BD000002C05D0686A204368622846FFF786FE2D
:100BE000BDE8F09F70B5040003D094F8200010B168
:100BF00004E0012070BD204600F082F82068016802
:100C000041F00101016000F073FA0546052604E099
:100C100000F06EFA401B0A2811D820684068C0070F
:100C2000F6D02068016821F00201016000F060FA4E
:100C300005460BE000F05CFA401B0A2806D9606A02
:100C400040F40030606284F82060D2E72068406899
:100C50008007EFD4207E0128206801683DD021F074
:100C600080010160607E01282068016838D021F091
:100C700040010160A07E01282068016833D021F086
:100C800020010160E07E0128206801682ED041F03B
:100C900010010160207F01282068016829D021F01F
:100CA00008010160607F01282068016824D021F0DC
:100CB00004010160D4E902010843D4E9041211439C
:100CC00008436168491E08432168C86100206062CA
:100CD000012084F82000002070BD41F08001C0E7B1
:100CE00041F04001C5E741F02001CAE721F01001C1
:100CF000CFE741F00801D4E741F00401D9E7000053
:100D000010B586B0044614216846FFF713FC244949
:100D10002068884241D123480021026842F00072D5
:100D20000260006800F0007005901E4810380268EC
:100D300042F001020260006800F0010005904FF4EB
:100D4000C05000900220CDE901010320039009204A
:100D500004906946144800F0CDF8002205211320C4
:100D600000F064FA132000F053FA00220521142049
:100D700000F05CFA142000F04BFA00220521152047
:100D800000F054FA152000F043FA00220521162045
:100D900000F04CFA162000F03BFA06B010BD00003F
:100DA00000640040403802400000024070470000EC
:100DB00010B58AB007AB6A460021FFF79BFD0028FB
:100DC0001CD10298042811D0009C049807A9C2B233
:100DD0002046FFF744FC0A49012008704C60049843
:100DE00048704878082803D9082202E0019CECE703
:100DF0004A78034807A90830FFF762FB0AB010BD24
:100E0000C8000020704770477047704770477047B0
:100E100070477047704770472DE9F0410446876D71
:100E200000F066F9064694F835000025022806D041
:100E30008020606584F834500120BDE8F08120688E
:100E4000016821F0160101602068416921F08001EC
:100E50004161206C08B9A06C20B12068016821F0C4
:100E6000080101602068016821F0010101600CE0C7
:100E700000F03EF9801B052807D92020606503207B
:100E800084F8350084F83450D7E720680068C0073C
:100E9000EED194F85C103F208840B860012084F8BF
:100EA000350084F834500020C7E790F83510022947
:100EB00003D08021416501207047052180F835105D
:100EC0000068016821F00101016000207047000006
:100ED00070B5044600F00CF90546601C02D00448C9
:100EE0000078044400F004F9401BA042FAD370BD1E
:100EF000DC0000202DE9F84FDFF8BCA1002201251D
:100F000003264FF00F090AF1040BAAF1040E00BFEB
:100F10000B6805FA02F42340A34270D10F7907F061
:100F20000307012F01D0022F16D187684FEA42082C
:100F300006FA08FC27EA0C07D1F80CC00CFA08FCEA
:100F40004CEA070CC0F808C04768A7430C79C4F303
:100F5000001494403C4344600C79E443A4070AD055
:100F6000C4684FEA420C06FA0CF7BC438F6807FAD4
:100F70000CF72743C7600C7904F00304022C12D14C
:100F8000D40800EB840CDCF820405707FF0E09FA68
:100F900007F824EA0804D1F8108008FA07F848EAAC
:100FA0000408CCF8208004684FEA420C06FA0CF7DB
:100FB000BC430F7907F0030707FA0CF727430760D4
:100FC0004C6814F4403F70D03C4C276847F480478D
:100FD0002760246822F0030704F480440094384C0E
:100FE00007EB040CDCF8084897074FEA177809FA72
:100FF00008F7BC43334FB84202D1002724E054E045
:10100000314FB84201D101271EE0304FB84201D123
:10101000022719E02E4FB84201D1032714E02D4FCB
:10102000B84201D104270FE02B4FB84201D1052768
:101030000AE02A4FB84201D1062705E0284FB842FE
:1010400001D1072700E0082707FA08F72743CCF863
:101050000878DAF800405746D1F804C09C435FEAAC
:10106000CC2C00D51C433C60DBF800405F46D1F837
:1010700004C09C435FEA8C2C00D51C433C60DEF826
:1010800000407746D1F804C09C435FEA8C3C00D511
:101090001C433C60084F083F3C68D1F804C09C43A7
:1010A0005FEACC3C00D51C433C60521C102AFFF484
:1010B0002FAFBDE8F88F0000083C014044380240E3
:1010C00000300140000002400004024000080240DD
:1010D000000C0240001002400014024000180240C0
:1010E000001C02400AB1816170470904FBE700005F
:1010F0000148806870470000DC00002002488168D9
:101100000278114481607047DC0000200B4810B564
:10111000016841F400710160016841F4806101607F
:10112000016841F480710160032000F09FF80F20F6
:1011300000F006F800F050F8002010BD003C02401E
:1011400030B505461F4887B00024016841F0100102
:101150000160006806A900F01000009001A800F0EE
:1011600031F90498A8B100F04DF940001649174A2A
:10117000B0FBF1F11648491E026040F2E732C0E9C7
:101180000324C0E90114846100F0B6FB040003D01D
:1011900015E000F037F9E9E70D4800F0EFFB040037
:1011A0000DD1362000F034F8102D07D20022294648
:1011B000362000F03BF80748056000E0012407B046
:1011C000204630BD4038024040420F000010004031
:1011D00028080020E00000200C4882B0016841F49B
:1011E00080410160006800F4804000900748001FC3
:1011F000016841F0805101600068002200F08050D9
:1012000000900F21901E02B000F010B84438024048
:10121000002809DB00F01F020121914040098000F5
:1012200000F1E020C0F8001170470000F0B40E4B50
:101230001B680C46C3F30223C3F10705042D00D934
:101240000425191D072901D2002300E0DB1E012619
:1012500006FA05F1491E214099409E40761E16402F
:101260003143F0BC02F054BB0CED00E0064900F045
:10127000070208684FF6FF03184040EA0220034ABD
:1012800010430860704700000CED00E00000FA0514
:101290002DE9F0470E46050065D0DFF81481D8F837
:1012A0000000F7B200F00700B04207D288F80070E3
:1012B000D8F8000000F00700B04254D128683D4C37
:1012C000810712D5400703D5206840F4E050206024
:1012D0002878000703D5206840F46040206020682B
:1012E000A96820F0F000084320602878C0072DD0BE
:1012F000304968680839012812D0022813D0032821
:1013000011D00968890700292DDA216821F003012D
:1013100001432160FFF7ECFE814641F2883A0EE07E
:1013200009688903EFE709688901ECE7FFF7E0FE48
:10133000A0EB0901514502D90320BDE8F0872068E0
:10134000696800F00C00B0EB810FEFD1D8F8001005
:10135000404601F00701B14207D90770006800F06C
:101360000700B04201D00120E7E72878400705D503
:101370002068E96820F4E0500843206028780007DE
:1013800006D52068296920F4604040EAC100206049
:1013900000F058F82168084AC1F30311515CC840B5
:1013A0000649086006480068FFF7CAFE0020C4E747
:1013B000003C0240083802404C620008E80000206F
:1013C000E00000200F2202600C4A136803F00303C0
:1013D0004360136803F0F0038360136803F4E05381
:1013E000C36012684FF4E05303EAD202026104487A
:1013F000006800F0070008607047000008380240ED
:10140000003C02400448054900680968044AC1F3E9
:101410008221515CC8407047E80000200838024033
:101420005C6200080448054900680968044AC1F381
:101430004231515CC8407047E80000200838024043
:101440005C620008154810B5006810F00C021448E2
:1014500013D04110042A0FD0082A0ED10F4C241F9C
:101460002268236802F03F025B0207D52068C0F3C0
:101470008810A0FB010106E0084610BD2168C1F3F9
:101480008811A1FB00010023FEF75EFF2168C1F374
:101490000141491C4900B0FBF1F010BD0838024081
:1014A0000024F4002DE9F84F04006ED02078DFF816
:1014B0004C93C007A9F104054AD009F10400016862
:1014C000C1F38101012908D00068C0F3810002281E
:1014D0000AD1D9F80000400206D52868800337D524
:1014E00060680028E1D033E06068B0F5803F10D03C
:1014F000B0F5A02F286810D020F48030286028682C
:1015000020F4802028606068A8B1FFF7F1FD06464E
:101510000DE0286840F48030F4E740F48020286033
:10152000F7E700BFFFF7E4FD801B642873D8286845
:101530008003F7D50CE0FFF7DBFD064605E000BFB2
:10154000FFF7D6FD801B6428F0D828688003F7D405
:101550002078DFF8AC8280074FF0000A3ED5A7481C
:10156000001D016811F00C0F08D00068C0F3810065
:1015700002280BD1D9F80000400207D42868800760
:1015800016D5E068012800D112E033E1E068B8B177
:101590000120C8F80000FFF7ABFD064605E000BFDC
:1015A000FFF7A6FD801B0228C0D828688007F7D562
:1015B0002868216920F0F80040EAC10028600DE0A9
:1015C000C8F800A0FFF794FD064604E0FFF790FD81
:1015D000801B02281FD828688007F7D420780007CE
:1015E00022D5864F87486169703771B1012101604A
:1015F000FFF77EFD064604E0FFF77AFD801B022818
:1016000009D838688007F7D50EE0C0F800A0FFF7CA
:101610006FFD064605E082E0FFF76AFD801B0228A9
:101620007DD838688007F7D42078400768D5DFF880
:10163000CCB100270BF13C0BDBF80000C0000BD451
:10164000DBF8001041F08051CBF80010DBF800000F
:10165000012700F0805000906B4E3068C00510D418
:10166000306840F480703060FFF742FD009005E084
:10167000FFF73EFD0099401A022850D83068C00597
:10168000F6D55E4EA0686C3601280FD0052830686C
:1016900010D020F001003060306820F0040030608D
:1016A000A068B8B1FFF724FD00900FE0306840F06B
:1016B0000100F4E740F004003060F7E7FFF718FDA1
:1016C0000099411A41F28830814266D8306880071B
:1016D000F4D50EE0FFF70CFD009007E0FFF708FDE2
:1016E0000099411A41F28830814256D8306880070B
:1016F000F4D42FB1DBF8001021F08051CBF80010AA
:10170000A069C8B33D49091D0968C1F381010229D7
:101710004AD00228504607D0C8F8600000E03CE0FC
:10172000FFF7E6FC04463BE04746C8F86000FFF7D9
:10173000DFFC064605E000BFFFF7DAFC801B02284D
:101740002BD828688001F7D4D4E907010843A16A9F
:101750002E4A490802EB0141626A41EA82110843BC
:1017600094F82C1040EA0161C9F800100120386695
:10177000FFF7BEFC044606E03EE000BFFFF7B8FC02
:10178000001B022809D828688001F7D534E000BF83
:10179000FFF7AEFC001B022802D90320BDE8F88F3A
:1017A00028688001F4D427E00128F7D0D9F8000098
:1017B000E26900F4800191421CD1226A00F03F01ED
:1017C000914217D147F6C071626A0140B1EB821FA6
:1017D00010D1A26A4FF0FF3300F4403103EB520204
:1017E000B1EB024F06D194F82C1000F07060B0EB12
:1017F000016F01D00120D1E70020CFE7043802407B
:1018000000004742800E4742007000400000FFFF8A
:101810007047704710B590F83C20012A22D0012271
:1018200080F83C20CA688C6822F4407222434C68DD
:1018300022F4806222430C6822F4006222430C6985
:1018400022F4805222434C6922F400522243C96997
:10185000002322F480420A4301684A6480F83C3045
:10186000002010BD022010BD70B590F83C20012A68
:1018700032D0012480F83C40022280F83D200368E9
:101880005A689D6822F070060A6832435A60134B0A
:1018900002689A4214D0B2F1804F11D0104B9A4294
:1018A0000ED0104B9A420BD00F4B9A4208D00F4BE0
:1018B0009A4205D00E4B9A4202D00E4B9A4204D166
:1018C000496825F080031943916080F83D4000216C
:1018D00080F83C10084670BD022070BD0000014039
:1018E0000004004000080040000C004000040140DB
:1018F000004001400018004010B5040003D094F8E7
:101900003D0010B107E0012010BD002084F83C002C
:10191000204600F01FF8022084F83D00211D2068B9
:1019200001F094FB012084F8460084F83E0084F81E
:101930003F0084F8400084F8410084F8420084F8B5
:10194000430084F8440084F8450084F83D000020FA
:1019500010BD000008B500680649884208D1064855
:10196000016841F020010160006800F02000009053
:1019700008BD0000001400404038024090F83D10BF
:10198000012901D001207047022180F83D10016833
:10199000CA6842F00102CA6000681149884214D046
:1019A000B0F1804F11D00F4988420ED00E498842C5
:1019B0000BD00E49884208D00D49884205D00D4908
:1019C000884202D00C49884204D1816801F00701A5
:1019D000062903D0016841F0010101600020704731
:1019E000000001400004004000080040000C0040DE
:1019F00000040140004001400018004070472DE9FC
:101A0000F04104460068C66805694FF00007A90761
:101A100013D5B10711D5F91E016101202077206887
:101A200080698007204602D0FFF7E8FF04E000F05D
:101A3000E7F8204600F094F92777680716D5700775
:101A400014D521686FF00400086102202077206817
:101A5000806910F4407F204602D0FFF7CFFF04E0FA
:101A600000F0CEF8204600F07BF92777280715D53F
:101A7000300713D521686FF0080008610420207733
:101A80002068C0698007204602D0FFF7B7FF04E056
:101A900000F0B6F8204600F063F92777E80616D57F
:101AA000F00614D521686FF0100008610820207737
:101AB0002068C06910F4407F204602D0FFF79EFFE7
:101AC00004E000F09DF8204600F04AF92777E80787
:101AD00008D0F00706D021686FF0010008612046A9
:101AE00000F0A4F9280608D5300606D521686FF065
:101AF000800008612046FFF78BFE680608D5700657
:101B000006D521686FF040000861204600F098F982
:101B1000A8060AD5B00608D521686FF02000086134
:101B20002046BDE8F041FFF774BEBDE8F08100003B
:101B3000F0B587B0044614216846FEF7FBFC2A4A3C
:101B40002068002429490225294E90420FD10868B7
:101B500040F00200086008680095CDE9015400F0EB
:101B60000200CDE9045069460394304637E0214A2B
:101B7000904236D1086840F001000860086800F023
:101B800001000590086840F002000860086800F055
:101B900002000590086840F0040008600868032708
:101BA00000F00400059020200090CDE90154CDE91B
:101BB000034769461048FFF79DF901200090CDE9E1
:101BC0000154CDE9034769463046FFF793F93802DF
:101BD0000090CDE90154CDE9034769460748FFF776
:101BE00089F907B0F0BD0000000400403038024021
:101BF00000040240000401400000024000080240CE
:101C0000704770B5044690F83C0000260D46012848
:101C10000FD0012084F83C006AB1042A1DD0082AA4
:101C20002FD00C2A3FD00126002084F83C003046FB
:101C300070BD022070BD206801F07EFA20688169C5
:101C400041F0080181612068816921F0040181610E
:101C5000206881692A69114311E0206801F09CFA2B
:101C60002068816941F4006181612068816921F403
:101C700080618161206881692A6941EA022181616C
:101C8000D2E7206801F0BEFA2068C16941F008017E
:101C9000C1612068C16921F00401C1612068C16986
:101CA0002A69114311E0206801F0E0FA2068C16957
:101CB00041F40061C1612068C16921F48061C161A2
:101CC0002068C1692A6941EA0221C161ACE710B507
:101CD000040003D094F83D0010B107E0012010BDCE
:101CE000002084F83C00204600F01EF8022084F812
:101CF0003D00211D206801F0A9F9012084F846006B
:101D000084F83E0084F83F0084F8400084F84100E5
:101D100084F8420084F8430084F8440084F84500C5
:101D200084F83D00002010BD08B5006809498842CC
:101D300001D1094804E00949884209D10648001D3B
:101D4000016841F002010160006800F002000090AB
:101D500008BD00000004004040380240000401407B
:101D60007047000010B50446022249B104290ED084
:101D7000082913D094F84100012816D0012010BD85
:101D800094F83E000128F9D184F83E200FE094F841
:101D90003F000128F2D184F83F2008E094F8400089
:101DA0000128EBD184F8402001E084F84120012291
:101DB000206801F0B3F916492068164A884201D01C
:101DC000904203D1436C43F400434364206888424B
:101DD00013D0B0F1804F10D00F4988420DD00F4979
:101DE00088420AD00E49884207D0904205D00D495A
:101DF000884202D00C49884204D1816801F0070171
:101E0000062903D0016841F001010160002010BDE6
:101E100000000140000401400004004000080040B0
:101E2000000C0040004001400018004000680349D9
:101E3000884201D1FFF762B97047000000100040EE
:101E40007047704770470000F8B50168044608689D
:101E5000CA684B6910F00F0F4FF0000559D003F01E
:101E6000010602F49077374365D0C10705D0D1054C
:101E700003D5616C41F001016164410705D5D907C3
:101E800003D0616C41F002016164810705D5D90777
:101E900003D0616C41F004016164010707D502F0D1
:101EA0002001314303D0616C41F008016164616C31
:101EB00000293AD0800604D5900602D5204601F0CC
:101EC000ABFA20684069616CC0F38010090700D448
:101ED00060B3204601F079FA20684069400621D5B8
:101EE0002068143050E8001F21F0400140E8001243
:101EF000002AF5D1E06BA8B172490165E06BFEF7ED
:101F0000D4FF002811D0E06B016D01B0BDE8F040B6
:101F1000084783060FD593060DD52046BDE8F84047
:101F200001F07ABA2046FFF78DFFF8BD2046FFF793
:101F300089FF6564F8BD266B2023012E7ED1C6067D
:101F40007CD5D6067AD508684868009048694FF075
:101F5000020640064DD5E26B106840684FF480776A
:101F60000004000C3AD0A18D814237D9E085D069B8
:101F7000B8422DD020680C3050E8001F21F4807149
:101F800040E80012002AF5D12068143050E8001F04
:101F900021F0010140E80012002AF5D12068143038
:101FA00050E8001F21F0400140E80012002AF5D15E
:101FB00084F84230256320680C3050E8001F21F07F
:101FC000100140E80012002AF5D1E06BFEF724FF73
:101FD0006663A08DE18D401A81B206E0A18D814239
:101FE000A8D1D069B842A5D166632046FFF729FF82
:101FF000F8BDA08DE18D401A81B2E08D0028F7D0A8
:102000000029F5D020680C3050E8002F22F490729F
:1020100040E80027002FF5D12068143050E8002F49
:1020200022F0010240E80027002FF5D184F8423069
:10203000256320680C3050E8002F00E006E022F015
:10204000100240E80023002BF3D1CDE705062BD585
:10205000150629D594F841002128C9D1A068B0F50A
:10206000805F01D12069B0B1206A411C21622168E2
:1020700000784860E08C401E0004000CE084B7D17A
:102080002068C16821F08001C1602068C16841F00A
:102090004001C160F8BD206A0088C0F308004860B4
:1020A000206A801C2062E5E74006F3D55006F1D592
:1020B000CA68204622F04002CA6084F8413000F02D
:1020C000A4F9F8BDBD33000870B5040004D094F83D
:1020D0004100002510B106E0012070BD84F8405099
:1020E000204600F023F8242084F841002068C168CD
:1020F00021F40051C160204601F0F0F92068016927
:1021000021F4904101612068416921F02A01416177
:102110002068C16841F40051C1606564202084F8E2
:10212000410084F842006563002070BD2DE9F04F46
:1021300087B0044614216846FEF7FCF980497F48C1
:10214000236800247E4A1039032502260827DFF879
:10215000F4B183421FD1106840F400201060106871
:1021600000F400200590086840F00100086008684D
:10217000CDE9005600F00100CDE9047069465846EB
:10218000CDE90245FEF7B6FE002206213420FFF716
:102190004DF8342035E0DFF8B0C16C48634535D1E7
:1021A000136843F480131360126802F480120592DE
:1021B0000A6842F004020A600A6802F0040205920A
:1021C0000A6842F008020A60096802AB01F00801DF
:1021D00005918114CDE9001683E8B0006946FEF749
:1021E00089FE0420CDE9000602AB694683E8B00011
:1021F0005748FEF77FFE002206213520FFF716F82C
:102200003520FFF705F807B0BDE8F08FDFF844810F
:10221000DFF82C914FF0C00A09F104094FF0070CC8
:10222000434522D1D9F8002042F01002C9F800201D
:10223000D9F8000000F010000590086840F0020096
:1022400008600868694600F00200CDE904C0CDE9E5
:1022500000A64148CDE90245FEF74CFE00220621CA
:102260002520FEF7E3FF2520CBE7DFF8F08043458C
:1022700020D1106840F400301060106800F4003085
:102280000590086840F001000860086802AB00F0A3
:10229000010005900C20CDE9000683E83010694666
:1022A0005846FEF727FE002206212620FEF7BEFF35
:1022B0002620A6E7DFF8A880434520D1136843F421
:1022C00080231360126802F4802205920A6842F0AB
:1022D00004020A60096802AB01F0040105914FF4A1
:1022E0004061CDE9001683E830106946FEF702FE32
:1022F000002206212720FEF799FF272081E7194AAF
:10230000934280D1D9F8003043F02003C9F800305F
:10231000D9F8002002F0200205920A6842F0040277
:102320000A600968CDE9024501F00401CDE90471B4
:10233000CDE900A66946FEF7DDFD64E7004C0040EC
:1023400040380240000002400050004000080240B7
:10235000000C024000100140000402400044004014
:10236000004800400014014070472DE9F84304463E
:1023700090F84100984616460D46202802D00220CB
:10238000BDE8F88385B17EB100206064212084F827
:102390004100FEF7ADFEA6848146E684A0682027B2
:1023A000B0F5805F02D003E00120E9E7206910B1B9
:1023B0002E4600250EE000260CE08021204601F08C
:1023C00013F9A8B9C6B116F8010B21684860E08C72
:1023D000401EE084E08C4B464FF00002CDF80080B8
:1023E0000028EAD14FF04001204601F0FDF840B14D
:1023F00084F841700320C3E735F8020BC0F30800EE
:10240000E3E784F841700020BAE77047FEF760BD4B
:10241000014890ED030A70472800002008B51448D1
:1024200001F07AF9002822D1124801F053F900286E
:102430001DD1114801F066F9002818D1502101F092
:1024400053F9002813D10E2001F070F900280ED1A5
:10245000062001F095F9002809D1084800680168B4
:1024600041680091C16841F02001C160002008BDB1
:10247000112500080D2400080D2500086C06002019
:102480000A2310B500221146445C491C224489B23B
:10249000D2B29942F8D3817A914230D1017855294C
:1024A0002DD1417853292AD1B0F90210DFED140A59
:1024B00000EE101A1449B8EEC00A20EE201A9FED63
:1024C000110A21EE001A81ED011AB0F9042001EE83
:1024D000102AB8EEC11A21EE201A21EE001A81ED61
:1024E000021AB0F9060001EE100A0120B8EEC11A76
:1024F00061EE200A20EE800A81ED030A087010BD0B
:10250000000000380000344328000020704700001D
:102510008AB2014664230148FFF727BF6C060020FA
:10252000FEE700000E4810B50C4901600C21416027
:1025300000214FF480228160C0E9031241610176DD
:1025400041768176C17601774177FEF74BFB002813
:1025500003D0BDE81040FEF769B910BD006400402B
:102560006C05002010B51B4801F0B6FC1A4C194A46
:102570000021E061FC3A194801F0E2FC154A2060B4
:10258000D83A0021164801F0DBFC124A6060B43AE8
:102590000021144801F0D4FC0E4AA060903A0021BA
:1025A000114801F0CDFC0B4AE0606C3A00210F4865
:1025B00001F0C6FC074A2061483A00210C4801F0AE
:1025C000BFFC044A6061243A00210A4801F0B8FCCB
:1025D000A06110BD3C620008A80000202D2F00085B
:1025E000512F0008592F0008612F0008692F00089B
:1025F000712F0008792F000830B587B01421684684
:10260000FDF798FF25480024016841F08001016032
:10261000016801F080010591016841F0010101604C
:10262000016801F001010591016841F002010160BA
:10263000016801F002010591016841F004010160A7
:10264000016801F004010591016841F00801016091
:102650000068134D00F0080005900122182128465B
:10266000FEF740FD182000901120CDE9010401245F
:10267000694628460394FEF73DFC4FF440700090F5
:102680001220CDE901040320039004200490694640
:102690002846FEF72FFC07B030BD0000303802405E
:1026A0000004024010B58AB0002407941C2168463B
:1026B0000894FDF73FFF164814490160A721C0E9BF
:1026C000011444F61F61C0E903148461FFF7FFFAA7
:1026D00008B1FEF7ABF8079407A90D480894FFF777
:1026E000C3F808B1FEF7A2F86020CDE90004029417
:1026F0000C22694606480494FFF783FA08B1FEF7F6
:1027000095F80348FFF714FA0AB010BD0004004022
:10271000940500201CB500240E4800940C49019437
:1027200001605321C0E9011442F20F718461C1605C
:10273000FFF7E2F808B1FEF779F80094694605481A
:102740000194FFF791F8002801D0FEF76FF81CBD47
:1027500000140040DC05002010B592B000240F9456
:102760001C2168461094FDF7E5FE202107A8FDF71F
:10277000E1FE2C482A490160A721C0E901144FF667
:10278000FF71C0E9031444618461FFF7A0FA08B146
:10279000FEF74CF80F940FA922481094FFF764F845
:1027A00008B1FEF743F86020CDE9000402940394D9
:1027B00004940594002269461A480694FFF721FA0A
:1027C00008B1FEF733F8042269461648FFF719FAF4
:1027D00008B1FEF72BF8082269461248FFF711FAF4
:1027E00008B1FEF723F80C2269460E48FFF709FAF4
:1027F00008B1FEF71BF80794089409944FF40050B1
:102800000A94CDE90B4007A906480E94FFF702F899
:1028100008B1FEF70BF80348FFF78AF912B010BDB4
:1028200000040140240600200C4810B50A4901604C
:102830004FF4E1314160002181600C22C160C0E9A8
:1028400004128161C161FFF73FFC002803D0BDE89D
:102850001040FDF7EBBF10BD004C00406C0600209F
:102860000C4810B50A4901604FF4E1314160002184
:1028700081600C22C160C0E904128161C161FFF76F
:1028800023FC002803D0BDE81040FDF7CFBF10BDEA
:1028900000500040B40600200C4810B50A49016001
:1028A0004FF4E1314160002181600C22C160C0E938
:1028B00004128161C161FFF707FC002803D0BDE865
:1028C0001040FDF7B3BF10BD00100140FC06002012
:1028D0000C4810B50A4901604FF4612141600021A4
:1028E00081600C22C160C0E904128161C161FFF7FF
:1028F000EBFB002803D0BDE81040FDF797BF10BDEB
:1029000000440040440700200C4810B50A4901600B
:102910004FF416514160002181600C22C160C0E972
:1029200004128161C161FFF7CFFB002803D0BDE82D
:102930001040FDF77BBF10BD004800408C07002011
:102940000C4810B50A4901604FF4E13141600021A3
:1029500081600C22C160C0E904128161C161FFF78E
:10296000B3FB002803D0BDE81040FDF75FBF10BDEA
:1029700000140140D4070020FEE7FEE7054880ED83
:10298000090A9FED050AC0ED0A0A80ED0B0A80EDE9
:102990000C1A7047380000200000000010B51F4CD2
:1029A0009FED1F1A1F492DED028BB0EE408A94ED6A
:1029B0000C0A70EEC00A01E070EEC10A10EE900A37
:1029C0008842F9DC184900BF10EE900A884202D90B
:1029D00070EE810AF8E7C4ED0B0A94ED0B0ADFED07
:1029E000130A20EE200ADFED120AC0EE208AB0EEB4
:1029F000680A01F045F8D4ED090A48EE000AB0EE85
:102A0000680AC4ED090A00F093FFD4ED0A0A48EE03
:102A1000000AC4ED0A0ABDEC028B10BD380000208C
:102A20000000B44300003443000034C3DA0F4940CF
:102A30000000344330B40021084B0A465FF0000028
:102A400003EBC004401CC0B262548028F8D3491C78
:102A5000C9B20829F2D330BC00F0B4B86C01002030
:102A600070B500240646802525FA04F0304000D0D9
:102A7000012000F051F9012000F044F9002000F09D
:102A800041F9641CE4B2082CEED3012000F03AF9BD
:102A9000BDE87040002000F035B910B5012000F00D
:102AA0003BF9012000F02EF9002000F035F9BDE8D7
:102AB0001040002000F026B910B5002000F02CF9DD
:102AC000012000F01FF9BDE81040012000F024B9FA
:102AD00010B5012000F016F9012000F01DF90120C9
:102AE000FEF7F6F90021AE2000F007F900210846B4
:102AF00000F003F90021102000F0FFF80021402031
:102B000000F0FBF80021B02000F0F7F80021812050
:102B100000F0F3F80021FF2000F0EFF80021A120E1
:102B200000F0EBF80021A62000F0E7F80021A82033
:102B300000F0E3F800213F2000F0DFF80021C8207A
:102B400000F0DBF80021D32000F0D7F80021084680
:102B500000F0D3F80021D52000F0CFF8002180202C
:102B600000F0CBF80021D82000F0C7F800210520A4
:102B700000F0C3F80021D92000F0BFF80021F120B7
:102B800000F0BBF80021DA2000F0B7F80021122095
:102B900000F0B3F80021DB2000F0AFF80021302076
:102BA00000F0ABF800218D2000F0A7F800211420E0
:102BB00000F0A3F80021AF2000F09FF8BDE810401E
:102BC000FFF738BF70B5114E002400BF04F1B0000C
:102BD000C0B2002100F091F80021084600F08DF805
:102BE0000021102000F089F85FF0000506EBC50019
:102BF0000121005D00F081F86D1CEDB2802DF5D350
:102C0000641CE4B2082CE1D370BD00006C0100200C
:102C100010B50446B031C8B2002100F06EF81020A3
:102C200040EA1410002100F068F804F00F00BDE83D
:102C30001040002100F061B82DE9F041203A0D4626
:102C40008046D6B27F2803D900208D1C8046EDB285
:102C5000102B294611D0FFF7DBFF184906EB460081
:102C6000002401EB40050121285D00F046F8641CBA
:102C7000E4B2062CF7D3BDE8F081FFF7C9FF104F8F
:102C8000002400BF04EB06100121385C00F035F889
:102C9000641CE4B2082CF5D36D1CE9B24046FFF782
:102CA000B7FF002404EB061038440121007A00F03D
:102CB00024F8641CE4B2082CF4D3DCE7265900089D
:102CC0004E5B00082DE9F041984617460E46044633
:102CD00000250DE0434631462046FFF7ADFF08349E
:102CE000E4B2782C02D90024B61CF6B26D1CEDB209
:102CF0007A5D002AEED1BDE8F08109B100F027B875
:102D000000F014B808B1012200E0002208210148B7
:102D1000FEF7E8B90004024008B1012200E00022F9
:102D200010210148FEF7DEB90004024010B5044648
:102D3000FFF7B3FE7820FFF793FE0020FFF790FE29
:102D40002046FFF78DFEBDE81040FFF7B5BE10B579
:102D50000446FFF7A2FE7820FFF782FE4020FFF72F
:102D60007FFE2046FFF77CFEBDE81040FFF7A4BEC3
:102D70000D4808B59FED0B0A002180ED010A80ED9A
:102D8000020A80ED030A80ED040A417001700748D1
:102D90000068016841680091C16841F02001C1608C
:102DA00008BD00000000000074000020440700205F
:102DB00070B5194C04F1140122781AB10025012ACA
:102DC00006D007E0032802D108700120207070BDF2
:102DD00036281FD18854521CD0B220700828F6D350
:102DE000CA796B2A16D1082814D1D1F803008A7841
:102DF00000BA897920F0FF00084300EE100ADFEDE9
:102E0000070AB8EE400A20EE200A0AB1B1EE400AE5
:102E100000F006F8257070BD740000200000B43B7F
:102E200010B51E482DED028B80ED030A417879B173
:102E3000D0ED040A80ED040A194A70EE600A9FED95
:102E4000190A10EE901A914209DD70EEC00A0DE0E9
:102E500080ED040A01214170BDEC028B10BD10EE23
:102E6000901A114A914201D970EE800A9FED0F0A23
:102E700020EE808A80ED028A90ED010A30EE080A89
:102E800080ED010AFFF7C4FAF0EE400AB0EE480AFE
:102E9000BDEC028BBDE81040FFF780BD7400002040
:102EA000000034430000B443000034C3C00F733C3F
:102EB00010B500F007F802490968486310BD00002A
:102EC000240600204FF4FA71884203D340F6C4115F
:102ED000884200D90846704710B540F2DC542046BD
:102EE00000F01AF80C210A48FEF73CFF08B1FDF784
:102EF0009DFC2046FFF7DCFF00210648FEF732FF6D
:102F0000002803D0BDE81040FDF790BC10BD0000C4
:102F1000940500202406002010B5FFF7D3FF0249D6
:102F20000968086410BD0000940500201CB500204D
:102F3000009003460246014601909FED040A0320DB
:102F4000FDF71AFC012000F08BFFFBE700000000FA
:102F5000012000F085FFFBE7012000F081FFFBE787
:102F6000012000F07DFFFBE7012000F079FFFBE787
:102F7000012000F075FFFBE7012000F071FFFBE787
:102F800010B54FF0E020006902F012FA012803D0DA
:102F9000BDE8104001F008BF10BD000030B593B08F
:102FA00030216846FDF7C6FA14210CA8FDF7C2FAD5
:102FB0001D480025016841F080510160006800F063
:102FC000805011901948016841F480410160006807
:102FD000022400F480401190012000900004019030
:102FE0008001CDE9064008AA0420A82182E8130048
:102FF0000B906846FEF756FA08B172B6FEE70CA9C8
:103000000F2081E831004FF4A0500F904FF4805012
:10301000109005210CA8FEF73BF9002801D072B6EC
:10302000FEE713B030BD00004038024000700040A1
:103030000248016841F470010160704788ED00E0CA
:103040000148FEF7DCBC000028080020F0B502684B
:10305000274B284D284E294F294C4FF0804C984241
:1030600009D0604507D0A84205D0B04203D0B8428D
:1030700001D0A04204D122F0700E4A6842EA0E024A
:1030800098421BD0604519D0A84217D0B04215D045
:10309000B84213D0A04211D01A4DA8420ED01A4DFA
:1030A000A8420BD0194DA84208D0194DA84205D00E
:1030B000184DA84202D0184DA84203D122F4407501
:1030C000CA682A434D6922F080022A438D68C5628E
:1030D0000D688562984201D0A04201D1096901635F
:1030E000016841F004010160012141610260F0BD0D
:1030F000000001400004004000080040000C0040B7
:1031000000040140004001400044014000480140EB
:1031100000180040001C00400020004010B501F0E5
:103120001F030121046A99408C430462016A9A409A
:103130001143016210BD0000F0B5036A026A22F07B
:103140000102026242688469124E24F073050C6821
:103150002C4323F002058B682B430D4DA84201D070
:10316000B04205D123F00807CB683B4323F00403AA
:10317000A84201D0B04205D14D6922F440721543F6
:103180008A692A4342608461496841630362F0BDF1
:103190000000014000040140F0B5026A036A23F018
:1031A00010030362436884690D6824F4E64444EA2A
:1031B00005248D6822F0200242EA05120F4D104EC0
:1031C000A84201D0B04206D1CF6822F0800242EA84
:1031D000071222F04002A84201D0B04207D14D6947
:1031E00023F4406343EA85038D6943EA8503436022
:1031F0008461496881630262F0BD00000000014003
:1032000000040140F0B5026A036A23F4807303628C
:103210004368C46922F4007224F073050C68124EEE
:103220002C438D6842EA05220E4DA84201D0B042DF
:1032300006D1CF6822F4006242EA072222F48062BB
:10324000A84201D0B04207D14D6923F4405343EA6C
:1032500005138D6943EA05134360C4614968C1637E
:103260000262F0BD000001400004014030B5046A74
:10327000026A22F4805202624268C3690D6823F434
:10328000E64343EA05238D6824F4005444EA0534F8
:10329000084DA84202D0084DA84204D14D6922F43D
:1032A000804242EA85124260C36149680164046257
:1032B00030BD00000000014000040140084808B58E
:1032C00000219FED080A017080ED010A06480068A0
:1032D000016841680091C16841F02001C16008BDEA
:1032E0009000002000000000FC060020124910B5EC
:1032F0000A78002322B1012A05D0022A06D009E06B
:10330000012806D106E0032802D103E0022801D0FB
:103310000B7010BD084C0834A054521CD0B2087079
:103320000728F6D3B4F8030040BA00EE100AB8EE4E
:10333000400A81ED010AEBE79000002070B51948C2
:10334000FEF782FD174800680168C943890616D454
:103350004068154CC2B215486378012183B1012B36
:103360000DD123780025C2545B1CDAB22270022AE8
:103370000CD00B2A03D1FFF783F82570657070BD60
:10338000552AFCD102702170617070BD40785328BD
:10339000FBD05228F9D0552802D06570257070BD39
:1033A000217070BD6C060020D80000201C08002091
:1033B0000148FEF749BD0000B406002010B5806B3F
:1033C0000021C185FEF73EFD10BD01680C3151E8BA
:1033D000002F22F4907241E80023002BF5D1016800
:1033E000143151E8002F22F0010241E80023002BA4
:1033F000F5D1016B012909D101680C3151E8002F89
:1034000022F0100241E80023002BF5D1202180F8A2
:10341000421000210163704708B590F8421022293C
:1034200001D0022008BD82684FF480539A4201D136
:10343000016921B1816A9A421BD04AB10AE002684F
:10344000816A5268C2F308020A80816A891C08E016
:10345000026972B10268526802F07F020A70816AE2
:10346000491C8162C18D491E0904090CC18503D024
:103470001BE002685268F1E70168CA6822F0200286
:10348000CA600168CA6822F48072CA6001684A6929
:1034900022F001024A61202180F84210002141639C
:1034A000026B012A03D0FEF75FFF002008BD016315
:1034B00001680C3151E8002F22F0100241E800238E
:1034C000002BF5D101680A68D20602D50A6849685E
:1034D0000091818DFEF7B5FCE7E7000070B504466A
:1034E00000680169E26821F44051114301612169DA
:1034F000A068E26908436169114308432168CA680A
:1035000049F20C639A430243CA6020684169A26988
:1035100021F440711143416131492068884202D051
:103520003049884202D1FDF77DFF01E0FDF76AFFD7
:10353000E2690023192164253226B2F5004F626842
:1035400028D0A0FB0101930F9200FCF7FDFE01467D
:10355000B0FBF5F06FF01802504301EB800006EB72
:103560000010B0FBF5F000F0F002B1FBF5F002EB5B
:103570000012B1FBF5F06FF01803584301EB800027
:1035800006EB0010B0FBF5F000F00F0021681044CE
:10359000886070BDA0FB010192185B41FCF7D4FE6E
:1035A0000146B0FBF5F00201B1FBF5F06FF0180336
:1035B000584301EB800006EBC000B0FBF5F000F0D3
:1035C000F80002EB4002B1FBF5F0584301EB80003C
:1035D00006EBC000B0FBF5F000F00700D6E70000F6
:1035E00000100140001401402DE9F84398461746A9
:1035F0000D460446089E24E0701C22D0FDF778FD9D
:10360000A0EB0800B0421AD8CEB12068C1684907C3
:1036100017D5802D15D0402D13D00168C943090757
:103620000FD401680025406800902046FFF7CDFECA
:103630000820606484F840500120BDE8F88303202E
:10364000FBE72068006835EA000004D00020B8429B
:10365000D2D00020F1E70120F9E700000B4882B04A
:1036600000680168C943090702D4016841680091F4
:103670000168C943890604D4406802B0C0B2FFF7AC
:1036800035BE024802B0FEF7DFBB0000FC0600209A
:103690000B4882B000680168C943090702D4016879
:1036A000416800910168C943890604D4406802B0AA
:1036B000C0B2FFF77DBB024802B0FEF7C5BB0000F9
:1036C000440700200148FEF7BFBB00008C07002024
:1036D000FEE7000018B103498861002070476FF0D1
:1036E0000500704700000020032802D96FF0050094
:1036F0007047034A106211700020D06170470000CB
:103700000000002018B103494861002070476FF0A5
:10371000050070470000002018B1034948600020F0
:1037200070476FF0050070470000002070B5044638
:1037300040F6FF72012100B2FCF7E0FF40B14BF20E
:103740008851692000F046F86FF00205A0B902E048
:103750006FF0050070BD0949086A012801D010B159
:1037600004E0142000E0012089698847A1B202200A
:1037700000F030F80028EDD0284670BD0000002091
:1037800070B504460D22012100B2FCF7B7FF40B12D
:103790004BF28851692000F01DF86FF00205A0B9C6
:1037A00002E06FF0050070BD0949086A012801D0E8
:1037B00010B104E0142000E0012089698847A1B21B
:1037C000032000F007F80028EDD0284670BD000067
:1037D000000000202DE9FC476FF0050A90281AD25E
:1037E000354CCAB22346D4F82080FF27090A5B680B
:1037F0006FF0040C4FF0AA09C6B2B8F1000F0DD05B
:103800002546B8F1010F2D7817D0B8F1020F31D04D
:10381000B8F1030F40D05046BDE8FC87DBB38DF80C
:1038200000708DF801908DF802608DF804108DF80D
:1038300003200521684698473AE063B306238DF8D4
:1038400000508DF80130000A8DF802008DF8041048
:103850008DF803608DF805201946684600F042F89F
:10386000010A8DF806108DF8070062680821684685
:1038700090471DE0236973B18DF800708DF80190B9
:103880008DF802608DF803208DF80410052269463A
:10389000284698470CE00DE0A4685CB18DF8002044
:1038A0008DF80110C1B26806000E02236A46A047D7
:1038B0000020B1E76046AFE70000002041000802A9
:1038C00018BF04200A0E18BF40F001004FF07F42DD
:1038D00032EA010108BF40F00200012808BF0520BC
:1038E00070470000F0B5FF23084E1C46002206F585
:1038F000807705E0855C5D40735D63407C5D521CB4
:103900008A42F7DB44EA0320F0BD00002657000896
:103910000907090E002804DB00F1E02080F80014FC
:10392000704700F00F0000F1E02080F8141D704790
:1039300010EE101A08B5444A6846B2EB410F28D978
:103940004FF0E640B0EB410F94BF00204FF0FF3046
:1039500000900098002861DB60EE000A10F0010F73
:1039600045D010F0020FDFED391A9FED391A00EE45
:10397000E11ADFED381A40EE811A21EEA01AF0EEBE
:10398000400A40EE010A08BFF1EE600AB0EE600A9C
:1039900008BD314B21F0004293423CD911F0004F59
:1039A000DFED2E0A20EE201ADFED2D0A19BF31EED1
:1039B000601A71EE200A31EE201A71EE600ABDEE37
:1039C000E01A11EE100A9FED271A00F0030000EE36
:1039D000C10A9FED251A009000EEC10A9FED231A3F
:1039E00000EEC10A9FED221A00EEC10AB1E79FED79
:1039F000211A9FED210A10F0020F00EE810A9FEDBF
:103A00001F1A00EE801AB7EE000A00EE810A18BFF6
:103A1000B1EE400A08BD00F00FF99AE710EE100A67
:103A20004000B0F17F4F3CBFB7EE000A08BD07D1A0
:103A30004FF00100FCF7ADFDBDE8084000F0ECB828
:103A4000BDE8084000F0E4B8B61F927E336D4C39F3
:103A5000DA82083CA0AA2ABE490E494683F9223FD1
:103A60000000004B0000C93F00A0FD390020A23338
:103A70001A61342CB93AB2BACA9F2A3DDDFFFFBEA3
:103A800000B510EE101A2DED028B81B0524A684637
:103A9000B2EB410F2ED94FF0E640B0EB410F94BF8F
:103AA00000204FF0FF3000900098B0EE408A0028D0
:103AB0006ADB10F0010F4BD068EE080A9FED471A41
:103AC0009FED470A00EE810A9FED461A10F0020FA3
:103AD00000EE801AB7EE000A00EE810A02BF01B0C4
:103AE000BDEC028B00BD00BF01B0B1EE400ABDECE1
:103AF000028B00BD3C4B21F00042934241D911F0B2
:103B0000004FDFED3A0A20EE201ADFED390A19BF27
:103B100031EE601A71EE200A31EE201A71EE600A61
:103B2000BDEEE01A11EE100A9FED321A00F003000C
:103B300000EEC10A9FED301A009000EEC10A9FED21
:103B40002F1A00EEC10A9FED2E1A00EEC10AABE754
:103B500028EE080A9FED2B1ADFED2B0A10F0020F5A
:103B600040EE410A9FED291A00EE201A61EE000A8C
:103B7000B0EE480A08EE200AB6D101B0BDEC028BC7
:103B800000BD00F059F88FE718EE100A4000B0F1C0
:103B90007F4F0DD218EE100AFFF790FE042808BFE1
:103BA00000F042F8B0EE480A01B0BDEC028B00BD57
:103BB00009D10120FCF7EDFC01B0BDEC028B5DF8F2
:103BC00004EB00F029B801B0B0EE480ABDEC028B5E
:103BD0005DF804EB00F01CB8B61F927EB93AB2BA99
:103BE000CA9F2A3DDDFFFFBE490E494683F9223FA9
:103BF0000000004B0000C93F00A0FD390020A233A7
:103C00001A61342C336D4C39DA82083CA0AA2ABEE2
:103C100030EE000A70470000DFED020A80EEA00AD5
:103C200070470000000000009FED020A20EE000A2D
:103C300070470000000000102DE9F0014FF07F42B6
:103C4000B2EB410F9FBF4FF0FF310160BDE8F001C3
:103C500070474FF0004242EA0123C1F3C752783A5D
:103C6000551112F01F0C434CCCF120067C44C1F3DB
:103C7000C752A2F178024FEA621204EB820254F8B2
:103C8000254008BFD2E9015612D0556804FA0CF459
:103C900025FA06F73C43976805FA0CF527FA06F86B
:103CA000D26807FA0CFCF24045EA08054CEA020625
:103CB000A4FB034CA5FB0352A6FB03631D449D42DA
:103CC00034BF012600261319334416B1934202D99A
:103CD00003E0934201D2012200E00022624402F19B
:103CE000200C9206DC0C42EA443200EE102A5B0300
:103CF000DFED210AF8EEC01A00EE103A4FEA9C1CE4
:103D000011F0004FB8EE400AC0F800C020EE201AB3
:103D100000EE105ADFED190AB8EE400A20EE200A34
:103D200071EE810A70EE800A10EE902A02F50062B0
:103D30006FF30B0200EE902A70EEE11A31EEC11A19
:103D4000DFED101A30EE411A9FED0D0A20EE800AC9
:103D500001EE210A9FED0C1A00EE810A04BFBDE8B6
:103D6000F0017047CCF180510160BDE8F001B1EE87
:103D7000400A7047F4250000000000360000802C47
:103D800022AAFD29DB0FC92F0000C92FFDF7BEF9BC
:103D9000FFF704F9FEF730FCFEF746FDFEF760FD85
:103DA000FEF77AFDFEF794FDFEF7AEFDFEF7BAFBD7
:103DB000FEF778FCFEF7AEFCFEF7CEFCFEF7C0FD8A
:103DC000FFF78AF8FEF72AFB1E4D00202870FDF74A
:103DD0008FF904464FF47A76287820B9FDF788F9F0
:103DE000001BB042F8D3FEF713FBB0EE401AF3EE1F
:103DF000090AB3EE090AFEF7C1FDFEF7B9FFFFF7A6
:103E00005DFAFEF765FE002110230FA20846FEF7BB
:103E100059FF10230EA202210020FEF753FF1023AA
:103E20000DA204210020FEF74DFF10230BA2062156
:103E30000020FEF747FF00F021F8FEF793FB00F0AB
:103E40002FF8FEE7280000205961773A00000000B3
:103E50004469733A00000000583A0000593A0000E3
:103E600010B5EFF3058111B16FF0050403E00024F4
:103E700008B100F039FE204610BD0000EFF30580C8
:103E800010B16FF0050070470448016811B14FF0A0
:103E9000FF30704701210160002070473C01002085
:103EA00010B5EFF3058010B16FF0050010BD0848A4
:103EB0000168012902D04FF0FF3010BD054A0021F2
:103EC00082F8141D0221016000F076FE002010BD72
:103ED0003C0100200BE000E070B505464FF0000407
:103EE000EFF3058050BB0DB1686800E00020C1070A
:103EF00001D0012600E0002600071FD46DB1D5E9EE
:103F0000021021B1502819D31EB1042002E020B1C3
:103F100014E0012000F069FF05E00EB1042000E08C
:103F2000012000F057FF040008D00DB1296800E01F
:103F3000002100F0A3FD0EB144F00104204670BD45
:103F40002DE9FF414FEA01034FF00005EFF3058132
:103F5000039549BB40B38027182100244AB3166853
:103F600006B1344696691EB13146761E382E02D20D
:103F70001679F60703D0002004B0BDE8F081566939
:103F800006B1B708D2F808C0BCF1000F0DD0D56853
:103F90005C2D18D312693AB136B18DE806103A4655
:103FA000214601F0DAF903900DE0D6685EB9126996
:103FB0004AB903AACDE90012BAB2214601F0A0F92C
:103FC000012800D003950398D6E700002DE9F041C1
:103FD000134C0F460546E6682068001D00F050FCB3
:103FE000681C07D137B12168BDE8F0410D48091DB3
:103FF00000F096BC20683544B5424560216805D282
:10400000A06BBDE8F041091D00F072BC606B091D9A
:1040100000F06EFCA06A854200D2A562BDE8F08186
:10402000EC000020600D00202DE9F041054600F075
:1040300083FC2D4CA068401CA06020682B4F10B161
:10404000606930B32BE02560A068012827D10026E5
:1040500006EB860007EB800000F03CFC761C382E57
:10406000F6D3234800F036FC2148143000F032FC2F
:104070001F48283000F02EFC1D483C3000F02AFC80
:104080001B48503000F026FC194860631430A063D0
:1040900005E02068E96AC06A884200D82560606A45
:1040A000401C60626864E86A2169884200D9206126
:1040B00000EB800007EB8000291D00F031FC00F0D0
:1040C0005BFC606900280CD02068E96AC06A8842FD
:1040D00007D208494FF080500860BFF34F8FBFF3FD
:1040E0006F8FBDE8F0810000EC000020B0080020D8
:1040F000100D002004ED00E038B500F01DFC104C60
:104100002068C8B90F4800F0E5FB0E48143000F0F5
:10411000E1FB0C48E060143020610A4B0020F03BCA
:10412000009003F1500210210A2000F08CFE206064
:1041300010B105A100F0A2FCBDE8384000F01CBCA5
:1041400028010020640E0020546D72510000000010
:1041500030B4026C0B46002A0BD0C1681144C16018
:104160008468A14201D30168C16030BC1846FCF7E5
:1041700062B930BC70472DE9F041856B17460446A3
:104180000026026C82B1C7B1E068FCF754F9E1681F
:10419000206C091AE1602268914202D2A168081AD3
:1041A000E060022F16D017E02068A8B9A06801F0DF
:1041B00077F906460020A0600EE06068FCF73BF946
:1041C000216C606808446060A168884204D320685C
:1041D000606001E005B16D1E6D1CA5633046BDE851
:1041E000F08110B5044690F8590058B101280CD060
:1041F00002280FD0502080F31188BFF34F8FBFF3F8
:104200006F8FFEE7206B00F0CBFB2046BDE810402F
:1042100000F0C6BB10BD000010484FF4A04142079B
:1042200006D0C01D0D4920F00700411AC1F5A0417C
:104230000B4A00230144C2E900030839183A21F06F
:10424000070111604B600B600B1AC0E9001393600B
:104250004FF000405360506170470000441500204B
:1042600058010020144E154CA6F29C474FF0805880
:10427000DFF84C9012E000BF00F05EFBF068C5680C
:10428000281D00F0FDFAA068401EA0606068401E76
:10429000606000F071FB2846FFF7A3FF606800280C
:1042A000EAD138680128F9D9C9F80080BFF34F8FE7
:1042B000BFF36F8FF2E700004C0D0020EC000020F0
:1042C00004ED00E0002807D00021816001600B466A
:1042D0000A46C16000F02EBE7047000070B51D4652
:1042E000049C51B1C4F80020C4E90F01012120460B
:1042F00000F0DCFD84F84C5070BD2460F4E7000051
:104300002DE9F05F8846DDE90B9415468346910060
:104310009A460A9EA522206BFCF704F96FF0030170
:10432000206B01EB8501084420F00707780707D0D0
:10433000502080F31188BFF34F8FBFF36F8FFEE7DC
:104340000025B8F1000F0FD05FF00000221818F818
:10435000001082F8341018F8001011B1401C102819
:10436000F4D384F8435001E084F83450382E00D35D
:104370003726E662C4E91365201D00F0B6FA04F1A1
:10438000180000F0B2FA2461C6F138006462A0613E
:10439000656584F8585052465946384600F05AFA36
:1043A0002060B9F1000F01D0C9F80040BDE8F09FCE
:1043B00030B5114900E011460A688242FBD34B68D0
:1043C0005C18844203D1406818444860084643683A
:1043D0001C18944209D1084C183C2468A24209D008
:1043E00052681A4442600A6812680260814200D032
:1043F000086030BD0460F9E75801002070B5002462
:1044000041600B4D0061914206D8D11A82699142F8
:1044100006D2011D286907E09A4203D2994201D3CE
:10442000012403E0011DE86800F062FA204670BD37
:104430002801002010B5044600F07EFAA06B28B1D8
:104440005FF0000400F098FA204610BD0124F9E75F
:1044500030B589B03C4D6EE00498002806DADDE9FD
:104460000601059A90470498002864DB069C606961
:1044700010B1201D00F004FA03A800F0D7F802469E
:1044800004980A2857D2DFE800F00505052D334AC5
:1044900005052D3394F8280040F0010084F8280029
:1044A0000599A069059B01442046FFF7A7FF68B363
:1044B000216A2046884794F8280040073BD5002011
:1044C00000900598A169002342181946204601F082
:1044D000F1F8D8B9502080F31188BFF34F8FBFF3A4
:1044E0006F8FFEE714F8280F20F00100207022E003
:1044F00094F8280040F0010084F828000598A06195
:1045000028B1811813462046FFF778FF13E05020AA
:1045100080F31188BFF34F8FBFF36F8FFEE794F8DE
:104520002800810703D4204600F03AFA03E020F087
:10453000010084F82800002204A9286800F00AFE7F
:10454000002889D109B030BD280100202DE9FC41A7
:104550000F46054600F074FB01A800F067F804461A
:10456000019818B101F014F8BDE8FC81254EAFB1F7
:1045700030690068D0B30027291B3A46306800F044
:1045800091FA01F005F80028EED11F494FF0805054
:104590000860BFF34F8FBFF36F8FE5E7A542EBD8FD
:1045A00000F0F6FFF0682746C068C468201D00F0E0
:1045B00067F994F82800410719D5A0692B464119DD
:1045C0003A462046FFF71AFFA8B1002003460146ED
:1045D00000902A46204601F06DF860B9502080F323
:1045E0001188BFF34F8FBFF36F8FFEE707E020F016
:1045F000010084F82800216A20468847B4E7012793
:10460000BAE700002801002004ED00E00648416BF5
:10461000096829B1416BC968C968496881627047F6
:104620004FF0FF31FAE70000EC00002070B50546BE
:1046300000F0CCFE064E0446B068844203D200F07F
:1046400009F8012000E0002028602046B46070BD19
:1046500028010020F8B5194D20E0C068C46806683C
:10466000201D00F00DF9216A2046884794F82800A3
:10467000400713D5A0693044B04206D92461606078
:10468000211DE86800F034F908E0002003460146E7
:1046900000903246204601F00DF838B1E868016814
:1046A0000029DAD12969C5E90310F8BD502080F34B
:1046B0001188BFF34F8FBFF36F8FFEE728010020F3
:1046C00008484068401C4FF0500080F3118804D027
:1046D000BFF34F8FBFF36F8FFEE7BFF34F8FBFF373
:1046E0006F8FFEE760010020074CE068016841B170
:1046F000C0680021D0F80000FFF728FFFFF7A8FEF0
:10470000F3E701210020F7E7280100202DE9F0411F
:10471000044600F011F994F9455004F1240609E02B
:10472000606A48B1304600F0FBFE08B100F00AFABA
:104730006D1E6DB2002DF3DC4FF0FF3684F845603E
:1047400000F01AF900F0F8F894F9445004F1100759
:1047500009E0206948B1384600F0E2FE08B100F0F7
:10476000F1F96D1E6DB2002DF3DC84F84460BDE8F4
:10477000F04100F001B900002DE9F04105460027A5
:1047800000F05EFA324E306808B9FFF745FD7069F7
:1047900005424ED1C5B3083568070ED005F00700B5
:1047A000C0F108000544680707D0502080F3118845
:1047B000BFF34F8FBFF36F8FFEE72DB37068854255
:1047C00037D82348183001460C6801E020460C46D3
:1047D0006168A94202D221680029F7D131688C4270
:1047E00027D007682168016060680837411B1029DD
:1047F0000FD96019420708D0502080F31188BFF309
:104800004F8FBFF36F8FFEE713E041606560FFF7E6
:10481000CFFD61687068401A7060B268904200D243
:10482000B060706901430020C4E90001F068401CD9
:10483000F06000F0ADFE780707D0502080F31188BB
:10484000BFF34F8FBFF36F8FFEE73846BDE8F081AF
:104850004001002010B5031F4FF080741C601B1F27
:1048600021F001011960191F044B0B6014390A6013
:10487000091F6FF0020244380A6010BDC1460008EB
:10488000D0E9013201699A60D0E901235A604A688F
:10489000824201D182684A60002202610868401E9B
:1048A0000860086870470000034B036003F15C0078
:1048B00008608020106070478C0E0020044B03605D
:1048C00003F15C0008604FF48070106070470000D6
:1048D000E810002000F108014FF0FF32C0E901129A
:1048E000C1600161002101607047002101617047D2
:1048F00030B50B685A1C02D000F1080202E00269D0
:1049000004E02246546825689D42FAD953684B60FA
:1049100099608A60516008610168491C016030BD7E
:1049200042684A6093688B6093685960916008613F
:104930000168491C01607047502080F31188BFF363
:104940004F8FBFF36F8F0A494868401C48600128A9
:104950000CD10848006810F0FF0F07D0502080F3FA
:104960001188BFF34F8FBFF36F8FFEE770470000D2
:104970006001002004ED00E00849486828B1401EAD
:10498000486001D180F311887047502080F311886E
:10499000BFF34F8FBFF36F8FFEE700006001002071
:1049A00070B500282AD0164DA0F108046068696926
:1049B000084207D1502080F31188BFF34F8FBFF317
:1049C0006F8FFEE722683AB1502080F31188BFF361
:1049D0004F8FBFF36F8FFEE78843606000F030F9C0
:1049E00060686968084468602046FFF7E1FC286950
:1049F000401C2861BDE8704000F0CABD70BD0000D9
:104A0000400100204FF0E020002101618161054953
:104A10004FF47A720968B1FBF2F1491E4161072136
:104A200001617047E800002010B5FBF769FC1149EF
:104A300010280ED300F1E02090F8F0030A7890429D
:104A400007D2502080F31188BFF34F8FBFF36F8FD1
:104A5000FEE709480068896800F4E060884207D9E9
:104A6000502080F31188BFF34F8FBFF36F8FFEE7A5
:104A700010BD0000600100200CED00E010B5084BF7
:104A8000002200BF53F832401CB1521C082AF9D34F
:104A900010BD43F8321003EBC201486010BD0000A6
:104AA0007008002070B515460E460446FFF744FF17
:104AB00094F944100020491C01D184F8440094F971
:104AC0004510491C01D184F84500FFF755FFA06B44
:104AD00028B92A46314604F1240000F051F8204656
:104AE000BDE87040FFF712BE10B5020014D00F48A9
:104AF000006B38B1502080F31188BFF34F8FBFF3A4
:104B00006F8FFEE700F09CF800211046FFF75EFA79
:104B100000F03EFD002807D105494FF080500860A5
:104B2000BFF34F8FBFF36F8F10BD0000EC0000206C
:104B300004ED00E002490A6A0260C96841607047FA
:104B4000EC00002001490120C8617047EC00002002
:104B500010B50C4650B1094909681831FFF7C8FE75
:104B60002046BDE810400121FFF730BA502080F305
:104B70001188BFF34F8FBFF36F8FFEE7EC0000206B
:104B800070B514460D4668B10A4909681831FFF737
:104B9000C7FE0CB14FF0FF3521462846BDE87040F6
:104BA000FFF714BA502080F31188BFF34F8FBFF383
:104BB0006F8FFEE7EC00002030B587B0002403942F
:104BC00005AA04A903A80494FFF76EFEDDE903011A
:104BD0000094CDE90110002315A11748059A00F0B3
:104BE000BCFB164D0028E8621FD000F033FD012801
:104BF00009D0401C19D1502080F31188BFF34F8F8A
:104C0000BFF36F8FFEE7502080F31188BFF34F8F03
:104C1000BFF36F8F4FF0FF30A86201206861EC6036
:104C200007B0BDE8304000F045B807B030BD000027
:104C300049444C450000000065420008EC0000209B
:104C40000248016B491C016370470000EC00002022
:104C5000164810B5016B11B10121C16110BD0021D1
:104C6000C1610169124A01E0B9B1491E01EB81033A
:104C700052F82330002BF7D001EB810302EB8302C3
:104C800002F1080453685B685360A34201D15B687A
:104C90005360DA680260016110BD502080F3118812
:104CA000BFF34F8FBFF36F8FFEE70000EC000020D3
:104CB000B00800201CB537480168374A914207D137
:104CC000502080F31188BFF34F8FBFF36F8FFEE743
:104CD00000683149491E884207D1502080F311886D
:104CE000BFF34F8FBFF36F8FFEE72C490878019019
:104CF000FF20087008788DF800009DF800009DF8EE
:104D0000002000F0F000904207D0502080F311887E
:104D1000BFF34F8FBFF36F8FFEE79DF80000204C6D
:104D200000F0500020700720A06005E09DF80020F2
:104D300052008DF80020401E9DF800201206F5D488
:104D4000A060032807D0502080F31188BFF34F8F55
:104D5000BFF36F8FFEE74FF44070A06001980870BA
:104D60000C482030016841F470010160016841F095
:104D700070410160FFF746FE00206060FBF788FA93
:104D80000848016841F040410160FBF76DFA0020DE
:104D90001CBD000000ED00E071C20F4100E400E026
:104DA0006001002034EF00E010B5502080F311883E
:104DB000BFF34F8FBFF36F8F00F00EFB18B10449A4
:104DC0004FF080500860002080F3118810BD000073
:104DD00004ED00E010B502460021012000F012F8B9
:104DE0000446FFF76FFA204610BD38B50B46002287
:104DF00000901146012000F026F80446FFF762FA01
:104E0000204638BDF8B517460E46050013D005FB01
:104E100006F05030FFF7B0FC04000AD0002084F800
:104E2000460004F150023B46314628460094FFF705
:104E300055FA2046F8BD502080F31188BFF34F8FFC
:104E4000BFF36F8FFEE738B5049D18B153B1CAB1F7
:104E500081B120E0502080F31188BFF34F8FBFF362
:104E60006F8FFEE7502080F31188BFF34F8FBFF3A1
:104E70006F8FFEE7502080F31188BFF34F8FBFF391
:104E80006F8FFEE739B1502080F31188BFF34F8F49
:104E9000BFF36F8FFEE750241C46012384F8463091
:104EA0002B460094FFF71AFA204638BD70B50D4620
:104EB000040025D0FFF740FDD4E90F20216802FB54
:104EC0000011A1600021A163216861600A46D4E954
:104ED0000F01401E00FB0121E16021464FF0FF3031
:104EE00001F8440F487004F110008DB1FFF7F2FC97
:104EF00004F12400FFF7EEFCFFF73EFD012070BD3A
:104F0000502080F31188BFF34F8FBFF36F8FFEE700
:104F100021690029F0D000F003FB0028ECD00449FF
:104F20004FF080500860BFF34F8FBFF36F8FE3E700
:104F300004ED00E02DE9FF4782B01D468A464FF0A0
:104F40000008040003D0BAF1000F08D011E050208F
:104F500080F31188BFF34F8FBFF36F8FFEE7206C94
:104F600038B1502080F31188BFF34F8FBFF36F8F9C
:104F7000FEE7022D0AD1E06B012807D0502080F314
:104F80001188BFF34F8FBFF36F8FFEE700F010FA69
:104F90003F4F4FF000094FF0805648B9049838B1A0
:104FA000502080F31188BFF34F8FBFF36F8FFEE760
:104FB000FFF7C2FCA06BE16B884207D3022D05D03E
:104FC0000498D0B1B8F1000F1AD01EE02A4651461D
:104FD0002046FFF7D0F8616A19B104F1240000F00F
:104FE0009FFA20B13E60BFF34F8FBFF36F8FFFF783
:104FF000C3FC012006B0BDE8F087FFF7BDFC22E04E
:105000006846FFF797FD4FF00108FFF7B5FCFFF783
:1050100017FEFFF791FC94F94400401C01D184F87D
:10502000449094F94500401C01D184F84590FFF765
:10503000A3FC04A9684600F029F930B12046FFF727
:1050400065FB00F0A5FA0020D4E7FFF775FCA06B24
:10505000E16B884213D1FFF78FFC04F11000049933
:10506000FFF776FD2046FFF751FB00F091FA00288C
:105070009ED13E60BFF34F8FBFF36F8F98E7FFF76E
:105080007BFC2046FFF742FB00F082FA90E700002D
:1050900004ED00E02DE9F0471F46904689460400E4
:1050A00003D0B9F1000F08D011E0502080F311882F
:1050B000BFF34F8FBFF36F8FFEE7206C38B15020E6
:1050C00080F31188BFF34F8FBFF36F8FFEE7022F7E
:1050D0000AD1E06B012807D0502080F31188BFF37C
:1050E0004F8FBFF36F8FFEE7FFF79EFC5020EFF36B
:1050F000118680F31188BFF34F8FBFF36F8FA06BC2
:10510000E16B884206D3022F04D0002086F3118879
:10511000BDE8F08794F94550A06B3A4649462046D1
:10512000FFF729F8681C04D06D1C84F84550012055
:10513000ECE7606A0028FAD004F1240000F0F0F9EE
:105140000028F4D0B8F1000FF1D00121C8F8001008
:10515000EDE700002DE9F747002683B08A460400FA
:1051600003D0BAF1000F08D011E0502080F311886D
:10517000BFF34F8FBFF36F8FFEE7206C38B1502025
:1051800080F31188BFF34F8FBFF36F8FFEE700F0FE
:105190000FF9DFF8F4804FF000094FF0805748B95D
:1051A000059838B1502080F31188BFF34F8FBFF3BB
:1051B0006F8FFEE7FFF7C0FBA56BC5B151462046D8
:1051C000FEF7C6FF6D1EA563206950B104F1100003
:1051D00000F0A6F928B1C8F80070BFF34F8FBFF3F5
:1051E0006F8FFFF7C9FB012006B0BDE8F087059877
:1051F00008B11EB106E0FFF7BFFB27E06846FFF7E6
:1052000099FC0126FFF7B8FBFFF71AFDFFF794FBA7
:1052100094F94400401C01D184F8449094F945006D
:10522000401C01D184F84590FFF7A6FB05A968460C
:1052300000F02CF8002820460AD0FFF767FA00F0AB
:10524000A7F92046FFF7F6F80028B3D00020CBE7F7
:10525000FFF7F0F890B104F124000599FFF778FC0E
:105260002046FFF753FA00F093F90028A2D1C8F8BE
:105270000070BFF34F8FBFF36F8F9BE72046FFF7A0
:1052800045FA00F085F995E704ED00E02DE9F041DD
:105290000C46050011D0C4B1FFF74EFB174BDA687E
:1052A0006E682068911B471C17D02F681B6A9F42AD
:1052B00019D0964217D8012410E0502080F31188AD
:1052C000BFF34F8FBFF36F8FFEE7502080F311883D
:1052D000BFF34F8FBFF36F8FFEE70024FFF74CFB48
:1052E0002046BDE8F081884205D9401A2060284652
:1052F000FFF720FCF1E700202060DCE7EC00002055
:105300002DE9FF5F8346DDE90E87994616468A46FA
:105310009000FFF731FA05001CD05C20FFF72CFA53
:10532000040014D00020256384F85900CDE9024020
:10533000CDE900874B46324651465846FEF7E0FF1E
:105340002046FEF771FE012004B0BDE8F09F28461C
:10535000FFF726FB4FF0FF30F6E7F0B585B0DDE94B
:105360000B640A9DA6B1DCB15C2700972663022678
:1053700084F85960002604AFCDE90246CDE9005714
:10538000FEF7BEFF2046FEF74FFE049805B0F0BDC5
:10539000502080F31188BFF34F8FBFF36F8FFEE76C
:1053A000502080F31188BFF34F8FBFF36F8FFEE75C
:1053B0000548416919B1006B18B100207047012000
:1053C0007047022070470000EC0000200148C068D0
:1053D00070470000EC0000202DE9F0412E4C002722
:1053E000206B28B1A069401CA0613846BDE8F0815F
:1053F000E668761CE66013D1606B006838B1502017
:1054000080F31188BFF34F8FBFF36F8FFEE7606BA0
:10541000A16B6163A063206A401C2062FFF7F6F86D
:10542000A06ADFF87880864209D3606B0068A0B17B
:10543000606BC068C5686868864211D2A062206847
:10544000C06A00EB800158F82100012800D901272B
:10545000E0690028C9D00127C7E74FF0FF30EDE72A
:10546000281DFFF70DFAA86A18B105F11800FFF71B
:1054700007FAE86A2169884200D9206100EB8001BF
:1054800008EB8100291DFFF74BFAE86A2168C96A19
:105490008842CAD30127C8E7EC000020B0080020EA
:1054A00070B504004FF0000133D01B4D28688442D2
:1054B00007D0502080F31188BFF34F8FBFF36F8F59
:1054C000FEE7206D38B1401E2065E36CE26A9A4227
:1054D0001FD040B11DE0502080F31188BFF34F8FE3
:1054E000BFF36F8FFEE7201DFFF7CAF9E06CE062A3
:1054F000C0F13800A061E06A2969884200D92861BA
:10550000064900EB800001EB8000211DFFF708FA3F
:105510000121084670BD0000EC000020B00800200A
:1055200070B5C068C46854B104F118000646FFF7AE
:10553000A7F9144D286B50B13146134815E050209F
:1055400080F31188BFF34F8FBFF36F8FFEE7201DED
:10555000FFF796F9E06A2969884200D928610B496A
:1055600000EB800001EB8000211DFFF7D9F9E06A14
:105570002968C96A884202D90120E86170BD00200B
:1055800070BD0000EC000020380D0020B0080020A5
:105590002DE9F0472C4D00242746286B38B1FFF742
:1055A000CBF9286B401E2863286B40B146E05020A1
:1055B00080F31188BFF34F8FBFF36F8FFEE7A968A9
:1055C000224E0120D1B3A6F5916980463068E0B142
:1055D000F068C46804F11800FFF752F9201DFFF7C6
:1055E0004FF9E06A2969884200D9286100EB8001FF
:1055F00009EB8100211DFFF793F9E06A2968C96A68
:105600008842E3D3C5F81C80E0E70CB1FEF7FEFF4B
:10561000AC694CB14FEA0806FFF7DEFE00B1EE615F
:10562000641EF9D10020A861E86938B10849012752
:1056300038070860BFF34F8FBFF36F8FFFF79CF9F8
:105640003846BDE8F0870000EC000020380D00204F
:1056500004ED00E010B586B0FEF74EFD114C206859
:10566000B8B100200390049005AA04A903A8FFF78D
:1056700025F9DDE9032102208DE8070000230AA1B6
:105680000B48059AFFF769FE606010B106B0012073
:1056900010BD502080F31188BFF34F8FBFF36F8F81
:1056A000FEE7000028010020546D7220537663004D
:1056B000E94600082DE9FF411E46134602000A9DF7
:1056C0004FF0000016D0144C2768002F0FD0CDE902
:1056D00000130292062917DAFFF76AFE02284FF03C
:1056E00000030FD0002269462068FFF723FC04B0B6
:1056F000BDE8F081502080F31188BFF34F8FBFF3D6
:105700006F8FFEE72A46EEE70023324669463846A9
:10571000FFF7C0FCEBE70000280100204FF04070CD
:10572000E1EE100A704700C1814001C0804101C014
:10573000804100C1814001C0804100C1814000C161
:10574000814001C0804101C0804100C1814000C151
:10575000814001C0804100C1814001C0804101C041
:10576000804100C1814001C0804100C1814000C131
:10577000814001C0804100C1814001C0804101C021
:10578000804100C1814000C1814001C0804101C011
:10579000804100C1814001C0804100C1814000C101
:1057A000814001C0804101C0804100C1814000C1F1
:1057B000814001C0804100C1814001C0804101C0E1
:1057C000804100C1814000C1814001C0804101C0D1
:1057D000804100C1814001C0804100C1814000C1C1
:1057E000814001C0804100C1814001C0804101C0B1
:1057F000804100C1814001C0804100C1814000C1A1
:10580000814001C0804101C0804100C1814000C190
:10581000814001C0804100C1814001C0804101C080
:10582000804100C1814000C0C101C30302C2C6065D
:1058300007C705C5C404CC0C0DCD0FCFCE0E0ACAC8
:10584000CB0BC90908C8D81819D91BDBDA1A1EDE18
:10585000DF1FDD1D1CDC14D4D515D71716D6D212C8
:1058600013D311D1D010F03031F133F3F23236F6D8
:10587000F737F53534F43CFCFD3DFF3F3EFEFA3A88
:105880003BFB39F9F83828E8E929EB2B2AEAEE2E18
:105890002FEF2DEDEC2CE42425E527E7E62622E288
:1058A000E323E12120E0A06061A163A3A26266A6D8
:1058B000A767A56564A46CACAD6DAF6F6EAEAA6A48
:1058C0006BAB69A9A86878B8B979BB7B7ABABE7E98
:1058D0007FBF7DBDBC7CB47475B577B7B67672B248
:1058E000B373B17170B050909151935352929656D8
:1058F0005797559594549C5C5D9D5F9F9E5E5A9A08
:105900009B5B99595898884849894B8B8A4A4E8E97
:105910008F4F8D4D4C8C4484854587474686824207
:105920004383418180400000000000000000002F00
:10593000000000000700070000147F147F140024FB
:105940002A7F2A1200626408132300364955225028
:1059500000000503000000001C224100000041225D
:105960001C000014083E08140008083E0808000047
:1059700000A060000008080808080000606000003F
:10598000002010080402003E5149453E0000427FBD
:105990004000004261514946002141454B31001809
:1059A00014127F10002745454539003C4A494930CB
:1059B0000001710905030036494949360006494985
:1059C000291E000036360000000056360000000890
:1059D000142241000014141414140000412214086D
:1059E00000020151090600324959513E007C121152
:1059F000127C007F49494936003E41414122007FE7
:105A00004141221C007F49494941007F09090901A0
:105A1000003E4149497A007F0808087F0000417F25
:105A20004100002040413F01007F08142241007FD7
:105A300040404040007F020C027F007F0408107F3E
:105A4000003E4141413E007F09090906003E4151A7
:105A5000215E007F09192946004649494931000164
:105A6000017F0101003F4040403F001F2040201FB8
:105A7000003F4038403F006314081463000708707B
:105A8000080700615149454300007F41410000552E
:105A90002A552A55000041417F00000402010204FA
:105AA00000404040404000000102040000205454E7
:105AB0005478007F48444438003844444420003837
:105AC0004444487F00385454541800087E090102A9
:105AD0000018A4A4A47C007F080404780000447D7E
