:020000040800F2
:10000000C06B002009030008C7270008B9200008BA
:10001000C52700085F060008D93500080000000069
:10002000000000000000000000000000490200087D
:100030007106000800000000A5020008A52E0008B7
:1000400023030008230300082303000823030008F8
:1000500023030008230300082303000823030008E8
:1000600023030008230300082303000823030008D8
:1000700023030008230300082303000823030008C8
:1000800023030008230300082303000823030008B8
:1000900023030008230300082303000823030008A8
:1000A0002303000823030008230300082303000898
:1000B0002303000823030008230300082303000888
:1000C0002303000823030008230300082303000878
:1000D0002303000835350008693500089D35000800
:1000E0002303000823030008230300082303000858
:1000F0002303000823030008230300082303000848
:100100002303000823030008230300082303000837
:100110001532000889320008652F00082303000803
:100120002303000823030008230300082303000817
:100130002303000823030008230300082303000807
:1001400023030008230300082303000823030008F7
:10015000230300082303000823030008A93500082F
:1001600023030008230300082303000823030008D7
:1001700023030008230300082303000800000000F5
:10018000230300082303000800F002F800F04CF8F5
:100190000AA090E8000C82448344AAF10107DA45E2
:1001A00001D100F041F8AFF2090EBAE80F0013F0E8
:1001B000010F18BFFB1A43F001031847E463000066
:1001C000046400000A4410F8014B14F00F0508BF46
:1001D00010F8015B240908BF10F8014B6D1E05D013
:1001E00010F8013B6D1E01F8013BF9D1641E03D0EC
:1001F000641E01F8015BFBD19142E4D3704700001B
:100200000023002400250026103A28BF78C1FBD81F
:10021000520728BF30C148BF0B6070471FB505F0BB
:10022000DBFB1FBD10B510BD00F0E4F91146FFF770
:10023000F5FF03F02FFD00F002FA03B4FFF7F2FF21
:1002400003BC00F005FA00002C4B19680868B0E800
:10025000F04F80F30988BFF36F8F4FF0000080F3F9
:10026000118870470000000008480068006880F3AB
:1002700008884FF0000080F3148862B661B6BFF3BF
:100280004F8FBFF36F8F00DF00BF00BF08ED00E0AE
:10029000DFF80C00016841F470010160704700BF95
:1002A00088ED00E0EFF30980BFF36F8F134B1A68FE
:1002B0001EF0100F08BF20ED108A20E9F04F1060EB
:1002C00009B44FF0500080F31188BFF34F8FBFF394
:1002D0006F8F04F0DFFC4FF0000080F3118809BC41
:1002E00019680868B0E8F04F1EF0100F08BFB0ECB6
:1002F000108A80F30988BFF36F8F7047DC000020FD
:10030000EFF305807047000009488047094800471F
:10031000FEE7FEE7FEE7FEE7FEE7FEE7FEE7FEE7B5
:10032000FEE7FEE704480549054A064B7047000012
:10033000552F000889010008C0650020C06B00200F
:10034000C0670020C067002053EA020C00F06980FB
:100350002DE9F04B4FF00006002B1FBFB3FA83F5D9
:1003600003FA05F424FA05F65E4012BF1643B2FA0A
:1003700082F502FA05F4C5F120051EBF22FA05FC3C
:1003800044EA0C04203556EA044C4FEA144418BFE2
:10039000641C4FF000084FF00009904271EB030C11
:1003A00039D3002919BFB1FA81F701FA07F6B0FA7B
:1003B00080F700FA07F6C7F120071EBF20FA07FCF6
:1003C00046EA0C062037B6FBF4FCA7EB0507103F06
:1003D00007F01F0BCBF120060CFA0BFB2CFA06F6EC
:1003E00044BFB3460026202FA4BF5E464FF0000B4B
:1003F0005BEA060C08BF4FF0010B19EB0B09ABFBD6
:10040000027C48EB0608C01B06FB02CC0BFB03CCAE
:1004100071EB0C01C1E70B46024641464846BDE878
:10042000F08B13B54FF000004FF00001AFF30080E8
:10043000BDE81C407047032A40F2308010F0030CE6
:1004400000F0158011F8013BBCF1020F624498BF27
:1004500011F801CB00F8013B38BF11F8013BA2F1C4
:10046000040298BF00F801CB38BF00F8013B11F03F
:10047000030300F02580083AC0F0088051F8043BDF
:10048000083A51F804CBA0E80810F5E7121D5CBF4C
:1004900051F8043B40F8043BAFF30080D20724BF7F
:1004A00011F8013B11F801CB48BF11F8012B24BF13
:1004B00000F8013B00F801CB48BF00F8012B704762
:1004C00010B5203AC0F00B80B1E81850203AA0E8EF
:1004D0001850B1E81850A0E81850BFF4F5AF5FEA23
:1004E000027C24BFB1E81850A0E8185044BF18C9D6
:1004F00018C0BDE810405FEA827C24BF51F8043B7D
:1005000040F8043B08BF7047D20728BF31F8023BD0
:1005100048BF11F8012B28BF20F8023B48BF00F864
:10052000012B704702F0FF0343EA032242EA024232
:1005300000F037B84FF0000200B5134694469646D7
:10054000203922BFA0E80C50A0E80C50B1F12001E6
:10055000BFF4F7AF090728BFA0E80C5048BF0CC094
:100560005DF804EB890028BF40F8042B08BF7047F2
:1005700048BF20F8022B11F0804F18BF00F8012B64
:10058000704770477047704710B500F02BF800684F
:1005900010BD10B5044600F025F8046010BD4FF002
:1005A00000020429C0F0128010F0030C3FF4C4AF25
:1005B000CCF1040CBCF1020F18BF00F8012BA8BF4E
:1005C00020F8022BA1EB0C01FFF7B6BF5FEAC17C5C
:1005D00024BF00F8012B00F8012B48BF00F8012BC5
:1005E0007047000000487047606500200048704771
:1005F000606500207546FFF7F9FFAE4605006946C5
:10060000534620F00700854618B020B5FFF78AFE54
:10061000BDE820404FF000064FF000074FF0000803
:100620004FF0000B21F00701AC46ACE8C009ACE884
:10063000C009ACE8C009ACE8C0098D46704710B5E8
:100640000446AFF300802046BDE81040FFF7F5BD3B
:1006500001491820ABBEFEE7260002007047FEE706
:10066000884203DB904201DC012070470020704784
:10067000704700002DE9F041104D804600242868A5
:100680000F46661E50B103F06DFB022806D101240F
:100690003146286803F0A4FB00280CD133463A46C3
:1006A0004146074801F02DFC002C04D02868BDE825
:1006B000F04103F0F2BBBDE8F0810000C40000206F
:1006C0006007002008B5002200926A468DF80000FD
:1006D000112937D2DFE801F0090B10123614361653
:1006E000181A1C1E3620242922001F2000E020207A
:1006F0008DF8010002211FE02120F9E72420F7E70F
:100700002720F5E73120F3E73320F1E73520EFE745
:100710003620EDE73720EBE73A20E9E73B20E7E733
:1007200042208DF801006C2003E043208DF8010089
:100730007A208DF8020003216B2050541046491C8A
:10074000FFF798FF08BD72B6FEE72DE9F0410446B9
:10075000876D00F065F9064694F8350000250228FB
:1007600006D08020606584F834500120BDE8F08117
:100770002068016821F0160101602068416921F0BC
:1007800080014161206C08B9A06C20B1206801682B
:1007900021F0080101602068016821F00101016079
:1007A0000CE000F03DF9801B052807D9202060658A
:1007B000032084F8350084F83450D7E720680068B7
:1007C000C007EED194F85C103F208840B86001204B
:1007D00084F8350084F834500020C7E790F83510CD
:1007E000022903D08021416501207047052180F84E
:1007F00035100068016821F0010101600020704798
:1008000070B5044600F00CF90546601C02D004489F
:100810000078044400F004F9401BA042FAD370BDF4
:10082000CC0000202DE9F84FDFF8BCA10022012503
:1008300003264FF00F090AF1040BAAF1040E00BFC2
:100840000B6805FA02F42340A34270D10F7907F038
:100850000307012F01D0022F16D187684FEA420803
:1008600006FA08FC27EA0C07D1F80CC00CFA08FCC1
:100870004CEA070CC0F808C04768A7430C79C4F3DA
:10088000001494403C4344600C79E443A4070AD02C
:10089000C4684FEA420C06FA0CF7BC438F6807FAAB
:1008A0000CF72743C7600C7904F00304022C12D123
:1008B000D40800EB840CDCF820405707FF0E09FA3F
:1008C00007F824EA0804D1F8108008FA07F848EA83
:1008D0000408CCF8208004684FEA420C06FA0CF7B2
:1008E000BC430F7907F0030707FA0CF727430760AB
:1008F0004C6814F4403F70D03C4C276847F4804764
:100900002760246822F0030704F480440094384CE4
:1009100007EB040CDCF8084897074FEA177809FA48
:1009200008F7BC43334FB84202D1002724E054E01B
:10093000314FB84201D101271EE0304FB84201D1FA
:10094000022719E02E4FB84201D1032714E02D4FA2
:10095000B84201D104270FE02B4FB84201D105273F
:100960000AE02A4FB84201D1062705E0284FB842D5
:1009700001D1072700E0082707FA08F72743CCF83A
:100980000878DAF800405746D1F804C09C435FEA83
:10099000CC2C00D51C433C60DBF800405F46D1F80E
:1009A00004C09C435FEA8C2C00D51C433C60DEF8FD
:1009B00000407746D1F804C09C435FEA8C3C00D5E8
:1009C0001C433C60084F083F3C68D1F804C09C437E
:1009D0005FEACC3C00D51C433C60521C102AFFF45B
:1009E0002FAFBDE8F88F0000083C014044380240BA
:1009F00000300140000002400004024000080240B4
:100A0000000C024000100240001402400018024096
:100A1000001C02400AB1816170470904FBE7000035
:100A20000148806870470000CC00002070B50400C9
:100A300025D094F83D00002520B984F83C5020468C
:100A400000F050F9242084F83D002068016821F06E
:100A5000010101602068016841F4004101602068E3
:100A6000016821F40041016000F0F6FA4D4A616826
:100A7000914201D84C4900E04C49884201D2012002
:100A800070BD4B492368B0FBF1F15E6826F03F066C
:100A90000E435E606368934206D94FF496735943E0
:100AA0004FF47A73B1FBF3F12368491C1E6A26F0F8
:100AB0003F06314319626168914210D84900401ED7
:100AC000B0FBF1F2521CC2F30B02042A01D2042043
:100AD00022E0B0FBF1F0401CC0F30B001CE0A26868
:100AE000F2B301EBC10303EB0116431EB3FBF6F3B4
:100AF0005B1C43F480431B0549D092B301EBC10258
:100B000002EB0111401EB0FBF1F0401CC0F30B00E2
:100B100040F4804040F400402168CA694CF6FF73FD
:100B20009A431043C861D4E9071001432068026862
:100B300022F0C00211430160D4E90301014320689F
:100B4000826848F2FF339A4311438160D4E905017A
:100B500008432168CA6822F0FF021043C86001E020
:100B60000EE016E02068016841F001010160256493
:100B7000202084F83D00256384F83E50002070BD9D
:100B800001EB4106431EB3FBF6F35B1CB3E7012008
:100B9000C2E701EB4101401EB0FBF1F0401CC0F385
:100BA0000B00B7E7A086010080841E0000093D000D
:100BB00040420F002DE9FF4F83B09A46DDE91197BF
:100BC00093460446DDF84080FFF72AFF054694F877
:100BD0003D0020287FD1192301224049204600955D
:100BE00001F002FB002876D194F83C00012872D075
:100BF000012084F83C0020680168C90703D101681E
:100C000041F0010101602068016821F40061016088
:100C1000212084F83D00402084F83E000026266410
:100C2000C4F82480A4F82A90608D20852C48E062C6
:100C3000CDE9007553465A462046049901F054FA0E
:100C400070B930E02A463946204601F073FB58B1AE
:100C5000206C042804D12068016841F4007101600F
:100C6000012007B0BDE8F08F606A21680078086154
:100C7000606A401C6062218D491E89B22185628DA7
:100C8000521E628522685369DB435B070BD469B14E
:100C900000781061606A401C6062208D401E2085D3
:100CA000608D401E6085208D0028CBD12A463946B4
:100CB000204601F06DFA0028CAD154F83D0B0168B6
:100CC00041F400710160202004F81E09E677667780
:100CD0000020C6E7FFE70220C3E700000200100083
:100CE0000000FFFF10B586B0044614216846FFF7E8
:100CF00021FC14492068884221D113480021026850
:100D000042F002020260006800F0020005904FF419
:100D1000406000901220CDE90101032003900420DF
:100D2000049069460948FFF77DFD074810300168C7
:100D300041F480010160006800F48000059006B075
:100D400010BD00000058004030380240000402404E
:100D5000024881680278114481607047CC0000200D
:100D60000B4810B5016841F400710160016841F45D
:100D700080610160016841F480710160032000F02E
:100D80009FF80F2000F006F800F050F8002010BD8A
:100D9000003C024030B505461F4887B0002401687A
:100DA00041F010010160006806A900F010000090F9
:100DB00001A800F031F90498A8B100F04DF9400005
:100DC0001649174AB0FBF1F11648491E026040F27D
:100DD000E732C0E90324C0E90114846100F0B6FBE6
:100DE000040003D015E000F037F9E9E70D4800F002
:100DF000EFFB04000DD1362000F034F8102D07D29F
:100E000000222946362000F03BF80748056000E044
:100E1000012407B0204630BD4038024040420F0058
:100E20000010004044080020D00000200C4882B090
:100E3000016841F480410160006800F48040009046
:100E40000748001F016841F08051016000680022DE
:100E500000F0805000900F21901E02B000F010B8FA
:100E600044380240002809DB00F01F0201219140B4
:100E70004009800000F1E020C0F800117047000038
:100E8000F0B40E4B1B680C46C3F30223C3F10705F5
:100E9000042D00D90425191D072901D2002300E0E3
:100EA000DB1E012606FA05F1491E214099409E40AD
:100EB000761E16403143F0BC02F0AEBC0CED00E0F3
:100EC000064900F0070208684FF6FF03184040EAA1
:100ED0000220034A10430860704700000CED00E058
:100EE0000000FA052DE9F0470E46050065D0DFF851
:100EF0001481D8F80000F7B200F00700B04207D222
:100F000088F80070D8F8000000F00700B04254D113
:100F100028683D4C810712D5400703D5206840F46E
:100F2000E05020602878000703D5206840F4604036
:100F300020602068A96820F0F0000843206028782D
:100F4000C0072DD0304968680839012812D002281E
:100F500013D0032811D00968890700292DDA2168E8
:100F600021F0030101432160FFF75AFD814641F260
:100F7000883A0EE009688903EFE709688901ECE720
:100F8000FFF74EFDA0EB0901514502D90320BDE852
:100F9000F0872068696800F00C00B0EB810FEFD19A
:100FA000D8F80010404601F00701B14207D9077098
:100FB000006800F00700B04201D00120E7E7287880
:100FC000400705D52068E96820F4E0500843206018
:100FD0002878000706D52068296920F4604040EA97
:100FE000C100206000F058F82168084AC1F30311DD
:100FF000515CC8400649086006480068FFF7CAFE11
:101000000020C4E7003C02400838024008650008A0
:10101000D8000020D00000200F2202600C4A136884
:1010200003F003034360136803F0F0038360136865
:1010300003F4E053C36012684FF4E05303EAD202B2
:1010400002610448006800F0070008607047000073
:1010500008380240003C024004480549006809681D
:10106000044AC1F38221515CC8407047D800002077
:1010700008380240186500080448054900680968F6
:10108000044AC1F34231515CC8407047D800002087
:101090000838024018650008154810B5006810F0BF
:1010A0000C02144813D04110042A0FD0082A0ED184
:1010B0000F4C241F2268236802F03F025B0207D511
:1010C0002068C0F38810A0FB010106E0084610BDAF
:1010D0002168C1F38811A1FB00010023FFF734F957
:1010E0002168C1F30141491C4900B0FBF1F010BD7A
:1010F000083802400024F4002DE9F84F04006ED0B7
:101100002078DFF84C93C007A9F104054AD009F113
:1011100004000168C1F38101012908D00068C0F30F
:10112000810002280AD1D9F80000400206D52868BB
:10113000800337D560680028E1D033E06068B0F5FF
:10114000803F10D0B0F5A02F286810D020F4803058
:101150002860286820F4802028606068A8B1FFF724
:101160005FFC06460DE0286840F48030F4E740F468
:1011700080202860F7E700BFFFF752FC801B64283F
:1011800073D828688003F7D50CE0FFF749FC0646C2
:1011900005E000BFFFF744FC801B6428F0D82868F6
:1011A0008003F7D42078DFF8AC8280074FF0000A84
:1011B0003ED5A748001D016811F00C0F08D000684B
:1011C000C0F3810002280BD1D9F80000400207D4F7
:1011D0002868800716D5E068012800D112E033E1C5
:1011E000E068B8B10120C8F80000FFF719FC064616
:1011F00005E000BFFFF714FC801B0228C0D8286858
:101200008007F7D52868216920F0F80040EAC1007E
:1012100028600DE0C8F800A0FFF702FC064604E0D5
:10122000FFF7FEFB801B02281FD828688007F7D431
:101230002078000722D5864F87486169703771B1E1
:1012400001210160FFF7ECFB064604E0FFF7E8FB35
:10125000801B022809D838688007F7D50EE0C0F84F
:1012600000A0FFF7DDFB064605E082E0FFF7D8FBB4
:10127000801B02287DD838688007F7D42078400783
:1012800068D5DFF8CCB100270BF13C0BDBF8000090
:10129000C0000BD4DBF8001041F08051CBF80010F7
:1012A000DBF80000012700F0805000906B4E3068A2
:1012B000C00510D4306840F480703060FFF7B0FB98
:1012C000009005E0FFF7ACFB0099401A022850D8C7
:1012D0003068C005F6D55E4EA0686C3601280FD088
:1012E0000528306810D020F001003060306820F010
:1012F00004003060A068B8B1FFF792FB00900FE0E7
:10130000306840F00100F4E740F004003060F7E797
:10131000FFF786FB0099411A41F28830814266D876
:1013200030688007F4D50EE0FFF77AFB009007E005
:10133000FFF776FB0099411A41F28830814256D876
:1013400030688007F4D42FB1DBF8001021F0805111
:10135000CBF80010A069C8B33D49091D0968C1F365
:10136000810102294AD00228504607D0C8F86000FF
:1013700000E03CE0FFF754FB04463BE04746C8F87A
:101380006000FFF74DFB064605E000BFFFF748FB96
:10139000801B02282BD828688001F7D4D4E90701E4
:1013A0000843A16A2E4A490802EB0141626A41EAF8
:1013B0008211084394F82C1040EA0161C9F800102A
:1013C00001203866FFF72CFB044606E03EE000BF34
:1013D000FFF726FB001B022809D828688001F7D5F3
:1013E00034E000BFFFF71CFB001B022802D90320DA
:1013F000BDE8F88F28688001F4D427E00128F7D0F1
:10140000D9F80000E26900F4800191421CD1226AFF
:1014100000F03F01914217D147F6C071626A014066
:10142000B1EB821F10D1A26A4FF0FF3300F44031BC
:1014300003EB5202B1EB024F06D194F82C1000F0EE
:101440007060B0EB016F01D00120D1E70020CFE741
:101450000438024000004742800E474200700040BE
:101460000000FFFF7047704710B590F83C20012A3C
:1014700022D0012280F83C20CA688C6822F4407295
:1014800022434C6822F4806222430C6822F40062FA
:1014900022430C6922F4805222434C6922F4005208
:1014A0002243C969002322F480420A4301684A6446
:1014B00080F83C30002010BD022010BD70B590F8BF
:1014C0003C20012A32D0012480F83C40022280F8DE
:1014D0003D2003685A689D6822F070060A6832430E
:1014E0005A60134B02689A4214D0B2F1804F11D067
:1014F000104B9A420ED0104B9A420BD00F4B9A428F
:1015000008D00F4B9A4205D00E4B9A4202D00E4B98
:101510009A4204D1496825F080031943916080F80C
:101520003D40002180F83C10084670BD022070BD8F
:10153000000001400004004000080040000C004092
:1015400000040140004001400018004010B50400B4
:1015500003D094F83D0010B107E0012010BD002039
:1015600084F83C00204600F01FF8022084F83D007B
:10157000211D206801F0FCFC012084F8460084F85D
:101580003E0084F83F0084F8400084F8410084F86D
:10159000420084F8430084F8440084F8450084F84D
:1015A0003D00002010BD000008B5006806498842D3
:1015B00008D10648016841F020010160006800F090
:1015C0002000009008BD0000001400404038024098
:1015D00090F83D10012901D001207047022180F8C8
:1015E0003D100168CA6842F00102CA6000681149F2
:1015F000884214D0B0F1804F11D00F4988420ED0EC
:101600000E4988420BD00E49884208D00D498842C5
:1016100005D00D49884202D00C49884204D1816826
:1016200001F00701062903D0016841F001010160C2
:101630000020704700000140000400400008004006
:10164000000C004000040140004001400018004030
:1016500070472DE9F04104460068C66805694FF0FF
:101660000007A90713D5B10711D5F91E01610120A3
:101670002077206880698007204602D0FFF7E8FFC6
:1016800004E000F0E7F8204600F094F927776807B7
:1016900016D5700714D521686FF004000861022088
:1016A00020772068806910F4407F204602D0FFF741
:1016B000CFFF04E000F0CEF8204600F07BF927775A
:1016C000280715D5300713D521686FF00800086189
:1016D000042020772068C0698007204602D0FFF7E9
:1016E000B7FF04E000F0B6F8204600F063F9277772
:1016F000E80616D5F00614D521686FF010000861D1
:10170000082020772068C06910F4407F204602D06E
:10171000FFF79EFF04E000F09DF8204600F04AF934
:101720002777E80708D0F00706D021686FF001009E
:101730000861204600F040F9280608D5300606D595
:1017400021686FF0800008612046FFF78BFE680675
:1017500008D5700606D521686FF040000861204664
:1017600000F034F9A8060AD5B00608D521686FF054
:10177000200008612046BDE8F041FFF774BEBDE8D7
:10178000F0810000F0B587B0044614216846FEF7EA
:10179000D1FE2A4A2068002429490225294E904278
:1017A0000FD1086840F00200086008680095CDE994
:1017B000015400F00200CDE904506946039430461C
:1017C00037E0214A904236D1086840F001000860B5
:1017D000086800F001000590086840F00200086009
:1017E000086800F002000590086840F004000860F6
:1017F0000868032700F00400059020200090CDE940
:101800000154CDE9034769461048FFF70BF8012062
:101810000090CDE90154CDE9034769463046FFF712
:1018200001F838020090CDE90154CDE9034769463B
:101830000748FEF7F7FF07B0F0BD000000040040C6
:101840003038024000040240000401400000024021
:1018500000080240704770B5044690F83C0000262E
:101860000D4601280FD0012084F83C006AB1042AFB
:101870001DD0082A2FD00C2A3FD00126002084F842
:101880003C00304670BD022070BD206801F0D8FBDE
:101890002068816941F0080181612068816921F037
:1018A00004018161206881692A69114311E020687F
:1018B00001F0F6FB2068816941F4006181612068D4
:1018C000816921F480618161206881692A6941EA26
:1018D00002218161D2E7206801F018FC2068C1690B
:1018E00041F00801C1612068C16921F00401C161B2
:1018F0002068C1692A69114311E0206801F03AFCAF
:101900002068C16941F40061C1612068C16921F4A6
:101910008061C1612068C1692A6941EA0221C1610F
:10192000ACE710B5040003D094F83D0010B107E017
:10193000012010BD002084F83C00204600F01EF875
:10194000022084F83D00211D206801F011FB0120D8
:1019500084F8460084F83E0084F83F0084F8400094
:1019600084F8410084F8420084F8430084F844007D
:1019700084F8450084F83D00002010BD08B50068DB
:101980000949884201D1094804E00949884209D13E
:101990000648001D016841F002010160006800F086
:1019A0000200009008BD00000004004040380240E2
:1019B000000401407047000000680349884201D1DB
:1019C000FFF7C6B97047000000100040704770472D
:1019D00070470000F8B5016804460868CA684B699A
:1019E00010F00F0F4FF0000559D003F0010602F47C
:1019F0009077374365D0C10705D0D10503D5616C19
:101A000041F001016164410705D5D90703D0616C3C
:101A100041F002016164810705D5D90703D0616CEB
:101A200041F004016164010707D502F02001314350
:101A300003D0616C41F008016164616C00293AD007
:101A4000800604D5900602D5204601F051FC20689E
:101A50004069616CC0F38010090700D460B3204670
:101A600001F01FFC20684069400621D52068143031
:101A700050E8001F21F0400140E80012002AF5D193
:101A8000E06BA8B172490165E06BFEF7A7FE002884
:101A900011D0E06B016D01B0BDE8F040084783064E
:101AA0000FD593060DD52046BDE8F84001F020BCC7
:101AB0002046FFF78DFFF8BD2046FFF789FF6564DC
:101AC000F8BD266B2023012E7ED1C6067CD5D60616
:101AD0007AD508684868009048694FF002064006C9
:101AE0004DD5E26B106840684FF480770004000C1D
:101AF0003AD0A18D814237D9E085D069B8422DD046
:101B000020680C3050E8001F21F4807140E800127A
:101B1000002AF5D12068143050E8001F21F001019F
:101B200040E80012002AF5D12068143050E8001F68
:101B300021F0400140E80012002AF5D184F842303B
:101B4000256320680C3050E8001F21F0100140E8A8
:101B50000012002AF5D1E06BFEF7F7FD6663A08D59
:101B6000E18D401A81B206E0A18D8142A8D1D069F1
:101B7000B842A5D166632046FFF729FFF8BDA08DC6
:101B8000E18D401A81B2E08D0028F7D00029F5D010
:101B900020680C3050E8002F22F4907240E80027B3
:101BA000002FF5D12068143050E8002F22F00102F8
:101BB00040E80027002FF5D184F8423025632068E3
:101BC0000C3050E8002F00E006E022F0100240E860
:101BD0000023002BF3D1CDE705062BD5150629D51B
:101BE00094F841002128C9D1A068B0F5805F01D1E7
:101BF0002069B0B1206A411C2162216800784860E8
:101C0000E08C401E0004000CE084B7D12068C1685D
:101C100021F08001C1602068C16841F04001C160CD
:101C2000F8BD206A0088C0F308004860206A801C64
:101C30002062E5E74006F3D55006F1D5CA68204694
:101C400022F04002CA6084F8413000F0AAF9F8BDE1
:101C50009532000870B5040004D094F841000025C6
:101C600010B106E0012070BD84F84050204600F01D
:101C700023F8242084F841002068C16821F4005131
:101C8000C160204601F096FB2068016921F4904173
:101C900001612068416921F02A0141612068C16821
:101CA00041F40051C1606564202084F8410084F84B
:101CB00042006563002070BD2DE9F04F87B00446F7
:101CC00014216846FEF736FC8349824823680024C5
:101CD000814A1039032502260827DFF800B2834223
:101CE0001FD1106840F400201060106800F400203C
:101CF0000590086840F0010008600868CDE90056CA
:101D000000F00100CDE9047069465846CDE902456E
:101D1000FEF788FD002206213420FFF7B1F83420B9
:101D200035E0DFF8BCC16F48634535D1136843F433
:101D300080131360126802F4801205920A6842F060
:101D400004020A600A6802F0040205920A6842F07E
:101D500008020A60096802AB01F0080105918114CC
:101D6000CDE9001683E8B0006946FEF75BFD04206C
:101D7000CDE9000602AB694683E8B0005A48FEF799
:101D800051FD002206213520FFF77AF83520FFF7B4
:101D900069F807B0BDE8F08FDFF85081DFF83891BF
:101DA0004FF0C00A09F104094FF0070C434522D156
:101DB000D9F8002042F01002C9F80020D9F800003C
:101DC00000F010000590086840F002000860086804
:101DD000694600F00200CDE904C0CDE900A6444800
:101DE000CDE90245FEF71EFD002206212520FFF762
:101DF00047F82520CBE7DFF8FC80434520D1106869
:101E000040F400301060106800F40030059008685D
:101E100040F001000860086802AB00F00100059086
:101E20000C20CDE9000683E8301069465846FEF7DD
:101E3000F9FC002206212620FFF722F82620A6E73B
:101E4000DFF8B480434520D1136843F48023136046
:101E5000126802F4802205920A6842F004020A60C5
:101E6000096802AB01F0040105914FF44061CDE92E
:101E7000001683E830106946FEF7D4FC00220621E4
:101E80002720FEF7FDFF272081E71C4A934280D1DF
:101E9000D9F8003043F02003C9F80030D9F8002009
:101EA00002F0200205920A6842F004020A60096802
:101EB000CDE9024501F00401CDE90471CDE900A6A8
:101EC0006946FEF7AFFC002205214720FEF7D8FF48
:101ED00047205CE7004C00404038024000000240D0
:101EE0000050004000080240000C02400010014079
:101EF000000402400044004000480040001401403B
:101F000070472DE9F843044690F84100984616467C
:101F10000D46202802D00220BDE8F88385B17EB1AD
:101F200000206064212084F84100FEF779FDA6843A
:101F30008146E684A0682027B0F5805F02D003E0E8
:101F40000120E9E7206910B12E4600250EE00026A9
:101F50000CE08021204601F0B3FAA8B9C6B116F80A
:101F6000010B21684860E08C401EE084E08C4B4609
:101F70004FF00002CDF800800028EAD14FF0400178
:101F8000204601F09DFA40B184F841700320C3E778
:101F900035F8020BC0F30800E3E784F84170002035
:101FA000BAE77047FEF72CBC014890ED030A704772
:101FB0002800002008B5144801F032FB002822D187
:101FC000124801F00BFB00281DD1114801F01EFB47
:101FD000002818D1502101F00BFB002813D10E204E
:101FE00001F028FB00280ED1062001F04DFB00284F
:101FF00009D108480068016841680091C16841F052
:102000002001C160002008BDA9200008A51F00080C
:10201000A5200008880600200A2310B500221146DA
:10202000445C491C224489B2D2B29942F8D3817AE5
:10203000914230D1017855292DD1417853292AD1A7
:10204000B0F90210DFED140A00EE101A1449B8EED0
:10205000C00A20EE201A9FED110A21EE001A81ED30
:10206000011AB0F9042001EE102AB8EEC11A21EECF
:10207000201A21EE001A81ED021AB0F9060001EED5
:10208000100A0120B8EEC11A61EE200A20EE800A83
:1020900081ED030A087010BD0000003800003443D1
:1020A00028000020704700008AB2014664230148DE
:1020B000FFF727BF88060020FEE701684A69D24380
:1020C00052050FD46FF480624A61002140F8301F3E
:1020D000202242738173026942F00402026101739B
:1020E00001207047002070472DE9F843044600683E
:1020F0000D46DDE9089701689846164641F480715F
:1021000001604B4600224FF001112046009700F07D
:102110006BF848B120680068C00502D54FF4007024
:1021200020640320BDE8F883216805F0FE00086103
:102130003B464A461549204600F09EF888B920687B
:102140004169806900903A464946204600F0F2F81D
:1021500048B1206C042804D12068016841F4007162
:1021600001600120DEE7F5B2B8F1010F09D0216866
:10217000300A08613A464946204600F0DBF800285C
:10218000E7D1206805610020CCE7000002000100D3
:1021900070B516460D4604461EE02046FFF78DFF3B
:1021A00008B1012070BD681C16D0FEF739FC801BF9
:1021B000A84200D885B920684069C04340070BD5C4
:1021C000002044F8300F20216173A073216941F091
:1021D000200121612073E4E720684069C043400783
:1021E000DBD4002070BD00002DE9F047984617466B
:1021F0000D460446C1F30746DDF820902AE000BFF3
:10220000B8F1FF3F26D0FEF70BFCA0EB09014145DA
:1022100002D8B8F1000F1DD12068012E16D08069B8
:1022200025EA00000004000C12D00020B84211D1B1
:10223000002044F8300F20216173A073216941F020
:102240002001216120730120BDE8F0874069E7E7A4
:102250000120EBE72068012E0AD0806925EA000002
:102260000004000C06D00020B842C9D00020EBE7E3
:102270004069F3E70120F7E72DE9F0479846164655
:102280000D4604464FF000094FF0200AC1F30747FE
:1022900023E020684069C043400515D420680168E8
:1022A00041F40071016021686FF480604861C4F8F6
:1022B000309084F83DA084F83E90216C41F00401F8
:1022C000216484F83C9021E0701C06D0FEF7A8FB46
:1022D000A0EB0800B04203D816B1012F1FD021E0B7
:1022E0002068012F15D0806925EA00000004000C49
:1022F00018D000BF44F8309F84F80DA084F80E90E9
:10230000216941F02001216184F80C900120BDE891
:10231000F087406925EA00000004000CEAD120683B
:10232000406901E02068806925EA00000004000C93
:10233000AFD1ECE770B516460D4604461EE02046C8
:10234000FFF7BBFE08B1012070BD681C16D0FEF778
:1023500067FB801BA84200D885B920684069C0434C
:1023600000060BD5002044F8300F20216173A073C4
:10237000216941F0200121612073E4E72068406970
:10238000C0430006DBD4002070BD000010B51B4820
:1023900001F04FFD1A4C194A0021E061FC3A19483E
:1023A00001F09CFD154A2060D83A0021164801F042
:1023B00095FD124A6060B43A0021144801F08EFD88
:1023C0000E4AA060903A0021114801F087FD0B4AA7
:1023D000E0606C3A00210F4801F080FD074A20615F
:1023E000483A00210C4801F079FD044A6061243A22
:1023F00000210A4801F072FDA06110BDF8640008D8
:10240000A8000020592E0008612E0008792E00082F
:10241000852E00088D2E0008952E00089D2E0008A0
:1024200030B587B014216846FEF784F81E480024B2
:10243000016841F080010160016801F080010591AF
:10244000016841F001010160016801F0010105919D
:10245000016841F002010160016801F0020105918B
:10246000016841F004010160016801F00401059177
:10247000016841F00801016000680C4D00F008009F
:102480000590012230212846FEF7C4FA3020009042
:102490001120CDE901040120039069462846FEF78A
:1024A000C1F907B030BD00003038024000040240DE
:1024B0000D4810B50B4901600C49416000214FF4F3
:1024C00080428160C0E9031241618161C1610162A2
:1024D000FEF7ACFA002803D0BDE81040FEF733B990
:1024E00010BD0000005800405C050020A0860100DF
:1024F00010B58AB0002407941C2168460894FEF7A2
:1025000019F8164814490160A721C0E9011444F6DE
:102510001F61C0E903148461FFF703FA08B1FEF7F5
:1025200012F9079407A90D480894FEF7C7FF08B1F0
:10253000FEF709F96020CDE9000402940C226946F7
:1025400006480494FFF787F908B1FEF7FCF8034842
:10255000FFF718F90AB010BD00040040B0050020D4
:102560001CB500240E4800940C49019401605321CD
:10257000C0E9011442F20F718461C160FEF7E6FF09
:1025800008B1FEF7E0F80094694605480194FEF7AB
:1025900095FF002801D0FEF7D6F81CBD00140040BE
:1025A000F805002010B592B000240F941C21684655
:1025B0001094FDF7BFFF202107A8FDF7BBFF2C48B3
:1025C0002A490160A721C0E901144FF6FF71C0E953
:1025D000031444618461FFF7A4F908B1FEF7B3F86E
:1025E0000F940FA922481094FEF768FF08B1FEF778
:1025F000AAF86020CDE900040294039404940594A1
:10260000002269461A480694FFF725F908B1FEF73B
:102610009AF8042269461648FFF71DF908B1FEF73B
:1026200092F8082269461248FFF715F908B1FEF73B
:102630008AF80C2269460E48FFF70DF908B1FEF73B
:1026400082F80794089409944FF400500A94CDE955
:102650000B4007A906480E94FEF706FF08B1FEF7E7
:1026600072F80348FFF78EF812B010BD0004014065
:10267000400600200C4810B50A4901604FF4E131D2
:102680004160002181600C22C160C0E904128161B7
:10269000C161FFF7DFFA002803D0BDE81040FEF764
:1026A00052B810BD004C0040880600200C4810B500
:1026B0000A4901604FF4E1314160002181600C2240
:1026C000C160C0E904128161C161FFF7C3FA00284B
:1026D00003D0BDE81040FEF736B810BD00500040F2
:1026E000D00600200C4810B50A4901604FF4E131D2
:1026F0004160002181600C22C160C0E90412816147
:10270000C161FFF7A7FA002803D0BDE81040FEF72B
:102710001AB810BD00100140180700200C4810B571
:102720000A4901604FF461214160002181600C225F
:10273000C160C0E904128161C161FFF78BFA002812
:1027400003D0BDE81040FDF7FEBF10BD00440040BF
:10275000600700200C4810B50A4901604FF416517B
:102760004160002181600C22C160C0E904128161D6
:10277000C161FFF76FFA002803D0BDE81040FDF7F4
:10278000E2BF10BD00480040A80700200C4810B56B
:102790000A4901604FF4E1314160002181600C225F
:1027A000C160C0E904128161C161FFF753FA0028DA
:1027B00003D0BDE81040FDF7C6BF10BD00140140B6
:1027C000F0070020FEE7FEE7054880ED090A9FEDCF
:1027D000050AC0ED0A0A80ED0B0A80ED0C1A70475D
:1027E000380000200000000010B51F4C9FED1F1A9C
:1027F0001F492DED028BB0EE408A94ED0C0A70EE6D
:10280000C00A01E070EEC10A10EE900A8842F9DCBD
:10281000184900BF10EE900A884202D970EE810A72
:10282000F8E7C4ED0B0A94ED0B0ADFED130A20EE76
:10283000200ADFED120AC0EE208AB0EE680A01F02D
:10284000A3F8D4ED090A48EE000AB0EE680AC4ED18
:10285000090A00F0F1FFD4ED0A0A48EE000AC4EDBF
:102860000A0ABDEC028B10BD380000200000B44302
:1028700000003443000034C3DA0F49400000344301
:1028800030B40021084B0A465FF0000003EBC0049F
:10289000401CC0B262548028F8D3491CC9B2082930
:1028A000F2D330BC00F0B4B85C01002070B5002455
:1028B0000646802525FA04F0304000D0012000F0C3
:1028C00051F9012000F044F9002000F041F9641CA6
:1028D000E4B2082CEED3012000F03AF9BDE87040D4
:1028E000002000F035B910B5012000F03BF90120BF
:1028F00000F02EF9002000F035F9BDE8104000206E
:1029000000F026B910B5002000F02CF9012000F0ED
:102910001FF9BDE81040012000F024B910B50120D6
:1029200000F016F9012000F01DF90120FDF768FF05
:102930000021AE2000F007F90021084600F003F95D
:102940000021102000F0FFF80021402000F0FBF8EB
:102950000021B02000F0F7F80021812000F0F3F80A
:102960000021FF2000F0EFF80021A12000F0EBF89B
:102970000021A62000F0E7F80021A82000F0E3F8ED
:1029800000213F2000F0DFF80021C82000F0DBF834
:102990000021D32000F0D7F80021084600F0D3F83A
:1029A0000021D52000F0CFF80021802000F0CBF8E6
:1029B0000021D82000F0C7F80021052000F0C3F85E
:1029C0000021D92000F0BFF80021F12000F0BBF871
:1029D0000021DA2000F0B7F80021122000F0B3F84F
:1029E0000021DB2000F0AFF80021302000F0ABF830
:1029F00000218D2000F0A7F80021142000F0A3F89A
:102A00000021AF2000F09FF8BDE81040FFF738BF6D
:102A100070B5114E002400BF04F1B000C0B2002117
:102A200000F091F80021084600F08DF800211020F8
:102A300000F089F85FF0000506EBC5000121005D9C
:102A400000F081F86D1CEDB2802DF5D3641CE4B26A
:102A5000082CE1D370BD00005C01002010B50446D5
:102A6000B031C8B2002100F06EF8102040EA141016
:102A7000002100F068F804F00F00BDE810400021CC
:102A800000F061B82DE9F041203A0D468046D6B2FB
:102A90007F2803D900208D1C8046EDB2102B2946DB
:102AA00011D0FFF7DBFF184906EB4600002401EBCD
:102AB00040050121285D00F046F8641CE4B2062CB4
:102AC000F7D3BDE8F081FFF7C9FF104F002400BF26
:102AD00004EB06100121385C00F035F8641CE4B208
:102AE000082CF5D36D1CE9B24046FFF7B7FF002470
:102AF00004EB061038440121007A00F024F8641C2D
:102B0000E4B2082CF4D3DCE7E25B00080A5E0008BC
:102B10002DE9F041984617460E46044600250DE083
:102B2000434631462046FFF7ADFF0834E4B2782C27
:102B300002D90024B61CF6B26D1CEDB27A5D002AF3
:102B4000EED1BDE8F08109B100F027B800F014B86B
:102B500008B1012200E0002220210148FDF75ABF00
:102B60000004024008B1012200E0002210210148C7
:102B7000FDF750BF0004024010B50446FFF7B3FE56
:102B80007820FFF793FE0020FFF790FE2046FFF726
:102B90008DFEBDE81040FFF7B5BE10B50446FFF747
:102BA000A2FE7820FFF782FE4020FFF77FFE20463E
:102BB000FFF77CFEBDE81040FFF7A4BE0D4808B546
:102BC0009FED0B0A002180ED010A80ED020A80EDE5
:102BD000030A80ED040A417001700748006801682B
:102BE00041680091C16841F02001C16008BD00004A
:102BF00000000000740000206007002070B5194C30
:102C000004F1140122781AB10025012A06D007E048
:102C1000032802D108700120207070BD36281FD112
:102C20008854521CD0B220700828F6D3CA796B2A77
:102C300016D1082814D1D1F803008A7800BA89790E
:102C400020F0FF00084300EE100ADFED070AB8EE9F
:102C5000400A20EE200A0AB1B1EE400A00F00AF85C
:102C6000257070BD740000200000B43B0A210320D1
:102C7000FDF728BD10B51E482DED028B80ED030A2F
:102C8000417879B1D0ED040A80ED040A194A70EE5A
:102C9000600A9FED190A10EE901A914209DD70EE5C
:102CA000C00A0DE080ED040A01214170BDEC028BE9
:102CB00010BD10EE901A114A914201D970EE800AAF
:102CC0009FED0F0A20EE808A80ED028A90ED010AC6
:102CD00030EE080A80ED010AFFF766F9F0EE400ACF
:102CE000B0EE480ABDEC028BBDE81040FFF77CBD9A
:102CF00074000020000034430000B443000034C3DB
:102D0000C00F733CB1EE601AB4EEC10AF1EE10FAD6
:102D100001D2B0EE410AB4EEE00AF1EE10FA01DDA4
:102D2000B0EE600A9FED091A20EE010A80EE201A2B
:102D30009FED070AF6EE000A31EE000A30EE200A97
:102D4000BCEEC00A10EE100A80B2704700007A4450
:102D50000080BB4438B510208DF800000122694680
:102D6000002000F067F84FF0FF3480B979208DF82B
:102D7000000001226946FE2000F05CF838B900200E
:102D80008DF800000122694600F054F808B1204691
:102D900038BD0120FDF734FDA1208DF8000001228F
:102DA0006946002000F046F838BD4FF4FA7240F64C
:102DB000C411904201D2104602E0884200D9084670
:102DC00042F2107101EB00304900B0FBF1F080B22B
:102DD0007047000010B50446401E042802D34FF08F
:102DE000FF3010BDDFED050AFFF78CFFFFF7DDFFB9
:102DF00001462046BDE8104000F002B80000B44291
:102E000008B50F2802D94FF0FF3008BD00228DF819
:102E100000208DF801208DF80210090A8DF80310AA
:102E2000062101EB8000C0B20422694600F002F8DE
:102E300008BD00003EB54FF0FF348DE81600024695
:102E4000012380210348FDF7B5FE002800D020466D
:102E50003EBD00005C050020642000F075FFFBE72C
:102E60009FED040A0220FFF7B5FF642000F06CFF1D
:102E7000FBE7000000000000FFF7F8FE142000F060
:102E800063FFF9E7012000F05FFFFBE7012000F09E
:102E90005BFFFBE7012000F057FFFBE7012000F09C
:102EA00053FFFBE710B54FF0E020006902F0A2FBF2
:102EB000012803D0BDE8104001F098BF10BD00000C
:102EC00030B593B030216846FDF734FB14210CA8CF
:102ED000FDF730FB1D480025016841F0805101607D
:102EE000006800F0805011901948016841F4804159
:102EF00001600068022400F48040119001200090DD
:102F0000000401908001CDE9064008AA0420A82110
:102F100082E813000B906846FEF7EEF808B172B62F
:102F2000FEE70CA90F2081E831004FF4A0500F906C
:102F30004FF48050109005210CA8FDF7D3FF002816
:102F400001D072B6FEE713B030BD00004038024039
:102F5000007000400248016841F470010160704750
:102F600088ED00E00148FEF774BB00004408002033
:102F7000F0B50268274B284D284E294F294C4FF0B9
:102F8000804C984209D0604507D0A84205D0B04295
:102F900003D0B84201D0A04204D122F0700E4A689A
:102FA00042EA0E0298421BD0604519D0A84217D0C1
:102FB000B04215D0B84213D0A04211D01A4DA84249
:102FC0000ED01A4DA8420BD0194DA84208D0194D69
:102FD000A84205D0184DA84202D0184DA84203D1EE
:102FE00022F44075CA682A434D6922F080022A43C0
:102FF0008D68C5620D688562984201D0A04201D1FA
:1030000009690163016841F0040101600121416126
:103010000260F0BD000001400004004000080040D4
:10302000000C004000040140004001400044014009
:103030000048014000180040001C004000200040F3
:10304000F0B5036A026A22F00102026242688469F2
:10305000124E24F073050C682C4323F002058B6894
:103060002B430D4DA84201D0B04205D123F00807F3
:10307000CB683B4323F00403A84201D0B04205D102
:103080004D6922F4407215438A692A434260846183
:10309000496841630362F0BD000001400004014043
:1030A000F0B5026A036A23F010030362436884697F
:1030B0000D6824F4E64444EA05248D6822F02002D9
:1030C00042EA05120F4D104EA84201D0B04206D17F
:1030D000CF6822F0800242EA071222F04002A842A2
:1030E00001D0B04207D14D6923F4406343EA850320
:1030F0008D6943EA850343608461496881630262A4
:10310000F0BD00000000014000040140F0B5026A7B
:10311000036A23F4807303624368C46922F4007273
:1031200024F073050C68124E2C438D6842EA052288
:103130000E4DA84201D0B04206D1CF6822F4006201
:1031400042EA072222F48062A84201D0B04207D1AD
:103150004D6923F4405343EA05138D6943EA05138F
:103160004360C4614968C1630262F0BD0000014070
:103170000004014030B5046A026A22F480520262FF
:103180004268C3690D6823F4E64343EA05238D686A
:1031900024F4005444EA0534084DA84202D0084DF6
:1031A000A84204D14D6922F4804242EA851242606D
:1031B000C36149680164046230BD00000000014041
:1031C00000040140124910B50A78002322B1012AF7
:1031D00005D0022A06D009E0012806D106E003281E
:1031E00002D103E0022801D00B7010BD084C083456
:1031F000A054521CD0B208700728F6D3B4F80300CC
:1032000040BA00EE100AB8EE400A81ED010AEBE781
:103210009000002070B51948FEF7DCFB17480068E5
:103220000168C943890616D44068154CC2B21548D6
:103230006378012183B1012B0DD123780025C2547D
:103240005B1CDAB22270022A0CD00B2A03D1FEF7E3
:10325000E3FE2570657070BD552AFCD102702170A7
:10326000617070BD40785328FBD05228F9D05528A2
:1032700002D06570257070BD217070BD8806002079
:10328000C8000020380800200148FEF7A3BB00005A
:10329000D006002010B5806B0021C185FEF798FB99
:1032A00010BD01680C3151E8002F22F4907241E802
:1032B0000023002BF5D10168143151E8002F22F0D2
:1032C000010241E80023002BF5D1016B012909D14E
:1032D00001680C3151E8002F22F0100241E8002370
:1032E000002BF5D1202180F84210002101637047A6
:1032F00008B590F84210222901D0022008BD82684A
:103300004FF480539A4201D1016921B1816A9A42F6
:103310001BD04AB10AE00268816A5268C2F308020F
:103320000A80816A891C08E0026972B102685268E9
:1033300002F07F020A70816A491C8162C18D491EB8
:103340000904090CC18503D01BE002685268F1E74B
:103350000168CA6822F02002CA600168CA6822F4C3
:103360008072CA6001684A6922F001024A61202124
:1033700080F8421000214163026B012A03D0FEF75E
:10338000BFFD002008BD016301680C3151E8002F2A
:1033900022F0100241E80023002BF5D101680A68F1
:1033A000D20602D50A6849680091818DFEF70FFBAD
:1033B000E7E7000070B5044600680169E26821F49F
:1033C0004051114301612169A068E26908436169C4
:1033D000114308432168CA6849F20C639A430243C7
:1033E000CA6020684169A26921F4407111434161BA
:1033F00031492068884202D03049884202D1FDF725
:103400003BFE01E0FDF728FEE26900231921642557
:103410003226B2F5004F626828D0A0FB0101930F5D
:103420009200FCF791FF0146B0FBF5F06FF0180237
:10343000504301EB800006EB0010B0FBF5F000F00C
:10344000F002B1FBF5F002EB0012B1FBF5F06FF00A
:103450001803584301EB800006EB0010B0FBF5F0B9
:1034600000F00F0021681044886070BDA0FB0101CE
:1034700092185B41FCF768FF0146B0FBF5F00201D2
:10348000B1FBF5F06FF01803584301EB800006EB39
:10349000C000B0FBF5F000F0F80002EB4002B1FB19
:1034A000F5F0584301EB800006EBC000B0FBF5F0EF
:1034B00000F00700D6E700000010014000140140B2
:1034C0002DE9F843984617460D460446089E24E029
:1034D000701C22D0FDF7A4FAA0EB0800B0421AD865
:1034E000CEB12068C168490717D5802D15D0402D71
:1034F00013D00168C94309070FD40168002540684B
:1035000000902046FFF7CDFE0820606484F840500C
:103510000120BDE8F8830320FBE72068006835EA56
:10352000000004D00020B842D2D00020F1E70120F2
:10353000F9E700000B4882B000680168C943090739
:1035400002D40168416800910168C943890604D426
:10355000406802B0C0B2FFF735BE024802B0FEF7C5
:1035600039BA0000180700200B4882B000680168D3
:10357000C943090702D40168416800910168C94341
:10358000890604D4406802B0C0B2FFF737BB0248D6
:1035900002B0FEF71FBA0000600700200148FEF7E6
:1035A00019BA0000A80700200A4882B00068016824
:1035B000C943090702D40168416800910168C94301
:1035C000890602D4406802B07047024802B0FEF794
:1035D00001BA0000F0070020FEE7000018B103491F
:1035E0008861002070476FF00500704700000020E0
:1035F000032802D96FF005007047034A106211706A
:103600000020D061704700000000002018B103497D
:103610004861002070476FF00500704700000020EF
:1036200018B103494860002070476FF005007047EB
:103630000000002070B5044640F6FF72012100B280
:10364000FDF70EF840B14BF28851692000F046F8C2
:103650006FF00205A0B902E06FF0050070BD0949E6
:10366000086A012801D010B104E0142000E0012014
:1036700089698847A1B2022000F030F80028EDD017
:10368000284670BD0000002070B504460D220121BF
:1036900000B2FCF7E5FF40B14BF28851692000F021
:1036A0001DF86FF00205A0B902E06FF0050070BDD3
:1036B0000949086A012801D010B104E0142000E093
:1036C000012089698847A1B2032000F007F800288B
:1036D000EDD0284670BD0000000000202DE9FC4719
:1036E0006FF0050A90281AD2354CCAB22346D4F896
:1036F0002080FF27090A5B686FF0040C4FF0AA09CD
:10370000C6B2B8F1000F0DD02546B8F1010F2D78E3
:1037100017D0B8F1020F31D0B8F1030F40D05046A6
:10372000BDE8FC87DBB38DF800708DF801908DF853
:1037300002608DF804108DF8032005216846984733
:103740003AE063B306238DF800508DF80130000A8B
:103750008DF802008DF804108DF803608DF80520B7
:103760001946684600F042F8010A8DF806108DF8F7
:10377000070062680821684690471DE0236973B11D
:103780008DF800708DF801908DF802608DF803209F
:103790008DF8041005226946284698470CE00DE094
:1037A000A4685CB18DF800208DF80110C1B26806E4
:1037B000000E02236A46A0470020B1E76046AFE74B
:1037C000000000204100080218BF04200A0E18BFA4
:1037D00040F001004FF07F4232EA010108BF40F0A3
:1037E0000200012808BF052070470000F0B5FF2344
:1037F000084E1C46002206F5807705E0855C5D409A
:10380000735D63407C5D521C8A42F7DB44EA03200F
:10381000F0BD0000E25900080907090E002804DB8A
:1038200000F1E02080F80014704700F00F0000F174
:10383000E02080F8141D704710EE101A08B5444AB5
:103840006846B2EB410F28D94FF0E640B0EB410F8C
:1038500094BF00204FF0FF3000900098002861DBFB
:1038600060EE000A10F0010F45D010F0020FDFEDFE
:10387000391A9FED391A00EEE11ADFED381A40EEE1
:10388000811A21EEA01AF0EE400A40EE010A08BFAC
:10389000F1EE600AB0EE600A08BD314B21F0004243
:1038A00093423CD911F0004FDFED2E0A20EE201A92
:1038B000DFED2D0A19BF31EE601A71EE200A31EEEC
:1038C000201A71EE600ABDEEE01A11EE100A9FEDAB
:1038D000271A00F0030000EEC10A9FED251A0090A0
:1038E00000EEC10A9FED231A00EEC10A9FED221AD5
:1038F00000EEC10AB1E79FED211A9FED210A10F0F9
:10390000020F00EE810A9FED1F1A00EE801AB7EE3B
:10391000000A00EE810A18BFB1EE400A08BD00F0AF
:103920000FF99AE710EE100A4000B0F17F4F3CBF4C
:10393000B7EE000A08BD07D14FF00100FCF729FEE1
:10394000BDE8084000F0ECB8BDE8084000F0E4B87D
:10395000B61F927E336D4C39DA82083CA0AA2ABE8B
:10396000490E494683F9223F0000004B0000C93F41
:1039700000A0FD390020A2331A61342CB93AB2BA42
:10398000CA9F2A3DDDFFFFBE00B510EE101A2DEDD7
:10399000028B81B0524A6846B2EB410F2ED94FF0EC
:1039A000E640B0EB410F94BF00204FF0FF30009095
:1039B0000098B0EE408A00286ADB10F0010F4BD06F
:1039C00068EE080A9FED471A9FED470A00EE810A4C
:1039D0009FED461A10F0020F00EE801AB7EE000AB3
:1039E00000EE810A02BF01B0BDEC028B00BD00BF3A
:1039F00001B0B1EE400ABDEC028B00BD3C4B21F0A2
:103A00000042934241D911F0004FDFED3A0A20EE17
:103A1000201ADFED390A19BF31EE601A71EE200A63
:103A200031EE201A71EE600ABDEEE01A11EE100AB6
:103A30009FED321A00F0030000EEC10A9FED301A2C
:103A4000009000EEC10A9FED2F1A00EEC10A9FED13
:103A50002E1A00EEC10AABE728EE080A9FED2B1ADA
:103A6000DFED2B0A10F0020F40EE410A9FED291AFC
:103A700000EE201A61EE000AB0EE480A08EE200AB5
:103A8000B6D101B0BDEC028B00BD00F059F88FE754
:103A900018EE100A4000B0F17F4F0DD218EE100A58
:103AA000FFF790FE042808BF00F042F8B0EE480A85
:103AB00001B0BDEC028B00BD09D10120FCF769FD0E
:103AC00001B0BDEC028B5DF804EB00F029B801B049
:103AD000B0EE480ABDEC028B5DF804EB00F01CB8B8
:103AE000B61F927EB93AB2BACA9F2A3DDDFFFFBE29
:103AF000490E494683F9223F0000004B0000C93FB0
:103B000000A0FD390020A2331A61342C336D4C39EA
:103B1000DA82083CA0AA2ABE30EE000A70470000F4
:103B2000DFED020A80EEA00A7047000000000000EE
:103B30009FED020A20EE000A70470000000000100E
:103B40002DE9F0014FF07F42B2EB410F9FBF4FF0E4
:103B5000FF310160BDE8F00170474FF0004242EADA
:103B60000123C1F3C752783A551112F01F0C434C90
:103B7000CCF120067C44C1F3C752A2F178024FEA8F
:103B8000621204EB820254F8254008BFD2E90156C4
:103B900012D0556804FA0CF425FA06F73C439768EE
:103BA00005FA0CF527FA06F8D26807FA0CFCF24081
:103BB00045EA08054CEA0206A4FB034CA5FB0352A8
:103BC000A6FB03631D449D4234BF01260026131942
:103BD000334416B1934202D903E0934201D2012249
:103BE00000E00022624402F1200C9206DC0C42EA62
:103BF000443200EE102A5B03DFED210AF8EEC01A12
:103C000000EE103A4FEA9C1C11F0004FB8EE400A4B
:103C1000C0F800C020EE201A00EE105ADFED190A9D
:103C2000B8EE400A20EE200A71EE810A70EE800A9A
:103C300010EE902A02F500626FF30B0200EE902A5C
:103C400070EEE11A31EEC11ADFED101A30EE411AB2
:103C50009FED0D0A20EE800A01EE210A9FED0C1A5D
:103C600000EE810A04BFBDE8F0017047CCF180513D
:103C70000160BDE8F001B1EE400A7047A8290000DC
:103C8000000000360000802C22AAFD29DB0FC92F7E
:103C90000000C92FFDF764F8FFF712F9FEF7C0FB2B
:103CA000FEF7E8FCFEF702FDFEF71CFDFEF736FD11
:103CB000FEF750FDFEF71CFCFEF752FCFEF772FC0F
:103CC000FEF764FDFEF7F4FBFFF744F808B172B6A7
:103CD000FEE7FEF76FF9184D00202870FCF7A0FEF4
:103CE00004464FF47A76287820B9FCF799FE001B39
:103CF000B042F8D3FEF758F9B0EE401A9FED0F0A24
:103D0000F0EE400AFEF760FDFEF758FFFEF706FEF4
:103D100010230BA204210020FEF7FAFE102309A2B3
:103D200006210020FEF7F4FE00F02CF8FEF72EFB33
:103D300000F03AF8FEE70000280000200000000034
:103D4000583A0000593A000010B5EFF3058111B15F
:103D50006FF0050403E0002408B100F09FFE204648
:103D600010BD000010B501F045FC38B1022804D0A8
:103D700003480068012800D0002010BD032010BDBA
:103D80002C010020EFF3058010B16FF005007047A3
:103D90000448016811B14FF0FF3070470121016004
:103DA000002070472C01002010B5EFF3058010B102
:103DB0006FF0050010BD08480168012902D04FF0DE
:103DC000FF3010BD054A002182F8141D0221016058
:103DD00000F014FF002010BD2C0100200BE000E0DB
:103DE0002DE9F0410D46014621F0010001F00101ED
:103DF0004FF00004EFF305820AB1A41F16E048B1AA
:103E000000296FF001066FF00207294608D001F083
:103E100039FB07E06FF0030408E035B1344605E0F4
:103E200001F074FA0128F8D100E03C462046BDE8D4
:103E3000F08170B505464FF00004EFF3058050BBEC
:103E40000DB1686800E00020C10701D0012600E044
:103E5000002600071FD46DB1D5E9021021B150280A
:103E600019D31EB1042002E020B114E0012000F0BB
:103E7000DEFF05E00EB1042000E0012000F0CCFFE1
:103E8000040008D00DB1296800E0002100F0D0FD49
:103E90000EB144F00104204670BD70B5014621F01A
:103EA000010001F001014FF00004EFF305820AB1B7
:103EB000A41F11E028B16FF0020529B101F06BF9E0
:103EC00007E06FF0030407E000231A46194601F0EB
:103ED00053F8012800D02C46204670BD2DE9FF4143
:103EE0004FEA01034FF00005EFF30581039549BB4D
:103EF00040B38027182100244AB3166806B134461F
:103F000096691EB13146761E382E02D21679F60712
:103F100003D0002004B0BDE8F081566906B1B708AF
:103F2000D2F808C0BCF1000F0DD0D5685C2D18D3B5
:103F300012693AB136B18DE806103A46214601F0D1
:103F400028FB03900DE0D6685EB912694AB903AA4E
:103F5000CDE90012BAB2214601F0EEFA012800D0F4
:103F600003950398D6E700002DE9F041134C0F4666
:103F70000546E6682068001D00F05CFC681C07D15F
:103F800037B12168BDE8F0410D48091D00F0A2BC21
:103F900020683544B5424560216805D2A06BBDE874
:103FA000F041091D00F07EBC606B091D00F07AFC39
:103FB000A06A854200D2A562BDE8F081DC00002045
:103FC0007C0D00202DE9F041054600F08FFC2D4CC2
:103FD000A068401CA06020682B4F10B1606930B30E
:103FE0002BE02560A068012827D1002606EB86007B
:103FF00007EB800000F048FC761C382EF6D32348EF
:1040000000F042FC2148143000F03EFC1F482830EC
:1040100000F03AFC1D483C3000F036FC1B485030A4
:1040200000F032FC194860631430A06305E020689A
:10403000E96AC06A884200D82560606A401C6062F4
:104040006864E86A2169884200D9206100EB800039
:1040500007EB8000291D00F03DFC00F067FC606963
:1040600000280CD02068E96AC06A884207D2084953
:104070004FF080500860BFF34F8FBFF36F8FBDE8E4
:10408000F0810000DC000020CC0800202C0D002076
:1040900004ED00E038B500F029FC104C2068C8B9E8
:1040A0000F4800F0F1FB0E48143000F0EDFB0C4817
:1040B000E060143020610A4B0020F03B009003F1D7
:1040C000500210210A2000F0E0FE206010B105A18E
:1040D00000F0AEFCBDE8384000F028BC180100201C
:1040E000800E0020546D72510000000030B4026C4C
:1040F0000B46002A0BD0C1681144C1608468A142FC
:1041000001D30168C16030BC1846FCF794B930BCDB
:1041100070472DE9F041856B174604460026026C76
:1041200082B1C7B1E068FCF786F9E168206C091A32
:10413000E1602268914202D2A168081AE060022F71
:1041400016D017E02068A8B9A06801F0CBFA06469F
:104150000020A0600EE06068FCF76DF9216C6068DB
:1041600008446060A168884204D32068606001E070
:1041700005B16D1E6D1CA5633046BDE8F08110B51C
:10418000044690F8590058B101280CD002280FD0ED
:10419000502080F31188BFF34F8FBFF36F8FFEE77E
:1041A000206B00F0D7FB2046BDE8104000F0D2BBEA
:1041B00010BD000010484FF4A041420706D0C01DBA
:1041C0000D4920F00700411AC1F5A0410B4A002318
:1041D0000144C2E900030839183A21F007011160CF
:1041E0004B600B600B1AC0E9001393604FF0004066
:1041F00053605061704700006015002048010020A6
:10420000144E154CA6F29C474FF08058DFF84C90A6
:1042100012E000BF00F06AFBF068C568281D00F0DE
:1042200009FBA068401EA0606068401E606000F04E
:104230007DFB2846FFF7A3FF60680028EAD13868B5
:104240000128F9D9C9F80080BFF34F8FBFF36F8FF2
:10425000F2E70000680D0020DC00002004ED00E023
:10426000002807D00021816001600B460A46C1602A
:1042700000F082BE7047000070B51D46049C51B12D
:10428000C4F80020C4E90F010121204600F030FEEF
:1042900084F84C5070BD2460F4E700002DE9F05F15
:1042A0008846DDE90B941546834691009A460A9E9E
:1042B000A522206BFCF736F96FF00301206B01EBB0
:1042C0008501084420F00707780707D0502080F3C5
:1042D0001188BFF34F8FBFF36F8FFEE70025B8F152
:1042E000000F0FD05FF00000221818F8001082F8BD
:1042F000341018F8001011B1401C1028F4D384F8C1
:10430000435001E084F83450382E00D33726E6625B
:10431000C4E91365201D00F0C2FA04F1180000F092
:10432000BEFA2461C6F138006462A061656584F854
:10433000585052465946384600F066FA2060B9F1A6
:10434000000F01D0C9F80040BDE8F09F30B5114919
:1043500000E011460A688242FBD34B685C18844235
:1043600003D1406818444860084643681C189442CA
:1043700009D1084C183C2468A24209D052681A445A
:1043800042600A6812680260814200D0086030BD55
:104390000460F9E74801002070B5002441600B4D2E
:1043A0000061914206D8D11A8269914206D2011D5C
:1043B000286907E09A4203D2994201D3012403E01D
:1043C000011DE86800F06EFA204670BD180100205B
:1043D00010B5044600F08AFAA06B28B15FF0000423
:1043E00000F0A4FA204610BD0124F9E730B589B0E9
:1043F0003C4D6EE00498002806DADDE90601059AD6
:1044000090470498002864DB069C606910B1201D69
:1044100000F010FA03A800F0D7F8024604980A2822
:1044200057D2DFE800F00505052D334A05052D3389
:1044300094F8280040F0010084F828000599A0694C
:10444000059B01442046FFF7A7FF68B3216A204679
:10445000884794F8280040073BD500200090059835
:10446000A169002342181946204601F081FAD8B903
:10447000502080F31188BFF34F8FBFF36F8FFEE79B
:1044800014F8280F20F00100207022E094F8280092
:1044900040F0010084F828000598A06128B1811837
:1044A00013462046FFF778FF13E0502080F3118871
:1044B000BFF34F8FBFF36F8FFEE794F8280081079B
:1044C00003D4204600F046FA03E020F0010084F80F
:1044D0002800002204A9286800F07CFE002889D169
:1044E00009B030BD180100202DE9FC410F460546FA
:1044F00000F0C8FB01A800F067F80446019818B165
:1045000001F0A4F9BDE8FC81254EAFB13069006827
:10451000D0B30027291B3A46306800F09DFA01F01D
:1045200095F90028EED11F494FF080500860BFF385
:104530004F8FBFF36F8FE5E7A542EBD801F086F907
:10454000F0682746C068C468201D00F073F994F82D
:104550002800410719D5A0692B4641193A46204643
:10456000FFF71AFFA8B100200346014600902A4633
:10457000204601F0FDF960B9502080F31188BFF3A7
:104580004F8FBFF36F8FFEE707E020F0010084F844
:104590002800216A20468847B4E70127BAE70000CF
:1045A0001801002004ED00E00648416B096829B1BC
:1045B000416BC968C9684968816270474FF0FF3133
:1045C000FAE70000DC00002070B5054601F020F895
:1045D000064E0446B068844203D200F009F8012078
:1045E00000E0002028602046B46070BD1801002063
:1045F000F8B5194D20E0C068C4680668201D00F0B9
:1046000019F9216A2046884794F82800400713D5F5
:10461000A0693044B04206D924616060211DE86879
:1046200000F040F908E000200346014600903246C1
:10463000204601F09DF938B1E86801680029DAD117
:104640002969C5E90310F8BD502080F31188BFF334
:104650004F8FBFF36F8FFEE71801002008484068B6
:10466000401C4FF0500080F3118804D0BFF34F8FEF
:10467000BFF36F8FFEE7BFF34F8FBFF36F8FFEE780
:1046800050010020074CE068016841B1C06800217A
:10469000D0F80000FFF728FFFFF7A8FEF3E701219D
:1046A0000020F7E7180100202DE9F041044600F052
:1046B0001DF994F9455004F1240609E0606A48B1F7
:1046C000304601F08BF808B100F016FA6D1E6DB29D
:1046D000002DF3DC4FF0FF3684F8456000F026F93A
:1046E00000F004F994F9445004F1100709E020693E
:1046F00048B1384601F072F808B100F0FDF96D1EBE
:104700006DB2002DF3DC84F84460BDE8F04100F0A8
:104710000DB900002DE9F0410546002700F0B2FA7E
:10472000324E306808B9FFF745FD706905424ED139
:10473000C5B3083568070ED005F00700C0F10800C2
:104740000544680707D0502080F31188BFF34F8FCE
:10475000BFF36F8FFEE72DB37068854237D82348CB
:10476000183001460C6801E020460C466168A942F9
:1047700002D221680029F7D131688C4227D007681E
:104780002168016060680837411B10290FD9601942
:10479000420708D0502080F31188BFF34F8FBFF33A
:1047A0006F8FFEE713E041606560FFF7CFFD616842
:1047B0007068401A7060B268904200D2B060706950
:1047C00001430020C4E90001F068401CF06001F0E2
:1047D0003DF8780707D0502080F31188BFF34F8F42
:1047E000BFF36F8FFEE73846BDE8F081300100204F
:1047F0000449086818B10868026D521C026508680F
:1048000070470000DC00002010B5031F4FF08074DB
:104810001C601B1F21F001011960191F044B0B6064
:1048200014390A60091F6FF0020244380A6010BD93
:104830005D460008D0E9013201699A60D0E90123A0
:104840005A604A68824201D182684A60002202614D
:104850000868401E0860086870470000034B03604A
:1048600003F15C000860802010607047A80E0020F3
:10487000044B036003F15C0008604FF4807010602B
:10488000704700000411002000F108014FF0FF32D2
:10489000C0E90112C160016100210160704700217F
:1048A0000161704730B50B685A1C02D000F1080254
:1048B00002E0026904E02246546825689D42FAD964
:1048C00053684B6099608A60516008610168491CB7
:1048D000016030BD42684A6093688B60936859609C
:1048E000916008610168491C01607047502080F3A5
:1048F0001188BFF34F8FBFF36F8F0A494868401C80
:10490000486001280CD10848006810F0FF0F07D05C
:10491000502080F31188BFF34F8FBFF36F8FFEE7F6
:10492000704700005001002004ED00E0084948688D
:1049300028B1401E486001D180F311887047502093
:1049400080F31188BFF34F8FBFF36F8FFEE7000036
:104950005001002070B500282AD0164DA0F108049F
:1049600060686969084207D1502080F31188BFF35D
:104970004F8FBFF36F8FFEE722683AB1502080F36C
:104980001188BFF34F8FBFF36F8FFEE788436060DE
:1049900000F078F960686968084468602046FFF7AD
:1049A000D5FC2869401C2861BDE8704000F04EBF6E
:1049B00070BD0000300100204FF0E02000210161B7
:1049C000816105494FF47A720968B1FBF2F1491E21
:1049D0004161072101617047D800002010B5FBF745
:1049E0008FFC114910280ED300F1E02090F8F0035D
:1049F0000A78904207D2502080F31188BFF34F8F7E
:104A0000BFF36F8FFEE709480068896800F4E06033
:104A1000884207D9502080F31188BFF34F8FBFF32E
:104A20006F8FFEE710BD0000500100200CED00E08C
:104A300010B5084B002200BF53F832401CB1521C85
:104A4000082AF9D310BD43F8321003EBC2014860C5
:104A500010BD00008C08002070B515460E460446B7
:104A6000FFF744FF94F944100020491C01D184F859
:104A7000440094F94510491C01D184F84500FFF722
:104A800055FFA06B28B92A46314604F1240000F0F6
:104A900051F82046BDE87040FFF706BE10B5020091
:104AA00014D00F48006B38B1502080F31188BFF349
:104AB0004F8FBFF36F8FFEE700F0E4F80021104640
:104AC000FFF752FA00F0C2FE002807D105494FF067
:104AD00080500860BFF34F8FBFF36F8F10BD000091
:104AE000DC00002004ED00E002490A6A0260C968A7
:104AF00041607047DC00002001490120C861704717
:104B0000DC00002010B50C4650B109490968183185
:104B1000FFF7C8FE2046BDE810400121FFF724BA88
:104B2000502080F31188BFF34F8FBFF36F8FFEE7E4
:104B3000DC00002070B514460D4668B10A490968CA
:104B40001831FFF7C7FE0CB14FF0FF35214628465C
:104B5000BDE87040FFF708BA502080F31188BFF31A
:104B60004F8FBFF36F8FFEE7DC00002070B50400AD
:104B70003ED0226DA2B1E06C884200D30146E06ACB
:104B8000884235D0012A33D11A4D2A6894420FD178
:104B9000502080F31188BFF34F8FBFF36F8FFEE774
:104BA000502080F31188BFF34F8FBFF36F8FFEE764
:104BB000E162A269002A02DBC1F13801A1610E4E57
:104BC00000EB8000616906EB8000814210D1201D5E
:104BD000FFF730FEE06A2969884200D9286100EBBE
:104BE000800006EB8000211DBDE87040FFF772BE1B
:104BF00070BD0000DC000020CC08002030B587B07C
:104C00000024039405AA04A903A80494FFF726FE30
:104C1000DDE903010094CDE90110002315A1174837
:104C2000059A00F0B6FC164D0028E8621FD000F08F
:104C30006FFE012809D0401C19D1502080F3118843
:104C4000BFF34F8FBFF36F8FFEE7502080F31188C3
:104C5000BFF34F8FBFF36F8F4FF0FF30A86201207B
:104C60006861EC6007B0BDE8304000F045B807B0BF
:104C700030BD000049444C450000000001420008DE
:104C8000DC0000200248016B491C016370470000F2
:104C9000DC000020164810B5016B11B10121C16183
:104CA00010BD0021C1610169124A01E0B9B1491E7C
:104CB00001EB810352F82330002BF7D001EB810385
:104CC00002EB830202F1080453685B685360A3425D
:104CD00001D15B685360DA680260016110BD502049
:104CE00080F31188BFF34F8FBFF36F8FFEE7000093
:104CF000DC000020CC0800201CB537480168374A8A
:104D0000914207D1502080F31188BFF34F8FBFF33A
:104D10006F8FFEE700683149491E884207D1502055
:104D200080F31188BFF34F8FBFF36F8FFEE72C49DD
:104D300008780190FF20087008788DF800009DF831
:104D400000009DF8002000F0F000904207D05020B5
:104D500080F31188BFF34F8FBFF36F8FFEE79DF88D
:104D60000000204C00F0500020700720A06005E0FB
:104D70009DF8002052008DF80020401E9DF8002074
:104D80001206F5D4A060032807D0502080F31188C4
:104D9000BFF34F8FBFF36F8FFEE74FF44070A060FB
:104DA000019808700C482030016841F470010160DE
:104DB000016841F070410160FFF7FEFD0020606076
:104DC000FBF766FA0848016841F040410160FBF7D3
:104DD0004BFA00201CBD000000ED00E071C20F4145
:104DE00000E400E05001002034EF00E010B5502056
:104DF00080F31188BFF34F8FBFF36F8F00F00EFC6D
:104E000018B104494FF080500860002080F31188E9
:104E100010BD000004ED00E010B5024600210120A5
:104E200000F012F80446FFF71BFA204610BD38B513
:104E30000B46002200901146012000F026F804469F
:104E4000FFF70EFA204638BDF8B517460E460500A6
:104E500013D005FB06F05030FFF75CFC04000AD0CD
:104E6000002084F8460004F150023B4631462846B3
:104E70000094FFF701FA2046F8BD502080F3118816
:104E8000BFF34F8FBFF36F8FFEE738B5049D18B1A6
:104E900053B1CAB181B120E0502080F31188BFF333
:104EA0004F8FBFF36F8FFEE7502080F31188BFF361
:104EB0004F8FBFF36F8FFEE7502080F31188BFF351
:104EC0004F8FBFF36F8FFEE739B1502080F3118809
:104ED000BFF34F8FBFF36F8FFEE750241C460123B3
:104EE00084F846302B460094FFF7C6F9204638BDBB
:104EF00070B50D46040025D0FFF7F8FCD4E90F206B
:104F0000216802FB0011A1600021A163216861609A
:104F10000A46D4E90F01401E00FB0121E160214651
:104F20004FF0FF3001F8440F487004F110008DB1CC
:104F3000FFF7AAFC04F12400FFF7A6FCFFF7F6FC3C
:104F4000012070BD502080F31188BFF34F8FBFF355
:104F50006F8FFEE721690029F0D000F03FFC0028A8
:104F6000ECD004494FF080500860BFF34F8FBFF37F
:104F70006F8FE3E704ED00E02DE9FF4782B01D46A7
:104F80008A464FF00008040003D0BAF1000F08D0A1
:104F900011E0502080F31188BFF34F8FBFF36F8F64
:104FA000FEE7206C38B1502080F31188BFF34F8F9B
:104FB000BFF36F8FFEE7022D0AD1E06B012807D007
:104FC000502080F31188BFF34F8FBFF36F8FFEE740
:104FD00000F010FB3F4F4FF000094FF0805648B9EA
:104FE000049838B1502080F31188BFF34F8FBFF37E
:104FF0006F8FFEE7FFF77AFCA06BE16B884207D367
:10500000022D05D00498D0B1B8F1000F1AD01EE0DF
:105010002A4651462046FFF77CF8616A19B104F12F
:10502000240000F0DBFB20B13E60BFF34F8FBFF3E5
:105030006F8FFFF77BFC012006B0BDE8F087FFF71C
:1050400075FC22E06846FFF74FFD4FF00108FFF7BF
:105050006DFCFFF717FEFFF749FC94F94400401C74
:1050600001D184F8449094F94500401C01D184F8A2
:105070004590FFF75BFC04A9684600F023FA30B1C5
:105080002046FFF711FB00F0E1FB0020D4E7FFF71B
:105090002DFCA06BE16B884213D1FFF747FC04F1B4
:1050A00010000499FFF72EFD2046FFF7FDFA00F0EF
:1050B000CDFB00289ED13E60BFF34F8FBFF36F8FB3
:1050C00098E7FFF733FC2046FFF7EEFA00F0BEFB4F
:1050D00090E7000004ED00E02DE9F0471F46904600
:1050E0008946040003D0B9F1000F08D011E0502028
:1050F00080F31188BFF34F8FBFF36F8FFEE7206CF3
:1051000038B1502080F31188BFF34F8FBFF36F8FFA
:10511000FEE7022F0AD1E06B012807D0502080F370
:105120001188BFF34F8FBFF36F8FFEE7FFF756FC79
:105130005020EFF3118680F31188BFF34F8FBFF338
:105140006F8FA06BE16B884206D3022F04D0002042
:1051500086F31188BDE8F08794F94550A06B3A4674
:1051600049462046FEF7D5FF681C04D06D1C84F824
:1051700045500120ECE7606A0028FAD004F12400D1
:1051800000F02CFB0028F4D0B8F1000FF1D0012181
:10519000C8F80010EDE710B5040009D000F024FABB
:1051A000A168884214D1E068401EE06008D00DE09C
:1051B000502080F31188BFF34F8FBFF36F8FFEE74E
:1051C00000231A4619462046FFF7D6FE012010BDDF
:1051D000002010BD2DE9F747002683B08A46040061
:1051E00003D0BAF1000F08D011E0502080F31188ED
:1051F000BFF34F8FBFF36F8FFEE7206C38B15020A5
:1052000080F31188BFF34F8FBFF36F8FFEE700F07D
:10521000F1F9DFF8F4804FF000094FF0805748B9FA
:10522000059838B1502080F31188BFF34F8FBFF33A
:105230006F8FFEE7FFF75AFBA56BC5B151462046BD
:10524000FEF754FF6D1EA563206950B104F11000F4
:1052500000F0C4FA28B1C8F80070BFF34F8FBFF355
:105260006F8FFFF763FB012006B0BDE8F08705985C
:1052700008B11EB106E0FFF759FB27E06846FFF7CB
:1052800033FC0126FFF752FBFFF7FCFCFFF72EFB78
:1052900094F94400401C01D184F8449094F94500ED
:1052A000401C01D184F84590FFF740FB05A96846F2
:1052B00000F008F9002820460AD0FFF7F5F900F0C1
:1052C000C5FA2046FFF784F80028B3D00020CBE7CA
:1052D000FFF77EF890B104F124000599FFF712FC66
:1052E0002046FFF7E1F900F0B1FA0028A2D1C8F892
:1052F0000070BFF34F8FBFF36F8F9BE72046FFF720
:10530000D3F900F0A3FA95E704ED00E02DE9F343AB
:10531000002683B00400354609D0206C78B15020B7
:1053200080F31188BFF34F8FBFF36F8FFEE75020DC
:1053300080F31188BFF34F8FBFF36F8FFEE700F04C
:1053400059F9DFF83C814FF000094FF0805748B918
:10535000049838B1502080F31188BFF34F8FBFF30A
:105360006F8FFEE7FFF7C2FAA06BC8B1401EA063C3
:10537000206810B9FFF73CFAA060206950B104F131
:10538000100000F02BFA28B1C8F80070BFF34F8F5F
:10539000BFF36F8FFFF7CAFA012005B0BDE8F083B5
:1053A000049808B166B10FE03DB1502080F3118838
:1053B000BFF34F8FBFF36F8FFEE7FFF7B7FA5DE0E4
:1053C0006846FFF791FB0126FFF7B0FAFFF75AFC9A
:1053D000FFF78CFA94F94400401C01D184F8449002
:1053E00094F94500401C01D184F84590FFF79EFADE
:1053F00004A9684600F066F80028204612D0FFF79E
:1054000053F900F023FA2046FEF7E2FF0028A9D066
:105410009DB3FFF76BFA606A50B3206B0068C0F170
:10542000380126E0FEF7D4FFE0B1206838B9FFF775
:105430005DFAA06800F096F90546FFF777FA04F1E7
:1054400024000499FFF75EFB2046FFF72DF900F0DA
:10545000FDF9002886D1C8F80070BFF34F8FBFF365
:105460006F8F7FE72046FFF71FF900F0EFF979E72C
:105470000021A068FFF77AFB9FE7FFE700208CE799
:1054800004ED00E070B50D46040009D000F0ACF862
:10549000A16888420CD1E068401CE060012070BD2A
:1054A000502080F31188BFF34F8FBFF36F8FFEE75B
:1054B00029462046FFF72AFF0028F0D0E168491C62
:1054C000E16070BD2DE9F0410C46050011D0C4B17A
:1054D000FFF70CFA174BDA686E682068911B471CBF
:1054E00017D02F681B6A9F4219D0964217D8012403
:1054F00010E0502080F31188BFF34F8FBFF36F8F00
:10550000FEE7502080F31188BFF34F8FBFF36F8FFA
:10551000FEE70024FFF70AFA2046BDE8F081884242
:1055200005D9401A20602846FFF7DEFAF1E700208F
:105530002060DCE7DC0000202DE9FF5F8346DDE929
:105540000E87994616468A469000FFF7E3F8050055
:105550001CD05C20FFF7DEF8040014D00020256387
:1055600084F85900CDE90240CDE900874B46324628
:1055700051465846FEF792FE2046FEF723FD0120D5
:1055800004B0BDE8F09F2846FFF7E4F94FF0FF3084
:10559000F6E7F0B585B0DDE90B640A9DA6B1DCB194
:1055A0005C2700972663022684F85960002604AF22
:1055B000CDE90246CDE90057FEF770FE2046FEF722
:1055C00001FD049805B0F0BD502080F31188BFF3B1
:1055D0004F8FBFF36F8FFEE7502080F31188BFF32A
:1055E0004F8FBFF36F8FFEE70148006870470000E0
:1055F000DC0000200548416919B1006B18B100209A
:10560000704701207047022070470000DC00002036
:105610000148C06870470000DC0000202DE9F0411F
:105620002E4C0027206B28B1A069401CA061384691
:10563000BDE8F081E668761CE66013D1606B006817
:1056400038B1502080F31188BFF34F8FBFF36F8FB5
:10565000FEE7606BA16B6163A063206A401C20625F
:10566000FEF7A2FFA06ADFF87880864209D3606B5C
:105670000068A0B1606BC068C5686868864211D2D6
:10568000A0622068C06A00EB800158F82100012860
:1056900000D90127E0690028C9D00127C7E74FF0EA
:1056A000FF30EDE7281DFFF7C5F8A86A18B105F12E
:1056B0001800FFF7BFF8E86A2169884200D9206125
:1056C00000EB800108EB8100291DFFF703F9E86A70
:1056D0002168C96A8842CAD30127C8E7DC000020D4
:1056E000CC08002070B504004FF0000133D01B4DF2
:1056F0002868844207D0502080F31188BFF34F8F71
:10570000BFF36F8FFEE7206D38B1401E2065E36C5C
:10571000E26A9A421FD040B11DE0502080F3118808
:10572000BFF34F8FBFF36F8FFEE7201DFFF782F8A7
:10573000E06CE062C0F13800A061E06A296988424B
:1057400000D92861064900EB800001EB8000211D93
:10575000FFF7C0F80121084670BD0000DC00002002
:10576000CC08002070B504004FF000002BD0194D7C
:10577000E16A2A68D26A914226D2A069002804DB35
:105780002868C06AC0F13800A061134E01EB8101A6
:10579000606906EB8101884211D1201DFFF74AF8AC
:1057A0002868C06AE0622969884200D9286100EB54
:1057B000800006EB8000211DFFF78CF802E02868CE
:1057C000C06AE062012070BDE16C2A68D26A914231
:1057D000F8D370BDDC000020CC08002070B5C06894
:1057E000C46854B104F118000646FFF723F8144DBD
:1057F000286B50B13146134815E0502080F31188D2
:10580000BFF34F8FBFF36F8FFEE7201DFFF712F836
:10581000E06A2969884200D928610B4900EB8000C1
:1058200001EB8000211DFFF755F8E06A2968C96A7D
:10583000884202D90120E86170BD002070BD0000DF
:10584000DC000020540D0020CC0800202DE9F0479A
:105850002C4D00242746286B38B1FFF747F8286BFA
:10586000401E2863286B40B146E0502080F3118829
:10587000BFF34F8FBFF36F8FFEE7A968224E012061
:10588000D1B3A6F5916980463068E0B1F068C4688C
:1058900004F11800FEF7CEFF201DFEF7CBFFE06AF3
:1058A0002969884200D9286100EB800109EB810059
:1058B000211DFFF70FF8E06A2968C96A8842E3D31F
:1058C000C5F81C80E0E70CB1FEF76EFEAC694CB188
:1058D0004FEA0806FFF7A2FE00B1EE61641EF9D19F
:1058E0000020A861E86938B1084901273807086035
:1058F000BFF34F8FBFF36F8FFFF718F83846BDE83F
:10590000F0870000DC000020540D002004ED00E0D2
:1059100010B586B0FEF7BEFB114C2068B8B1002070
:105920000390049005AA04A903A8FEF7A1FFDDE9EE
:10593000032102208DE8070000230AA10B48059AE5
:10594000FFF727FE606010B106B0012010BD5020A7
:1059500080F31188BFF34F8FBFF36F8FFEE7000016
:1059600018010020546D72205376630085460008AC
:105970002DE9FF411E46134602000A9D4FF000002C
:1059800016D0144C2768002F0FD0CDE900130292D7
:10599000062917DAFFF72EFE02284FF000030FD07A
:1059A000002269462068FFF7E7FA04B0BDE8F081FD
:1059B000502080F31188BFF34F8FBFF36F8FFEE746
:1059C0002A46EEE70023324669463846FFF784FB55
:1059D000EBE70000180100204FF04070E1EE100AE4
:1059E000704700C1814001C0804101C0804100C1B9
:1059F000814001C0804100C1814000C1814001C09F
:105A0000804101C0804100C1814000C1814001C08E
:105A1000804100C1814001C0804101C0804100C17E
:105A2000814001C0804100C1814000C1814001C06E
:105A3000804100C1814001C0804101C0804100C15E
:105A4000814000C1814001C0804101C0804100C14E
:105A5000814001C0804100C1814000C1814001C03E
:105A6000804101C0804100C1814000C1814001C02E
:105A7000804100C1814001C0804101C0804100C11E
:105A8000814000C1814001C0804101C0804100C10E
:105A9000814001C0804100C1814000C1814001C0FE
:105AA000804100C1814001C0804101C0804100C1EE
:105AB000814001C0804100C1814000C1814001C0DE
:105AC000804101C0804100C1814000C1814001C0CE
:105AD000804100C1814001C0804101C0804100C1BE
