:020000040800F2
:10000000686E0020D5030008B9570008F94E0008B3
:1000100021570008FD310008156F0008000000009E
:1000200000000000000000000000000015030008B0
:10003000113300080000000071030008E1660008A9
:10004000EF030008EF030008EF030008EF030008C8
:10005000EF030008EF030008EF030008EF030008B8
:10006000EF030008EF030008EF030008EF030008A8
:10007000EF030008EF030008EF030008EF03000898
:10008000EF030008EF030008EF030008EF03000888
:10009000EF030008EF030008EF030008EF03000878
:1000A000EF030008EF030008EF030008EF03000868
:1000B000EF030008EF030008EF030008EF03000858
:1000C000EF030008EF030008EF030008EF03000848
:1000D000EF030008996D0008CD6D0008016E00085F
:1000E000EF030008EF030008EF030008EF03000828
:1000F000EF030008EF030008EF030008EF03000818
:10010000EF030008EF030008EF030008EF03000807
:10011000516A0008C56A0008A1670008EF030008DB
:10012000EF030008EF030008EF030008EF030008E7
:10013000EF030008EF030008EF030008EF030008D7
:10014000EF030008EF030008EF030008EF030008C7
:10015000EF030008EF030008EF0300080D6E00082E
:10016000EF030008EF030008EF030008EF030008A7
:10017000EF030008EF030008EF0300080000000091
:10018000EF030008EF03000800F002F800F0B2F8F7
:100190000AA090E8000C82448344AAF10107DA45E2
:1001A00001D100F0A7F8AFF2090EBAE80F0013F082
:1001B000010F18BFFB1A43F0010318479CAD000064
:1001C000BCAD00000A444FF0000C10F8013B13F0E6
:1001D000070408BF10F8014B1D1108BF10F8015BA0
:1001E000641E05D010F8016B641E01F8016BF9D193
:1001F00013F0080F1EBF10F8014BAD1C0C1B09D1EA
:100200006D1E58BF01F801CBFAD505E014F8016B5B
:1002100001F8016B6D1EF9D59142D6D370470000ED
:100220000023002400250026103A28BF78C1FBD8FF
:10023000520728BF30C148BF0B6070476E2900F0DD
:100240006985702901F0D980662909F0318765290F
:1002500009F02E87672909F02B87612909F02A8781
:1002600003681B0A28BF41F08001692900F0AA81B8
:10027000642900F0A781752900F0A4816F2901F09D
:100280006680782901F0A580E92901F00180E42940
:1002900000F0FE87F52900F0FB87EF2901F063806D
:1002A000F82901F0A4800368DB0928BF41F0800130
:1002B000632900F08287732900F08787E32901F022
:1002C000C985F32901F0CE85002070471FB509F0DC
:1002D000E2FE01F0A1FB04000020002109F062FC15
:1002E000401C60600020002109F046FCE0601FBD5A
:1002F00010B510BD02F028F81146FFF7E7FF07F030
:1003000045FD02F079FA03B4FFF7F2FF03BC02F0F7
:100310008FFA00002C4B19680868B0E8F04F80F3A2
:100320000988BFF36F8F4FF0000080F3118870478A
:100330000000000008480068006880F308884FF05B
:10034000000080F3148862B661B6BFF34F8FBFF32D
:100350006F8F00DF00BF00BF08ED00E0DFF80C008A
:10036000016841F470010160704700BF88ED00E052
:10037000EFF30980BFF36F8F134B1A681EF0100F55
:1003800008BF20ED108A20E9F04F106009B44FF04B
:10039000500080F31188BFF34F8FBFF36F8F08F0C9
:1003A00023FD4FF0000080F3118809BC196808682C
:1003B000B0E8F04F1EF0100F08BFB0EC108A80F3C9
:1003C0000988BFF36F8F7047AC010020EFF3058001
:1003D000704700000948804709480047FEE7FEE7EC
:1003E000FEE7FEE7FEE7FEE7FEE7FEE7FEE7FEE7E5
:1003F00004480549054A064B70470000916700080C
:100400008901000868680020686E0020686A002082
:10041000686A002053EA020C00F069802DE9F04B75
:100420004FF00006002B1FBFB3FA83F503FA05F463
:1004300024FA05F65E4012BF1643B2FA82F502FABC
:1004400005F4C5F120051EBF22FA05FC44EA0C04A0
:10045000203556EA044C4FEA144418BF641C4FF090
:1004600000084FF00009904271EB030C39D30029CA
:1004700019BFB1FA81F701FA07F6B0FA80F700FA6E
:1004800007F6C7F120071EBF20FA07FC46EA0C0654
:100490002037B6FBF4FCA7EB0507103F07F01F0B56
:1004A000CBF120060CFA0BFB2CFA06F644BFB34640
:1004B0000026202FA4BF5E464FF0000B5BEA060C1F
:1004C00008BF4FF0010B19EB0B09ABFB027C48EBAB
:1004D0000608C01B06FB02CC0BFB03CC71EB0C0126
:1004E000C1E70B46024641464846BDE8F08B13B5CE
:1004F0004FF000004FF00001AFF30080BDE81C405A
:10050000704700007CB51D4616460C00009001D0D7
:100510002044401E074B7B442A46694601903046E2
:1005200000F021FE05461CB10020694600F02EFEB9
:1005300028467CBD7D0C00000FB47CB50C0009AAD8
:10054000009001D02044401E084B7B446946019036
:10055000089800F008FE05461CB10020694600F02E
:1005600015FE28467CBC5DF814FB0000490C000019
:1005700070B50C460546012A05D02878800600D5BE
:10058000EA69002302E0012305E05B1C934202D2EA
:10059000E05C0028F9D1A869E618C01AA861286AA9
:1005A00018442862284600F023FB04E0D5E9012125
:1005B00014F8010B9047B442F8D3284600F02EFB04
:1005C00070BD00002DE9F041064600241068752931
:1005D000314616A510D000F032FB002802DA404266
:1005E00013A507E031688A0701D512A502E0490783
:1005F00004D511A5012401E000F02AFB00210A2204
:1006000006F1240709E0B0FBF2FCB0FBF2F302FBB9
:100610001C00303078541846491C0028F3D123467A
:100620002A463046BDE8F04100F01BBB0000000048
:100630002D0000002B000000200000002DE9F05FDD
:10064000894604464FF0000ADFF874B1FB44C0F855
:1006500020A02046E1688847002874D0252806D0CD
:10066000D4E901219047206A401C2062F1E700266E
:100670005F462046E16888472028054607DB312D84
:1006800005D2781910F8200C08B10643F1E7B0073D
:1006900001D526F00406C4F81CA00027C4F818A051
:1006A0002A2D09D0284607F083FA38B304EB8708CF
:1006B000303DC8F8185019E059F8041B204604EBE7
:1006C00087029161E1688847012F054618D1E069EA
:1006D000002820DA26F020061DE0D8F8180000EBEC
:1006E000800005EB40003038C8F818002046E1686B
:1006F0008847054607F05CFA0028EED1012F0AD0A2
:100700002E2D08D12046E16888477F1C0546022F20
:1007100046F02006C4DBA069002803DA404246F018
:100720000106A061F00701D026F010066C2D0BD059
:10073000682D09D04C2D39D06A2D35D0742D35D087
:100740007A2D33D016E038E0E1682F4620468847FE
:10075000B842054609D16C2F26D04FF48060E1687D
:10076000064320468847054604E06C2F1AD04FF414
:10077000807006430DB3A5F14100192802D8203539
:1007800046F400664A462946204626604E46FFF754
:1007900055FD80B101280BD0F61D26F0070000F1B1
:1007A000080956E74020E4E78020D8E70020D6E794
:1007B00006F104094DE7284652E7206ABDE8F09F9C
:1007C00088A700000FB400B58DB010A90990009162
:1007D0000B904FF0FF300A9000200C9006487844B0
:1007E0000690064878446A4607900F9909A801F0D8
:1007F0009FF80DB05DF814FB6F1100008711000029
:100800002DE9FF5F1D464FF0FF3B91464FF000087A
:100810005F46D5E90146A96901987F1C8847296A86
:10082000824688470028F6D1BAF1FF3F0CD0002E4F
:1008300024F4C06419DD600614D5BAF12B0F09D079
:10084000BAF12D0F0ED103E0584604B0BDE8F09F79
:1008500044F48064A96901987F1C8847761E82460B
:10086000002E02DDBAF1300F03D0B9F1000F26D00F
:1008700032E0A969761E01987F1C44F40074884711
:10088000002E824605DDBAF1780F06D0BAF1580F76
:1008900003D0B9F1000F10D01EE0B9F1000F02D063
:1008A000B9F1100F18D1A969761E01987F1C24F4A4
:1008B000007488478246102002E0082000E00A20E9
:1008C000814609E0A96908FB0908761E01987F1C8A
:1008D00044F4007488478246002E05DD49465046A0
:1008E00000F096FD0028EDDAE96901988847A00537
:1008F00002D46FF00100A8E7E00725D1600613D508
:10090000600502D5C8F1000000E0404629680A1DD4
:100910002A600968220501D5087015E0220701D573
:10092000088011E008600FE02868011D2960006858
:10093000210502D580F8008006E0210702D5A0F845
:10094000008001E0C0F8008038467EE7014A01F0EF
:100950001FB800002C02002040EA010310B59B07DD
:100960000FD1042A0DD310C808C9121F9C42F8D019
:1009700020BA19BA884201D9012010BD4FF0FF30CA
:1009800010BD1AB1D30703D0521C07E0002010BDE0
:1009900010F8013B11F8014B1B1B07D110F8013B6C
:1009A00011F8014B1B1B01D1921EF1D1184610BD4D
:1009B000032A40F2308010F0030C00F0158011F88B
:1009C000013BBCF1020F624498BF11F801CB00F863
:1009D000013B38BF11F8013BA2F1040298BF00F8B7
:1009E00001CB38BF00F8013B11F0030300F0258074
:1009F000083AC0F0088051F8043B083A51F804CB9B
:100A0000A0E80810F5E7121D5CBF51F8043B40F860
:100A1000043BAFF30080D20724BF11F8013B11F86B
:100A200001CB48BF11F8012B24BF00F8013B00F8AF
:100A300001CB48BF00F8012B704710B5203AC0F039
:100A40000B80B1E81850203AA0E81850B1E81850CF
:100A5000A0E81850BFF4F5AF5FEA027C24BFB1E80C
:100A60001850A0E8185044BF18C918C0BDE810407D
:100A70005FEA827C24BF51F8043B40F8043B08BF86
:100A80007047D20728BF31F8023B48BF11F8012B4D
:100A900028BF20F8023B48BF00F8012B704702F046
:100AA000FF0343EA032242EA024200F095BF4FF0FF
:100AB000000200B5134694469646203922BFA0E8AE
:100AC0000C50A0E80C50B1F12001BFF4F7AF0907BA
:100AD00028BFA0E80C5048BF0CC05DF804EB8900AB
:100AE00028BF40F8042B08BF704748BF20F8022BEE
:100AF00011F0804F18BF00F8012B704710B5044665
:100B000010F0030F08BF11F0030F40F015804FF0F5
:100B1000013E121FC0F20E8051F8043BA3EB0E0CF5
:100B20002CEA030C1CEACE1C08BF40F8043BF0D0B2
:100B3000A1F1040102F10402521E08DB11F8013B8D
:100B4000002B00F8013BF7D1114600F043FF20468F
:100B500010BD00004FF0013C50F8042B51F8043B4D
:100B60009A4221D1A2EB0C03934313EACC1317D181
:100B700050F8042B51F8043B9A4215D1A2EB0C0318
:100B8000934313EACC130BD150F8042B51F8043BD8
:100B90009A4209D1A2EB0C03934313EACC13DBD0A6
:100BA0004FF00000704700BFD01A01BAB1FA81F1CE
:100BB00001F0180122FA01F0CB40C1F12001DBB2B3
:100BC000C0B2C01A2CFA01F3D11A914311EAC31131
:100BD000E6D1704770477047704710B500F020FFAE
:100BE000006810BD10B5044600F01AFF046010BD87
:100BF00070B5044685690068C10601D5302600E05D
:100C00002026C00707D070BDD4E9012130469047A7
:100C1000206A401C20626D1EF6D570BD70B504467A
:100C200085690078C00707D170BDD4E90121202073
:100C30009047206A401C20626D1EF6D570BD096881
:100C40004A0501D540B27047C905FCD500B27047CE
:100C500009684A0501D5C0B27047C905FCD580B204
:100C600070472DE9F0470D4699469246044600F13B
:100C700024080168880604D5E06921F0100121608C
:100C800000E00120A84201DD471B00E00027A16928
:100C90007A1902EB0900081AA0612078C00602D474
:100CA0002046FFF7A5FF002608E0D4E901211AF845
:100CB00006009047206A401C761C20624E45F4DBFB
:100CC0002078C0060AD52046FFF792FF06E0D4E957
:100CD000012130209047206A401C2062381EA7F175
:100CE0000107F4DC07E0D4E9012118F8050090477A
:100CF000206A401C2062281EA5F10105F3DC204675
:100D0000FFF78CFF2078000602D50220BDE8F087AF
:100D10000120FBE711680268006A530501D50870DD
:100D20000AE0D30501D5088006E0130603D5C217F3
:100D3000C1E9000200E008600120704770472DE91A
:100D4000FF4F0C461E464FF0FF378BB0D2E9000133
:100D5000DDF860800A908A46C1F30A5505B93D4620
:100D6000002108464FF00000BAF1000F00F44000E7
:100D700005DA00EB80004FF4400101EA50004FEA31
:100D80009059B9F1010F00DDB9460A9850EA4A00BE
:100D90000ED044F61050A5F2FF3545432F14B8F19C
:100DA000000F1ED07542291E1EDDC9F100021CE095
:100DB000B8F1010F4FF0000001D0302103E0F24301
:100DC00005E02154401CB042FBDB304600220021EC
:100DD00021540B99C1F80880C1E900200FB0BDE88B
:100DE000F08FBD1B6D1CDEE74A4600DA694206A89B
:100DF00001F0F6F906AB93E8070003AB83E80700C0
:100E000050460A9901F01BFD8DE80700A0F500503F
:100E10001F3800900398002D0ADD42F21F014A4658
:100E20000844002303A90390684601F0C7FF09E0C6
:100E3000A0F500504A461F38002303A903906846D6
:100E400001F0E6FF8DE807000004000C03D04FF02E
:100E5000FF30410800E01046B8F1000F03D0002237
:100E6000009215461EE0751E05D400F0DDFD3032FF
:100E700062556D1EF9D5B3460122084302D0002207
:100E80007F1C04E02078302801D100227F1E002A38
:100E9000099784D01DE0112D07DA00F0C5FD30322E
:100EA00062556D1C50EA0102F5D1084302D000984A
:100EB000C8B10EE00021681E05E0235C625C63544B
:100EC0002254401E491C8142F7DBAB46A81B401E42
:100ED0000990002004F80B000B98099AC0F80880CC
:100EE000C0E9002B7AE711264FF0000857E72DE9FB
:100EF000F04F88460446D21D22F0070191B0D1E997
:100F00000001CDE90A0106F06FF902460B98C00F07
:100F100001D02D2007E02068810701D52B2002E0B9
:100F2000202101EAC000032A099001D0072A05DB2D
:100F300003464146204600F043FF0BE1207880063F
:100F400001D5E06900E00620B8F1650F814606D0C2
:100F5000B8F1660F18D0B8F1670F70D131E00020FA
:100F6000B9F1110F009001DB112301E009F1010338
:100F70000AAA01A90CA8FFF7E2FEDDE90C70002621
:100F800009F10105834647E001204B4600904FF0F0
:100F900000470AAA01A90CA8FFF7D1FEDDE90DB0B0
:100FA0000C995D46002610B909F101000D18B9EB46
:100FB000050003D4C0F1FF3609F10105A5EB0900D6
:100FC0002BE0B9F1010F01DA4FF001090020B9F16E
:100FD000110F0090484601DD112300E003460AAAE4
:100FE00001A90CA8FFF7ABFEDDE90C704D46002609
:100FF0008346207800070AD4AB4500DA5D4601A895
:10100000012D04DD411911F8011C302907D04F458D
:1010100002DA17F1040F04DA012082460FE06D1E98
:10102000EEE7002F02DCED1B3E4403E0781CA842F3
:1010300000DD7D1CB81B00F1010A4FF0004720784D
:10104000000703D4AA4501DB4FF0FF3A0021B7F1B6
:10105000004F0DF143088DF8431024D002202B23BC
:10106000002F01DA7F422D230A21021EA0F1010088
:1010700000DC5FB197FBF1FC97FBF1F201FB1C7CFC
:1010800017460CF1300C08F801CDEEE7A8F101008D
:1010900003702188090501D5452100E06521A0F1F3
:1010A000010800F8011C09980FA9A1EB0807FF1D12
:1010B00000B10120411901EBEA70A1693844081A16
:1010C000401EA0612078C00602D42046FFF790FDA4
:1010D000099828B1D4E901219047206A401C206278
:1010E0002078C00622D52046FFF782FD1EE0002EA4
:1010F00004DBB34502DD01A8805D00E03020D4E9C7
:1011000001219047206A401C2062761CAAF1010050
:101110005FEA000A0AD100F07FFCC0680168405C09
:10112000D4E901219047206A401C2062281EA5F1C5
:101130000105DCDC07E0D4E9012118F8010B904738
:10114000206A401C2062381EA7F10107F3DC20460C
:10115000FFF764FD032011B041E6000001694A1C5D
:1011600002610878704700B58FB0CDE901310021E8
:10117000059105497944CDE9031011466846FFF70A
:101180005DFA0FB000BD0000E5FFFFFF0A6802F83E
:10119000010B0A607047D1E900239A4202D2531C26
:1011A0000B601070704710B5436913B1AFF3008046
:1011B00001E0FFF7DDF9012010BD127800F12401F4
:1011C0000A7000224A700122EDE711684FF0FF32E9
:1011D000E9E700002DE9FF5F15468A460446DFF87F
:1011E000AC80F8440027D8E900103E46CDE9001055
:1011F00010E03AF816106A4602A801F063F8411CA4
:1012000007D02178890603D5E269391891420DD8B3
:101210000744761C2078800602D5E069B84205DDD7
:10122000AE42E6DB3AF816000028E2D1A069C01B06
:10123000A0612046FFF7DCFCD8E90010CDE90010E2
:10124000002017E03AF818106A4602A801F03AF8B0
:10125000B0F1FF3F81460BD000250DF1080B05E0F2
:10126000D4E901211BF8050090476D1C4D45F7D3CB
:1012700008F10100B0428046E4DB206A3844206275
:101280002046FFF7CBFCBDE8FF9F0000069C000056
:101290002DE9F0418046D21D22F007020025D2E957
:1012A0000002F52915A614D0011E72F1000106DA1C
:1012B0000023D0EB030063EB020211A608E0D8F88C
:1012C00000108B0701D50FA602E0490701D50EA635
:1012D00001251146002408F1240704E000F0A4FBD6
:1012E00030323A55641C50EA0102F7D12B4632469F
:1012F00021464046BDE8F041FFF7B3BC00000000C6
:101300002D0000002B0000002000000030B4002160
:1013100000F1240408E002F00705D208303542EA63
:101320004372DB086554491C52EA0305F3D1046893
:10133000002310A2250707D5A40600D421B1C46953
:1013400001230DA2641EC46130BCFFF78ABC10B536
:10135000044621461068FFF77BFC02462046BDE8A4
:1013600010400023D2E7D21D22F00701D1E900236B
:10137000CCE700000000000030000000F0B40D4693
:101380000188090502D5214C7C4402E01F4C7C44B5
:101390000E34002100F1240608E002F00F071209C4
:1013A000E75D42EA03721B097754491C52EA0307BE
:1013B000F3D102780023120704D5702D06D009B1AD
:1013C000022311342246F0BCFFF74BBC012310343A
:1013D000F8E770B504460D4621461068FFF738FC63
:1013E000024629462046BDE870400023C6E7D21DCC
:1013F00022F00703D3E90023C0E70368126843F033
:10140000200303600823C3610023B7E7689A000044
:101410003A2800D2303820F02002412A01D3A2F12C
:101420003700884201D34FF0FF3070472DE9FF4F5E
:1014300006468BB00878FF2806D0491C2D2805D019
:1014400000244FF0000908E000200CE00124F8E738
:1014500009EB8903491C00EB43090878FF28F7D101
:1014600014B1C9F100008146107800252C46AA4627
:1014700029462D2801D02B2804D1521C2D2813D009
:10148000002082468B461078FF280FD04FF0000CCA
:101490000A21521CA5FB017804FB018105FB0C11FC
:1014A000C5194BEB0104EEE70120EAE700210846ED
:1014B0004FF00000BAF1000F02D000EB80004008AE
:1014C000C0F38157012F01DD4FF0FF370E9955EA28
:1014D000040009EB01080BD04FF0020918F5FA7F60
:1014E00016DA4FEACA70002F706008DD012007E0AD
:1014F0004FEACA70C6E900B00FB0BDE8F08F002017
:10150000306000F08DFAC0F800901821084616E00F
:10151000B8F5FA7F18DD002F02DAF748784401E0C9
:10152000F6487844D0E90010C6E9001040EACA70D5
:10153000706000F075FAC0F80090142108460FB0F2
:10154000BDE8F04F08F0B1BD002108464FF00000A3
:10155000B8F10001099002DAC7F1000200E03A4652
:1015600001DAC8F1000106A800F03AFE06AB93E8E4
:10157000070003AB83E8070044F23E005BEA040186
:101580000090584604D144F21E012C465D4600915D
:10159000210C0904014306D10099240444EA1544AE
:1015A0002D041039009104F07F41014306D10099C8
:1015B000240244EA15642D020839009104F07041B8
:1015C000014306D10099240144EA15742D01091F35
:1015D000009104F04041014306D10099A40044EA7F
:1015E0009574AD00891E009104F00041084304D1B8
:1015F00000986D196441401E00904FF001033A4677
:101600006846B8F1000FCDE9014503A902DD01F0FC
:1016100014FC01E001F0E7FBBAF1000F04460D46AF
:1016200001D084F00044002108464FF000000999E1
:1016300040F2FF77484010F00C0F07D124F0004033
:10164000284303D0C4F30A50B84212D100F0E8F99D
:10165000C0F80090C4F30A50B8420AD1A8487844B0
:10166000D0E90010C6E9001004F0004108437060A2
:1016700042E7C6E900543FE72DE9FF4F1F464FF010
:10168000000A4FF0FF38454691B0D7E90146CDF842
:101690003CA000F0C1F9C0680168405C1090B969D5
:1016A00012986D1C8847396A814688470028F6D110
:1016B000B9F1FF3F0AD0002E24F4D06411DDB9F156
:1016C0002B0F08D0B9F12D0F0BD102E0404615B019
:1016D00013E744F48064B96912986D1C8847761E3C
:1016E0008146600504A901D52D2000E02B20002EA5
:1016F00001F1010B0DF130088DF810003FDDB9F15B
:10170000690F08D0B9F1490F05D0B9F16E0F02D0B9
:10171000B9F14E0F1CD13B4601A8009580E850025C
:10172000DDE912126FF0020008F02AFDC11CCED1D3
:101730000EE0B96912986D1C884781461398761E91
:1017400044F4007405600F98401C002E0F9016DDC5
:10175000B9F1300FEDD0B9F1780F02D0B9F1580FCF
:101760000DD10F9801280AD13B46CDE90054DDE99F
:101770001212001F029608F001FDC11CA7D110999A
:1017800089453ED144F0800406E01399681CAAF113
:10179000010A44F400740860B9696D1C1298761E41
:1017A000884730288146F0D02BE01099894505D133
:1017B000200603D4761E44F0800418E0484606F064
:1017C000F7F908B3761E0DF123018B4544F400743C
:1017D00008D2A9F130000BF8010B200607D5AAF1B9
:1017E000010003E0200602D40AF101008246A005B0
:1017F00002D51399681C0860B96912986D1C884756
:101800008146002ED1DC53E0002E51DDB9F1650F89
:1018100002D0B9F1450F4BD1A00549D5B9696D1C6E
:101820001298761E24F440748847002E81460CDD01
:101830002B2804D0B9F12D0F07D144F48074B96975
:1018400012986D1C8847761E8146E00501D52D2132
:1018500000E02B2108F8011BCDF8008021E0761E66
:101860000DF13901884544F400740CD2A9F130001F
:1018700010F0FF0088F8000002D10099884509D9CE
:1018800008F1010806E0E00501D51E4801E042F23A
:101890000F708246B96912986D1C8847814613986B
:1018A0000560002E04DD484606F082F90028D6D1F6
:1018B000F96912988847FF2053468BF8000088F892
:1018C000000000200A900B9004AA0CA90AA8FFF7B8
:1018D000ADFDA00502D46FF00100F8E614F0240F6E
:1018E00012D0E0071CD13868DDE90A12031D3B6005
:1018F0000068C0E9001213E0609A0000529A0000EC
:1019000016990000F1D8FFFF0AA9684606F092F880
:10191000E00705D13868009A011D3960006802604F
:101920002846D4E6026811441378016018467047CF
:10193000D16005497944516104497944116200211B
:101940001161114600F092BAEDFFFFFF7501000032
:10195000426842B1016811F8013B23B1521EC0E94F
:101960000012184670470121C160881E7047426806
:101970005AB1C368016843B983688B4205D0491ED8
:10198000521CC0E90012002070474FF0FF30704732
:101990002DE9F04115460E46040002D12C6804B929
:1019A0000BA4204600F0BEFC0444207870B127460A
:1019B0003146384600F0A6FC0444207810B10020DF
:1019C00004F8010B38462C60BDE8F0810027F9E7E8
:1019D000000000004FF000020429C0F0128010F057
:1019E000030C3FF466A8CCF1040CBCF1020F18BF45
:1019F00000F8012BA8BF20F8022BA1EB0C01FFF788
:101A000058B85FEAC17C24BF00F8012B00F8012B15
:101A100048BF00F8012B7047004870472868002035
:101A2000004870470868002030B5B0F10A024FEA5C
:101A3000900E71F100034EEA817EB0EB0E0061EB77
:101A400091014FEA101E4EEA017E10EB0E0041EBB1
:101A500011114FEA102E4EEA016E10EB0E0041EB11
:101A600011214FEA104E4EEA014E10EB0E0041EBF1
:101A70001141401841F100014FEAD00040EA4170A5
:101A80004FEAD10110EB80054FEA810444EA9074DB
:101A900044EB01046D1944EB0404521BA3414FF0C5
:101AA000000348BF0A3200D530BD401C41F100019F
:101AB00030BD10B5044600F06DFC0068005D00F01C
:101AC000010010BD2DE9F04F04460D46D21D22F055
:101AD000070089B0D0E900974846394605F084FBF5
:101AE0000246F80F01D02D2307E02068810701D5B9
:101AF0002B2302E0202101EAC0038DF820300BB136
:101B0000012000E00020032A824601D0072A04DBDE
:101B10002946204600F054F93FE12078800601D4A0
:101B20000D2500E0E569C7F30A560D2D49DA0021BD
:101B30004FEA175B08464FF00000002F00F440000A
:101B400007DA00EB80004FF4400100EBD07001EAAF
:101B500060008115012901DD4FF0FF3100224FEABD
:101B6000850CBCF1180F06D31346ACF118004FF0EA
:101B70008052C24003E04FF4801323FA0CF30CF1BF
:101B80000C0CBCF1200F04D3ACF1200C09FA0CF0C2
:101B900001E007FA0CF000294FF0004801DD18B908
:101BA0000FE00ED140450CD319EB02095F4121B97A
:101BB000404502D19F4329EA0209BBEB175F00D0E1
:101BC000761C2088000502D57B48784402E07A48DC
:101BD0007844193808AA302302F80A30037C0AF145
:101BE0000101002E0AF1020A53546A4602DC4FF04A
:101BF000300101E04FF031014FF001088DF8001085
:101C000002D0A6F2FF3603E059EA470100D06B4E3E
:101C1000002D02DC2178090704D54FF002082E219F
:101C20008DF80110C44600210BE0C7F303433F01C8
:101C3000C35C491C6D1E02F80830052908F1010833
:101C400001DA002DF1DC00210CE000EB1973491CD6
:101C50001B786D1E082902F808304FEA091908F1AF
:101C6000010801DA002DF0DC21688B0602D516E0B0
:101C7000A8F10108E04505DD02EB080313F8013C7B
:101C8000302BF5D0B8F1000F09DD02EB080313F893
:101C9000013C2E2B03D1090701D4A8F10108002D26
:101CA00005DD3E2102F808106D1E08F10108407C98
:101CB000002E02F8080008F1010804DA2D2076420F
:101CC00002F8080002E02B2002F808000A214FF475
:101CD0007A70864208F101080BDB96FBF0F3303393
:101CE00002F8083096FBF0F308F1010800FB1366D8
:101CF00001E0642E0CDB642096FBF0F3303302F835
:101D0000083096FBF0F308F1010800FB136601E0D0
:101D10000A2E06DB96FBF1F0303002F8080008F1DD
:101D2000010896FBF1F001FB1060303002F808006A
:101D3000A16908F1010808EB050202EB0A00081A84
:101D4000A0612078C00602D42046FEF751FF216A28
:101D500008AE01EB0A00206204E0D4E9012116F884
:101D6000010B9047BAF1010AF7D22078C00602D5DC
:101D70002046FEF73DFF6E4609E016F8010B3E28AF
:101D80000FD0D4E901219047206A401C2062B8F1AD
:101D90000108F2D22046FEF741FF09B00320BDE85A
:101DA000F08F206A2844206203E0D4E9012130202A
:101DB00090476D1EEBD3F8E78192000002FCFFFF15
:101DC0002DE9F0411F46044603260168072A01F465
:101DD000006004DB08B116A505E016A503E008B114
:101DE00015A500E015A521F010002060A069C01E17
:101DF000A0610FB1401EA0612046FEF7F9FE4FB171
:101E0000D4E9012138469047206A401C2062C01C5A
:101E1000206206E0206AFAE7D4E9012115F8010BF7
:101E20009047761EF8D22046FEF7F8FEBDE8F08116
:101E30004E414E006E616E00494E4600696E66006E
:101E400010B5436913B1AFF3008001E0FFF7C2F9A9
:101E5000012010BD128800F1240182840022C28476
:101E60000122EDE711684FF0FF32E9E72DE9F34F6A
:101E70004FF0000A0C4656468DB001200C9001F13F
:101E80000C000B9062690B9801219047051E2DD024
:101E9000252D2CD0216A8847C0B162690B98012199
:101EA0009047216A88470028F7D16269411E0B9844
:101EB000904700E0761CA1690D988847216A884701
:101EC0000028F7D1E1690D988847DBE7A1690D98F3
:101ED0008847A842074601D1761CD3E7E1690D98EF
:101EE00088477F1C02D1BAF1000F6FD06BE16269A5
:101EF0000B9800273D46394690472A2804D162694D
:101F00000B98012190470125DFF8D08262690B9878
:101F100001219047A0F130010A290AD24745E5DCAA
:101F200007EB870100EB4107303FDFD445F0100598
:101F3000ECE7E90601D46FF000476C280AD04C2882
:101F400014D0682815D06A280DD074281CD07A289F
:101F50001AD01DE062690B98012190476C2802D0CD
:101F600045F0040514E045F002050DE045F02005BC
:101F70000AE062690B9801219047682802D045F079
:101F8000080505E045F4006562690B98012190475A
:101F9000C4E9015765283DD019DC58287AD00CDCFB
:101FA000452837D004DC252826D041289ED131E0B1
:101FB00046282FD0472899D12CE05B2877D061287C
:101FC00028D063287CD0642823D15AE0F6E06F281B
:101FD00048D008DC66281DD067281BD0692821D08E
:101FE0006E2816D127E0702845D0732868D0752850
:101FF00047D078280DD14DE0A1690D988847252854
:1020000005463FF469AFE1690D9888476D1C3FF4C0
:102010006AAFD8E00D9923466A466FF0010008F0D8
:10202000ABF8C5E045F0400023464FF00002606089
:10203000A80736D43EE0E8077FF447AF2068011DCB
:1020400021600068290501D506701BE7290701D525
:10205000068017E7A90703D5F117C0E9006111E76A
:1020600006600FE745F0400023464FF0080260602D
:10207000A80716D41EE040F60E0125EA01006060B4
:1020800016E045F0400023464FF00A026060A807C2
:1020900007D40FE045F040006060A80708D523464C
:1020A00010220D996FF00100AFF3008080E007E08F
:1020B000102223460D996FF00100FEF7A1FB77E097
:1020C0004FF0000963284F46C8464B46CB4602D026
:1020D0005B2806D038E0E80601D40120A060012783
:1020E00032E06269D4F80CB00B98012190475E2869
:1020F00007D14FF0010949466269D4F80CB00B983A
:102100009047216939B900210A4603AB43F82120E1
:10211000491C0829FADBD8B3216949B308F1010841
:1021200062690B98012190475D28F4D1B9F1000F45
:1021300009D0002003A951F82020D24341F82020E3
:10214000401C0828F7DB03AB2069002820794FEA00
:1021500040701ED05B462246CDF80080CDE9019745
:102160000D9900286FF0010020DAAFF300801FE026
:10217000C11703AA00EBD1614B1121F01F0102EB43
:102180008302411A13680120884003431360C7E7A4
:1021900019E00D99224600286FF00100009702DA3D
:1021A000AFF3008004E0AFF3008001E0AFF3008004
:1021B00000280ADA401C06D10C9820B14FF0FF30FD
:1021C0000FB0BDE8F08F5046FAE7E90701D10AF1F8
:1021D000010A064400200C9054E60000CCCCCC0C44
:1021E0002DE9F047814616468AB0354878440DC837
:1021F0008DE80D0032487844801C03AC0DC884E89B
:102200000D0041F69B300844372190FBF1F290FB22
:10221000F1F5A5F1800501FB12041B3C02D56442D7
:10222000012000E00020DFF898A080460027FA4453
:10223000AAF1BE0A0EE0E0070AD03246684607EB74
:10224000470101230AEB810100F0E2FD8DE8070060
:1022500064107F1C002CEED1194F7F44AE3F19E073
:10226000E80715D007EB04100DF1180A90E80E00EE
:102270008AE80E00C068F04201D1981908903246F1
:10228000012306A903A800F0C3FD03AB83E8070000
:102290006D10641C002DE3D14FF0010332466946F6
:1022A000B8F1000F03A802D000F088FD01E000F0B3
:1022B000AFFDC9E90001C9F808200AB0BDE8F08700
:1022C000F08C000070B516460C46054600F062F82A
:1022D000036893F80101012806D0FF2C0FD8185D80
:1022E00068B101202C7070BDD3F807013246214639
:1022F00003F2071303442846BDE8704018474FF027
:10230000FF3070BD30B503461D781DB10A4603E0AD
:10231000AC4201D1181A30BD12F8014B002CF7D194
:102320005B1CF1E730B503461D783DB10A4612F853
:10233000014B1CB1AC42FAD15B1CF5E7181A30BD59
:1023400000487047086800207546FFF7F9FFAE4661
:1023500005006946534620F00700854618B020B5B1
:10236000FEF746F8BDE820404FF000064FF00007AA
:102370004FF000084FF0000B21F00701AC46ACE82D
:10238000C009ACE8C009ACE8C009ACE8C0098D469A
:102390007047000010B5FFF73FFB001D10BD00BFE8
:1023A000057800002DE9FF4F1F464FF03C0987B02C
:1023B0004FF00042DDE9141001F10108DDF858A0EA
:1023C00002EA4050039000200590834605460446EB
:1023D0000490B969461E08988847AAF1010A02903C
:1023E000BAF1000F3BDD02982E2815D01021FFF71F
:1023F0000FF800282EDB4FF0010B0599014317D091
:10240000B9F1000F0BDB4A46C11700F0FEF9054396
:102410000C43A9F1040905E0012004900BE008B188
:1024200045F0010501200590049820B9361D02E011
:10243000049800B1361FB969089808F10108884767
:10244000BBF1000FAAF1010A0290C9D00999C1F8A5
:102450000080C5E70298702808D0502806D0F96996
:1024600008988847BBF1000F14D04FE0002002907D
:102470000120BBF1000F049009D0B969089808F158
:1024800001088847AAF10109B9F1000F07DCF969D1
:10249000089888476FF001000BB0BDE8F08F2B283B
:1024A00004D02D280CD14FF0FF300490B969089862
:1024B00008F101088847A9F10109B9F1000FE6DD2B
:1024C000411CE4D00A21FEF7A3FF0028DFDB0299BC
:1024D00008F1010801EB810100EB41000290B969AC
:1024E000089888470A21FEF793FF099AA9F1010984
:1024F000B9F1000FC2F8008001DD0028E7DAF969C0
:10250000089888470499029800FB016655EA040080
:1025100004D004F04041090002D006E0039898E09E
:10252000A40044EA9574AD00B61E04F00041080012
:1025300002D16D196441761E159810F0240F03D056
:102540004FF00B095C4803E04FF028096FF07D0065
:102550008246564507DAAAEB06018944B9F1410FD4
:1025600001DD4FF0410901200021A9F1010200F035
:102570004CF9024628400B462140084301D0012176
:1025800000E00021501E029143F1FF31284021401C
:10259000084301D0012000E000200299834651EA5F
:1025A0000B014FD0002108464FF00000039900F4C2
:1025B000400039B100EB80004FF4400100EBD070D7
:1025C00001EA60008015012802DD4FF0FF3000E0D5
:1025D00013D0401C36D0029860B3BBF1000F0CD171
:1025E0004A460120002100F010F92840214008430C
:1025F00001D0012000E00020E0B101204A46002186
:1026000000F003F9034640190A4661412D1A8C4136
:1026100011D3B9F1400F09DD159810F0240F02D045
:10262000AAF1340603E0AAF1170600E0761C0025A3
:102630004FF0004406E05B1E42F1FF3220EA030542
:1026400021EA0204CAF10100B04206DA1B490398EC
:1026500008430190002000900EE0039AC4F3D321B8
:10266000E80A0A43164940EA44500A433146CDE994
:102670000002684605F092FA159810F0240F0BD06E
:102680001598C00715D13868DDE90012031D3B60BD
:102690000068C0E900120CE002A8694605F0CAF91A
:1026A0001598C00705D13868029A011D3960006885
:1026B00002604046F0E6000002FCFFFF0000F07FF1
:1026C0000000F03F2DE9FF4F92461D4685B04FF0C8
:1026D0000041DDE9124BDDE914727F1E01EA4B5027
:1026E000414940F0FF4940EA0108002122F0200062
:1026F0004928049102D04E2828D04CE03BA0012666
:1027000007C88DE80700A9690698641C88477F1EE2
:10271000014606D41DF8060018B121F020018142BF
:102720000BD0E96906988847032E34D0082E32D0A2
:102730006FF0010009B0BDE8F08F761C032E01D0C8
:10274000082EE0D1601CCAF80000DCE7A9690698F1
:10275000641C88477F1E2AD420F02000412826D1FF
:10276000A9690698641C88477F1E20D420F02000A9
:102770004E281CD1A9690698641C88477F1E48F41E
:10278000002849F48009CAF8004001D4282806D05E
:10279000E969069888475FEACB7012D022E0A96900
:1027A0000698641C88477F1E01D4002803DAE96973
:1027B00006988847BCE72928F1D1641CCAF8004074
:1027C000E9E71BF0240F07D028680499031D2B604C
:1027D0000068C0E9001805E02868021D2A6000684A
:1027E000C0F800902046A5E70000F07F494E46491A
:1027F0004E4954590000000010B50446AFF3008064
:102800002046BDE81040FDF77EBDB2F120030AD599
:10281000C2F1200301FA02F120FA03F300FA02F0F8
:1028200041EA0301704700FA03F14FF000007047DE
:1028300001491820ABBEFEE72600020070475FEAA0
:10284000400C08BF91F0000F4FEA8C234FEAC122E1
:1028500043EA51514FEA1C5018BF00F5F0404FEACF
:10286000300018BF41F000415FEA6C5C00F0298045
:10287000BCF1FF3F08BF40F080407047130C06BF1B
:1028800012044FF0100C4FF0000C130E04BF120294
:102890000CF1080C130F04BF12010CF1040C930F80
:1028A00004BF92000CF1020CD30F04BF52000CF1D4
:1028B000010C11464FF00002A0F11F00A0EB0C002C
:1028C000704711F0004F08BF704731F000413FF4EE
:1028D000D5AF0B0C06BF09044FF0100C4FF0000CE5
:1028E0000B0E04BF09020CF1080C0B0F04BF090109
:1028F0000CF1040C8B0F04BF89000CF1020CCB0F00
:1029000004BF49000CF1010CCCF12003A0EB0C003A
:1029100022FA03F302FA0CF241EA030100F101008A
:10292000704720F07F4C80EA030023F07F47ACEB38
:10293000070303F57C5300F0004003F1FF032DE98A
:1029400080494FEA154B09B44FEA144325EA0B4E70
:1029500024EA03480FF2042606EB132749083E78C1
:102960005FEA320203FB0667C7F5000707FB06F6BE
:102970004FEA54374FEAD64606F1020607FB066CCB
:10298000CCF1005C4FEA1C472CEA074C07FB06F42D
:102990000CFB06F504EB15464FEA961634BF0020F3
:1029A0004FF000404FEAD13706FB07FC4FEA1C4CC2
:1029B0000CFB0BF7D21B03FB0CF761EB07010CFBC5
:1029C0000EF7B0EB074072EB17420CFB08F734BF71
:1029D000A2EB0742B2EB074261EB17414FEA0C440E
:1029E0004FEA910706FB07FC4FEA1C4C0CFB0BF768
:1029F000B0EBC74072EB573203FB0CF734BFA2EBCE
:102A0000C742B2EBC74261EB57310CFB0EF7B0EB9C
:102A1000C70072EB57720CFB08F734BFA2EBC7027A
:102A2000B2EBC70261EB5771039F4FEA816141EA44
:102A3000921104EBCC044FEAD1374FEA826206FBD5
:102A400007FC42EA90124FEA80604FEA1C4C0CFBF4
:102A50000BF7D21B03FB0CF761EB07010CFB0EF726
:102A6000B0EB074072EB17420CFB08F734BFA2EB48
:102A70000742B2EB074261EB17414FEA8C554FEA30
:102A8000910704EB9C2406FB07FC4FEA1C4C0CFB53
:102A90000BF7B0EBC74072EB573203FB0CF734BFB8
:102AA000A2EBC742B2EBC74261EB57310CFB0EF70A
:102AB000B0EBC70072EB57720CFB08F734BFA2EB08
:102AC000C702B2EBC70261EB577115EB4C254FEA19
:102AD000816141EA92114FEA82624FEAD13742EABC
:102AE000901206FB07FC44F100044FEA80604FEAB5
:102AF0001C4C0CFB0BF7D21B03FB0CF761EB070123
:102B00000CFB0EF7B0EB074072EB17420CFB08F71B
:102B100034BFA2EB0742B2EB074261EB174115EB62
:102B20001C154FEA813141EA92414FEA823242EA72
:102B300090424FEA80304FEA0C7644F1000448EAB4
:102B400003434EEA0B484FF0000EB2EB080C71EB5A
:102B5000030724BF624639464EEB0E0E4FF0000BC2
:102B60000018524149414BEB0B0BB2EB080C71EBD7
:102B700003077BF1000B24BF624639464EEB0E0E75
:102B80004FF0000B0018524149414BEB0B0BB2EBDD
:102B9000080C71EB03077BF1000B24BF624639463A
:102BA0004EEB0E0E51EA020718BF46F0010616EB77
:102BB0000E7655F1000254F1000103D5BDE88901FC
:102BC000BDE80088BDE88901BDE80048B61952415A
:102BD00041EB0101A3F10103704780807F7E7D7C82
:102BE0007B7A7978777676757473727171706F6E9F
:102BF0006E6D6C6C6B6A6A6968686766666564644A
:102C0000636362616160605F5F5E5E5D5D5C5C5BD3
:102C10005B5A5A5959585857575656555555545442
:102C2000535352525251515050504F4F4F4E4E4DA0
:102C30004D4D4C4C4C4B4B4B4A4A4A4949494848EC
:102C4000484747474746464645454544444444432C
:102C500043434342424242414141000046EA064664
:102C6000A3F570534FEA164646EA42564FEAD2227F
:102C700042EA415210B54FEAD121A3F1010300F01D
:102C80002FF820F0004000F1020C00F0004701EBAB
:102C900000501146BCF5006F40EA070000D210BD9D
:102CA000BAF1000F0AD01CB503B44FF004004FF086
:102CB00004014FF000000FBCBDE810404FF00001D0
:102CC000BBF1010FB9BF04484FF0FF3103480021A9
:102CD00040EA070010BD00BFFFFFEF7F0000F07F5C
:102CE000002B9C4630D477002BD01CB54FEA370719
:102CF00003B44FF010004FF01001BAF1000F06D0EE
:102D0000BCF1000FDCBF40F0080040F008014FF0BC
:102D100000000FBCBDE810400BF1010BBBF1010F2F
:102D200008BF5FEA170722BF12F1010211F101018A
:102D30004FF0004143F1000300F0004043EA00007F
:102D40007047F9D35708D0E746EA064613F1400F1B
:102D50004FEA16461FDD13F1200FDFBF16430A4668
:102D6000002120335B42BED0C3F1200746EA06466D
:102D700002FA07F74FEA164646EA0706C3F12007AC
:102D800022FA03F201FA07F721FA03F14FF00003E8
:102D900042EA0702A7E746EA020646EA06464FEA83
:102DA000164646EA0106BCBF46EA0646360C4FF018
:102DB00000034FF000024FF0000194E72DE9804C32
:102DC0009A46934670B491E8380007C831EA400C3F
:102DD00048BF34EA430C03D5FFF7A3FDFFF780FF9C
:102DE000F0BCBDE8008C2DE9804C9A46934670B447
:102DF00091E8380007C831EA400C48BF34EA430C78
:102E000003D5FFF78EFDFFF729FFF0BCBDE8008C6E
:102E10002DE9804C9A46934670B491E8380007C873
:102E200010F0804F08BF13F0804F03D100F01AF864
:102E3000FFF756FFF0BCBDE8008C2DE9804C9A46A8
:102E4000934670B491E8380007C810F0804F08BF6F
:102E500013F0804F03D100F005F8FFF7FFFEF0BC40
:102E6000BDE8008C20F07F4780EA030023F07F4C10
:102E700007EB0C03A3F57C5300F00040A3F1FE0325
:102E800092F0000F00F0B38095F0000F00F0778013
:102E90002DE901494FEA11404FEA144621EA004862
:102EA00000FB06FC24EA064708FB06F607FB08F8C9
:102EB00000FB07F718EB06484CEB164C4FEA124B99
:102EC00018EB07484FEA15464CEB174022EA0B4E29
:102ED0000BFB06FC25EA06470EFB06F607FB0EFE7B
:102EE0000BFB07F71EEB064E4CEB164C4FF00006A3
:102EF0001EEB074E4CEB174B18EB0B0840F1000094
:102F000018EB0E0B58EB000840F100008F1A4FF041
:102F100000013CBFC943661B14BFB5EB040C002184
:102F20003CBFC943F61B4FEA17444EEA8E0E27EA10
:102F300004454FEA1C4704FB07622CEA074C05FBDB
:102F400007F70CFB05F604FB0CFC16EB074642EBFF
:102F5000174216EB0C4642EB1C421BEB060658EBE5
:102F60000202414146EA9E0601D5BDE80189B61933
:102F7000524141EB0101A3F10103BDE801894FEA90
:102F800014454FEA114724EA054621EA074C05FBA0
:102F900007F406FB07F70CFB06F105FB0CFC11EB35
:102FA000074144EB17444FEA124711EB0C4144EB45
:102FB0001C4422EA074C05FB07F206FB07F70CFB53
:102FC00006F605FB0CFC16EB074642EB174216EB28
:102FD0000C4642EB1C456A1854F1000148BF70478B
:102FE000B619524141EB0101A3F10103704795F07D
:102FF000000F37D04FEA11424FEA144721EA024648
:1030000024EA074C02FB07F106FB07F70CFB06F46A
:1030100002FB0CFC14EB074441EB17414FEA154748
:1030200014EB0C4441EB1C4125EA074C02FB07F56D
:1030300006FB07F70CFB06F602FB0CFC16EB07463B
:1030400045EB174516EB0C4645EB1C42121951F1A6
:10305000000148BF7047B619524141EB0101A3F18D
:10306000010370474FEA14454FEA114724EA054629
:1030700021EA074C05FB07F106FB07F70CFB06F2FC
:103080004FF0000605FB0CFC12EB074241EB174129
:1030900012EB0C4251EB1C4148BF7047921841EBB8
:1030A0000101A3F101037047002201230C496128AB
:1030B0000DD041280BD074280ED054280CD0732882
:1030C00001D0532802D14B708A700B7070474B703F
:1030D0008A700220087070474A708B700A707047BF
:1030E0007C0100200248002101704170817070470E
:1030F0007C0100201CB516488278002122B1817025
:10310000BDE81C4002F0D2BD0278052A1CD2DFE8DF
:1031100002F00D030E0D1200009101919FED0D0ABA
:103120000A2364220021042000F01CF91CBD0422A3
:103130000521094803E0084804220C213C3002B074
:10314000BDE8104000F00AB8002101701CBD00006D
:103150007C01002000007A44F4AC00082DE9F04125
:1031600016460F4680460025124C13E005EB45013C
:1031700008EB810090EC030A02F060FD02E03220CF
:1031800005F036FD02F01CFD10B960780028F6D17C
:103190006D1CEDB2BD4202D260780028E6D16078A5
:1031A000002805D01EB90020607002F07FFD267057
:1031B000BDE8F0817C01002038B50D4C03220BA145
:1031C000E068FDF7C9FB00280ED10025009503E05B
:1031D0006A4608A1FDF7F6FA07A10020FDF7B6FB45
:1031E0000028F5D1E068057038BD000061726D00FF
:1031F00080010020256400002C000000FEE7000094
:10320000DFED3B1AB0EE401A10B500EEA11A2DED1D
:10321000068BB0EE408AF6EE009A00EEE18ADFED12
:10322000350AF0EE418A3548B0EEE81A82B081EEF8
:10323000200AF0EEC81A9FED301AC0ED008A80ED2A
:10324000018AF5EEC08A0124009481EEA02A20EEC6
:10325000010A30EE290ABCEEC09A19EE100A22EEDD
:1032600001AA82B2F1EE10FA01DB012100E0002197
:10327000FF23032000F022F9F5EEC08A19EE100AB0
:10328000F1EE10FA009482B201DB012100E000218E
:10329000FF23022000F012F93AEE290AB5EEC08AA7
:1032A0000094FCEEC08A18EE900AF1EE10FA82B299
:1032B00001DB012100E00021FF23042000F0FEF8E3
:1032C000B5EEC08A18EE900AF1EE10FA009482B2C0
:1032D00001DB012100E00021FF23012000F0EEF8D6
:1032E00002B00020BDEC068BBDE8104000F0D6B85F
:1032F0000000C84287848543000070425C000020C3
:10330000884203DB904201DC0120704700207047B7
:10331000704700002DE9F041104D804600242868D8
:103320000F46661E50B104F091FD022806D101241B
:103330003146286804F0C8FD00280CD133463A46CF
:103340004146074801F003FD002C04D02868BDE881
:10335000F04104F016BEBDE8F0810000B40000208A
:1033600088080020FEB5B5EEC00ADDE90856F1EE8A
:1033700010FA01D800240FE09FED0A1AC0EE010AEE
:103380009FED090A20EE800AF6EE000A30EE200AD0
:10339000BCEEC00A10EE104A8DE8700000F006F88E
:1033A000FEBD000087840544000048452DE9FF4725
:1033B0000CAE96E8300214A696E8C0118DE8C01154
:1033C0008DF800008DF80210100A8DF803008DF8BA
:1033D00004208DF80530200E8DF80600200C8DF8A5
:1033E0000700200A8DF808008DF809408DF80A5072
:1033F0008DF80B900D216846FFF78CFF052000F03B
:1034000025F9BDE8FF87000000FD00000000000076
:10341000000000006B00000008B5002200926A4620
:103420008DF80000112937D2DFE801F0090B1012E6
:1034300036143616181A1C1E3620242922001F2086
:1034400000E020208DF8010002211FE02120F9E793
:103450002420F7E72720F5E73120F3E73320F1E7D1
:103460003520EFE73620EDE73720EBE73A20E9E7B4
:103470003B20E7E742208DF801006C2003E0432069
:103480008DF801007A208DF8020003216B20505442
:103490001046491CFFF73EFF08BD000008B506A115
:1034A000096800918DF8000004216846FFF732FF9B
:1034B000012000F0CBF808BD00FF666B7CB50DA6BF
:1034C000069CD6E90056CDE900568DF800008DF82F
:1034D0000210100A8DF804208DF803008DF80530D5
:1034E0008DF8064008216846FFF714FF012000F020
:1034F000ADF87CBD00F600000000006BF8B5194D7A
:10350000022217A1E868FDF727FA002826D1002437
:103510009FED150A15A18DED000A2046FDF716FA5C
:1035200005F1140612E06A4611A1FDF74BF9082CCB
:1035300008D29DED000ABCEEC00A10EE100A30550C
:10354000641CE4B209A10020FDF700FA0028EAD1CA
:103550006C7001202870E96800200870F8BD000038
:103560005152000080010020000000002C000000EB
:103570002566000072B6FEE7044890ED030A044891
:10358000D0ED000A30EE600A02F024BB28000020D3
:103590003C0000202DE9F0410446876D00F066F9FB
:1035A000064694F835000025022806D08020606584
:1035B00084F834500120BDE8F0812068016821F0D2
:1035C000160101602068416921F080014161206C91
:1035D00008B9A06C20B12068016821F008010160E1
:1035E0002068016821F0010101600CE000F03EF963
:1035F000801B052807D920206065032084F835004A
:1036000084F83450D7E720680068C007EED194F8FA
:103610005C103F208840B860012084F8350084F8B1
:1036200034500020C7E790F83510022903D08021DC
:10363000416501207047052180F835100068016858
:1036400021F00101016000207047000070B50446C0
:1036500000F00CF90546601C02D0044800780444D0
:1036600000F004F9401BA042FAD370BD9C01002079
:103670002DE9F84FDFF8BCA10022012503264FF009
:103680000F090AF1040BAAF1040E00BF0B6805FA3A
:1036900002F42340A34270D10F7907F00307012FF2
:1036A00001D0022F16D187684FEA420806FA08FCBB
:1036B00027EA0C07D1F80CC00CFA08FC4CEA070CFE
:1036C000C0F808C04768A7430C79C4F300149440BD
:1036D0003C4344600C79E443A4070AD0C4684FEA31
:1036E000420C06FA0CF7BC438F6807FA0CF7274325
:1036F000C7600C7904F00304022C12D1D40800EB4B
:10370000840CDCF820405707FF0E09FA07F824EA7A
:103710000804D1F8108008FA07F848EA0408CCF841
:10372000208004684FEA420C06FA0CF7BC430F797C
:1037300007F0030707FA0CF7274307604C6814F4F7
:10374000403F70D03C4C276847F48047276024688E
:1037500022F0030704F480440094384C07EB040C77
:10376000DCF8084897074FEA177809FA08F7BC43CE
:10377000334FB84202D1002724E054E0314FB84221
:1037800001D101271EE0304FB84201D1022719E0D4
:103790002E4FB84201D1032714E02D4FB84201D17A
:1037A00004270FE02B4FB84201D105270AE02A4F2A
:1037B000B84201D1062705E0284FB84201D10727BA
:1037C00000E0082707FA08F72743CCF80878DAF86A
:1037D00000405746D1F804C09C435FEACC2C00D58A
:1037E0001C433C60DBF800405F46D1F804C09C43BA
:1037F0005FEA8C2C00D51C433C60DEF80040774625
:10380000D1F804C09C435FEA8C3C00D51C433C606B
:10381000084F083F3C68D1F804C09C435FEACC3CA9
:1038200000D51C433C60521C102AFFF42FAFBDE8AA
:10383000F88F0000083C014044380240003001404D
:10384000000002400004024000080240000C024058
:10385000001002400014024000180240001C024008
:103860000AB1816170470904FBE7000001488068E4
:10387000704700009C01002070B5040025D094F82A
:103880003D00002520B984F83C50204600F050F956
:10389000242084F83D002068016821F001010160C6
:1038A0002068016841F4004101602068016821F44A
:1038B0000041016000F0F6FA4D4A6168914201D87A
:1038C0004C4900E04C49884201D2012070BD4B496F
:1038D0002368B0FBF1F15E6826F03F060E435E60A0
:1038E0006368934206D94FF4967359434FF47A7341
:1038F000B1FBF3F12368491C1E6A26F03F063143F1
:1039000019626168914210D84900401EB0FBF1F283
:10391000521CC2F30B02042A01D2042022E0B0FBA5
:10392000F1F0401CC0F30B001CE0A268F2B301EB05
:10393000C10303EB0116431EB3FBF6F35B1C43F418
:1039400080431B0549D092B301EBC10202EB011188
:10395000401EB0FBF1F0401CC0F30B0040F480406F
:1039600040F400402168CA694CF6FF739A43104343
:10397000C861D4E9071001432068026822F0C00240
:1039800011430160D4E9030101432068826848F2D1
:10399000FF339A4311438160D4E90501084321684C
:1039A000CA6822F0FF021043C86001E00EE016E092
:1039B0002068016841F0010101602564202084F83D
:1039C0003D00256384F83E50002070BD01EB4106A8
:1039D000431EB3FBF6F35B1CB3E70120C2E701EB28
:1039E0004101401EB0FBF1F0401CC0F30B00B7E7F3
:1039F000A086010080841E0000093D0040420F00A7
:103A00002DE9FF4F83B09A46DDE9119793460446AE
:103A1000DDF84080FFF72AFF054694F83D00202896
:103A20007FD11923012240492046009501F0FCFA7C
:103A3000002876D194F83C00012872D0012084F847
:103A40003C0020680168C90703D1016841F0010109
:103A500001602068016821F400610160212084F880
:103A60003D00402084F83E0000262664C4F82480EF
:103A7000A4F82A90608D20852C48E062CDE900757D
:103A800053465A462046049901F04EFA70B930E088
:103A90002A463946204601F06DFB58B1206C0428B7
:103AA00004D12068016841F400710160012007B071
:103AB000BDE8F08F606A216800780861606A401C88
:103AC0006062218D491E89B22185628D521E6285F8
:103AD00022685369DB435B070BD469B1007810613E
:103AE000606A401C6062208D401E2085608D401EF3
:103AF0006085208D0028CBD12A463946204601F02A
:103B000067FA0028CAD154F83D0B016841F40071EE
:103B10000160202004F81E09E67766770020C6E7DA
:103B2000FFE70220C3E70000020010000000FFFFD3
:103B300010B586B0044614216846FCF7B8FF144956
:103B40002068884221D113480021026842F0020215
:103B50000260006800F0020005904FF440600090A1
:103B60001220CDE90101032003900420049069464E
:103B70000948FFF77DFD07481030016841F48001D6
:103B80000160006800F48000059006B010BD0000E0
:103B9000005800403038024000040240024881686A
:103BA00002781144816070479C0100200B4810B5D9
:103BB000016841F400710160016841F480610160B5
:103BC000016841F480710160032000F09FF80F202C
:103BD00000F006F800F050F8002010BD003C024054
:103BE00030B505461F4887B00024016841F0100138
:103BF0000160006806A900F01000009001A800F024
:103C000031F90498A8B100F04DF940001649174A5F
:103C1000B0FBF1F11648491E026040F2E732C0E9FC
:103C20000324C0E90114846100F0B6FB040003D052
:103C300015E000F037F9E9E70D4800F0EFFB04006C
:103C40000DD1362000F034F8102D07D2002229467D
:103C5000362000F03BF80748056000E0012407B07B
:103C6000204630BD4038024040420F000010004066
:103C70006C090020A00100200C4882B0016841F4CA
:103C800080410160006800F4804000900748001FF8
:103C9000016841F0805101600068002200F080500E
:103CA00000900F21901E02B000F010B8443802407E
:103CB000002809DB00F01F0201219140400980002B
:103CC00000F1E020C0F8001170470000F0B40E4B86
:103CD0001B680C46C3F30223C3F10705042D00D96A
:103CE0000425191D072901D2002300E0DB1E01264F
:103CF00006FA05F1491E214099409E40761E164065
:103D00003143F0BC03F0B2BA0CED00E0064900F01C
:103D1000070208684FF6FF03184040EA0220034AF2
:103D200010430860704700000CED00E00000FA0549
:103D30002DE9F0470E46050065D0DFF81481D8F86C
:103D40000000F7B200F00700B04207D288F8007018
:103D5000D8F8000000F00700B04254D128683D4C6C
:103D6000810712D5400703D5206840F4E050206059
:103D70002878000703D5206840F460402060206860
:103D8000A96820F0F000084320602878C0072DD0F3
:103D9000304968680839012812D0022813D0032856
:103DA00011D00968890700292DDA216821F0030163
:103DB00001432160FFF75AFD814641F2883A0EE047
:103DC00009688903EFE709688901ECE7FFF74EFD11
:103DD000A0EB0901514502D90320BDE8F087206816
:103DE000696800F00C00B0EB810FEFD1D8F800103B
:103DF000404601F00701B14207D90770006800F0A2
:103E00000700B04201D00120E7E72878400705D538
:103E10002068E96820F4E050084320602878000713
:103E200006D52068296920F4604040EAC10020607E
:103E300000F058F82168084AC1F30311515CC840EA
:103E40000649086006480068FFF7CAFE0020C4E77C
:103E5000003C024008380240C0AD0008A801002024
:103E6000A00100200F2202600C4A136803F0030334
:103E70004360136803F0F0038360136803F4E053B6
:103E8000C36012684FF4E05303EAD20202610448AF
:103E9000006800F007000860704700000838024022
:103EA000003C02400448054900680968044AC1F31F
:103EB0008221515CC8407047A801002008380240A8
:103EC000D0AD00080448054900680968044AC1F3F8
:103ED0004231515CC8407047A801002008380240B8
:103EE000D0AD0008154810B5006810F00C02144859
:103EF00013D04110042A0FD0082A0ED10F4C241FD2
:103F00002268236802F03F025B0207D52068C0F3F5
:103F10008810A0FB010106E0084610BD2168C1F32E
:103F20008811A1FB00010023FCF774FA2168C1F39A
:103F30000141491C4900B0FBF1F010BD08380240B6
:103F40000024F4002DE9F84F04006ED02078DFF84B
:103F50004C93C007A9F104054AD009F10400016897
:103F6000C1F38101012908D00068C0F38100022853
:103F70000AD1D9F80000400206D52868800337D559
:103F800060680028E1D033E06068B0F5803F10D071
:103F9000B0F5A02F286810D020F480302860286861
:103FA00020F4802028606068A8B1FFF75FFC064617
:103FB0000DE0286840F48030F4E740F48020286069
:103FC000F7E700BFFFF752FC801B642873D828680E
:103FD0008003F7D50CE0FFF749FC064605E000BF7B
:103FE000FFF744FC801B6428F0D828688003F7D4CE
:103FF0002078DFF8AC8280074FF0000A3ED5A74852
:10400000001D016811F00C0F08D00068C0F381009A
:1040100002280BD1D9F80000400207D42868800795
:1040200016D5E068012800D112E033E1E068B8B1AC
:104030000120C8F80000FFF719FC064605E000BFA4
:10404000FFF714FC801B0228C0D828688007F7D52A
:104050002868216920F0F80040EAC10028600DE0DE
:10406000C8F800A0FFF702FC064604E0FFF7FEFBDD
:10407000801B02281FD828688007F7D42078000703
:1040800022D5864F87486169703771B1012101607F
:10409000FFF7ECFB064604E0FFF7E8FB801B022875
:1040A00009D838688007F7D50EE0C0F800A0FFF700
:1040B000DDFB064605E082E0FFF7D8FB801B022807
:1040C0007DD838688007F7D42078400768D5DFF8B6
:1040D000CCB100270BF13C0BDBF80000C0000BD487
:1040E000DBF8001041F08051CBF80010DBF8000045
:1040F000012700F0805000906B4E3068C00510D44E
:10410000306840F480703060FFF7B0FB009005E04D
:10411000FFF7ACFB0099401A022850D83068C00560
:10412000F6D55E4EA0686C3601280FD005283068A1
:1041300010D020F001003060306820F004003060C2
:10414000A068B8B1FFF792FB00900FE0306840F034
:104150000100F4E740F004003060F7E7FFF786FB6A
:104160000099411A41F28830814266D83068800750
:10417000F4D50EE0FFF77AFB009007E0FFF776FB3F
:104180000099411A41F28830814256D83068800740
:10419000F4D42FB1DBF8001021F08051CBF80010DF
:1041A000A069C8B33D49091D0968C1F3810102290D
:1041B0004AD00228504607D0C8F8600000E03CE032
:1041C000FFF754FB04463BE04746C8F86000FFF7A2
:1041D0004DFB064605E000BFFFF748FB801B0228A9
:1041E0002BD828688001F7D4D4E907010843A16AD5
:1041F0002E4A490802EB0141626A41EA82110843F2
:1042000094F82C1040EA0161C9F8001001203866CA
:10421000FFF72CFB044606E03EE000BFFFF726FB5D
:10422000001B022809D828688001F7D534E000BFB8
:10423000FFF71CFB001B022802D90320BDE8F88F02
:1042400028688001F4D427E00128F7D0D9F80000CD
:10425000E26900F4800191421CD1226A00F03F0122
:10426000914217D147F6C071626A0140B1EB821FDB
:1042700010D1A26A4FF0FF3300F4403103EB520239
:10428000B1EB024F06D194F82C1000F07060B0EB47
:10429000016F01D00120D1E70020CFE704380240B0
:1042A00000004742800E4742007000400000FFFFC0
:1042B0007047704710B590F83C20012A22D00122A7
:1042C00080F83C20CA688C6822F4407222434C6813
:1042D00022F4806222430C6822F4006222430C69BB
:1042E00022F4805222434C6922F400522243C969CD
:1042F000002322F480420A4301684A6480F83C307B
:10430000002010BD022010BD70B590F83C20012A9D
:1043100032D0012480F83C40022280F83D2003681E
:104320005A689D6822F070060A6832435A60134B3F
:1043300002689A4214D0B2F1804F11D0104B9A42C9
:104340000ED0104B9A420BD00F4B9A4208D00F4B15
:104350009A4205D00E4B9A4202D00E4B9A4204D19B
:10436000496825F080031943916080F83D400021A1
:1043700080F83C10084670BD022070BD000001406E
:104380000004004000080040000C00400004014010
:10439000004001400018004010B5040003D094F81C
:1043A0003D0010B107E0012010BD002084F83C0062
:1043B000204600F01FF8022084F83D00211D2068EF
:1043C00002F0F4F9012084F8460084F83E0084F8F5
:1043D0003F0084F8400084F8410084F8420084F8EB
:1043E000430084F8440084F8450084F83D00002030
:1043F00010BD000008B500680649884208D106488B
:10440000016841F020010160006800F02000009088
:1044100008BD0000001400404038024090F83D10F4
:10442000012901D001207047022180F83D10016868
:10443000CA6842F00102CA6000681149884214D07B
:10444000B0F1804F11D00F4988420ED00E498842FA
:104450000BD00E49884208D00D49884205D00D493D
:10446000884202D00C49884204D1816801F00701DA
:10447000062903D0016841F0010101600020704766
:10448000000001400004004000080040000C004013
:1044900000040140004001400018004070472DE931
:1044A000F04104460068C66805694FF00007A90797
:1044B00013D5B10711D5F91E0161012020772068BD
:1044C00080698007204602D0FFF7E8FF04E000F093
:1044D000E7F8204600F094F92777680716D57007AB
:1044E00014D521686FF0040008610220207720684D
:1044F000806910F4407F204602D0FFF7CFFF04E030
:1045000000F0CEF8204600F07BF92777280715D574
:10451000300713D521686FF0080008610420207768
:104520002068C0698007204602D0FFF7B7FF04E08B
:1045300000F0B6F8204600F063F92777E80616D5B4
:10454000F00614D521686FF010000861082020776C
:104550002068C06910F4407F204602D0FFF79EFF1C
:1045600004E000F09DF8204600F04AF92777E807BC
:1045700008D0F00706D021686FF0010008612046DE
:1045800000F040F9280608D5300606D521686FF0FE
:10459000800008612046FFF78BFE680608D570068C
:1045A00006D521686FF040000861204600F034F91C
:1045B000A8060AD5B00608D521686FF0200008616A
:1045C0002046BDE8F041FFF774BEBDE8F081000071
:1045D000F0B587B0044614216846FCF768FA2A4A09
:1045E0002068002429490225294E90420FD10868ED
:1045F00040F00200086008680095CDE9015400F021
:104600000200CDE9045069460394304637E0214A60
:10461000904236D1086840F001000860086800F058
:1046200001000590086840F002000860086800F08A
:1046300002000590086840F004000860086803273D
:1046400000F00400059020200090CDE90154CDE950
:10465000034769461048FFF70BF801200090CDE9A9
:104660000154CDE9034769463046FFF701F83802A7
:104670000090CDE90154CDE9034769460748FEF7AC
:10468000F7FF07B0F0BD00000004004030380240E2
:104690000004024000040140000002400008024003
:1046A000704770B5044690F83C0000260D4601287E
:1046B0000FD0012084F83C006AB1042A1DD0082ADA
:1046C0002FD00C2A3FD00126002084F83C00304631
:1046D00070BD022070BD206802F0D0F820688169AA
:1046E00041F0080181612068816921F00401816144
:1046F000206881692A69114311E0206802F0EEF810
:104700002068816941F4006181612068816921F438
:1047100080618161206881692A6941EA02218161A1
:10472000D2E7206802F010F92068C16941F0080161
:10473000C1612068C16921F00401C1612068C169BB
:104740002A69114311E0206802F032F92068C1693A
:1047500041F40061C1612068C16921F48061C161D7
:104760002068C1692A6941EA0221C161ACE710B53C
:10477000040003D094F83D0010B107E0012010BD03
:10478000002084F83C00204600F01EF8022084F847
:104790003D00211D206802F009F8012084F8460040
:1047A00084F83E0084F83F0084F8400084F841001B
:1047B00084F8420084F8430084F8440084F84500FB
:1047C00084F83D00002010BD08B500680949884202
:1047D00001D1094804E00949884209D10648001D71
:1047E000016841F002010160006800F002000090E1
:1047F00008BD0000000400404038024000040140B1
:104800007047000000680349884201D1FFF7C6B92C
:10481000704700000010004070477047704700006C
:10482000F8B5016804460868CA684B6910F00F0FB4
:104830004FF0000559D003F0010602F4907737439A
:1048400065D0C10705D0D10503D5616C41F00101E8
:104850006164410705D5D90703D0616C41F00201BD
:104860006164810705D5D90703D0616C41F004016B
:104870006164010707D502F02001314303D0616C68
:1048800041F008016164616C00293AD0800604D5CA
:10489000900602D5204602F05DF920684069616CFF
:1048A000C0F38010090700D460B3204602F02BF952
:1048B00020684069400621D52068143050E8001F68
:1048C00021F0400140E80012002AF5D1E06BA8B1C8
:1048D00072490165E06BFEF7A6FE002811D0E06B7F
:1048E000016D01B0BDE8F040084783060FD593067F
:1048F0000DD52046BDE8F84002F02CB92046FFF760
:104900008DFFF8BD2046FFF789FF6564F8BD266B73
:104910002023012E7ED1C6067CD5D6067AD508681E
:104920004868009048694FF0020640064DD5E26B9A
:10493000106840684FF480770004000C3AD0A18DD5
:10494000814237D9E085D069B8422DD020680C303B
:1049500050E8001F21F4807140E80012002AF5D1D0
:104960002068143050E8001F21F0010140E80012D7
:10497000002AF5D12068143050E8001F21F04001D2
:1049800040E80012002AF5D184F8423025632068FF
:104990000C3050E8001F21F0100140E80012002AFE
:1049A000F5D1E06BFEF7F6FD6663A08DE18D401A50
:1049B00081B206E0A18D8142A8D1D069B842A5D1CB
:1049C00066632046FFF729FFF8BDA08DE18D401AF0
:1049D00081B2E08D0028F7D00029F5D020680C3096
:1049E00050E8002F22F4907240E80027002FF5D104
:1049F0002068143050E8002F22F0010240E8002720
:104A0000002FF5D184F84230256320680C3050E83F
:104A1000002F00E006E022F0100240E80023002B07
:104A2000F3D1CDE705062BD5150629D594F841001D
:104A30002128C9D1A068B0F5805F01D12069B0B14B
:104A4000206A411C2162216800784860E08C401E89
:104A50000004000CE084B7D12068C16821F0800117
:104A6000C1602068C16841F04001C160F8BD206AA2
:104A70000088C0F308004860206A801C2062E5E7D7
:104A80004006F3D55006F1D5CA68204622F0400210
:104A9000CA6084F8413000F0AAF9F8BDF96A00084C
:104AA00070B5040004D094F84100002510B106E070
:104AB000012070BD84F84050204600F023F82420E7
:104AC00084F841002068C16821F40051C16020468B
:104AD00002F0A2F82068016921F490410161206888
:104AE000416921F02A0141612068C16841F4005107
:104AF000C1606564202084F8410084F84200656349
:104B0000002070BD2DE9F04F87B00446142168469F
:104B1000FBF7CDFF8349824823680024814A10397E
:104B2000032502260827DFF800B283421FD1106850
:104B300040F400201060106800F400200590086820
:104B400040F0010008600868CDE9005600F001005F
:104B5000CDE9047069465846CDE90245FEF788FD67
:104B6000002206213420FFF7B1F8342035E0DFF8C9
:104B7000BCC16F48634535D1136843F4801313609B
:104B8000126802F4801205920A6842F004020A6078
:104B90000A6802F0040205920A6842F008020A60FC
:104BA000096802AB01F0080105918114CDE90016F6
:104BB00083E8B0006946FEF75BFD0420CDE90006FE
:104BC00002AB694683E8B0005A48FEF751FD002267
:104BD00006213520FFF77AF83520FFF769F807B08E
:104BE000BDE8F08FDFF85081DFF838914FF0C00A50
:104BF00009F104094FF0070C434522D1D9F80020F0
:104C000042F01002C9F80020D9F8000000F01000AE
:104C10000590086840F0020008600868694600F0E6
:104C20000200CDE904C0CDE900A64448CDE9024523
:104C3000FEF71EFD002206212520FFF747F825205C
:104C4000CBE7DFF8FC80434520D1106840F400300A
:104C50001060106800F400300590086840F0010012
:104C60000860086802AB00F0010005900C20CDE957
:104C7000000683E8301069465846FEF7F9FC00222A
:104C800006212620FFF722F82620A6E7DFF8B480C9
:104C9000434520D1136843F480231360126802F463
:104CA000802205920A6842F004020A60096802AB99
:104CB00001F0040105914FF44061CDE9001683E84D
:104CC00030106946FEF7D4FC002206212720FEF7AB
:104CD000FDFF272081E71C4A934280D1D9F800309C
:104CE00043F02003C9F80030D9F8002002F0200278
:104CF00005920A6842F004020A600968CDE902459B
:104D000001F00401CDE90471CDE900A66946FEF782
:104D1000AFFC002205214720FEF7D8FF47205CE7C3
:104D2000004C00404038024000000240005000406B
:104D300000080240000C0240001001400004024044
:104D400000440040004800400014014070472DE935
:104D5000F843044690F84100984616460D46202830
:104D600002D00220BDE8F88385B17EB100206064E6
:104D7000212084F84100FEF779FDA6848146E6846F
:104D8000A0682027B0F5805F02D003E00120E9E7AA
:104D9000206910B12E4600250EE000260CE080218F
:104DA000204601F0BFFFA8B9C6B116F8010B216873
:104DB0004860E08C401EE084E08C4B464FF00002DF
:104DC000CDF800800028EAD14FF04001204601F0E4
:104DD000A9FF40B184F841700320C3E735F8020B06
:104DE000C0F30800E3E784F841700020BAE7704799
:104DF000FEF72CBC08B5144802F024F9002822D193
:104E0000124802F0FDF800281DD1114802F010F9F7
:104E1000002818D1502102F0FDF8002813D10E20EF
:104E200002F01AF900280ED1062002F03FF90028FE
:104E300009D108480068016841680091C16841F0E3
:104E40002001C160002008BDE94E0008F14D0008B6
:104E5000E54E0008B00700200A2310B500221146D5
:104E6000445C491C224489B2D2B29942F8D3817A77
:104E7000914230D1017855292DD1417853292AD139
:104E8000B0F90210DFED140A00EE101A1449B8EE62
:104E9000C00A20EE201A9FED110A21EE001A81EDC2
:104EA000011AB0F9042001EE102AB8EEC11A21EE61
:104EB000201A21EE001A81ED021AB0F9060001EE67
:104EC000100A0120B8EEC11A61EE200A20EE800A15
:104ED00081ED030A087010BD000000380000344363
:104EE00028000020704700008AB201466423014870
:104EF000FFF72DBFB0070020FEE701684A69D243E3
:104F000052050FD46FF480624A61002140F8301FCF
:104F1000202242738173026942F00402026101732C
:104F200001207047002070472DE9F84304460068CF
:104F30000D46DDE9089701689846164641F48071F0
:104F400001604B4600224FF001112046009700F00F
:104F50006BF848B120680068C00502D54FF40070B6
:104F600020640320BDE8F883216805F0FE00086195
:104F70003B464A461549204600F09EF888B920680D
:104F80004169806900903A464946204600F0F2F8AF
:104F900048B1206C042804D12068016841F40071F4
:104FA00001600120DEE7F5B2B8F1010F09D02168F8
:104FB000300A08613A464946204600F0DBF80028EE
:104FC000E7D1206805610020CCE700000200010065
:104FD00070B516460D4604461EE02046FFF78DFFCD
:104FE00008B1012070BD681C16D0FEF73FFC801B85
:104FF000A84200D885B920684069C04340070BD556
:10500000002044F8300F20216173A073216941F022
:10501000200121612073E4E720684069C043400714
:10502000DBD4002070BD00002DE9F04798461746FC
:105030000D460446C1F30746DDF820902AE000BF84
:10504000B8F1FF3F26D0FEF711FCA0EB0901414566
:1050500002D8B8F1000F1DD12068012E16D080694A
:1050600025EA00000004000C12D00020B84211D143
:10507000002044F8300F20216173A073216941F0B2
:105080002001216120730120BDE8F0874069E7E736
:105090000120EBE72068012E0AD0806925EA000094
:1050A0000004000C06D00020B842C9D00020EBE775
:1050B0004069F3E70120F7E72DE9F04798461646E7
:1050C0000D4604464FF000094FF0200AC1F3074790
:1050D00023E020684069C043400515D4206801687A
:1050E00041F40071016021686FF480604861C4F888
:1050F000309084F83DA084F83E90216C41F004018A
:10510000216484F83C9021E0701C06D0FEF7AEFBD1
:10511000A0EB0800B04203D816B1012F1FD021E048
:105120002068012F15D0806925EA00000004000CDA
:1051300018D000BF44F8309F84F80DA084F80E907A
:10514000216941F02001216184F80C900120BDE823
:10515000F087406925EA00000004000CEAD12068CD
:10516000406901E02068806925EA00000004000C25
:10517000AFD1ECE770B516460D4604461EE020465A
:10518000FFF7BBFE08B1012070BD681C16D0FEF70A
:105190006DFB801BA84200D885B920684069C043D8
:1051A00000060BD5002044F8300F20216173A07356
:1051B000216941F0200121612073E4E72068406902
:1051C000C0430006DBD4002070BD00001CB505A163
:1051D000D1E90001CDE900010521684600F072F82F
:1051E0001CBD0000AA180102C50000001CB505A1E5
:1051F000D1E90001CDE900010621684600F062F81E
:105200001CBD0000AA19020002C7000008B504A0D6
:10521000042100680090684600F054F808BD0000C2
:10522000AA1000BAF0B58DB00E46074615463021DB
:105230006C4601A8FBF73BFC19480B210068009065
:105240008DF801708DF8021004208DF803600021A4
:105250006A5C2254401C491CC9B2C0B20629F7D36B
:105260002A212154401CC0B23F212154401CC0B20D
:105270002154401CC0B22154401CC1B2002005E0A2
:10528000235C625C401C1A446254C0B28842F7D36B
:10529000491CC9B2684600F015F80DB0F0BD000019
:1052A000F0AC00080A4601460820FFF7BBBF0A46DB
:1052B00010B501461720FFF7B5FFBDE810400A20E2
:1052C000FEF7C4B90A4601464FF0FF330148FFF725
:1052D0003EBD0000D008002010B51B4802F01DFEA6
:1052E0001A4C194A0021E061FC3A194802F06AFEA2
:1052F000154A2060D83A0021164802F063FE124A8F
:105300006060B43A0021144802F05CFE0E4AA060CE
:10531000903A0021114802F055FE0B4AE0606C3AC9
:1053200000210F4802F04EFE074A2061483A002152
:105330000C4802F047FE044A6061243A00210A4802
:1053400002F040FEA06110BDE0AC00089800002013
:1053500041650008496500087D6600089D660008F3
:10536000B1660008CD660008D566000830B587B084
:1053700014216846FBF79BFB1E480024016841F09E
:1053800080010160016801F080010591016841F030
:1053900001010160016801F001010591016841F01E
:1053A00002010160016801F002010591016841F00C
:1053B00004010160016801F004010591016841F0F8
:1053C0000801016000680C4D00F008000590012202
:1053D00030212846FEF744FA302000901120CDE914
:1053E00001040120039069462846FEF741F907B001
:1053F00030BD000030380240000402400D4810B5B6
:105400000B4901600C49416000214FF480428160EA
:10541000C0E9031241618161C1610162FEF72CFAAA
:10542000002803D0BDE81040FEF7A4B810BD00006E
:105430000058004084060020A086010010B58AB004
:10544000002407941C2168460894FBF730FB16489B
:1054500014490160A721C0E9011444F61F61C0E9A5
:1054600003148461FFF783F908B1FEF783F807940A
:1054700007A90D480894FEF747FF08B1FEF77AF830
:105480006020CDE9000402940C2269460648049489
:10549000FFF707F908B1FEF76DF80348FFF798F832
:1054A0000AB010BD00040040D80600201CB500243E
:1054B0000E4800940C49019401605321C0E9011485
:1054C00042F20F718461C160FEF766FF08B1FEF71A
:1054D00051F80094694605480194FEF715FF00282D
:1054E00001D0FEF747F81CBD001400402007002043
:1054F00010B592B000240F941C2168461094FBF75D
:10550000D6FA202107A8FBF7D2FA2C482A490160D5
:10551000A721C0E901144FF6FF71C0E903144461EB
:105520008461FFF724F908B1FEF724F80F940FA95E
:1055300022481094FEF7E8FE08B1FEF71BF8602041
:10554000CDE9000402940394049405940022694672
:105550001A480694FFF7A5F808B1FEF70BF80422E5
:1055600069461648FFF79DF808B1FEF703F80822D0
:1055700069461248FFF795F808B1FDF7FBFF0C22CA
:1055800069460E48FFF78DF808B1FDF7F3FF079461
:10559000089409944FF400500A94CDE90B4007A9F0
:1055A00006480E94FEF786FE08B1FDF7E3FF0348B8
:1055B000FFF70EF812B010BD00040140680700208C
:1055C0000C4810B50A4901604FF4E13141600021F7
:1055D00081600C22C160C0E904128161C161FFF7E2
:1055E0005FFA002803D0BDE81040FDF7C3BF10BD2F
:1055F000004C0040B007002010B50E4C0C480C21A8
:1056000020604FF4E13060600020A060E060C4E9F9
:105610000401A061E0612046FFF742FA08B1FDF7FE
:10562000A9FF2068C16841F02001C16010BD0000E1
:1056300000500040F80700200C4810B50A490160EE
:105640004FF4E1314160002181600C22C160C0E96A
:1056500004128161C161FFF723FA002803D0BDE87D
:105660001040FDF787BF10BD00100140400800202A
:105670000C4810B50A4901604FF4612141600021D6
:1056800081600C22C160C0E904128161C161FFF731
:1056900007FA002803D0BDE81040FDF76BBF10BD2E
:1056A00000440040880800200C4810B50A490160F9
:1056B0004FF416514160002181600C22C160C0E9A5
:1056C00004128161C161FFF7EBF9002803D0BDE846
:1056D0001040FDF74FBF10BD00480040D00800202B
:1056E00010B50E4C0C480C2120604FF4E130606086
:1056F0000020A060E060C4E90401A061E0612046F0
:10570000FFF7CEF908B1FDF735FF2068C16841F019
:105710002001C16010BD00000014014018090020E4
:10572000FEE7000038B51A4C042217A1E068FBF729
:1057300013F930B1042217A1E068FBF70DF9002836
:1057400020D19FED160A8DED000A0DE06A4614A1E6
:10575000FBF738F8009804F02DFC41EC100B11A079
:1057600053EC102B00F0D2FE11A10020FBF7EEF855
:105770000028EBD10F489DED000A80ED000AE1689A
:105780000020087038BD0000D2C6B6AF000000008F
:10579000800100206D6F76650000000000000000B1
:1057A000256600006D6F766520252E32660D0A0095
:1057B0002C00000064000020FEE7000070B53748B0
:1057C000DFED370A9FED371A2DED028B90ED020ABF
:1057D000243060EE200A80EE810AD0ED020A30EE1D
:1057E000C00A00F011FAB0EE408A2F49B0EEC80AA4
:1057F00010EE100A2D4C884206DA00F057FA00200D
:10580000E070BDEC028B70BDE078DFED298A0328E3
:1058100004D0C4ED078A03F0CBFF20620320E070C0
:1058200003F0C6FF0546206A9FED221A281A00EEF3
:10583000100AF8EE400A80EE810AB5EEC00AF1EED9
:1058400010FA04D910EE100A1B49884201DD9FEDC1
:105850001B0AD4ED070A9FED1A1A1A4978EE600A5E
:1058600020EE811AC1EE000AB0EE000A48EE400AAE
:1058700010EE900A884202DDDFED130A06E010EE1A
:10588000900A1249884201D9DFED110AB0EE680A88
:10589000FDF7B6FC84ED078A2562B2E730020020EE
:1058A000DB0F4940000034430AD7A33C38000020F6
:1058B0000000000000007A44CDCCCC3D0AD7233C48
:1058C000CDCCCCBD9A99193F9A99193F9A9919BF95
:1058D0009A9919BF70B54E482DED048BA0F124059F
:1058E00090ED000AD5ED000A70EE609A90ED010A85
:1058F000D5ED010A30EE609A29EEA90A09EE090AEF
:1059000002F042F8F0EE408A9FED428A18EE900ACB
:10591000414E9FED420A424CB0420ADA0320207009
:10592000F0EE400AFDF76CFC0020A070BDEC048B8B
:1059300070BDA078022804D084ED050A03F038FF7A
:10594000A0610220A070F0EE490AB0EE690A01F0F1
:105950001BFDD5ED020A9FED331A60EE810A9FED23
:10596000321AC0EE811A30EE610A00F04DF9B0EE45
:10597000409A03F01DFFA1690546401A00EE100A87
:105980009FED2A1AF8EE400A80EE810AB5EEC00AB1
:10599000F1EE10FA04D910EE100A2549884201DD13
:1059A0009FED240AD4ED050A9FED231A234979EED1
:1059B000600A20EE811AC1EE000AB7EE080A49EE2D
:1059C000400A10EE900A884202DDDFED1D0A06E073
:1059D00010EE900A1B49884201D9DFED1B0A18EE30
:1059E000900A1A4988420BDAB0EE480A28EE801A6B
:1059F00081EE008A18EE100AB04201DAB3EE048A92
:105A0000B0EE480AFDF7FCFB84ED059AA5618DE731
:105A100054020020000048430000A04100000000A4
:105A200038000020DB0F49400000344300007A4476
:105A3000CDCCCC3D0AD7233CCDCCCCBDCDCC4C3F3E
:105A4000CDCC4C3FCDCC4CBFCDCC4CBF000048435F
:105A500070B5494C2DED048B60789FED489A012874
:105A600017D0474800F10C0190ED010AD1ED010A71
:105A700091ED001A70EE600A90ED000A30EE410AD6
:105A800001F082FC84ED020A84ED039A03F090FE9B
:105A90002061012060703A48DFED3A0A243890ED29
:105AA000020A20EE200ADFED380A80EE201A94ED7B
:105AB000020A30EE410A00F0A7F8B0EE408A3349FE
:105AC000F0EEC88A18EE900A884206DA02202070AA
:105AD00000206070BDEC048B70BD03F069FE0546CC
